:060000000A128A11122809
:10000800FE00030EF7000408F8000A08F90083123E
:1000180003137F08FA000A128A11712B0A128A1137
:100028001528FB01FC01FD01EE01EF018313A0304F
:100038008400C8300A128A1569240A128A118316A4
:1000480003130A128A1567240A128A11C8000A12B1
:100058008A156824C90083010A128A15BE2C8312E6
:1000680003132F08B5003008B6003108B700031095
:10007800360D370DB8003808BB003208B500330814
:10008800B6003408B7000310360D370DB80038082D
:10009800BA003B0803195C283A083B020318632896
:1000A8003B03FF3A3A07B50019303502031C6328B1
:1000B8003208AF003308B0003408B10008003A082D
:1000C800031908003B083A02031872283A03FF3A5A
:1000D8003B07B50019303502031808000630B50093
:1000E8003508B900B11BB917B41B3917B017FF3061
:1000F800AF05FF30B0050030B105B317FF30B205CA
:10010800FF30B3050030B4053A083B020318B228A3
:1001180001300310B20DB30DB40DFF3E031D8D2841
:100128000130BA023A083B060319AD280130B9027A
:10013800390807390319AD288C2801300310B10C90
:10014800B00CAF0CFF3E031DA2280130B5003508E6
:10015800BB073B083A060319DB28A1283B083A02EB
:100168000318DB2801300310AF0DB00DB10DFF3EB1
:10017800031DB7280130BB023A083B060319D728EC
:100188000130B902390807390319D728B6280130D0
:100198000310B40CB30CB20CFF3E031DCC28013085
:1001A800B5003508BA073B083A06031DCB28B91F26
:1001B800ED28FF30AF06FF30B006FF30B106013042
:1001C800AF07003003180130B007003003180130C2
:1001D800B107391FFF28FF30B206FF30B306FF30E2
:1001E800B4060130B207003003180130B3070030FD
:1001F80003180130B407B9012F08B20730080311FA
:100208000318300A031DB307310803110318310A14
:10021800031DB407B41F2229FF30B206FF30B3060E
:10022800FF30B4060130B207003003180130B307BD
:10023800003003180130B407B901B90A3208A00028
:100248003308A1003408A2003B08B5003508A30014
:100258003908B6003608A4000A128A115B268312F0
:1002680003132008AF002108B0002208B1000800DD
:10027800831203135008803AFF0081307F02031D68
:100288004729F5304F02031C8D29D83083120313F8
:10029800A0000930A1004F08883EA20050080318AA
:1002A800013EFE3EA3000A128A112E270A128A1165
:1002B800831203132108D5002008D4005508A10093
:1002C8005408A0000130A2000030A3000A128A11CD
:1002D8002E270A128A11831203132108AA00200864
:1002E800A9000A128A1580250A128A11831203139B
:1002F8002908CC002A08CD002B08CE000A128A153E
:10030800A5250A128A11831203134D08D7004C0839
:10031800D600831203135008803AFF0081307F0211
:10032800031D9829F5304F020318F5290C30831264
:100338000313BC003A30BD004630BE004A30AF005F
:10034800F130B000C030B1005008AA004F08A90031
:100358000A128A1580250A128A11831203132908A2
:10036800B2002A08B3002B08B4000A128A113320FD
:100378000A128A11831203132F08BF003008C00025
:100388003108C1000A128A11B9220A128A1183128D
:1003980003133C08D1003D08D2003E08D3005108A1
:1003A800BC005208BD005308BE000030BF008030BA
:1003B800C0003F30C1000A128A11B9220A128A11FC
:1003C800831203133C08CC003D08CD003E08CE0044
:1003D8000A128A15A525831203134D08D7004C0865
:1003E800D600831203135708D0005608CF00080020
:1003F80083120313E901EA01E501E601EC01ED01CD
:10040800E701E8010430E2006208EB006B08031919
:100418000800C330A3000030A400C830A500003095
:10042800A6000A128A15FB260A128A1183120313E0
:100438006D08803AFF0083307F02031D252AE730CC
:100448006C020318472A13300A128A1578270A12F1
:100458008A11831203132308EC070318ED0A2408F2
:10046800ED0767086C07E50068080318680A6D0758
:10047800E6006608E1006508E0000A128A152D25E5
:100488000A128A111A2A003083120313A300A40047
:100498000030A500A6000A128A15FB260A128A1146
:1004A800153083120313E4004B30E300D130E2002F
:1004B800E20B5C2AE30B5C2AE40B5C2A0000C330E5
:1004C80083120313A3000030A4003830A500FF30C6
:1004D800A6000A128A15FB260A128A118312031330
:1004E8006A08803AFF0080307F02031D7D2A5A3057
:1004F800690203188E2A14300A128A1578270A12FC
:100508008A11831203132308E9070318EA0A240847
:10051800EA07722A003083120313A300A4000030F4
:10052800A500A6000A128A15FB260A128A111530A0
:1005380083120313E4004B30E300D130E200E20BF6
:10054800A32AE30BA32AE40BA32A000083120313B4
:100558006C08E7070318E80A6D08E807EC01ED01E5
:10056800E901EA010130EB020A2A831203133F086A
:10057800C2004008C3004108C4000310430D440DE5
:10058800C5004508CA004A08031DD12A0030BC002E
:100598000030BD000030BE0008003C08C2003D0825
:1005A800C3003E08C4000310430D440DC5004508B0
:1005B800CB004B08031DE72A0030BC000030BD000B
:1005C8000030BE0008000030C7000030C80000300E
:1005D800C90089304B07C2004208CA023F08C2005E
:1005E8004008C3004108C40010300310C40CC30CF9
:1005F800C20CFF3E031DF92A4208C5004508CB007E
:100608003C08C2003D08C3003E08C4001030031077
:10061800C40CC30CC20CFF3E031D0B2B4208C500C3
:100628004508CB068030C2004208CB05C017FF3012
:10063800BF05FF30C0050030C105BD17FF30BC0540
:10064800FF30BD050030BE051830C2004208C600A4
:1006580001300310C70DC80DC90DFF3E031D2D2B1A
:100668003E084102031D3E2B3D084002031D3E2B60
:100678003C083F02031C4B2B3C08BF023D08031CEF
:100688003D0FC0023E08031C3E0AC1024714013058
:100698000310BF0DC00DC10DFF3E031D4C2B0130D3
:1006A800C602031D2C2B4708A0004808A1004908D2
:1006B800A2004A08C2004208A3004B08C30043082E
:1006C800A4000A128A115B26831203132008BC00B7
:1006D8002108BD002208BE0008008C1E912B1A08B4
:1006E800F6006E08A03E84007608831380006E082A
:1006F800013E0F39F600760883160313C600460834
:10070800831203136F060319912B831603134608EC
:10071800F600760883120313EE000C1EAD2B831629
:1007280003130C1EAD2B4708B03E8400831300084A
:100738008312031399000130F60076088316031319
:10074800C7070F30F6007608C70547087D06031966
:100758000C120B1D1C2C0B1164308312810001300C
:1007680083160313C2070318C30A0030C307F43003
:10077800F0000130F1004308F3004208F2000A12C9
:100788008A11CD270A128A1170087104031DD42B0F
:10079800013083120313860683160313C201C301B3
:1007A800831203138618061DDD2B861DDD2B061A02
:1007B8001A2C0130F6007608FC077C080A128A1504
:1007C8007A240A128A11031CEF2B8312031386184A
:1007D800EF2B7B16FB117C080A128A157A240A1261
:1007E8008A11031CFD2B831203130619FD2B7B149E
:1007F800FB117C080A128A157A240A128A11031C32
:100808000B2C8312031386190B2CFB14FB117C0889
:100818000A128A157A240A128A11031C1C2C8312C4
:100828000313061A1C2C7B15FB111C2CFC01FB1551
:100838007A0883120313FF0079088A007808840075
:10084800770E8300FE0E7E0E0900831203138801C3
:100858008901831603138801890101300A128A1558
:1008680005250A128A1138300A128A1505250A1236
:100878008A110C300A128A1505250A128A110630C7
:100888000A128A1505250A128A1102300A128A15D7
:1008980005250A128A1101300A128A1505250A123D
:1008A8008A1100300A128A1571240A128A11193025
:1008B8000A128A1189270A128A118312031324083B
:1008C800D9002308D8000A128A11E1250A128A11D0
:1008D80030300A128A1560250A128A111A300A1253
:1008E8008A1189270A128A11831203132408D9004E
:1008F8002308D8000A128A11E1250A128A11293020
:100908000A128A1560250A128A1140300A128A15BD
:1009180071240A128A1116300A128A1189270A12BA
:100928008A11831203132408AF002308AE000A12A9
:100938008A1154250A128A112D300A128A15602547
:100948000A128A11CB3083120313E200ED30E10062
:100958004C30E000E00BAE2CE10BAE2CE20BAE2CE1
:10096800B52C01300A128A1505250A128A11403061
:100978000A128A1571240A128A110F300A128A156E
:1009880060250800831203133C08C0003D08C1001D
:100998003E08C2000310410D420DC3004308C900C0
:1009A8004908031DE02C0030BF000030BE000030B5
:1009B800BD000030BC0008003C08C0003D08C10074
:1009C8003E08C20017300310C20CC10CC00CFF3E19
:1009D800031DE72C4008C3004308C400BD17FF30BF
:1009E800BC05FF30BD050030BE053C08C5003D080C
:1009F800C6003E08C700C8018E30C902C91F222D93
:100A08004908803A8F3E0318122D0030BF0000308D
:100A1800BE000030BD000030BC00080001300310EB
:100A2800C80CC70CC60CC50CFF3E031D132D0130A6
:100A3800C0004008C90703193D2D122D183049027E
:100A4800031C3A2D0030BF000030BE000030BD004E
:100A58000030BC0008000130C0000310C50DC60DF1
:100A6800C70DC80DC00B312D0130C9024908031D3F
:100A78002F2D440803194B2DC509C609C709C809F4
:100A8800C50A0319C60A0319C70A0319C80A480878
:100A9800BF004708BE004608BD004508BC00080066
:100AA800831203132F08B7002E08B600B101B20154
:100AB800B301B401B50127303702103003193602EB
:100AC800031C7F2D3608F03EB60037080318013E98
:100AD800D83EB7000130B0003008B4075F2D3608A3
:100AE800183EB60037080318013EFC3EB700013037
:100AF800B0003008B30703303702E8300319360274
:100B0800031C932D732D36089C3EB6003708031836
:100B1800013EFF3EB7000130B0003008B207003098
:100B28003702643003193602031CA72D872D3608B7
:100B3800F63EB60037080318013EFF3EB700013005
:100B4800B0003008B107003037020A300319360206
:100B580003189B2D3508303E0A128A15DF240A1225
:100B68008A11831203133408303E0A128A15DF24CF
:100B78000A128A11831203133308303E0A128A15A7
:100B8800DF240A128A11831203133208303E0A1234
:100B98008A15DF240A128A11831203133108303EA2
:100BA8000A128A15DF240A128A11831203133608DF
:100BB800303E0A128A15DF240800831203135908ED
:100BC800DF005808DE00DB01DC01DD0103305F02D5
:100BD800E83003195E02031C0A2E5E08183EDE0088
:100BE8005F080318013EFC3EDF000130DA005A08B6
:100BF800DD07EA2D5E089C3EDE005F080318013E13
:100C0800FF3EDF000130DA005A08DC0700305F02DF
:100C1800643003195E02031C1E2EFE2D5E08F63E8C
:100C2800DE005F080318013EFF3EDF000130DA00F6
:100C38005A08DB0700305F020A3003195E02031806
:100C4800122E03305902E83003195802031C332EC0
:100C58005D08303E0A128A15DF240A128A11003014
:100C6800831203135902643003195802031C432EDC
:100C78005C08303E0A128A15DF240A128A110030F5
:100C88008312031359020A3003195802031C532E06
:100C98005B08303E0A128A15DF240A128A11831271
:100CA80003135E08303E0A128A15DF2408008312F7
:100CB800031323080319652E220821042004031DA9
:100CC800782E0030A0000030A1000030A2000800FB
:100CD8000130A5002508A30701300310A20CA10CC0
:100CE800A00CFF3E031D712EFE3022050319932E22
:100CF8006C2E0130A5002508A3070130A00700309D
:100D080003180130A107003003180130A207013091
:100D18000310A20CA10CA00CFF3E031D8C2EFF306B
:100D280022050319A22E7D2E0130A30201300310E3
:100D3800A00DA10DA20DFF3E031D9B2EA11BA82EE9
:100D4800023023020318982E2318B02EFF30A00576
:100D58007F30A105FF30A2050310A30C2308A500CE
:100D6800A601A70110300310A50DA60DA70DFF3E83
:100D7800031DB72E2508A0042608A1042708A204ED
:100D8800240803190800A217080083120313E201BC
:100D9800E3010430E0006008E10061080319E62E71
:100DA8000A128A1568260A128A1183120313200868
:100DB800E2070318E30A2108E3070130E1026108AA
:100DC800031DD42E0430A0000030A1006308A30046
:100DD8006208A2000A128A112E270A128A118312A7
:100DE80003132108E3002008E20000300A128A15E4
:100DF80071240A128A11831203136308803AFF00D0
:100E080080307F02031D0A2F51306202031C232FFA
:100E1800831203136308D0006208CF000A128A11F4
:100E28003C210A128A11831203135008D9004F0873
:100E3800D8000A128A11E1250A128A11292F2430B2
:100E48000A128A1560250A128A111A300A128A159E
:100E58006025080083120313A601A11F3A2FA009D9
:100E6800A109A00A0319A10AA601A60AA31F452FD2
:100E7800A209A309A20A0319A30A0130A40024089D
:100E8800A606A701A8012008210403197C2FA501A3
:100E9800A50AA11B5B2F01300310A00DA10DFF3E79
:100EA800031D502F0130A4002408A5074D2F013041
:100EB8000310A70DA80DFF3E031D5C2F2108230278
:100EC800031D682F20082202031C712F2008A2028C
:100ED8002108031CA303A302271401300310A10C4B
:100EE800A00CFF3E031D722F0130A502031D5B2FCE
:100EF80026080319842FA709A809A70A0319A80A0D
:100F08002808A1002708A000080083120313AB00DB
:100F18008E300A128A153C260A128A11831203138C
:100F28002B080A128A153C260A128A110A128A15F7
:100F380043250A128A1183120313A5002508AC0061
:100F48000A128A1543250A128A1183120313A5006F
:100F58002508AD006230A6006530A500A50BB22FAC
:100F6800A60BB22FB72F831203132D08A500A601D5
:100F78002C08A700A8012708A800A701250827040E
:100F8800A90026082804AA002A08A4002908A30002
:100F98000800700871040319FA2FF501F50AF11B0E
:100FA800E12F01300310F00DF10DFF3E031DD62F88
:100FB8000130F4007408F507D32F71087302031D7C
:100FC800E72F70087202031CEF2F7008F2027108F5
:100FD800031CF303F30201300310F10CF00CFF3E85
:100FE800031DF02F0130F502031DE12F7308F100F6
:060FF8007208F000080081
:1010000008308A000408840A820700346D346D3485
:101010002034643472346934763465346E34203468
:10102000203420342034003430346D346D34203496
:10103000643472346934763465346E340034633425
:101040006D34203449345234203420342034203458
:1010500000343E3431343634303400346D3441346D
:0E106000683400346D34563400342F340034BC
:1018CE000D340F3464008001840A040603190034B9
:1018DE0004066A2C83120313A300A31723080A120B
:1018EE008A1505250800F0000B3070020318FB1D49
:1018FE00822C03140800031008003E3083160313D5
:10190E0086000B178B17043081008B168B1708007F
:10191E0083120313A200A1018C11220893008C1DC7
:10192E00962C1308A0002008A1008C110800831229
:10193E000313981CA62C18121816031008006E0814
:10194E006F06031DAC2C03100800031408000A12C6
:10195E008A15EF250A128A1580300A128A153C263E
:10196E000A128A1584300A128A153C2608000A12B9
:10197E008A1515260A128A150A128A1596260A1231
:10198E008A150A128A11C9260A128A15C32C4030EA
:10199E008316031394002030831203139400D03067
:1019AE00831603138700831203130714871408008A
:1019BE0083120313A200091189100914220888004A
:1019CE00091509110730A1007D30A000A00BED2CE8
:1019DE00A10BED2C0800FF30831603138500813018
:1019EE00831203139F000230831603139F0053309C
:1019FE0083120313A000A00B022D08008312031301
:101A0E00A200091189100910220888000915091170
:101A1E000D30A100FB30A000A00B132DA10B132D38
:101A2E00182D080083160313C401C5010A128A1566
:101A3E00682683120313210883160313C100831231
:101A4E000313200883160313C000080040300A1247
:101A5E008A1571240A128A15831203136108D9009C
:101A6E006008D8000A128A11E1250A128A1501307F
:101A7E000A128A15602508000A128A159E240A1277
:101A8E008A15031C432D8B13831203136F08A03E7C
:101A9E00840083130008A0002008A1000130A000DC
:101AAE002008EF070F30A0002008EF058B17210844
:101ABE00080083120313A400240884000A128A1556
:101ACE0000200A128A15003A03190800240884001F
:101ADE000A128A1500200A128A150A128A15DF24A4
:101AEE000A128A15013083120313A3002308A407D8
:101AFE00632D83120313AE01AA1F8C2DA909AA0907
:101B0E00A90A0319AA0AAE01AE0A2908A0002A08DA
:101B1E00A100A2018E30AC002C08A3002E08AD004F
:101B2E002D08A4000A128A115B26831203132008C3
:101B3E00A9002108AA002208AB0008008312031393
:101B4E004C08B2004D08B3004E08B4000030AF0090
:101B5E000030B0003F30B1000A128A1133200A1251
:101B6E008A15831203132F08BC003008BD003108FC
:101B7E00BE000A128A11C624831203133D08CD003B
:101B8E003C08CC0008008316031348080A128A1575
:101B9E008F240A128A1583120313230824040319AF
:101BAE000800071500008312031307114130A60029
:101BBE00EE30A500A50BE12DA60BE12D00000130A6
:101BCE0083120313A3020030031CA403A402D42D1A
:101BDE00831603138717BF3083120313A000200848
:101BEE0083160313870518151430990018138312E2
:101BFE000313181383160313181283120313981763
:101C0E001816831603130C128C1698160B17C70191
:101C1E00FD0183120313EF01EE0108007F308312E2
:101C2E000313E500D430E400AE30E300E30B1D2EC9
:101C3E00E40B1D2EE50B1D2E242E0A128A1584246C
:101C4E000A128A150A128A15AE240A128A150A1267
:101C5E008A15CE240A128A150A128A15F2240A123D
:101C6E008A150A128A112924080083120313A2006E
:101C7E007D08013E0F3983160313470603193F2EC5
:101C8E008B13831203132208A0007D08B03E84003C
:101C9E002008831380007D08013E0F39A000200824
:101CAE00FD00831603130C168B17213083120313BA
:101CBE00A1007630A000A00B622EA10B622E0000B8
:101CCE00080083120313A901AA011F151F196D2EF7
:101CDE00831603131E0883120313A200063003108B
:101CEE00A20CFF3E031D762E2208A300A4011E089F
:101CFE00A500A6010310A50DA60D0310A50DA60D9A
:101D0E0023082504A70024082604A8002708A900F4
:101D1E002808AA002A08A1002908A00008007B1E96
:101D2E00A92E0A128A11FC210A128A1590308312EA
:101D3E000313AE000130AF000A128A15BC270A1237
:101D4E008A157B127B1CB12E0A128A1536270A12AF
:101D5E008A157B10FB1CB92E0A128A11FC210A125D
:101D6E008A15FB107B1D0800083083120313A30095
:101D7E000030A4000A128A15CA257B1108000A1227
:101D8E008A1568260A128A15831203132108AD00DC
:101D9E002008AC00831603134108803A8312031304
:101DAE00AB002D08803A2B02031DE12E2C08831662
:101DBE00031340020318F22E831203132D08831609
:101DCE000313C100831203132C0883160313C000E0
:101DDE00C401C5010800013083160313C40703189C
:101DEE00C50A0030C507080083120313A801A90114
:101DFE00AA01AB012408A7002708A8002308A70002
:101E0E002708A9002608A7002708AA002508A7006A
:101E1E002708AB0091300A128A153C260A128A1541
:101E2E008312031328080A128A153C260A128A15F1
:101E3E008312031329080A128A153C260A128A15E0
:101E4E00831203132A080A128A153C260A128A15CF
:101E5E00831203132B080A128A153C2608008312DC
:101E6E000313E201E301C330A3000030A400C83025
:101E7E00A5000030A6000A128A15FB260A128A1542
:101E8E00831203136308803AFF008F307F02031D15
:101E9E00522FA030620203186C2F13300A128A15CB
:101EAE0078270A128A15831203132308E2070318F0
:101EBE00E30A2408E3076308E1006208E0000A125F
:101ECE008A152D250A128A15472F00308312031307
:101EDE00A300A4000030A500A6000A128A15FB2656
:101EEE00080083120313AB008E300A128A153C26AB
:101EFE000A128A15831203132B080A128A153C261E
:101F0E000A128A150A128A1543250A128A15831295
:101F1E000313A5002508AC000A128A1543250A12E0
:101F2E008A1583120313A5002508AD006230A600A2
:101F3E006530A500A50BA12FA60BA12FA62F8312EE
:101F4E0003132D08A500A6012C08A700A801270839
:101F5E00A800A70125082704A90026082804AA001E
:101F6E002A08A4002908A30008000A128A151925B8
:101F7E000A128A158316031349080A128A158F242A
:101F8E000A128A15831203132E082F040319F02F39
:101F9E000A128A15C6260A128A158312031307150A
:101FAE0000008312031307114130B100EE30B00070
:101FBE00B00BDF2FB10BDF2F0000013083120313A4
:101FCE00AE020030031CAF03AF022E082F04031D18
:101FDE00CF2F83160313450883120313A400831611
:101FEE000313440883120313A3000A128A15CA2589
:021FFE000800D9
:02400E003A3F37
:00000001FF
