:060000000A128A11122809
:10000800FE00030EF7000408F8000A08F90083123E
:1000180003137F08FA000A128A11FD290A128A11AD
:100028001528FB01FC01FD01831365308400703045
:100038000A128A1559270A128A11A0308400C23080
:100048000A128A15592783010A128A158D2F8312DD
:1000580003132C08B2002D08B3002E08B4000310B7
:10006800330D340DB5003508B8002F08B20030083C
:10007800B3003108B4000310330D340DB500350852
:10008800B7003808031954283708380203185B28C2
:100098003803FF3A3707B20019303202031C5B28D5
:1000A8002F08AC003008AD003108AE000800370852
:1000B800031908003808370203186A283703FF3A7B
:1000C8003807B20019303202031808000630B200AF
:1000D8003208B600AE1BB617B11B3617AD17FF3086
:1000E800AC05FF30AD050030AE05B017FF30AF05E9
:1000F800FF30B0050030B105370838020318AA28C8
:1001080001300310AF0DB00DB10DFF3E031D852862
:100118000130B702370838060319A5280130B6029E
:10012800360807390319A528842801300310AE0CB6
:10013800AD0CAC0CFF3E031D9A280130B20032080A
:10014800B807380837060319D3289928380837021A
:100158000318D32801300310AC0DAD0DAE0DFF3ED2
:10016800031DAF280130B802370838060319CF2815
:100178000130B602360807390319CF28AE280130F6
:100188000310B10CB00CAF0CFF3E031DC4280130A6
:10019800B2003208B70738083706031DC328B61F50
:1001A800E528FF30AC06FF30AD06FF30AE06013063
:1001B800AC07003003180130AD07003003180130D8
:1001C800AE07361FF728FF30AF06FF30B006FF3006
:1001D800B1060130AF07003003180130B007003016
:1001E80003180130B107B6012C08AF072D08031119
:1001F80003182D0A031DB0072E08031103182E0A31
:10020800031DB107B11F1A29FF30AF06FF30B00632
:10021800FF30B1060130AF07003003180130B007D6
:10022800003003180130B107B601B60A2F08A00044
:100238003008A1003108A2003808B2003208A30033
:100248003608B3003308A4000A128A11082483125E
:1002580003132008AC002108AD002208AE000800F6
:100268000130831203135802F4300319570203189C
:1002780098295808A9005708A8000A128A15E827DB
:100288000A128A11831203132808AF002908B00044
:100298002A08B1005C30AC009530AD00C130AE002A
:1002A8000A128A112B200A128A11831203132C08AE
:1002B800BC002D08BD002E08BE00C830B9002A3089
:1002C800BA004630BB000A128A11C2220A128A11E9
:1002D800831203133908DB003A08DC003B08DD0011
:1002E8000030BC008030BD003F30BE005B08B90064
:1002F8005C08BA005D08BB000A128A11C2220A1201
:100308008A11831203133908C9003A08CA003B0846
:10031800CB000A128A117A230A128A118312031354
:100328004A08DA004908D90001305802F4300319A4
:100338005702031CF8295808A9005708A8000A12F0
:100348008A15E8270A128A11831203132808AF00B6
:100358002908B0002A08B1004030AC00B030AD0028
:10036800C330AE000A128A112B200A128A11831296
:1003780003132C08BC002D08BD002E08BE00A030B9
:10038800B9004830BA004530BB000A128A11C222AF
:100398000A128A11831203133908DB003A08DC00B9
:1003A8003B08DD000030BC008030BD003F30BE009F
:1003B8005B08B9005C08BA005D08BB000A128A1124
:1003C800C2220A128A11831203133908C9003A0893
:1003D800CA003B08CB000A128A117A23831203133E
:1003E8004A08DA004908D9005A08D8005908D7003D
:1003F80008008C1E152A1A08F6006C08A03E840016
:100408007608831380006C08013E0F39F6007608E1
:10041800EE006E086D060319152A6E08F6007608B8
:10042800EC000C1E322A831603130C1E322A831288
:1004380003136F08B03E840083130008990001304D
:10044800F6007608EF070F30F6007608EF056F081C
:100458007D06031D322A831603130C120B1DB52AC1
:100468000B116430831281000130E9070318EA0A8E
:100478000030EA07F430F0000130F1006A08F300B8
:100488006908F2000A128A1112260A128A117008E3
:100498007104031D552A0130831203138606E901EE
:1004A800EA017B1E5E2A83120313071500008312DC
:1004B80003130711831203138618061D682A861969
:1004C800061E682A861AB32A0130F6007608FC0749
:1004D8007C080A128A156A270A128A11031C7A2ACA
:1004E8008312031386187A2AFB16FB117C080A125A
:1004F8008A156A270A128A11031C882A8312031391
:100508000619882A7B16FB117C080A128A156A27A5
:100518000A128A11031C962A831203138619962A33
:100528007B14FB117C080A128A156A270A128A11A1
:10053800031CA42A83120313061AA42AFB14FB1112
:100548007C080A128A156A270A128A11031CB52A1E
:1005580083120313861AB52A7B15FB11B52AFC01F1
:10056800FB157A0883120313FF0079088A007808BC
:100578008400770E8300FE0E7E0E0900831203139B
:100588003C08BF003D08C0003E08C1000310400DF4
:10059800410DC2004208C7004708031DDA2A00308F
:1005A800B9000030BA000030BB0008003908BF00AD
:1005B8003A08C0003B08C1000310400D410DC200BD
:1005C8004208C8004808031DF02A0030B90000306E
:1005D800BA000030BB0008000030C4000030C5007D
:1005E8000030C60089304807BF003F08C7023C08F2
:1005F800BF003D08C0003E08C10010300310C10C08
:10060800C00CBF0CFF3E031D022B3F08C20042086E
:10061800C8003908BF003A08C0003B08C1001030C4
:100628000310C10CC00CBF0CFF3E031D142B3F0868
:10063800C2004208C8068030BF003F08C805BD1781
:10064800FF30BC05FF30BD050030BE05BA17FF30CE
:10065800B905FF30BA050030BB051830BF003F08A8
:10066800C30001300310C40DC50DC60DFF3E031DA8
:10067800362B3B083E02031D472B3A083D02031D5B
:10068800472B39083C02031C542B3908BC023A0892
:10069800031C3A0FBD023B08031C3B0ABE0244146C
:1006A80001300310BC0DBD0DBE0DFF3E031D552BC3
:1006B8000130C302031D352B4408A0004508A100E2
:1006C8004608A2004708BF003F08A3004808C0002A
:1006D8004008A4000A128A11082483120313200870
:1006E800B9002108BA002208BB00080083120313CE
:1006F8004908CD004A08CE004B08CF0003104E0D24
:100708004F0DD0005008D6005608031D942B00301A
:10071800CC000030CB000030CA000030C90008000F
:100728004908CD004A08CE004B08CF001730031007
:10073800CF0CCE0CCD0CFF3E031D9B2B4D08D000DB
:100748005008D100CA17FF30C905FF30CA0500306C
:10075800CB054908D2004A08D3004B08D400D5017C
:100768008E30D602D61FD62B5608803A8F3E0318F5
:10077800C62B0030CC000030CB000030CA0000305F
:10078800C900080001300310D50CD40CD30CD20CCE
:10079800FF3E031DC72B0130CD004D08D6070319B6
:1007A800F12BC62B18305602031CEE2B0030CC0060
:1007B8000030CB000030CA000030C900080001300A
:1007C800CD000310D20DD30DD40DD50DCD0BE52BD7
:1007D8000130D6025608031DE32B51080319FF2BDD
:1007E800D209D309D409D509D20A0319D30A03199E
:1007F800D40A0319D50A5508CC005408CB0053086D
:10080800CA005208C90008008312031323080319F9
:10081800122C220821042004031D252C0030A000DE
:100828000030A1000030A20008000130A500250812
:10083800A30701300310A20CA10CA00CFF3E031D5E
:100848001E2CFE3022050319402C192C0130A5005E
:100858002508A3070130A007003003180130A107BD
:10086800003003180130A20701300310A20CA10CBC
:10087800A00CFF3E031D392CFF30220503194F2C15
:100888002A2C0130A30201300310A00DA10DA20DE6
:10089800FF3E031D482CA11B552C023023020318D0
:1008A800452C23185D2CFF30A0057F30A105FF30B3
:1008B800A2050310A30C2308A500A601A701103068
:1008C8000310A50DA60DA70DFF3E031D642C2508DA
:1008D800A0042608A1042708A20424080319080074
:1008E800A217080083120313A80028080A128A1105
:1008F800A4270A128A11213083120313A700763025
:10090800A600A60B852CA70B852C000083120313C9
:1009180022080A128A11A4270A128A112130831286
:100928000313A7007630A600A60B982CA70B982CCB
:1009380000008312031323080A128A11A4270A123B
:100948008A11213083120313A7007630A600A60B64
:10095800AB2CA70BAB2C00008312031324080A123C
:100968008A11A4270A128A11213083120313A700BF
:100978007630A600A60BBE2CA70BBE2C0000831257
:10098800031325080A128A11A4270A128A11213092
:1009980083120313A7007630A600A60BD12CA70B51
:1009A800D12C0000080083120313A201C830A9004B
:1009B8002908A300A401C830AA002A08A50091307C
:1009C8000A128A1176240A128A111A308312031322
:1009D800AB005E30AA008630A900A90BF12CAA0B47
:1009E800F12CAB0BF12C000083120313A20132305F
:1009F800A9002908A300A4013230AA002A08A500EA
:100A080091300A128A1176240A128A1166308312EA
:100A18000313AB007730AA002430A900A90B122DCC
:100A2800AA0B122DAB0B122D00000A128A113625C3
:100A38000A128A110A128A113E270A128A117F3075
:100A480083120313AB00D430AA00AE30A900A90B5F
:100A58002B2DAA0B2B2DAB0B2B2D322D0A128A1105
:100A68003625080091300A128A11A4270A128A1121
:100A7800213083120313A3007630A200A20B422D6B
:100A8800A30B422D000000300A128A11A4270A1273
:100A98008A11213083120313A3007630A200A20B1F
:100AA800532DA30B532D000000300A128A11A427DE
:100AB8000A128A11213083120313A3007630A20090
:100AC800A20B642DA30B642D000000300A128A11BA
:100AD800A4270A128A11213083120313A300763047
:100AE800A200A20B752DA30B752D000000300A1271
:100AF8008A11A4270A128A11213083120313A30032
:100B08007630A200A20B862DA30B862D00000800CC
:100B1800831203135F08E4005E08E300E101E201C9
:100B280000306402643003196302031CB42D6308A7
:100B38009C3EE30064080318013EFF3EE4000130D8
:100B4800E0006008E207942D6308F63EE3006408BD
:100B58000318013EFF3EE4000130E0006008E107B1
:100B6800003064020A30031963020318A82D6208D2
:100B7800303E0A128A15AE270A128A11831203130D
:100B88006108303E0A128A15AE270A128A118312AA
:100B980003136308303E0A128A15AE270800FB1EAD
:100BA800DB2D0A128A11D7240A128A11FB127B1E26
:100BB800E92D643083120313AB000030AC000A1235
:100BC8008A1161270A128A117B127B1CF72D643067
:100BD80083120313A0000030A1000A128A11C12752
:100BE8000A128A117B10FB1C052E64308312031332
:100BF800A0000030A1000A128A11D9270A128A110E
:100C0800FB107B1D0800083083120313A00000307E
:100C1800A1000A128A11D9277B11080070087104F3
:100C280003193F2EF501F50AF11B262E013003109A
:100C3800F00DF10DFF3E031D1B2E0130F40074086A
:100C4800F507182E71087302031D2C2E7008720206
:100C5800031C342E7008F2027108031CF303F3021C
:100C680001300310F10CF00CFF3E031D352E01304E
:100C7800F502031D262E7308F1007208F000080023
:100C880083120313880189018316031388018901DC
:100C980001300A128A15D4270A128A1138300A122A
:100CA8008A15D4270A128A110C300A128A15D427F9
:100CB8000A128A1106300A128A15D4270A128A11D2
:100CC80002300A128A15D4270A128A1140300A12F1
:100CD8008A1561270A128A1101300A128A1184279B
:100CE800080083120313A901AA011F151F197A2EE0
:100CF800831603131E0883120313A2000630031081
:100D0800A20CFF3E031D832E2208A300A4011E0887
:100D1800A500A6010310A50DA60D0310A50DA60D8F
:100D280023082504A70024082604A8002708A900EA
:100D38002808AA002A08A1002908A00008000A1209
:100D48008A11F2260A128A1180300A128A11A427FF
:100D58000A128A11213083120313A3007630A200ED
:100D6800A20BB42EA30BB42E000084300A128A11F1
:100D7800A4270A128A11213083120313A3007630A4
:100D8800A200A20BC52EA30BC52E000008007F30C1
:100D980083120313A700D430A600AE30A500A50B1C
:100DA800D32EA60BD32EA70BD32EDA2E0A128A1512
:100DB80074270A128A110A128A159D270A128A11A3
:100DC8000A128A15C1270A128A110A128A114426A0
:100DD8000A128A110A128A11A3260800831603131D
:100DE8008717BF3083120313A0002008831603134C
:100DF8008705181514309900181383120313181354
:100E080083160313181283120313981718168316E0
:100E180003130C128C1698160B1783120313EF0189
:100E2800FD01ED01EC01080000300A128A15612766
:100E38000A128A110A128A1175260A128A11831255
:100E480003132108D8002008D7000A128A11342178
:100E58000A128A11831203135808DF005708DE00AC
:100E68000A128A118C250A128A1109300A128A116B
:100E78008427080088300A128A11A4270A128A11C6
:100E8800213083120313A3007630A200A20B4A2F4D
:100E9800A30B4A2F000004300A128A11A4270A1251
:100EA8008A11213083120313A3007630A200A20B0B
:100EB8005B2FA30B5B2F000008000A128A157F27FF
:100EC8000A128A110F3083120313AD002D08EB00AC
:100ED8006B080A128A11F1270A128A118312031366
:100EE8002B082C04031908000715000083120313AC
:100EF80007110130AB020030031CAC03AC02742FA5
:100F080083120313A400240884000A128A150020FF
:100F18000A128A11003A03190800240884000A12E8
:100F28008A1500200A128A110A128A15AE270A1297
:100F38008A11013083120313A3002308A407872F03
:100F480083120313A1007D08013E0F396F060319B0
:100F5800A72F8B132108A0007D08B03E840020082D
:100F6800831380007D08013E0F39A0002008FD0092
:100F7800831603130C168B1708008312031320081B
:100F88002104031908004130A300EE30A200A20B8F
:100F9800CB2FA30BCB2F0000013083120313A00229
:100FA8000030031CA103A102C32F831203132008DE
:100FB8002104031908004130A300EE30A200A20B5F
:100FC800E32FA30BE32F0000013083120313A002C9
:100FD8000030031CA103A102DB2F83120313A2001C
:100FE800A1018C11220893008C1DF82F1308A00072
:100FF8002008A1008C11080008308A000408840A1F
:1010080082070034303430343034203443344334AD
:0A1018005734003463346D340034A3
:101EB20064008001840A04060319003404065A2FC0
:101EC20083120313A300A31723080A128A15D42727
:101ED2000800F0000B3070020318FB1D722F031470
:101EE2000800031008003E308316031386000B1708
:101EF2008B17043081008B168B170800831603138F
:101F0200C001C1010A128A11752683120313210826
:101F1200E6002008E50008000A128A11CB260A1200
:101F22008A150A128A11D3250A128A150A128A11EF
:101F320018270A128A15922F403083160313940031
:101F42002030831203139400D030831603138700CA
:101F52008312031307148714080083120313A200C9
:101F6200091189100914220888000915091107307E
:101F7200A1007D30A000A00BBC2FA10BBC2F08003C
:101F8200FF308316031385008130831203139F00F1
:101F92000230831603139F00533083120313A000F1
:101FA200A00BD12F080083120313A200091189107C
:101FB200091022088800091509110D30A100FB3013
:101FC200A000A00BE22FA10BE22FE72F0800831243
:101FD20003132808A0002908A100A2018E30AB003B
:101FE2002B08A300A4010A128A11082483120313E6
:0E1FF2002008A8002108A9002208AA00080063
:02400E003A3F37
:00000001FF
