:060000000A128A11122809
:10000800FE00030EF7000408F8000A08F90083123E
:1000180003137F08FA000A128A11092A0A128A11A0
:100028001528FB01FC01FD0183135A30840066305A
:100038000A128A15E2260A128A11A0308400C030FA
:100048000A128A15E2260A128A110A128A11FC2754
:100058000A128A11E6000A128A11FD27E7008301B5
:100068000A128A15252F831203132C08B2002D08B3
:10007800B3002E08B4000310330D340DB500350855
:10008800B8002F08B2003008B3003108B4000310DC
:10009800330D340DB5003508B7003808031960284A
:1000A80037083802031867283803FF3A3707B200C1
:1000B80019303202031C67282F08AC003008AD0045
:1000C8003108AE000800370803190800380837025D
:1000D800031876283703FF3A3807B200193032027E
:1000E800031808000630B2003208B600AE1BB61777
:1000F800B11B3617AD17FF30AC05FF30AD0500302A
:10010800AE05B017FF30AF05FF30B0050030B105C0
:10011800370838020318B62801300310AF0DB00DA8
:10012800B10DFF3E031D91280130B702370838068C
:100138000319B1280130B602360807390319B12866
:10014800902801300310AE0CAD0CAC0CFF3E031D23
:10015800A6280130B2003208B80738083706031954
:10016800DF28A528380837020318DF2801300310D4
:10017800AC0DAD0DAE0DFF3E031DBB280130B8021E
:10018800370838060319DB280130B6023608073964
:100198000319DB28BA2801300310B10CB00CAF0CDE
:1001A800FF3E031DD0280130B2003208B7073808D7
:1001B8003706031DCF28B61FF128FF30AC06FF30E5
:1001C800AD06FF30AE060130AC0700300318013031
:1001D800AD07003003180130AE07361F0329FF3082
:1001E800AF06FF30B006FF30B1060130AF07003070
:1001F80003180130B007003003180130B107B60109
:100208002C08AF072D08031103182D0A031DB0078A
:100218002E08031103182E0A031DB107B11F262942
:10022800FF30AF06FF30B006FF30B1060130AF0730
:10023800003003180130B007003003180130B1074F
:10024800B601B60A2F08A0003008A1003108A200A4
:100258003808B2003208A3003608B3003308A400F7
:100268000A128A110B24831203132008AC002108F8
:10027800AD002208AE0008000130831203134D02BE
:10028800F43003194C020318A429C830B9002A30E5
:10029800BA004630BB005C30AC009530AD00C130D0
:1002A800AE004D08A9004C08A8000A128A11E427DC
:1002B8000A128A11831203132808AF002908B00014
:1002C8002A08B1000A128A1137200A128A118312E9
:1002D80003132C08BC002D08BD002E08BE000A120E
:1002E8008A11C5220A128A11831203133908D00011
:1002F8003A08D1003B08D2005008B9005108BA00AA
:100308005208BB000030BC008030BD003F30BE004A
:100318000A128A11C5220A128A1183120313390894
:10032800C9003A08CA003B08CB000A128A11BF2745
:100338000A128A11831203134A08CF004908CE0013
:1003480001304D02F43003194C02031C042AA0307A
:10035800B9004830BA004530BB004030AC00B0307E
:10036800AD00C330AE004D08A9004C08A8000A1221
:100378008A11E4270A128A11831203132808AF008E
:100388002908B0002A08B1000A128A1137200A1277
:100398008A11831203132C08BC002D08BD002E08F7
:1003A800BE000A128A11C5220A128A118312031387
:1003B8003908D0003A08D1003B08D2005008B900EB
:1003C8005108BA005208BB000030BC008030BD00A4
:1003D8003F30BE000A128A11C5220A128A118312FE
:1003E80003133908C9003A08CA003B08CB000A12AF
:1003F8008A11BF27831203134A08CF004908CE0089
:100408004F08CD004E08CC0008008C1E212A1A087F
:10041800F6006208A03E8400760883138000620814
:10042800013E0F39F6007608E400640863060319F4
:10043800212A6408F6007608E2000C1E3E2A83167C
:1004480003130C1E3E2A831203136508B03E840072
:100458008313000899000130F6007608E5070F308D
:10046800F6007608E50565087D06031D3E2A831615
:1004780003130C120B1DB82A0B1164308312810070
:100488000130DE070318DF0A0030DF07F430F00020
:100498000130F1005F08F3005E08F2000A128A11C9
:1004A80055260A128A1170087104031D612A013049
:1004B800831203138606DE01DF01831203138618F5
:1004C800061D6B2A8619061E6B2A861AB62A013063
:1004D800F6007608FC077C080A128A15F3260A1229
:1004E8008A11031C7D2A8312031386187D2AFB16A2
:1004F800FB117C080A128A15F3260A128A11031CBA
:100508008B2A8312031306198B2A7B16FB117C088E
:100518000A128A15F3260A128A11031C992A8312D1
:1005280003138619992A7B14FB117C080A128A1571
:10053800F3260A128A11031CA72A83120313061A28
:10054800A72AFB14FB117C080A128A15F3260A1243
:100558008A11031CB82A83120313861AB82A7B153A
:10056800FB11B82AFC01FB157A0883120313FF005C
:1005780079088A0078088400770E8300FE0E7E0EC4
:100588000900831203133C08BF003D08C0003E0861
:10059800C1000310400D410DC2004208C7004708C2
:1005A800031DDD2A0030B9000030BA000030BB005E
:1005B80008003908BF003A08C0003B08C100031012
:1005C800400D410DC2004208C8004808031DF32A27
:1005D8000030B9000030BA000030BB00080000301D
:1005E800C4000030C5000030C60089304807BF008D
:1005F8003F08C7023C08BF003D08C0003E08C100D4
:1006080010300310C10CC00CBF0CFF3E031D052B9E
:100618003F08C2004208C8003908BF003A08C000B5
:100628003B08C10010300310C10CC00CBF0CFF3ECA
:10063800031D172B3F08C2004208C8068030BF00C0
:100648003F08C805BD17FF30BC05FF30BD050030A9
:10065800BE05BA17FF30B905FF30BA050030BB0533
:100668001830BF003F08C30001300310C40DC50D8A
:10067800C60DFF3E031D392B3B083E02031D4A2BC6
:100688003A083D02031D4A2B39083C02031C572B2C
:100698003908BC023A08031C3A0FBD023B08031C88
:1006A8003B0ABE02441401300310BC0DBD0DBE0D43
:1006B800FF3E031D582B0130C302031D382B44088D
:1006C800A0004508A1004608A2004708BF003F084F
:1006D800A3004808C0004008A4000A128A110B248D
:1006E800831203132008B9002108BA002208BB00AE
:1006F8000800831203133908BD003A08BE003B08FE
:10070800BF0003103E0D3F0DC0004008C60046085C
:10071800031D972B0030BC000030BB000030BA002E
:100728000030B90008003908BD003A08BE003B088F
:10073800BF0017300310BF0CBE0CBD0CFF3E031DDD
:100748009E2B3D08C0004008C100BA17FF30B9050C
:10075800FF30BA050030BB053908C2003A08C300AB
:100768003B08C400C5018E30C602C61FD92B4608F7
:10077800803A8F3E0318C92B0030BC000030BB0004
:100788000030BA000030B900080001300310C50C71
:10079800C40CC30CC20CFF3E031DCA2B0130BD00A4
:1007A8003D08C6070319F42BC92B18304602031C51
:1007B800F12B0030BC000030BB000030BA00003024
:1007C800B90008000130BD000310C20DC30DC40DEF
:1007D800C50DBD0BE82B0130C6024608031DE62BEC
:1007E80041080319022CC209C309C409C509C20A70
:1007F8000319C30A0319C40A0319C50A4508BC002A
:100808004408BB004308BA004208B9000800831234
:10081800031323080319152C220821042004031D9F
:10082800282C0030A0000030A1000030A2000800F1
:100838000130A5002508A30701300310A20CA10C64
:10084800A00CFF3E031D212CFE3022050319432C6A
:100858001C2C0130A5002508A3070130A007003093
:1008680003180130A107003003180130A207013036
:100878000310A20CA10CA00CFF3E031D3C2CFF3062
:1008880022050319522C2D2C0130A302013003102C
:10089800A00DA10DA20DFF3E031D4B2CA11B582C32
:1008A800023023020318482C2318602CFF30A005BF
:1008B8007F30A105FF30A2050310A30C2308A50073
:1008C800A601A70110300310A50DA60DA70DFF3E28
:1008D800031D672C2508A0042608A1042708A204E4
:1008E800240803190800A217080083120313A8009C
:1008F80028080A128A1580270A128A1121308312C1
:100908000313A7007630A600A60B882CA70B882C0B
:1009180000008312031322080A128A1580270A127C
:100928008A11213083120313A7007630A600A60B84
:100938009B2CA70B9B2C00008312031323080A127D
:100948008A1580270A128A11213083120313A700FF
:100958007630A600A60BAE2CA70BAE2C0000831297
:10096800031324080A128A1580270A128A112130D3
:1009780083120313A7007630A600A60BC12CA70B81
:10098800C12C00008312031325080A128A15802738
:100998000A128A11213083120313A7007630A600A9
:1009A800A60BD42CA70BD42C000008008312031329
:1009B800A201C830A9002908A300A401C830AA00D0
:1009C8002A08A50091300A128A1179240A128A117C
:1009D8001A3083120313AB005E30AA008630A900D8
:1009E800A90BF42CAA0BF42CAB0BF42C00008312EB
:1009F8000313A2013230A9002908A300A401323050
:100A0800AA002A08A50091300A128A1179240A122C
:100A18008A11663083120313AB007730AA002430A2
:100A2800A900A90B152DAA0B152DAB0B152D000030
:100A38000A128A1139250A128A110A128A15DD2723
:100A48000A128A117F3083120313AB00D430AA0034
:100A5800AE30A900A90B2E2DAA0B2E2DAB0B2E2DD7
:100A6800352D0A128A113925080091300A128A1583
:100A780080270A128A11213083120313A3007630CB
:100A8800A200A20B452DA30B452D000000300A1231
:100A98008A1580270A128A11213083120313A300B2
:100AA8007630A200A20B562DA30B562D0000003065
:100AB8000A128A1580270A128A1121308312031319
:100AC800A3007630A200A20B672DA30B672D0000B0
:100AD80000300A128A1580270A128A1121308312DF
:100AE8000313A3007630A200A20B782DA30B782D58
:100AF800000000300A128A1580270A128A11213054
:100B080083120313A3007630A200A20B892DA30B36
:100B1800892D0000080083120313D901D701D801D9
:100B280000305402643003195302031CB42D5308D7
:100B38009C3ED30054080318013EFF3ED400013008
:100B4800D5005508D807942D5308F63ED30054080D
:100B58000318013EFF3ED4000130D5005508D707E1
:100B6800003054020A30031953020318A82D5908FB
:100B7800D500D6015508D3005608D4005808303E91
:100B88000A128A1546270A128A1183120313570874
:100B9800303E0A128A1546270A128A118312031355
:100BA8005908303E0A128A1546270800FB1EE22D16
:100BB8000A128A11DA240A128A11FB127B1EF02DFE
:100BC800903083120313AB000130AC000A128A1173
:100BD80019260A128A117B127B1CFE2D643083129F
:100BE8000313A3000030A4000A128A119A270A12DC
:100BF8008A117B10FB1C0C2E643083120313A30094
:100C08000030A4000A128A1175270A128A11FB10F3
:100C18007B1D0800083083120313A3000030A400D2
:100C28000A128A1175277B1108000A128A150827EB
:100C38000A128A118312031367080A128A151627E3
:100C48000A128A11831203132B082C0403194D2E40
:100C58000A128A15BD270A128A118312031307156F
:100C680000008312031307114130AE00EE30AD00CF
:100C7800AD0B3C2EAE0B3C2E00000130831203134B
:100C8800AB020030031CAC03AC022B082C04031D80
:100C98002C2E6108A4006008A3000A128A11752787
:100CA8000800700871040319822EF501F50AF11B7A
:100CB800692E01300310F00DF10DFF3E031D5E2E6D
:100CC8000130F4007408F5075B2E71087302031DE8
:100CD8006F2E70087202031C772E7008F2027108DA
:100CE800031CF303F30201300310F10CF00CFF3E78
:100CF800031D782E0130F502031D692E7308F100DB
:100D08007208F000080083120313A901AA011F1535
:100D18001F198C2E831603131E0883120313A200B7
:100D280006300310A20CFF3E031D952E2208A300D7
:100D3800A4011E08A500A6010310A50DA60D031009
:100D4800A50DA60D23082504A70024082604A8003D
:100D58002708A9002808AA002A08A1002908A00035
:100D680008000A128A1104270A128A1180300A120E
:100D78008A1580270A128A11213083120313A300CF
:100D88007630A200A20BC62EA30BC62E000084301C
:100D98000A128A1580270A128A1121308312031336
:100DA800A3007630A200A20BD72EA30BD72E0000EB
:100DB80008007F3083120313A600D430A500AE309C
:100DC800A400A40BE52EA50BE52EA60BE52EEC2E14
:100DD8000A128A15FD260A128A110A128A1535275F
:100DE8000A128A110A128A1559270A128A110A1236
:100DF8008A1150270A128A110A128A11B526080088
:100E0800831603138717BF3083120313A00020082B
:100E180083160313870518151430990018138312C5
:100E28000313181383160313181283120313981746
:100E38001816831603130C128C1698160B178312A8
:100E48000313E501FD01E301E201080000300A1285
:100E58008A15EA260A128A110A128A1187260A12A4
:100E68008A11831203132108CD002008CC000A122E
:100E78008A1140210A128A11831203134D08D400E3
:100E88004C08D3000A128A118F250A128A110130E0
:100E98000A128A159D270800831203138801890105
:100EA800831603138801890101300A128A156C27F9
:100EB8000A128A1138300A128A156C270A128A1106
:100EC8000C300A128A156C270A128A1106300A1287
:100ED8008A156C270A128A1102300A128A156C27A1
:100EE80008008312031366080A128A1516270A12C5
:100EF8008A11831203132308240403190800071511
:100F080000008312031307114130A600EE30A5003C
:100F1800A50B8C2FA60B8C2F000001308312031316
:100F2800A3020030031CA403A4027F2F831203131F
:100F380067080A128A1516270A128A1183120313E0
:100F4800230824040319080007150000831203135B
:100F580007114130A600EE30A500A50BB12FA60B56
:100F6800B12F0000013083120313A3020030031CC9
:100F7800A403A402A42F831203134908AF004A084C
:100F8800B0004B08B1000030AC000030AD003F307D
:100F9800AE000A128A1137200A128A11831203132B
:100FA8002C08B9002D08BA002E08BB000A128A11B5
:100FB8007D23831203133A08CA003908C9000800C0
:100FC800831203132808A0002908A100A2018E306B
:100FD800AB002B08A300A4010A128A110B24831268
:100FE80003132008A8002108A9002208AA00080065
:040FF8000D340F3471
:1010000008308A000408840A8207003463346D348F
:021010000034AA
:101DC40064008001840A0406031900340406E32E27
:101DD40083120313A300A31723080A128A156C277E
:101DE4000800F0000B3070020318FB1DFB2E0314D7
:101DF4000800031008003E308316031386000B17F7
:101E04008B17043081008B168B1708008312031381
:101E1400E001E1010A128A118726831203132108C3
:101E2400DB002008DA00080083120313A200A101DA
:101E34008C11220893008C1D1D2F1308A00020086C
:101E4400A1008C1108000A128A11DD260A128A15D3
:101E54000A128A11DA250A128A150A128A112A2705
:101E64000A128A152A2F4030831603139400203057
:101E7400831203139400D030831603138700831254
:101E8400031307148714080083120313A200091113
:101E94008910091422088800091509110730A100C6
:101EA4007D30A000A00B542FA10B542F0800FF304D
:101EB4008316031385008130831203139F000230BD
:101EC400831603139F00533083120313A000A00B47
:101ED400692F080083120313A20009118910091045
:101EE40022088800091509110D30A100FB30A0005B
:101EF400A00B7A2FA10B7A2F7F2F080083120313D4
:101F0400A1007D08013E0F3965060319832F8B1349
:101F14002108A0007D08B03E8400200883138000BF
:101F24007D08013E0F39A0002008FD00831603132D
:101F34000C168B17080083120313A40024088400D2
:101F44000A128A1500200A128A15003A0319080099
:101F5400240884000A128A1500200A128A150A121B
:101F64008A1546270A128A15013083120313A30027
:101F74002308A407A02F0A128A1187260A128A1599
:101F8400831203132108DD002008DC005D085B02D6
:101F9400031DCE2F5C085A020318D62F5D08DB0000
:101FA4005C08DA00E001E1010130E0070318E10A0E
:101FB4000030E107080088300A128A1580270A12C7
:101FC4008A15213083120313A3007630A200A20BDA
:101FD400E92FA30BE92F000004300A128A15802789
:101FE4000A128A15213083120313A3007630A2004B
:0C1FF400A20BFA2FA30BFA2F000008002C
:02400E003A3F37
:00000001FF
