:060000000A128A11122809
:10000800FE00030EF7000408F8000A08F90083123E
:1000180003137F08FA000A128A11242C0A128A1183
:100028001528FB01FC01FD0183134F3084006D305E
:100038000A128A153E230A128A11A0308400B030B1
:100048000A128A153E230A128A110A128A153B23BC
:100058000A128A11ED000A128A153C230A128A1123
:10006800EE000A128A153D23EF0083010A128A1155
:10007800F12D83120313C701C801C501C601CA01C6
:10008800CB01E701E8019030BE000130BF000A1241
:100098008A1536270A128A11831203136608A500E7
:1000A8006508A4000A128A15A8250A128A110D30BB
:1000B80083120313C400AF30C300C130C200C20BA7
:1000C8006328C30B6328C40B632800000030831225
:1000D80003136602C93003196502031CAF28643094
:1000E800A6000030A7006509C2006609C300C20A5D
:1000F8000319C30A4208903EA00043080318013EB2
:10010800013EA1005A30A2000030A3000A128A154D
:1001180093240A128A11831203132108A9002008C4
:10012800A8000A128A1574260A128A118312031368
:100138002708C8002608C700C330A3000030A40061
:100148003830A500FF30A6000A128A1506260A12C2
:100158008A117B13E128643083120313A600003050
:10016800A7006608A1006508A0005A30A200003068
:10017800A3000A128A1593240A128A118312031300
:100188002108A9002008A8000A128A1574260A1254
:100198008A11831203132708C8002608C7003D30B8
:1001A800A300FF30A400C830A5000030A6000A1242
:1001B8008A1506260A128A117B178312031346082A
:1001C800803AC2004808803A4202031DED284708D9
:1001D80045020318092914300A128A1578270A12C9
:1001E8008A11831203132408AF002308AE000A12F1
:1001F8008A1573230A128A11831203132E08C5075E
:100208000318C60A2F08C607E12800308312031313
:10021800A300A4000030A500A6000A128A1506262D
:100228000A128A11153083120313C4004B30C3001D
:10023800D130C200C20B1E29C30B1E29C40B1E29B4
:100248000000831203136509C2006609C300C20ACD
:100258000319C30A4208903EA40043080318013E4C
:10026800013EA5000A128A15A8250A128A11C33070
:1002780083120313A3000030A400C830A500003087
:10028800A6000A128A1506260A128A11003083125D
:1002980003134B02333003194A02031C73290A1251
:1002A8008A11D1270A128A11831203132108AC007C
:1002B8002008AB000A128A117A250A128A118312C1
:1002C80003132C08CB002B08CA004B08BB004A08B4
:1002D800BA000A128A1504240A128A114A2900301F
:1002E800A300A4000030A500A6000A128A1506265D
:1002F8000A128A11153083120313C4004B30C3004D
:10030800D130C200C20B8629C30B8629C40B8629AB
:1003180000007B1F9E29C33083120313A300003003
:10032800A4003830A500FF30A6000A128A15062658
:100338000A128A117B1BAF293D3083120313A300D5
:10034800FF30A400C830A5000030A6000A128A15A4
:1003580006260A128A1183120313C701C801480826
:10036800803AFF0080307F02031DBC295A304702C3
:100378000318D82914300A128A1578270A128A1104
:10038800831203132408AF002308AE000A128A154B
:1003980073230A128A11831203132E08C70703183E
:1003A800C80A2F08C807B329003083120313A30013
:1003B800A4000030A500A6000A128A1506260A1213
:1003C8008A11153083120313C4004B30C300D13097
:1003D800C200C20BED29C30BED29C40BED290000A7
:1003E8007B1F012A323083120313A4000030A500BA
:1003F8000A128A15A8250A128A117B1B0E2A323086
:1004080083120313A4000030A5000A128A157C2564
:100418000A128A117B1083120313E101E20183128D
:100428000313C9010A128A11D1270A128A118312E9
:1004380003132108AC002008AB000A128A117A25A0
:100448000A128A11831203132C08CB002B08CA0046
:100458004B08BB004A08BA000A128A1504240A127B
:100468008A117B182E2B0030831203134B0247305E
:1004780003194A02031C472A153062027C3003190B
:1004880061020318C90100304B02473003194A02C0
:10049800031C572A153062027C30031961020318C5
:1004A800572AC901C90A00304B02303003194A02E1
:1004B8000318622A0230C2004208C90000304B0209
:1004C800303003194A02031C742A00304B024730AB
:1004D80003194A020318742A0330C2004208C900EB
:1004E8007B1BB72AC72AB030A300FF30A400C8304E
:1004F800A5000030A6000A128A1506260A128A11DB
:10050800C72A963083120313A3000030A400C83012
:10051800A5000030A6000A128A1506260A128A11BA
:10052800C72AC33083120313A3000030A400A630E7
:10053800A500FF30A6000A128A1506260A128A119B
:1005480083120313E101E201C72AC330A30000307C
:10055800A400C830A5000030A6000A128A15062695
:100568000A128A11C72A831203134908003A031989
:10057800772A013A0319852A033A0319952A013A79
:100588000319A92AC72A7B1F0C2B1C2BC3308312E3
:100598000313A3000030A400B030A500FF30A6006C
:1005A8000A128A1506260A128A111C2BC3308312D6
:1005B8000313A3000030A4009630A5000030A60065
:1005C8000A128A1506260A128A111C2BA6308312D3
:1005D8000313A300FF30A400C830A5000030A60014
:1005E8000A128A1506260A128A1183120313E101D8
:1005F800E2011C2BC330A3000030A400C830A500C2
:100608000030A6000A128A1506260A128A111C2B27
:10061800831203134908003A0319CA2A013A031935
:10062800DA2A033A0319EA2A013A0319FE2A1C2B8B
:1006380007300A128A152B250A128A11003A031D5F
:100648002D2B0A128A153B260A128A11003A031921
:100658002E2B7B147B1C132A003083120313A30058
:10066800A4000030A500A6000A128A1506260A1260
:100678008A11153083120313C4004B30C300D130E4
:10068800C200C20B452BC30B452BC40B452B0000E6
:10069800FE3083120313C400A830C3006130C200C7
:1006A800C20B542BC30B542BC40B542B7B10132A93
:1006B80083120313C501C601C801C901C301C401DE
:1006C800E701E8010430C0004008C70047080319E3
:1006D8000800C330A3000030A400C830A5000030D3
:1006E800A6000A128A1506260A128A118312031313
:1006F8004908803AFF0083307F02031D852BE430D0
:1007080048020318A72B13300A128A1578270A12F1
:100718008A11831203132308C8070318C90A240877
:10072800C90743084807E70044080318440A49076B
:10073800E8006808BF006708BE000A128A1564232B
:100748000A128A117A2B003083120313A300A40023
:100758000030A500A6000A128A1506260A128A1178
:10076800153083120313C2004B30C100D130C000D2
:10077800C00BBC2BC10BBC2BC20BBC2B0000C33065
:1007880083120313A3000030A4003830A500FF3003
:10079800A6000A128A1506260A128A118312031362
:1007A8004608803AFF0080307F02031DDD2B5A3057
:1007B80045020318F92B14300A128A1578270A12F1
:1007C8008A11831203132408AF002308AE000A120B
:1007D8008A1573230A128A11831203132E08C50778
:1007E8000318C60A2F08C607D22B0030831203133A
:1007F800A300A4000030A500A6000A128A15062648
:100808000A128A11153083120313C2004B30C1003B
:10081800D130C000C00B0E2CC10B0E2CC20B0E2CFD
:100828000000831203134808C3070318C40A4908C1
:10083800C407C801C901C501C6010130C7026A2B36
:100848008C1E3C2C1A08F60069084F3E8400760876
:10085800831380006908013E0F39F6007608EB0023
:100868006B086A0603193C2C6B08F6007608E90049
:100878000C1E592C831603130C1E592C83120313B8
:100888006C08A03E84008313000899000130F6002C
:100898007608EC070F30F6007608EC056C087D0644
:1008A800031D592C831603130C120B1DCA2C0B1194
:1008B8006430831281000130DF070318E00A00303A
:1008C800E0070130E1070318E20A0030E207F430DC
:1008D800F0000130F1006008F3005F08F2000A122E
:1008E8008A15D4250A128A1170087104031D822CF6
:1008F8000130831203138606DF01E001831203131C
:100908008618061D8B2C061E8B2C861AC82C0130C7
:10091800F6007608FC077C080A128A154F230A128B
:100928008A11031C9D2C8312031386189D2C7B129D
:10093800FB167C080A128A154F230A128A11031C17
:10094800AB2C831203130619AB2C7B12FB147C0807
:100958000A128A154F230A128A11031CB92C831212
:100968000313061AB92C7B127B157C080A128A1508
:100978004F230A128A11031CCA2C83120313861AE6
:10098800CA2C7B12FB15CA2CFC017B167A08831231
:100998000313FF0079088A0078088400770E830023
:1009A800FE0E7E0E0900831203133208B9003108C7
:1009B800B800B401B501B601B701273039021030CB
:1009C80003193802031C012D3808F03EB800390815
:1009D8000318013ED83EB9000130B3003308B70709
:1009E800E12C3808183EB80039080318013EFC3ECF
:1009F800B9000130B3003308B60703303902E830D4
:100A080003193802031C152DF52C38089C3EB80034
:100A180039080318013EFF3EB9000130B30033081E
:100A2800B50700303902643003193802031C292D38
:100A3800092D3808F63EB80039080318013EFF3E74
:100A4800B9000130B3003308B407003039020A3066
:100A58000319380203181D2D2730320211300319EB
:100A68003102031C3E2D3708303E0A128A15B42382
:100A78000A128A110330831203133202E930031970
:100A88003102031C4E2D3608303E0A128A15B42353
:100A98000A128A11003083120313320265300319D7
:100AA8003102031C5E2D3508303E0A128A15B42324
:100AB8000A128A1100308312031332020B30031911
:100AC8003102031C6E2D3408303E0A128A15B423F5
:100AD8000A128A1183120313310832040319080019
:100AE8003808303E0A128A15B4230800831203130B
:100AF8002C08803AFF0081307F02031D852DF530D8
:100B08002B02031CB32DD83083120313A000093025
:100B1800A1002B08883EA2002C080318013EFE3EC7
:100B2800A3000A128A1123270A128A1183120313B7
:100B38002108B0002008AF003008A1002F08A0004D
:100B48000130A2000030A3000A128A1123270A12DA
:100B58008A11831203132108AE002008AD00831206
:100B680003132C08803AFF0081307F02031DBE2D3D
:100B7800F5302B020318EA2D833083120313A000EB
:100B88002E30A1002B08F93EA2002C080318013EC4
:100B9800FF3EA3000A128A1123270A128A11831220
:100BA80003132108B0002008AF003008A1002F0867
:100BB800A0000130A2000030A3000A128A112327E6
:100BC800831203132108AE002008AD00831203131B
:100BD8002E08AC002D08AB0008000A128A15DC2488
:100BE8000A128A11831203136808BF006708BE003F
:100BF8000A128A1564230A128A11FB1E442E9030A9
:100C080083120313BE000130BF000A128A15B226F0
:100C18000A128A11831203136608A5006508A40046
:100C28000A128A157C250A128A110A128A115D266F
:100C38000A128A117F3083120313CE00D430CD00FC
:100C4800AE30CC00CC0B262ECD0B262ECE0B262E6E
:100C58002D2E831203136509CC006609CD00CC0A3A
:100C68000319CD0A4C08903EA4004D080318013E14
:100C7800013EA5000A128A157C250A128A11FB1268
:100C8800FB1C4C2E0A128A117E270A128A11FB10AD
:100C98007B1D542E0A128A115C230A128A117B11B9
:100CA800FB1DF62D0A128A113D200A128A11FB112A
:100CB800F62D83120313BC01BD010430BA003A08B3
:100CC800BB003B0803197A2E0A128A11D1270A128F
:100CD8008A11831203132008BC070318BD0A2108D0
:100CE800BD070130BB023B08031D682E0430A0007D
:100CF8000030A1003D08A3003C08A2000A128A1196
:100D080023270A128A11831203132108BD00200821
:100D1800BC0000300A128A1546230A128A1183126F
:100D280003133D08803AFF0080307F02031D9E2E8A
:100D380051303C02031CB72E831203133D08AC004C
:100D48003C08AB000A128A117A250A128A1183120A
:100D580003132C08B2002B08B1000A128A11D724F9
:100D68000A128A11BD2E25300A128A1550240A1239
:100D78008A111A300A128A155024080000300A1203
:100D88008A1546230A128A1119300A128A15BC27B5
:100D98000A128A11831203132408B2002308B1002F
:100DA8000A128A11D7240A128A1131300A128A15B6
:100DB80050240A128A111A300A128A15BC270A12FC
:100DC8008A11831203132408B2002308B1000A12FF
:100DD8008A11D7240A128A112A300A128A15502435
:100DE8000A128A1140300A128A1546230A128A11F9
:100DF80016300A128A15BC270A128A1183120313A5
:100E08002408B2002308B1000A128A11D7240A1252
:100E18008A112E300A128A1550240A128A11663055
:100E280083120313BC007730BB002430BA00BA0B1E
:100E38001B2FBB0B1B2FBC0B1B2F000008008312A2
:100E48000313A601A11F2F2FA009A109A00A0319A6
:100E5800A10AA601A60AA31F3A2FA209A309A20A5A
:100E68000319A30A0130A4002408A606A701A801B3
:100E7800200821040319712FA501A50AA11B502FD1
:100E880001300310A00DA10DFF3E031D452F0130B9
:100E9800A4002408A507422F01300310A70DA80DB0
:100EA800FF3E031D512F21082302031D5D2F20083B
:100EB8002202031C662F2008A2022108031CA30398
:100EC800A302271401300310A10CA00CFF3E031D40
:100ED800672F0130A502031D502F26080319792F0B
:100EE800A709A809A70A0319A80A2808A10027081A
:100EF800A000080083120313E701E801C330A30030
:100F08000030A400C830A5000030A6000A128A15D7
:100F180006260A128A11831203136808803AFF0012
:100F28008F307F02031D9A2FA03067020318B42F59
:100F380013300A128A1578270A128A1183120313AA
:100F48002308E7070318E80A2408E8076808BF0029
:100F58006708BE000A128A1564230A128A118F2FA5
:100F6800003083120313A300A4000030A500A600DC
:100F78000A128A1506260A128A11153083120313DB
:100F8800C2004B30C100D130C000C00BC92FC10B0B
:100F9800C92FC20BC92F0000080083120313A9012F
:100FA800AA011F151F19D62F831603131E088312B3
:100FB8000313A20006300310A20CFF3E031DDF2F0F
:100FC8002208A300A4011E08A500A6010310A50D70
:100FD800A60D0310A50DA60D23082504A7002408B7
:100FE8002604A8002708A9002808AA002A08A100A2
:060FF8002908A00008001A
:1010000008308A000408840A820700346D346D3485
:101010002034643472346934763465346E34203468
:10102000203420342034003430346D346D34203496
:10103000643472346934763465346E340034633425
:101040006D34203449345234203420342034203458
:10105000203400343E3431343634303400346D348E
:101060004134683400346D34563400342F34003445
:101676000F340D340C3464008001840A0406031907
:10168600003404063F2B83120313A300A317230879
:101696000A128A15DA230800F0000B3070020318CC
:1016A6007B1E572B03140800031008003E308316D8
:1016B600031386000B178B17043081008B168B17CC
:1016C60008000A128A115D260A128A15831203136C
:1016D6003F08BB003E08BA000A128A15EE2308002E
:1016E60083120313AF1F08002E09B0002F09B100A3
:1016F600B00A0319B10A3008AE003108AF0008007D
:1017060083120313981C8B2B18121816031008004B
:1017160069086A06031D912B0310080003140800CC
:101726000A128A15B6240A128A1580300A128A15F8
:1017360003250A128A1584300A128A150325080021
:101746004030831603139400203083120313940051
:10175600D0308316031387008312031307148714EC
:10176600080083120313A200091189100914220824
:101776008800091509110730A1007D30A000A00BD3
:10178600C22BA10BC22B08003F3083160313850022
:101796008130831203139F000230831603139F00C8
:1017A600533083120313A000A00BD72B080083121B
:1017B6000313A200091189100910220888000915CF
:1017C60009110D30A100FB30A000A00BE82BA10BE6
:1017D600E82BED2B080040300A128A1546230A1220
:1017E6008A15831203133B08B2003A08B1000A12A5
:1017F6008A11D7240A128A1501300A128A15502432
:10180600080000300A128A1546230A128A15831226
:1018160003133B08B2003A08B1000A128A11D72412
:101826000A128A151A300A128A15502408008312E1
:101836000313E501E6010A128A11D1270A128A1555
:10184600831203132108AC002008AB000A128A1188
:101856007A25831203132C08E4002B08E300080002
:101866000A128A1583230A128A15031C332C8B133A
:10187600831203136A084F3E840083130008A000F6
:101886002008A1000130A0002008EA070F30A000C0
:101896002008EA058B172108080083120313A40009
:1018A600240884000A128A1500200A128A15003AB2
:1018B60003190800240884000A128A1500200A1257
:1018C6008A150A128A15B4230A128A150130831260
:1018D6000313A3002308A407532C83120313A300A6
:1018E600A2014130A100EE30A000A00B782CA10B84
:1018F600782C0000831203138C11230893008C1D8F
:10190600822C1308A0002008A2008C114130A100EF
:10191600EE30A000A00B8D2CA10B8D2C0000080032
:1019260083120313A401A501201C9F2C2208A407DF
:101936000318A50A2308A50701300310A20DA30D5D
:10194600FF3E031DA02C01300310A10CA00CFF3E8E
:10195600031DA72C20082104031D972C2508A10090
:101966002408A0000800831603138717BF308312CC
:101976000313A000200883160313870518151430D7
:1019860099001813831203131813831603131812DE
:101996008312031398171816831603130C128C164A
:1019A60098160B1783120313EC01FD01EA01E901F6
:1019B60008007F3083120313BF00D430BE00AE3060
:1019C600BD00BD0BE42CBE0BE42CBF0BE42CEB2CB2
:1019D6000A128A1559230A128A150A128A1593239E
:1019E6000A128A150A128A15A3230A128A150A12DE
:1019F6008A15C7230A128A150A128A15F4260800C0
:101A060083120313A2007D08013E0F396C060319E9
:101A1600062D8B132208A0007D08A03E8400200816
:101A2600831380007D08013E0F39A0002008FD00C9
:101A3600831603130C168B17213083120313A10090
:101A46007630A000A00B252DA10B252D0000080047
:101A560083120313A5008E300A128A1503250A1273
:101A66008A158312031325080A128A1503250A12FA
:101A76008A150A128A1533240A128A158312031349
:101A8600A3002308A6006230A4006530A300A30BC0
:101A96004A2DA40B4A2D4F2D831203132608080046
:101AA6000A128A11D1270A128A15831203132108F2
:101AB600AD002008AC002D08803AAB006408803ADF
:101AC6002B02031D682D63082C02031C732D831241
:101AD60003132D08E4002C08E300E501E6010800E5
:101AE600013083120313E5070318E60A0030E60700
:101AF6000800831203136D080A128A1570240A124D
:101B06008A1583120313240825040319A32D071528
:101B160000008312031307110730A7007D30A600CB
:101B2600A60B932DA70B932D013083120313A4024A
:101B36000030031CA503A50224082504031D8A2DD5
:101B46006F080A128A1570240800831203136E08A0
:101B56000A128A1570240A128A158312031324089E
:101B660025040319CF2D071500008312031307114F
:101B76000730A7007D30A600A60BBF2DA70BBF2DF3
:101B8600013083120313A4020030031CA503A5022F
:101B960024082504031DB62D6F080A128A15702421
:101BA6000800700871040319012EF501F50AF11BEE
:101BB600E82D01300310F00DF10DFF3E031DDD2D64
:101BC6000130F4007408F507DA2D71087302031D5D
:101BD600EE2D70087202031CF62D7008F2027108D1
:101BE600031CF303F30201300310F10CF00CFF3E6B
:101BF600031DF72D0130F502031DE82D7308F100D2
:101C06007208F000080083120313A801A901AA01B3
:101C1600AB01A8012308A7002708A900AA012508E7
:101C2600A7002708AB0091300A128A1503250A126D
:101C36008A158312031328080A128A1503250A1225
:101C46008A158312031329080A128A1503250A1214
:101C56008A15831203132A080A128A1503250A1203
:101C66008A15831203132B080A128A150325080006
:101C7600093083120313A3002308A5000D302502A3
:101C86000318722E8E300A128A1503250A128A1537
:101C96008312031325080A128A1503250A128A15C8
:101CA6000A128A1533240A128A15003A03195D2E80
:101CB60001300800623083120313A4006530A300CC
:101CC600A30B632EA40B632E682E0130831203131D
:101CD600A3002308A5070D302502031C452E00305E
:101CE600080083120313AB01AC012608270403196D
:101CF600AD2EAD01AD0AA71B8C2E01300310A60D2B
:101D0600A70DFF3E031D812E0130AA002A08AD074C
:101D16007E2E01300310AB0DAC0DFF3E031D8D2E44
:101D260027082902031D992E26082802031CA22E25
:101D36002608A8022708031CA903A9022B140130B0
:101D46000310A70CA60CFF3E031DA32E0130AD0207
:101D5600031D8C2E2C08A7002B08A60008000A12CB
:101D66008A151A240A128A15831203136E080A1298
:101D76008A1570240A128A15831203133E083F043B
:101D86000319E22E0A128A1553250A128A1583129E
:101D96000313071500008312031307110A128A1191
:101DA6005D260A128A15013083120313BE02003023
:101DB600031CBF03BF023E083F04031DC52E6F0868
:101DC6000A128A1570240A128A150D30831203131B
:101DD600C100FB30C000C00BEE2EC10BEE2EF32E61
:101DE60008008312031388018901831603138801EF
:101DF600890101300A128A15DA230A128A15383047
:101E06000A128A15DA230A128A150C300A128A1562
:101E1600DA230A128A1506300A128A15DA230A12FA
:101E26008A1502300A128A15DA230A128A15013037
:101E36000A128A15DA230A128A150A128A11C2268A
:101E46000A128A1501300A128A15DA230A128A152D
:101E560040300A128A1546230A128A150F300A12D2
:101E66008A15502408000A128A151A240A128A159D
:101E7600831203136D080A128A1570240A128A1532
:101E8600831203133E083F040319662F0A128A15AC
:101E960053250A128A1583120313071500008312AD
:101EA600031307110A128A115D260A128A150130D8
:101EB60083120313BE020030031CBF03BF023E0899
:101EC6003F04031D492F6F080A128A1570240A124F
:101ED6008A150D3083120313C100FB30C000C00BFE
:101EE600722FC10B722F772F080083120313AB00DA
:101EF6008E300A128A1503250A128A1583120313D5
:101F06002B080A128A1503250A128A150A128A153F
:101F160033240A128A1583120313A5002508AC0080
:101F26000A128A1533240A128A1583120313A5008E
:101F36002508AD006230A6006530A500A50BA12FCF
:101F4600A60BA12FA62F831203132D08A500A60109
:101F56002C08A700A8012708A800A7012508270420
:101F6600A90026082804AA002A08A4002908A30014
:101F7600080083120313AB008E300A128A1503255C
:101F86000A128A15831203132B080A128A150325CF
:101F96000A128A150A128A1533240A128A1583121E
:101FA6000313A5002508AC000A128A1533240A1269
:101FB6008A1583120313A5002508AD006230A6001A
:101FC6006530A500A50BE52FA60BE52FEA2F83129A
:101FD60003132D08A500A6012C08A700A8012708B1
:101FE600A800A70125082704A90026082804AA0096
:0A1FF6002A08A4002908A30008002F
:02400E003A3F37
:00000001FF
