:060000000A128A11122809
:10000800FE00030EF7000408F8000A08F90083123E
:1000180003137F08FA000A128A11EA2B0A128A11BE
:100028001528FB01FC01FD01EF018313A0308400BA
:10003800CF300A128A1589210A128A1183160313EE
:100048000A128A11FD270A128A11DE000A128A1181
:10005800FE270A128A11DF000A128A11FF27E00020
:1000680083010A128A111F2F83160313D401D501A5
:10007800D601D7010A128A159A230A128A11831205
:1000880003132108D8002008D7000A128A11002675
:100098000A128A1183120313580883160313DA000D
:1000A80083120313570883160313D900CA01CB011F
:1000B800903083120313ED000130EE000A128A1506
:1000C80031260A128A118316031347088312031371
:1000D800A50083160313460883120313A4000A120B
:1000E8008A1524240A128A110D3083160313D300AB
:1000F800AF30D200C130D100D10B8028D20B80287C
:10010800D30B802800000030831603134702C83041
:1001180003194602031C92287B1393287B17460970
:10012800D1004709D200D10A0319D20A5108903EDA
:1001380083120313A4008316031352080318013E05
:10014800013E83120313A5000A128A1524240A12F9
:100158008A117B1FBA28323083120313A40000309F
:10016800A5000A128A1524240A128A117B1BC728A3
:10017800323083120313A4000030A5000A128A1536
:10018800F6230A128A117B1083160313D8010A1268
:100198008A159A230A128A11831203132108D80098
:1001A8002008D7000A128A1100260A128A1183121F
:1001B8000313580883160313DA008312031357082E
:1001C80083160313D9005A0883120313EA0083160F
:1001D8000313590883120313E9000A128A15D62259
:1001E8000A128A117B18E3290030831603135A0276
:1001F8003D3003195902031C0829153043027C308D
:10020800031942020318D80100305A023D3003197D
:100218005902031C1829153043027C300319420285
:1002280003181829D801D80A00305A0230300319A7
:100238005902031823290230D1005108D800003090
:100248005A02303003195902031C352900305A026A
:100258003D3003195902031835290330D1005108DC
:10026800D8007B1B76298429B03083120313A3009E
:10027800FF30A400C830A5000030A6000A128A1575
:10028800F2240A128A118429963083120313A300D8
:100298000030A400C830A5000030A6000A128A1554
:1002A800F2240A128A118429C33083120313A3008B
:1002B8000030A400B030A500FF306B29C330831292
:1002C8000313A3000030A400C830A5000030A60026
:1002D8000A128A15F2240A128A1183160313C2011C
:1002E800C30184295808003A03193829013A031927
:1002F8004829033A03195829013A0319622984291C
:100308007B1FC129D129C33083120313A3000030F6
:10031800A400B030A500FF30A6000A128A15F22406
:100328000A128A11D129C33083120313A3000030A3
:10033800A4009630A5000030A6000A128A15F224FF
:100348000A128A11D129B03083120313A300FF3097
:10035800B229C33083120313A3000030A400C830AD
:10036800A5000030A6000A128A15F2240A128A1182
:1003780083160313C201C301D12983160313580836
:10038800003A03198729013A03199729033A0319EF
:10039800A729013A0319AD29D12907300A128A156C
:1003A80059220A128A11003A031DE2290A128A15F3
:1003B800C8230A128A11003A0319E3297B147B1C0B
:1003C800C828003083120313A300A4000030A5003E
:1003D800A6000A128A15F2240A128A111530831609
:1003E8000313D3004B30D200D130D100D10BFA29FE
:1003F800D20BFA29D30BFA290000FE308316031317
:10040800D300A830D2006130D100D10B092AD20B19
:10041800092AD30B092AC728831203132C08B20010
:100428002D08B3002E08B4000310330D340DB500A9
:100438003508B8002F08B2003008B3003108B400FE
:100448000310330D340DB5003508B700380803190B
:10045800392A370838020318402A3803FF3A370781
:10046800B20019303202031C402A2F08AC003008B1
:10047800AD003108AE000800370803190800380835
:10048800370203184F2A3703FF3A3807B2001930EA
:100498003202031808000630B2003208B600AE1B5C
:1004A800B617B11B3617AD17FF30AC05FF30AD05D9
:1004B8000030AE05B017FF30AF05FF30B005003093
:1004C800B1053708380203188F2A01300310AF0D21
:1004D800B00DB10DFF3E031D6A2A0130B70237087F
:1004E800380603198A2A0130B60236080739031973
:1004F8008A2A692A01300310AE0CAD0CAC0CFF3E01
:10050800031D7F2A0130B2003208B80738083706C1
:100518000319B82A7E2A380837020318B82A013086
:100528000310AC0DAD0DAE0DFF3E031D942A013036
:10053800B802370838060319B42A0130B60236085B
:1005480007390319B42A932A01300310B10CB00CEF
:10055800AF0CFF3E031DA92A0130B2003208B707CD
:1005680038083706031DA82AB61FCA2AFF30AC066A
:10057800FF30AD06FF30AE060130AC07003003187F
:100588000130AD07003003180130AE07361FDC2AF2
:10059800FF30AF06FF30B006FF30B1060130AF07BD
:1005A800003003180130B007003003180130B107DC
:1005B800B6012C08AF072D08031103182D0A031DD7
:1005C800B0072E08031103182E0A031DB107B11F27
:1005D800FF2AFF30AF06FF30B006FF30B10601300A
:1005E800AF07003003180130B0070030031801309E
:1005F800B107B601B60A2F08A0003008A1003108DB
:10060800A2003808B2003208A3003608B300330845
:10061800A4000A128A159227831203132008AC003B
:100628002108AD002208AE00080083160313D40188
:10063800D501D701D801D201D301CA01CB010430B9
:10064800CF004F08D600560803190800C33083129C
:100658000313A3000030A400C830A5000030A60092
:100668000A128A15F2240A128A11831603135808EB
:10067800803AFF0083307F02031D442BE430570289
:100688000318722B13300A128A1584240A128A114D
:1006980083120313230883160313D7070318D80AF2
:1006A80083120313240883160313D8075208570725
:1006B800CA0053080318530A5807CB004B08831283
:1006C8000313EE00831603134A0883120313ED0085
:1006D8000A128A15AF210A128A11392B00308312A7
:1006E8000313A300A4000030A500A6000A128A156F
:1006F800F2240A128A11153083160313D1004B30E5
:10070800D000D130CF00CF0B872BD00B872BD10B4C
:10071800872B00005A3083120313A3000030A40073
:100728009C30A500FF30A6000A128A15F2240A128E
:100738008A11831603135508803AFF0080307F0220
:10074800031DA82B463054020318BF2B14300A127D
:100758008A1584240A128A11831203132308831624
:100768000313D4070318D50A831203132408831626
:100778000313D5079D2B003083120313A300A40095
:100788000030A500A6000A128A15F2240A128A115E
:10079800153083160313D1004B30D000D130CF0071
:1007A800CF0BD42BD00BD42BD10BD42B000083161A
:1007B80003135708D2070318D30A5808D307D701D9
:1007C800D801D401D5010130D602272B8C1E062C66
:1007D8001A08F6006F08A03E84007608831380008C
:1007E8006F08013E0F39F600760883160313CD0013
:1007F8004D084C060319062C4D08F600760883129E
:100808000313EF0083120C1E232C831603130C1EF4
:10081800232C4E08B03E8400831300088312031370
:1008280099000130F600760883160313CE070F30BF
:10083800F6007608CE054E087D0603190C120B1D2E
:10084800982C0B1164308312810001308316031336
:10085800C0070318C10A0030C1070130C2070318D6
:10086800C30A0030C307F430F0000130F10041083A
:10087800F3004008F2000A128A1552240A128A115B
:1008880070087104031D502C01308312031386066F
:1008980083160313C001C101831203138618061DB2
:1008A800592C061E592C861A962C0130F60076080B
:1008B800FC077C080A128A159A210A128A11031C5D
:1008C8006B2C8312031386186B2C7B12FB167C0887
:1008D8000A128A159A210A128A11031C792C83128A
:1008E80003130619792C7B12FB147C080A128A154B
:1008F8009A210A128A11031C872C83120313061AE1
:10090800872C7B127B157C080A128A159A210A12F9
:100918008A11031C982C83120313861A982C7B12B5
:10092800FB15982CFC017B167A0883120313FF0031
:1009380079088A0078088400770E8300FE0E7E0E00
:100948000900831203133C08BF003D08C0003E089D
:10095800C1000310400D410DC2004208C7004708FE
:10096800031DBD2C0030B9000030BA000030BB00B8
:1009780008003908BF003A08C0003B08C10003104E
:10098800400D410DC2004208C8004808031DD32C81
:100998000030B9000030BA000030BB000800003059
:1009A800C4000030C5000030C60089304807BF00C9
:1009B8003F08C7023C08BF003D08C0003E08C10010
:1009C80010300310C10CC00CBF0CFF3E031DE52CFA
:1009D8003F08C2004208C8003908BF003A08C000F2
:1009E8003B08C10010300310C10CC00CBF0CFF3E07
:1009F800031DF72C3F08C2004208C8068030BF001C
:100A08003F08C805BD17FF30BC05FF30BD050030E5
:100A1800BE05BA17FF30B905FF30BA050030BB056F
:100A28001830BF003F08C30001300310C40DC50DC6
:100A3800C60DFF3E031D192D3B083E02031D2A2D3E
:100A48003A083D02031D2A2D39083C02031C372DA4
:100A58003908BC023A08031C3A0FBD023B08031CC4
:100A68003B0ABE02441401300310BC0DBD0DBE0D7F
:100A7800FF3E031D382D0130C302031D182D440805
:100A8800A0004508A1004608A2004708BF003F088B
:100A9800A3004808C0004008A4000A128A1592273B
:100AA800831203132008B9002108BA002208BB00EA
:100AB8000800831203136108E8006008E700E301F7
:100AC800E401E501E60127306802103003196702E6
:100AD800031C872D6708F03EE70068080318013EED
:100AE800D83EE8000130E2006208E607672D670893
:100AF800183EE70068080318013EFC3EE800013094
:100B0800E2006208E50703306802E830031967026B
:100B1800031C9B2D7B2D67089C3EE7006808031883
:100B2800013EFF3EE8000130E2006208E4070030C1
:100B38006802643003196702031CAF2D8F2D670804
:100B4800F63EE70068080318013EFF3EE800013062
:100B5800E2006208E307003068020A3003196702FE
:100B68000318A32D27306102113003196002031CFA
:100B7800C42D6608303E0A128A15F1210A128A111C
:100B88000330831203136102E93003196002031C66
:100B9800D42D6508303E0A128A15F1210A128A11ED
:100BA8000030831203136102653003196002031CCD
:100BB800E42D6408303E0A128A15F1210A128A11BE
:100BC80000308312031361020B3003196002031C07
:100BD800F42D6308303E0A128A15F1210A128A118F
:100BE8008312031360086104031908006708303E84
:100BF8000A128A15F12108000130831203135802E2
:100C0800F53003195702031C332ED830A0000930E1
:100C1800A1005708883EA20058080318013EFE3E6E
:100C2800A3000A128A152D250A128A1183120313AA
:100C38002108DD002008DC005D08A1005C08A00098
:100C48000130A2000030A3000A128A152D250A12CD
:100C58008A11831203132108DF0020088B2E5808FD
:100C6800A9005708A8000A128A1541220A128A11F7
:100C7800831203132808AF002908B0002A08B1001E
:100C88004A30AC00F130AD00C030AE000A128A1113
:100C980010220A128A11831203132C08BC002D0893
:100CA800BD002E08BE000C30B9003A30BA004630FC
:100CB800BB000A128A11A5240A128A11831203138F
:100CC8003908D9003A08DA003B08DB000030BC00DC
:100CD8008030BD003F30BE005908B9005A08BA003C
:100CE8005B08BB000A128A11A5240A128A11831212
:100CF80003133908C9003A08CA003B08CB000A1296
:100D08008A119126831203134A08DF004908DE007E
:100D18005F08D8005E08D70008008312031349084B
:100D2800CD004A08CE004B08CF0003104E0D4F0DE2
:100D3800D0005008D6005608031DAB2E0030CC005A
:100D48000030CB000030CA000030C9000800490854
:100D5800CD004A08CE004B08CF0017300310CF0C47
:100D6800CE0CCD0CFF3E031DB22E4D08D00050080E
:100D7800D100CA17FF30C905FF30CA050030CB05BE
:100D88004908D2004A08D3004B08D400D5018E3058
:100D9800D602D61FED2E5608803A8F3E0318DD2E58
:100DA8000030CC000030CB000030CA000030C90051
:100DB800080001300310D50CD40CD30CD20CFF3E24
:100DC800031DDE2E0130CD004D08D6070319082F6C
:100DD800DD2E18305602031C052F0030CC000030E1
:100DE800CB000030CA000030C90008000130CD0037
:100DF8000310D20DD30DD40DD50DCD0BFC2E013023
:100E0800D6025608031DFA2E51080319162FD209C7
:100E1800D309D409D509D20A0319D30A0319D40A64
:100E28000319D50A5508CC005408CB005308CA004A
:100E38005208C90008000A128A1547230A128A11A3
:100E4800831603134B0883120313EE008316031350
:100E58004A0883120313ED000A128A15AF210A12F9
:100E68008A11FB1E7F2F903083120313ED0001308F
:100E7800EE000A128A15ED250A128A118316031349
:100E8800470883120313A500831603134608831229
:100E98000313A4000A128A15F6230A128A117F3056
:100EA80083160313DD00D430DC00AE30DB00DB0B2F
:100EB8005B2FDC0B5B2FDD0B5B2F622F831603137D
:100EC8004609DB004709DC00DB0A0319DC0A5B087A
:100ED800903E83120313A400831603135C080318BF
:100EE800013E013E83120313A5000A128A15F62358
:100EF8000A128A11FB12FB1C872F0A128A15D026A8
:100F08000A128A11FB107B1D8F2F0A128A111923CE
:100F18000A128A117B11FB1D242F0A128A1138200C
:100F28000A128A11FB11242F83120313EB01EC011F
:100F38000430E9006908EA006A080319B52F0A12A3
:100F48008A159A230A128A11831203132008EB07C1
:100F58000318EC0A2108EC070130EA026A08031DAD
:100F6800A32F0430A0000030A1006C08A3006B0878
:100F7800A2000A128A1575260A128A11831203130F
:100F88002108EC002008EB0000300A128A15912194
:100F98000A128A11831203136C08803AFF0080300A
:100FA8007F02031DD92F51306B02031CF22F8312CD
:100FB80003136C08D8006B08D7000A128A110026A0
:100FC8000A128A11831203135808E1005708E00037
:100FD8000A128A115D250A128A11F82F25300A1281
:100FE8008A1593220A128A111A300A128A15932234
:100FF80008000F340D340C3408308A000408840AC1
:10100800820700346D346D342034643472346934AA
:10101800763465346E34203420342034203400345F
:1010280030346D346D342034643472346934763439
:1010380065346E34003463346D34203449345234AA
:101048002034203420342034203400343E343134E9
:101058003634303400346D344134683400346D34FF
:08106800563400342F3400342B
:1013120064008001840A04060319003404068A2941
:1013220083120313A300A31723080A128A15172294
:101332000800F0000B30700203187B1EA229031470
:101342000800031008003E308316031386000B17B3
:101352008B17043081008B168B1708000A128A1132
:1013620098270A128A15831203136E08EA006D0881
:10137200E9000A128A152B2208000A128A15FA229B
:101382000A128A1580300A128A156E230A128A15E9
:1013920084300A128A156E23080040308316031324
:1013A20094002030831203139400D0308316031369
:1013B2008700831203130714871408008312031390
:1013C200981CE72918121816031008006F088316D4
:1013D20003134C06031DEF29031008000314080031
:1013E20083120313A200091189100914220888002C
:1013F200091509110730A1007D30A000A00BFF29BB
:10140200A10BFF2908003F308316031385008130AA
:10141200831203139F000230831603139F0053307D
:1014220083120313A000A00B142A080083120313D3
:10143200A200091189100910220888000915091152
:101442000D30A100FB30A000A00B252AA10B252AFC
:101452002A2A080040300A128A1591210A128A1596
:10146200831203136A08E1006908E0000A128A1174
:101472005D250A128A1501300A128A159322080084
:10148200831203132808A0002908A100A2018E30AC
:10149200AB002B08A300A4010A128A15922783121B
:1014A20003132008A8002108A9002208AA000800A6
:1014B20083120313A4008E300A128A156E230A12B5
:1014C2008A158312031324080A128A156E230A123C
:1014D2008A150A128A15202383120313A3002308F4
:1014E200A5002508080083160313C601C7010A12C6
:1014F2008A159A230A128A15831203132108D80027
:101502002008D7000A128A110026831203135808F2
:1015120083160313C500831203135708831603139C
:10152200C400080083120313A400240884000A12D2
:101532008A1500200A128A15003A031908002408A5
:1015420084000A128A1500200A128A150A128A15C4
:10155200F1210A128A15013083120313A300230812
:10156200A407962A83120313A300A2014130A1000B
:10157200EE30A000A00BBB2AA10BBB2A00008312F5
:1015820003138C11230893008C1DC52A1308A00095
:101592002008A2008C114130A100EE30A000A00B67
:1015A200D02AA10BD02A0000080000300A128A15A6
:1015B20091210A128A150030831203136A02A130A4
:1015C20003196902031CEF2A6A08E1006908E000B6
:1015D2000A128A115D250A128A15F52A25300A1285
:1015E2008A1593220A128A151A300A128A15932230
:1015F2000800831603138717BF3083120313A0005A
:101602002008831603138705181514309900181340
:10161200831203131813831603131812831203136E
:1016220098171816831603130C128C1698160B179C
:10163200CE01FD01CC0183120313EF0108000A124F
:101642008A15DF210A128A15031C202B8B1383169D
:1016520003134C08A03E8400831300088312031373
:10166200A0002008A1000130A00020088316031367
:10167200CC070F3083120313A00020088316031334
:10168200CC058B1783120313210808007F308312C5
:101692000313EE00D430ED00AE30EC00EC0B4F2B18
:1016A200ED0B4F2BEE0B4F2B562B0A128A15A42152
:1016B2000A128A150A128A15BE210A128A150A12FC
:1016C2008A15CE210A128A150A128A1504220A12D2
:1016D2008A150A128A15AB25080083120313A20089
:1016E2007D08013E0F39831603134E060319712B31
:1016F2008B13831203132208A0007D08B03E8400DE
:101702002008831380007D08013E0F39A0002008C5
:10171200FD00831603130C168B172130831203135B
:10172200A1007630A000A00B942BA10B942B0000FB
:10173200080083120313A901AA011F151F199F2B69
:10174200831603131E0883120313A200063003102C
:10175200A20CFF3E031DA82B2208A300A4011E0811
:10176200A500A6010310A50DA60D0310A50DA60D3B
:1017720023082504A70024082604A8002708A90096
:101782002808AA002A08A1002908A0000800093098
:1017920083120313A3002308A4000D3024020318AC
:1017A200F42B8E300A128A156E230A128A158312BE
:1017B200031324080A128A156E230A128A150A12C2
:1017C2008A1520230A128A15003A0319EA2B0130DE
:1017D2000800013083120313A3002308A4070D306D
:1017E2002402031CD22B00300800831603135E0868
:1017F2000A128A15B3220A128A15831203132408C5
:10180200250403191D2C0715000083120313071169
:101812000730A7007D30A600A60B0D2CA70B0D2CC0
:10182200013083120313A4020030031CA503A50296
:1018320024082504031D042C8316031360080A12CE
:101842008A15B3220800831603135F080A128A1549
:10185200B3220A128A1583120313240825040319DA
:101862004B2C071500008312031307110730A70042
:101872007D30A600A60B3B2CA70B3B2C013083121C
:101882000313A4020030031CA503A50224082504A7
:10189200031D322C8316031360080A128A15B32221
:1018A20008007008710403197F2CF501F50AF11B79
:1018B200662C01300310F00DF10DFF3E031D5B2C71
:1018C2000130F4007408F507582C71087302031DE7
:1018D2006C2C70087202031C742C7008F2027108DE
:1018E200031CF303F30201300310F10CF00CFF3E72
:1018F200031D752C0130F502031D662C7308F100DF
:101902007208F000080083120313AB008E300A1233
:101912008A156E230A128A15831203132B080A12E0
:101922008A156E230A128A150A128A1520230A12B0
:101932008A1583120313A5002508AC000A128A1522
:10194200202383120313A5002508AD002D08A5004E
:10195200A6012C08A700A8012708A800A7012508AE
:101962002704A90026082804AA002A08A400290896
:10197200A300080083120313AB008E300A128A15EB
:101982006E230A128A15831203132B080A128A1570
:101992006E230A128A150A128A1520230A128A1540
:1019A20083120313A5002508AC000A128A1520230E
:1019B20083120313A5002508AD002D08A500A6017A
:1019C2002C08A700A8012708A800A70125082704BA
:1019D200A90026082804AA002A08A4002908A300AE
:1019E200080083120313A801A901AA01AB0124086C
:1019F200A7002708A8002308A7002708A90026088F
:101A0200A7002708AA002508A7002708AB009130E5
:101A12000A128A156E230A128A15831203132808E2
:101A22000A128A156E230A128A15831203132908D1
:101A32000A128A156E230A128A15831203132A08C0
:101A42000A128A156E230A128A15831203132B08AF
:101A52000A128A156E23080083120313A501A60138
:101A6200200821040319662DA701A70AA11B452DF1
:101A720001300310A00DA10DFF3E031D3A2D0130D0
:101A8200A4002408A707372D01300310A50DA60DC9
:101A9200FF3E031D462D21082302031D522D20085F
:101AA2002202031C5B2D2008A2022108031CA303AF
:101AB200A302251401300310A10CA00CFF3E031D4C
:101AC2005C2D0130A702031D452D2608A100250823
:101AD200A00008000A128A159A230A128A15831294
:101AE20003132108D8002008D7000A128A11002601
:101AF2000A128A15831203135808E2005708E100FC
:101B0200831603134508803A83120313E000620828
:101B1200803A6002031D912D61088316031344026B
:101B2200031CA22D83120313620883160313C5003C
:101B320083120313610883160313C400C601C7018D
:101B42000800013083160313C6070318C70A0030C2
:101B5200C707080083120313880189018316031340
:101B62008801890101300A128A1517220A128A1580
:101B720038300A128A1517220A128A150C300A12F4
:101B82008A1517220A128A1506300A128A15172296
:101B92000A128A1502300A128A1517220A128A15A7
:101BA20001300A128A1517220A128A150A128A1598
:101BB20031270A128A1501300A128A1517220A12CF
:101BC2008A1540300A128A1591210A128A150F309D
:101BD2000A128A15932208000A128A1574220A121E
:101BE2008A15831603135F080A128A15B3220A1292
:101BF2008A15831203136D086E0403191D2E0A122F
:101C02008A156B250A128A15831203130715000021
:101C12008312031307110A128A1198270A128A15CE
:101C2200013083120313ED020030031CEE03EE02B7
:101C32006D086E04031D002E8316031360080A123A
:101C42008A15B3220A128A150D3083160313D000A7
:101C5200FB30CF00CF0B2B2ED00B2B2E302E0800BB
:101C62000A128A1574220A128A15831603135E0851
:101C72000A128A15B3220A128A15831203136D08F7
:101C82006E040319612E0A128A156B250A128A152F
:101C920083120313071500008312031307110A129C
:101CA2008A1198270A128A15013083120313ED0252
:101CB2000030031CEE03EE026D086E04031D442E79
:101CC2008316031360080A128A15B3220A128A15B0
:101CD2000D3083160313D000FB30CF00CF0B6F2ED5
:101CE200D00B6F2E742E080083120313A601A11FBE
:101CF200812EA009A109A00A0319A10AA601A60A18
:101D0200A31F8C2EA209A309A20A0319A30A013058
:101D1200A4002408A606A701A8012008210403198B
:101D2200C32EA501A50AA11BA22E01300310A00DEE
:101D3200A10DFF3E031D972E0130A4002408A50724
:101D4200942E01300310A70DA80DFF3E031DA32EF4
:101D520021082302031DAF2E20082202031CB82EE5
:101D62002008A2022108031CA303A30227140130A6
:101D72000310A10CA00CFF3E031DB92E0130A502D9
:101D8200031DA22E26080319CB2EA709A809A70A0C
:101D92000319A80A2808A1002708A0000800831632
:101DA2000313CA01CB01C33083120313A300003013
:101DB200A400C830A5000030A6000A128A15F22439
:101DC2000A128A15831603134B08803AFF008F30DC
:101DD2007F02031DEE2EA0304A020318142F133087
:101DE2000A128A1584240A128A15831203132308FD
:101DF20083160313CA070318CB0A8312031324089A
:101E020083160313CB074B0883120313EE008316CA
:101E120003134A0883120313ED000A128A15AF2135
:101E22000A128A15E32E003083120313A300A400C2
:101E32000030A500A6000A128A15F2240A128A1599
:101E4200153083160313D1004B30D000D130CF00B0
:101E5200CF0B292FD00B292FD10B292F00000800DF
:101E620000300A128A1591210A128A1519300A12B3
:101E72008A15BB240A128A15831203132408E1006F
:101E82002308E0000A128A115D250A128A153130F0
:101E92000A128A1593220A128A151A300A128A1510
:101EA200BB240A128A15831203132408E1002308B3
:101EB200E0000A128A115D250A128A152A300A12D6
:101EC2008A1593220A128A1540300A128A15912124
:101ED2000A128A1516300A128A15BB240A128A15AA
:101EE200831203132408E1002308E0000A128A1176
:101EF2005D250A128A152E300A128A1593220A12B9
:101F02008A15663083120313EB007730EA0024301F
:101F1200E900E90B8A2FEA0B8A2FEB0B8A2F0000CC
:101F2200080083120313230803199C2F220821049B
:101F32002004031DAF2F0030A0000030A1000030AC
:101F4200A20008000130A5002508A30701300310F4
:101F5200A20CA10CA00CFF3E031DA82FFE302205EF
:101F62000319CA2FA32F0130A5002508A3070130AA
:101F7200A007003003180130A10700300318013018
:101F8200A20701300310A20CA10CA00CFF3E031DFE
:101F9200C32FFF3022050319D92FB42F0130A3021A
:101FA20001300310A00DA10DA20DFF3E031DD22F83
:101FB200A11BDF2F023023020318CF2F2318E72F94
:101FC200FF30A0057F30A105FF30A2050310A30C4E
:101FD2002308A500A601A70110300310A50DA60D28
:101FE200A70DFF3E031DEE2F2508A0042608A1041D
:0E1FF2002708A204240803190800A2170800FB
:02400E003A3F37
:00000001FF
