:060000000A128A11122809
:10000800FE00030EF7000408F8000A08F90083123E
:1000180003137F08FA000A128A11C82B0A128A11E0
:100028001528FB01FC01FD01EF018313A0308400BA
:10003800CF300A128A15E9210A128A11831603138E
:100048000A128A15E6210A128A11E0000A128A1594
:10005800E7210A128A11E1000A128A15E821E20052
:1000680083010A128A11142F83160313D601D701AC
:10007800D801D901DB01DC01CA01CB019030CF00E6
:100088000130D0000A128A1542260A128A118316F4
:100098000313470883120313A500831603134608A6
:1000A80083120313A4000A128A157E240A128A11E5
:1000B8000D3083160313D500AF30D400C130D30000
:1000C800D30B6428D40B6428D50B642800000030B7
:1000D800831603134702C83003194602031C762807
:1000E8007B1377287B174609D3004709D400D30A26
:1000F8000319D40A5308903E83120313A4008316ED
:10010800031354080318013E013E83120313A5008C
:100118000A128A157E240A128A117B1F9E28323001
:1001280083120313A4000030A5000A128A157E2446
:100138000A128A117B1BAB28323083120313A400E6
:100148000030A5000A128A1550240A128A117B1061
:1001580083160313DA010A128A15F4230A128A1184
:10016800831203132108DA002008D9000A128A1121
:100178003B250A128A11831203135A0883160313A4
:10018800DC0083120313590883160313DB005C0891
:1001980083120313EC00831603135B088312031303
:1001A800EB000A128A159C220A128A117B18C729A9
:1001B8000030831603135C02383003195B02031CFA
:1001C800EC28153043027C30031942020318DA0187
:1001D80000305C02383003195B02031CFC28153020
:1001E80043027C30031942020318FC28DA01DA0AB8
:1001F80000305C02303003195B0203180729023013
:10020800D3005308DA0000305C02303003195B0277
:10021800031C192900305C02383003195B020318EB
:1002280019290330D3005308DA007B1B5A2968299F
:10023800B03083120313A300FF30A400C830A50018
:100248000030A6000A128A1583250A128A11682925
:10025800963083120313A3000030A400C830A50011
:100268000030A6000A128A1583250A128A11682905
:10027800C33083120313A3000030A400B030A500DC
:10028800FF304F29C33083120313A3000030A400AA
:10029800C830A5000030A6000A128A1583250A1264
:1002A8008A1183160313C201C30168295A08003A48
:1002B80003191C29013A03192C29033A03193C296B
:1002C800013A0319462968297B1FA529B529C33096
:1002D80083120313A3000030A400B030A500FF3040
:1002E800A6000A128A1583250A128A11B529C33075
:1002F80083120313A3000030A4009630A500003039
:10030800A6000A128A1583250A128A11B529B03067
:1003180083120313A300FF309629C33083120313FB
:10032800A3000030A400C830A5000030A6000A12BF
:100338008A1583250A128A1183160313C201C30181
:10034800B529831603135A08003A03196B29013A91
:1003580003197B29033A03198B29013A03199129B7
:10036800B52907300A128A15B2220A128A11003AF0
:10037800031DC6290A128A1522240A128A11003A74
:100388000319C7297B147B1CAC2800308312031384
:10039800A300A4000030A500A6000A128A15832530
:1003A8000A128A11153083160313D5004B30D40076
:1003B800D130D300D30BDE29D40BDE29D50BDE29AF
:1003C8000000FE3083160313D500A830D400613036
:1003D800D300D30BED29D40BED29D50BED29AB2890
:1003E800831203132E08B4002F08B5003008B60096
:1003F8000310350D360DB7003708BA003108B400C0
:100408003208B5003308B6000310350D360DB700B5
:100418003708B9003A0803191D2A39083A0203189F
:10042800242A3A03FF3A3907B40019303402031C6E
:10043800242A3108AE003208AF003308B0000800A3
:100448003908031908003A0839020318332A39030E
:10045800FF3A3A07B400193034020318080006308E
:10046800B4003408B800B01BB817B31B3817AF175F
:10047800FF30AE05FF30AF050030B005B217FF30D2
:10048800B105FF30B2050030B30539083A02031848
:10049800732A01300310B10DB20DB30DFF3E031DD9
:1004A8004E2A0130B90239083A0603196E2A01307A
:1004B800B8023808073903196E2A4D2A013003108B
:1004C800B00CAF0CAE0CFF3E031D632A0130B40024
:1004D8003408BA073A08390603199C2A622A3A08E6
:1004E800390203189C2A01300310AE0DAF0DB00D70
:1004F800FF3E031D782A0130BA0239083A0603196B
:10050800982A0130B802380807390319982A772A37
:1005180001300310B30CB20CB10CFF3E031D8D2A41
:100528000130B4003408B9073A083906031D8C2A8B
:10053800B81FAE2AFF30AE06FF30AF06FF30B00658
:100548000130AE07003003180130AF070030031840
:100558000130B007381FC02AFF30B106FF30B2069D
:10056800FF30B3060130B107003003180130B2077D
:10057800003003180130B307B8012E08B1072F085F
:10058800031103182F0A031DB207300803110318BB
:10059800300A031DB307B31FE32AFF30B106FF304B
:1005A800B206FF30B3060130B1070030031801303E
:1005B800B207003003180130B307B801B80A310890
:1005C800A0003208A1003308A2003A08B400340899
:1005D800A3003808B5003508A4000A128A11872735
:1005E800831203132008AE002108AF002208B000D0
:1005F800080083160313D601D701D901DA01D40103
:10060800D501CA01CB010430D1005108D8005808DF
:1006180003190800C33083120313A3000030A40099
:10062800C830A5000030A6000A128A1583250A12D0
:100638008A11831603135A08803AFF0083307F0219
:10064800031D282BE43059020318502B13300A12CB
:100658008A15DE240A128A118312031323088316CB
:100668000313D9070318DA0A83120313240883161D
:100678000313DA0754085907CA0055080318550A1E
:100688005A07CB004B08D0004A08CF000A128A1537
:1006980071220A128A111D2B003083120313A30042
:1006A800A4000030A500A6000A128A1583250A12A4
:1006B8008A11153083160313D3004B30D200D13082
:1006C800D100D10B652BD20B652BD30B652B00000A
:1006D8005A3083120313A3000030A4009C30A500F5
:1006E800FF30A6000A128A1583250A128A1183167A
:1006F80003135708803AFF0080307F02031D862BC2
:100708004630560203189D2B14300A128A15DE242F
:100718000A128A1183120313230883160313D607B8
:100728000318D70A83120313240883160313D70761
:100738007B2B003083120313A300A4000030A50014
:10074800A6000A128A1583250A128A111530831603
:100758000313D3004B30D200D130D100D10BB22BD0
:10076800D20BB22BD30BB22B0000831603135908FC
:10077800D4070318D50A5A08D507D901DA01D601D2
:10078800D7010130D8020B2B8C1EE42B1A08F60077
:100798006F08A03E84007608831380006F08013E2E
:1007A8000F39F600760883160313CD004D084C0662
:1007B8000319E42B4D08F600760883120313EF00A3
:1007C80083120C1E012C831603130C1E012C4E08D9
:1007D800B03E84008313000883120313990001308C
:1007E800F600760883160313CE070F30F600760856
:1007F800CE054E087D0603190C120B1D762C0B1125
:10080800643083128100013083160313C007031874
:10081800C10A0030C1070130C2070318C30A0030FB
:10082800C307F430F0000130F1004108F30040083C
:10083800F2000A128A15AC240A128A11700871048F
:10084800031D2E2C0130831203138606831603130F
:10085800C001C101831203138618061D372C061E1A
:10086800372C861A742C0130F6007608FC077C08B1
:100878000A128A15FA210A128A11031C492C8312BA
:1008880003138618492C7B12FB167C080A128A155A
:10089800FA210A128A11031C572C83120313061912
:1008A800572C7B12FB147C080A128A15FA210A12AB
:1008B8008A11031C652C83120313061A652C7B12FC
:1008C8007B157C080A128A15FA210A128A11031C60
:1008D800762C83120313861A762C7B12FB15762C42
:1008E800FC017B167A0883120313FF0079088A003B
:1008F80078088400770E8300FE0E7E0E09008312AE
:1009080003133E08C1003F08C2004008C30003109B
:10091800420D430DC4004408C9004908031D9B2C1F
:100928000030BB000030BC000030BD0008003B08B0
:10093800C1003C08C2003D08C3000310420D430D2E
:10094800C4004408CA004A08031DB12C0030BB008B
:100958000030BC000030BD0008000030C600003088
:10096800C7000030C80089304A07C1004108C902E1
:100978003E08C1003F08C2004008C3001030031001
:10098800C30CC20CC10CFF3E031DC32C4108C4009C
:100998004408CA003B08C1003C08C2003D08C30027
:1009A80010300310C30CC20CC10CFF3E031DD52C24
:1009B8004108C4004408CA068030C1004108CA057D
:1009C800BF17FF30BE05FF30BF050030C005BC179C
:1009D800FF30BB05FF30BC050030BD051830C10035
:1009E8004108C50001300310C60DC70DC80DFF3EF4
:1009F800031DF72C3D084002031D082D3C083F024B
:100A0800031D082D3B083E02031C152D3B08BE02A2
:100A18003C08031C3C0FBF023D08031C3D0AC002F2
:100A2800461401300310BE0DBF0DC00DFF3E031D5F
:100A3800162D0130C502031DF62C4608A0004708F4
:100A4800A1004808A2004908C1004108A3004A08BB
:100A5800C2004208A4000A128A11872783120313CE
:100A68002008BB002108BC002208BD000800831232
:100A780003135A08803AFF0081307F02031D462D78
:100A8800F5305902031C742DD83083120313A000CB
:100A98000930A1005908883EA2005A080318013EEF
:100AA800FE3EA3000A128A1584260A128A118312AE
:100AB80003132108DF002008DE005F08A1005E089C
:100AC800A0000130A2000030A3000A128A15842673
:100AD8000A128A11831203132108E1002008E0009A
:100AE800831203135A08803AFF0081307F02031DE6
:100AF8007F2DF53059020318DC2D831203135A0891
:100B0800A9005908A8000A128A152F230A128A1167
:100B1800831203132808B1002908B2002A08B30079
:100B28004A30AE00F130AF00C030B0000A128A116E
:100B3800F4210A128A11831203132E08BE002F080B
:100B4800BF003008C0000C30BB003A30BC00463053
:100B5800BD000A128A1183240A128A118312031310
:100B68003B08DB003C08DC003D08DD000030BE002F
:100B78008030BF003F30C0005B08BB005C08BC0091
:100B88005D08BD000A128A1183240A128A11831291
:100B980003133B08CB003C08CC003D08CD000A12EB
:100BA8008A118626831203134C08E1004B08E000E3
:100BB800831203136108DA006008D9000800831261
:100BC80003136308EA006208E900E501E601E701AA
:100BD800E80127306A02103003196902031C0D2E40
:100BE8006908F03EE9006A080318013ED83EEA00A9
:100BF8000130E4006408E807ED2D6908183EE900B3
:100C08006A080318013EFC3EEA000130E40064086B
:100C1800E70703306A02E83003196902031C212E32
:100C2800012E69089C3EE9006A080318013EFF3E50
:100C3800EA000130E4006408E60700306A02643024
:100C480003196902031C352E152E6908F63EE900C2
:100C58006A080318013EFF3EEA000130E400640818
:100C6800E50700306A020A30031969020318292EC1
:100C780027306302113003196202031C4A2E6808E8
:100C8800303E0A128A1537220A128A11033083125B
:100C980003136302E93003196202031C5A2E670822
:100CA800303E0A128A1537220A128A11003083123E
:100CB80003136302653003196202031C6A2E660877
:100CC800303E0A128A1537220A128A11003083121E
:100CD800031363020B3003196202031C7A2E6508A2
:100CE800303E0A128A1537220A128A118312031318
:100CF80062086304031908006908303E0A128A155D
:100D080037220800831203134B08CF004C08D00089
:100D18004D08D1000310500D510DD2005208D800D3
:100D28005808031DA02E0030CE000030CD00003042
:100D3800CC000030CB0008004B08CF004C08D00096
:100D48004D08D10017300310D10CD00CCF0CFF3E4A
:100D5800031DA72E4F08D2005208D300CC17FF302E
:100D6800CB05FF30CC050030CD054B08D4004C082E
:100D7800D5004D08D600D7018E30D802D81FE22EF4
:100D88005808803A8F3E0318D22E0030CE0000302B
:100D9800CD000030CC000030CB000800013003103B
:100DA800D70CD60CD50CD40CFF3E031DD32E013026
:100DB800CF004F08D8070319FD2ED22E183058023D
:100DC800031CFA2E0030CE000030CD000030CC00DD
:100DD8000030CB0008000130CF000310D40DD50D32
:100DE800D60DD70DCF0BF12E0130D8025808031DB0
:100DF800EF2E530803190B2FD409D509D609D709A3
:100E0800D40A0319D50A0319D60A0319D70A5708A9
:100E1800CE005608CD005508CC005408CB00080079
:100E28000A128A15A1230A128A11831603134B0882
:100E3800D0004A08CF000A128A1571220A128A11B4
:100E4800FB1E6E2F903083160313CF000130D000A5
:100E58000A128A15BE250A128A1183160313470837
:100E680083120313A5008316031346088312031382
:100E7800A4000A128A1550240A128A117F30831698
:100E88000313DF00D430DE00AE30DD00DD0B4A2F67
:100E9800DE0B4A2FDF0B4A2F512F83160313460907
:100EA800DD004709DE00DD0A0319DE0A5D08903E11
:100EB80083120313A400831603135E080318013E6C
:100EC800013E83120313A5000A128A1550240A1240
:100ED8008A11FB12FB1C762F0A128A15DF260A12CA
:100EE8008A11FB107B1D7E2F0A128A11FD220A121D
:100EF8008A117B11FB1D192F0A128A1138200A1238
:100F08008A11FB11192F8312031323080319912F38
:100F1800220821042004031DA42F0030A000003063
:100F2800A1000030A20008000130A5002508A30791
:100F380001300310A20CA10CA00CFF3E031D9D2F35
:100F4800FE3022050319BF2F982F0130A500250870
:100F5800A3070130A007003003180130A1070030B3
:100F680003180130A20701300310A20CA10CA00C39
:100F7800FF3E031DB82FFF3022050319CE2FA92FDE
:100F88000130A30201300310A00DA10DA20DFF3EF8
:100F9800031DC72FA11BD42F023023020318C42F0F
:100FA8002318DC2FFF30A0057F30A105FF30A205F4
:100FB8000310A30C2308A500A601A70110300310F5
:100FC800A50DA60DA70DFF3E031DE32F2508A004C0
:100FD8002608A1042708A204240803190800A21758
:100FE80008003E308316031386000B178B17043056
:100FF80081008B168B17080008308A000408840AC1
:10100800820700346D346D342034643472346934AA
:10101800763465346E34203420342034203400345F
:1010280030346D346D342034643472346934763439
:1010380065346E34003463346D34203449345234AA
:101048002034203420342034203400343E343134E9
:101058003634303400346D344134683400346D34FF
:08106800563400342F3400342B
:1013CC000F340D340C3464008001840A04060319B4
:1013DC0000340406EA2983120313A300A31723087D
:1013EC000A128A155D220800F0000B3070020318F7
:1013FC007B1E022A03140800031008000A128A1527
:10140C0054230A128A1580300A128A15C8230A122C
:10141C008A1584300A128A15C823080040308316B6
:10142C00031394002030831203139400D0308316DE
:10143C000313870083120313071487140800831205
:10144C000313981C2D2A18121816031008006F0885
:10145C00831603134C06031D352A031008000314CE
:10146C00080083120313A200091189100914220821
:10147C008800091509110730A1007D30A000A00BD0
:10148C00452AA10B452A08003F308316031385001B
:10149C008130831203139F000230831603139F00C5
:1014AC00533083120313A000A00B5A2A0800831296
:1014BC000313A200091189100910220888000915CC
:1014CC0009110D30A100FB30A000A00B6B2AA10B61
:1014DC006B2A702A08000A128A159B270A128A1591
:1014EC0083160313500883120313EC0083160313A3
:1014FC004F0883120313EB000A128A158622080088
:10150C0040300A128A15F1210A128A15831203132C
:10151C006C08E3006B08E2000A128A11E3250A1238
:10152C008A1501300A128A15EC22080000300A12C2
:10153C008A15F1210A128A15831203136C08E30031
:10154C006B08E2000A128A11E3250A128A151A3076
:10155C000A128A15EC22080083120313A4008E30A1
:10156C000A128A15C8230A128A1583120313240837
:10157C000A128A15C8230A128A150A128A157A23A6
:10158C0083120313A3002308A50025080800831663
:10159C000313C601C7010A128A15F4230A128A150D
:1015AC00831203132108DA002008D9000A128A11C9
:1015BC003B25831203135A0883160313C5008312A9
:1015CC000313590883160313C40008008312031372
:1015DC00A400240884000A128A1500200A128A1515
:1015EC00003A03190800240884000A128A15002006
:1015FC000A128A150A128A1537220A128A15013024
:10160C0083120313A3002308A407EF2A83120313E6
:10161C00A300A2014130A100EE30A000A00B142BBE
:10162C00A10B142B0000831203138C1123089300BD
:10163C008C1D1E2B1308A0002008A2008C11413019
:10164C00A100EE30A000A00B292BA10B292B000030
:10165C00080083120313AD01A91F3B2BA809A9098C
:10166C00A80A0319A90AAD01AD0A2808A000290887
:10167C00A100A2018E30AB002B08A3002D08AC00FA
:10168C002C08A4000A128A1187278312031320083E
:10169C00A8002108A9002208AA0008008316031339
:1016AC008717BF3083120313A0002008831603137F
:1016BC008705181514309900181383120313181387
:1016CC008316031318128312031398171816831614
:1016DC0003130C128C1698160B17CE01FD01CC01BE
:1016EC0083120313EF0108000A128A1525220A122D
:1016FC008A15031C7A2B8B13831603134C08A03EFC
:10170C0084008313000883120313A0002008A10097
:10171C000130A000200883160313CC070F3083126E
:10172C000313A000200883160313CC058B17831218
:10173C000313210808007F3083160313D100D43023
:10174C00D000AE30CF00CF0BA92BD00BA92BD10BD7
:10175C00A92BB02B0A128A11F5270A128A150A1224
:10176C008A1504220A128A150A128A1514220A12E0
:10177C008A150A128A154A220A128A150A128A1521
:10178C000026080083120313A2007D08013E0F39C6
:10179C00831603134E060319CB2B8B1383120313DF
:1017AC002208A0007D08B03E84002008831380002E
:1017BC007D08013E0F39A0002008FD00831603139D
:1017CC000C168B17213083120313A1007630A00066
:1017DC00A00BEE2BA10BEE2B0000080083120313C1
:1017EC00A901AA011F151F19F92B831603131E0833
:1017FC0083120313A20006300310A20CFF3E031D3C
:10180C00022C2208A300A4011E08A500A6010310A7
:10181C00A50DA60D0310A50DA60D23082504A700E4
:10182C0024082604A8002708A9002808AA002A08CA
:10183C00A1002908A0000800093083120313A3009B
:10184C002308A4000D30240203184E2C8E300A12EB
:10185C008A15C8230A128A158312031324080A1244
:10186C008A15C8230A128A150A128A157A230A12B3
:10187C008A15003A0319442C0130080001308312F8
:10188C000313A3002308A4070D302402031C2C2CE3
:10189C00003008008316031360080A128A150C2303
:1018AC000A128A1583120313240825040319772CB2
:1018BC00071500008312031307110730A7007D30B2
:1018CC00A600A60B672CA70B672C01308312031301
:1018DC00A4020030031CA503A50224082504031D43
:1018EC005E2C8316031362080A128A150C23080057
:1018FC008316031361080A128A150C230A128A151F
:10190C0083120313240825040319A52C07150000C2
:10191C008312031307110730A7007D30A600A60B16
:10192C00952CA70B952C013083120313A4020030C5
:10193C00031CA503A50224082504031D8C2C831667
:10194C00031362080A128A150C230800700871042C
:10195C000319D92CF501F50AF11BC02C0130031029
:10196C00F00DF10DFF3E031DB52C0130F400740891
:10197C00F507B22C71087302031DC62C7008720295
:10198C00031CCE2C7008F2027108031CF303F30243
:10199C0001300310F10CF00CFF3E031DCF2C013075
:1019AC00F502031DC02C7308F1007208F00008004A
:1019BC0083120313AB008E300A128A15C8230A1245
:1019CC008A15831203132B080A128A15C8230A12CC
:1019DC008A150A128A157A230A128A15831203139E
:1019EC00A5002508AC000A128A157A23831203136A
:1019FC00A5002508AD002D08A500A6012C08A70000
:101A0C00A8012708A800A70125082704A900260873
:101A1C002804AA002A08A4002908A30008000A1216
:101A2C008A15F4230A128A15831203132108AD00B8
:101A3C002008AC002D08803AAB0083160313450830
:101A4C00803A831203132B02031D322D83160313CA
:101A5C004408831203132C02031C432D831203131B
:101A6C002D0883160313C500831203132C08831649
:101A7C000313C400C601C701080001308316031309
:101A8C00C6070318C70A0030C707080083120313E0
:101A9C00AB008E300A128A15C8230A128A158312DB
:101AAC0003132B080A128A15C8230A128A150A1264
:101ABC008A157A230A128A1583120313A5002508A6
:101ACC00AC000A128A157A2383120313A500250889
:101ADC00AD002D08A500A6012C08A700A801270819
:101AEC00A800A70125082704A90026082804AA0095
:101AFC002A08A4002908A300080083120313A801D4
:101B0C00A901AA01AB012408A7002708A8002308F3
:101B1C00A7002708A9002608A7002708AA0025085F
:101B2C00A7002708AB0091300A128A15C8230A12A5
:101B3C008A158312031328080A128A15C8230A125D
:101B4C008A158312031329080A128A15C8230A124C
:101B5C008A15831203132A080A128A15C8230A123B
:101B6C008A15831203132B080A128A15C82308003E
:101B7C000A128A15CD220A128A15831603136108DC
:101B8C000A128A150C230A128A15831603134F089E
:101B9C0050040319EE2D0A128A1515250A128A15FE
:101BAC0083120313071500008312031307110A1283
:101BBC008A159B270A128A15013083160313CF024C
:101BCC000030031CD003D0024F085004031DD12D4C
:101BDC0062080A128A150C230A128A150D30831614
:101BEC000313D200FB30D100D10BFA2DD20BFA2DFE
:101BFC00FF2D080083120313880189018316031338
:101C0C008801890101300A128A155D220A128A158F
:101C1C0038300A128A155D220A128A150C300A1203
:101C2C008A155D220A128A1506300A128A155D225F
:101C3C000A128A1502300A128A155D220A128A15B6
:101C4C0001300A128A155D220A128A150A128A15A7
:101C5C003A270A128A1501300A128A155D220A12D5
:101C6C008A1540300A128A15F1210A128A150F3092
:101C7C000A128A15EC2208000A128A15CD220A12C1
:101C8C008A158316031360080A128A150C230A128C
:101C9C008A15831603134F0850040319722E0A1267
:101CAC008A1515250A128A158312031307150000CD
:101CBC008312031307110A128A159B270A128A151D
:101CCC00013083160313CF020030031CD003D00263
:101CDC004F085004031D552E62080A128A150C2356
:101CEC000A128A150D3083160313D200FB30D10073
:101CFC00D10B7E2ED20B7E2E832E08008312031363
:101D0C00A601A11F902EA009A109A00A0319A10ADE
:101D1C00A601A60AA31F9B2EA209A309A20A0319B6
:101D2C00A30A0130A4002408A606A701A8012008D4
:101D3C0021040319D22EA501A50AA11BB12E013035
:101D4C000310A00DA10DFF3E031DA62E0130A40013
:101D5C002408A507A32E01300310A70DA80DFF3EE4
:101D6C00031DB22E21082302031DBE2E20082202C1
:101D7C00031CC72E2008A2022108031CA303A302E4
:101D8C00271401300310A10CA00CFF3E031DC82E1C
:101D9C000130A502031DB12E26080319DA2EA7095E
:101DAC00A809A70A0319A80A2808A1002708A00057
:101DBC00080083160313CA01CB01C330831203132B
:101DCC00A3000030A400C830A5000030A6000A1201
:101DDC008A1583250A128A15831603134B08803A39
:101DEC00FF008F307F02031DFD2EA0304A02031826
:101DFC001D2F13300A128A15DE240A128A1583123B
:101E0C000313230883160313CA070318CB0A831280
:101E1C000313240883160313CB074B08D0004A087E
:101E2C00CF000A128A1571220A128A15F22E00307E
:101E3C0083120313A300A4000030A500A6000A120D
:101E4C008A1583250A128A15153083160313D300BD
:101E5C004B30D200D130D100D10B322FD20B322FDC
:101E6C00D30B322F0000080000300A128A15F12122
:101E7C000A128A1519300A128A154C250A128A156B
:101E8C00831203132408E3002308E2000A128A11C8
:101E9C00E3250A128A1531300A128A15EC220A122D
:101EAC008A151A300A128A154C250A128A158312C1
:101EBC0003132408E3002308E2000A128A11E32525
:101ECC000A128A152A300A128A15EC220A128A156D
:101EDC0040300A128A15F1210A128A1516300A129C
:101EEC008A154C250A128A15831203132408E30061
:101EFC002308E2000A128A11E3250A128A152E30F1
:101F0C000A128A15EC220A128A1566308312031300
:101F1C00ED007730EC002430EB00EB0B932FEC0B47
:101F2C00932FED0B932F0000080083120313ED0188
:101F3C00EE010430EB006B08EC006C080319B82FB1
:101F4C000A128A15F4230A128A1583120313200825
:101F5C00ED070318EE0A2108EE070130EC026C08BD
:101F6C00031DA62F0430A0000030A1006E08A300B2
:101F7C006D08A2000A128A1584260A128A15831289
:101F8C0003132108EE002008ED0000300A128A1518
:101F9C00F1210A128A15831203136E08803AFF008E
:101FAC0080307F02031DDC2F51306D02031CF52F96
:101FBC00831203136E08DA006D08D9000A128A1115
:101FCC003B250A128A15831203135A08E300590899
:101FDC00E2000A128A11E3250A128A15FB2F25301A
:101FEC000A128A15EC220A128A151A300A128A155C
:041FFC00EC220800CB
:02400E003A3F37
:00000001FF
