:100000000A128A1112280D34FE00030EF7000408AC
:10001000F8000A08F900831203137F08FA000A1295
:100020008A11CA2A0A128A111528FB01FC01FD0156
:10003000EC01ED01EE018313A0308400C9300A12F7
:100040008A159F240A128A11831603130A128A1131
:1000500003200A128A11C900831203130A128A119B
:10006000FF27EF0083010A128A15F42C8312031371
:100070002F08B5003008B6003108B7000310360D60
:10008000370DB8003808BB003208B5003308B60099
:100090003408B7000310360D370DB8003808BA0021
:1000A0003B0803195F283A083B02031866283B0304
:1000B000FF3A3A07B50019303502031C66283208AA
:1000C000AF003308B0003408B10008003A08031943
:1000D00008003B083A02031875283A03FF3A3B0729
:1000E000B50019303502031808000630B500350890
:1000F000B900B11BB917B41B3917B017FF30AF05E2
:10010000FF30B0050030B105B317FF30B205FF3046
:10011000B3050030B4053A083B020318B528013096
:100120000310B20DB30DB40DFF3E031D9028013036
:10013000BA023A083B060319B0280130B90239085F
:1001400007390319B0288F2801300310B10CB00C07
:10015000AF0CFF3E031DA5280130B5003508BB07D5
:100160003B083A060319DE28A4283B083A02031884
:10017000DE2801300310AF0DB00DB10DFF3E031DA1
:10018000BA280130BB023A083B060319DA280130CD
:10019000B902390807390319DA28B92801300310E0
:1001A000B40CB30CB20CFF3E031DCF280130B500D8
:1001B0003508BA073B083A06031DCE28B91FF028B8
:1001C000FF30AF06FF30B006FF30B1060130AF0799
:1001D000003003180130B007003003180130B107B8
:1001E000391F0229FF30B206FF30B306FF30B406D4
:1001F0000130B207003003180130B3070030031894
:100200000130B407B9012F08B207300803110318F1
:10021000300A031DB307310803110318310A031D07
:10022000B407B41F2529FF30B206FF30B306FF30F4
:10023000B4060130B207003003180130B3070030B4
:1002400003180130B407B901B90A3208A000330815
:10025000A1003408A2003B08B5003508A300390806
:10026000B6003608A4000A128A116D268312031301
:100270002008AF002108B0002208B1000800831256
:100280000313E701E801E301E401EA01EB01E50101
:10029000E6010430E0006008E9006908031908007D
:1002A000C330A3000030A400C830A5000030A60071
:1002B0000A128A1500270A128A11831203136B0887
:1002C000803AFF0083307F02031D6829E7306A020D
:1002D0000318982913300A128A1578270A128A11EE
:1002E000831203132308EA070318EB0A2408EB0719
:1002F00065086A07E30066080318660A6B07E400EE
:1003000040300A128A15A7240A128A118312031395
:100310006408D9006308D8000A128A11F3250A126A
:100320008A110F300A128A156C250A128A115D296A
:10033000003083120313A300A4000030A500A60020
:100340000A128A1500270A128A1115308312031324
:10035000E2004B30E100D130E000E00BAD29E10BD1
:10036000AD29E20BAD290000C33083120313A300B3
:100370000030A4003830A500FF30A6000A128A150C
:1003800000270A128A11831203136808803AFF00BB
:1003900080307F02031DCE295A3067020318DF29FF
:1003A00014300A128A1578270A128A11831203134D
:1003B0002308E7070318E80A2408E807C3290030E0
:1003C00083120313A300A4000030A500A6000A12A4
:1003D0008A1500270A128A11153083120313E200CE
:1003E0004B30E100D130E000E00BF429E10BF429BF
:1003F000E20BF4290000831203136A08E5070318CF
:10040000E60A6B08E607EA01EB01E701E8010130C3
:10041000E9024D29831203135008803AFF0081300E
:100420007F02031D152AF5304F02031C5B2AD830CA
:1004300083120313A0000930A1004F08883EA200D8
:1004400050080318013EFE3EA3000A128A114027FD
:100450000A128A11831203132108D5002008D40040
:100460005508A1005408A0000130A2000030A300EC
:100470000A128A1140270A128A11831203132108D3
:10048000AA002008A9000A128A158C250A128A11CE
:10049000831203132908CC002A08CD002B08CE00B4
:1004A0000A128A15B1250A128A11831203134D0804
:1004B000D7004C08D600831203135008803AFF007F
:1004C00081307F02031D662AF5304F020318C32ACC
:1004D0000C3083120313BC003A30BD004630BE001E
:1004E0004A30AF00F130B000C030B1005008AA006F
:1004F0004F08A9000A128A158C250A128A11831244
:1005000003132908B2002A08B3002B08B4000A120A
:100510008A1136200A128A11831203132F08BF0092
:100520003008C0003108C1000A128A1183230A1260
:100530008A11831203133C08D1003D08D2003E0803
:10054000D3005108BC005208BD005308BE00003063
:10055000BF008030C0003F30C1000A128A118323DF
:100560000A128A11831203133C08CC003D08CD0007
:100570003E08CE000A128A15B125831203134D08D6
:10058000D7004C08D600831203135708D000560832
:10059000CF0008008C1EEA2A1A08F6006C08A03E5C
:1005A00084007608831380006C08013E0F39F60042
:1005B000760883160313C8004808831203136D06D8
:1005C0000319EA2A831603134808F60076088312F3
:1005D0000313EC000C1E072B831603130C1E072BB2
:1005E000831203136E08B03E840083130008990041
:1005F0000130F6007608EE070F30F6007608EE05BB
:100600006E087D06031D072B831603130C120B1DAA
:10061000762B0B1164308312810001308316031393
:10062000C2070318C30A0030C307F430F0000130DA
:10063000F1004308F3004208F2000A128A15CE26A0
:100640000A128A1170087104031D2E2B01308312C7
:100650000313860683160313C201C3018312031317
:100660008618061D372B861D372B061A742B013072
:10067000F6007608FC077C080A128A15B0240A12D4
:100680008A11031C492B831203138618492B7B16EE
:10069000FB117C080A128A15B0240A128A11031C65
:1006A000572B831203130619572B7B14FB117C085D
:1006B0000A128A15B0240A128A11031C652B8312B0
:1006C00003138619652BFB14FB117C080A128A158B
:1006D000B0240A128A11031C762B83120313061A04
:1006E000762B7B15FB11762BFC01FB157A08831208
:1006F0000313FF0079088A0078088400770E8300CE
:10070000FE0E7E0E0900831203133F08C20040084C
:10071000C3004108C4000310430D440DC500450843
:10072000CA004A08031D9B2B0030BC000030BD00EE
:100730000030BE0008003C08C2003D08C3003E086F
:10074000C4000310430D440DC5004508CB004B0801
:10075000031DB12B0030BC000030BD000030BE00D6
:1007600008000030C7000030C8000030C9008930E0
:100770004B07C2004208CA023F08C2004008C3003B
:100780004108C40010300310C40CC30CC20CFF3E5F
:10079000031DC32B4208C5004508CB003C08C2001E
:1007A0003D08C3003E08C40010300310C40CC30C45
:1007B000C20CFF3E031DD52B4208C5004508CB06E1
:1007C0008030C2004208CB05C017FF30BF05FF30A4
:1007D000C0050030C105BD17FF30BC05FF30BD05A9
:1007E0000030BE051830C2004208C60001300310B8
:1007F000C70DC80DC90DFF3E031DF72B3E08410272
:10080000031D082C3D084002031D082C3C083F0234
:10081000031C152C3C08BF023D08031C3D0FC00201
:100820003E08031C3E0AC102471401300310BF0DED
:10083000C00DC10DFF3E031D162C0130C602031D65
:10084000F62B4708A0004808A1004908A2004A0862
:10085000C2004208A3004B08C3004308A4000A12C8
:100860008A116D26831203132008BC002108BD00E5
:100870002208BE0008008312031388018901831631
:1008800003138801890101300A128A153B250A12D7
:100890008A1138300A128A153B250A128A110C3047
:1008A0000A128A153B250A128A1106300A128A1585
:1008B0003B250A128A1102300A128A153B250A12B8
:1008C0008A1101300A128A153B250A128A1100305A
:1008D0000A128A15A7240A128A1119300A128A15D7
:1008E000BC270A128A11831203132408D900230893
:1008F000D8000A128A11F3250A128A113E300A1210
:100900008A156C250A128A111A300A128A15BC2718
:100910000A128A11831203132408D9002308D8006D
:100920000A128A11F3250A128A1137300A128A151F
:100930006C250A128A1140300A128A15A7240A125D
:100940008A1116300A128A15BC270A128A118312DC
:1009500003132408AF002308AE000A128A1166258B
:100960000A128A113B300A128A156C250A128A1162
:10097000CB3083120313E200ED30E1004C30E00095
:10098000E00BC02CE10BC02CE20BC02CC72C0130BB
:100990000A128A153B250A128A1140300A128A155A
:1009A000A7240A128A111D300A128A156C25080024
:1009B000831203133C08C0003D08C1003E08C2007A
:1009C0000310410D420DC3004308C9004908031D2F
:1009D000F22C0030BF000030BE000030BD000030FF
:1009E000BC0008003C08C0003D08C1003E08C20031
:1009F00017300310C20CC10CC00CFF3E031DF92CB4
:100A00004008C3004308C400BD17FF30BC05FF30D9
:100A1000BD050030BE053C08C5003D08C6003E08C7
:100A2000C700C8018E30C902C91F342D4908803A59
:100A30008F3E0318242D0030BF000030BE00003070
:100A4000BD000030BC00080001300310C80CC70C0A
:100A5000C60CC50CFF3E031D252D0130C00040080B
:100A6000C90703194F2D242D18304902031C4C2DA2
:100A70000030BF000030BE000030BD000030BC00C0
:100A800008000130C0000310C50DC60DC70DC80D0C
:100A9000C00B432D0130C9024908031D412D4408F4
:100AA00003195D2DC509C609C709C809C50A031977
:100AB000C60A0319C70A0319C80A4808BF0047082D
:100AC000BE004608BD004508BC00080083120313A1
:100AD0002F08B7002E08B600B101B201B301B4016E
:100AE000B50127303702103003193602031C912D4F
:100AF0003608F03EB60037080318013ED83EB7006E
:100B00000130B0003008B407712D3608183EB60029
:100B100037080318013EFC3EB7000130B000300832
:100B2000B30703303702E83003193602031CA52D42
:100B3000852D36089C3EB60037080318013EFF3E5F
:100B4000B7000130B0003008B2070030370264301F
:100B500003193602031CB92D992D3608F63EB6004E
:100B600037080318013EFF3EB7000130B0003008DF
:100B7000B107003037020A30031936020318AD2DD1
:100B80003508303E0A128A1515250A128A11831279
:100B900003133408303E0A128A1515250A128A11E9
:100BA000831203133308303E0A128A1515250A12E0
:100BB0008A11831203133208303E0A128A15152552
:100BC0000A128A11831203133108303E0A128A1561
:100BD00015250A128A11831203133608303E0A12B1
:100BE0008A1515250800831203135908DF005808D9
:100BF000DE00DB01DC01DD0103305F02E8300319B8
:100C00005E02031C1C2E5E08183EDE005F080318FF
:100C1000013EFC3EDF000130DA005A08DD07FC2D02
:100C20005E089C3EDE005F080318013EFF3EDF00C9
:100C30000130DA005A08DC0700305F026430031923
:100C40005E02031C302E102E5E08F63EDE005F08AA
:100C50000318013EFF3EDF000130DA005A08DB07CF
:100C600000305F020A3003195E020318242E03309D
:100C70005902E83003195802031C452E5D08303E26
:100C80000A128A1515250A128A11003083120313DD
:100C90005902643003195802031C552E5C08303E7B
:100CA0000A128A1515250A128A11003083120313BD
:100CB00059020A3003195802031C652E5B08303EA6
:100CC0000A128A1515250A128A11831203135E0867
:100CD000303E0A128A1515250800831203132308D3
:100CE0000319772E220821042004031D8A2E0030C8
:100CF000A0000030A1000030A20008000130A500D3
:100D00002508A30701300310A20CA10CA00CFF3E84
:100D1000031D832EFE3022050319A52E7E2E0130E1
:100D2000A5002508A3070130A007003003180130F3
:100D3000A107003003180130A20701300310A20CF4
:100D4000A10CA00CFF3E031D9E2EFF3022050319AF
:100D5000B42E8F2E0130A30201300310A00DA10D7F
:100D6000A20DFF3E031DAD2EA11BBA2E02302302A1
:100D70000318AA2E2318C22EFF30A0057F30A1052C
:100D8000FF30A2050310A30C2308A500A601A701AC
:100D900010300310A50DA60DA70DFF3E031DC92E93
:100DA0002508A0042608A1042708A2042408031982
:100DB0000800A217080083120313E201E3010430C4
:100DC000E0006008E10061080319F82E0A128A1594
:100DD00070260A128A11831203132008E2070318EF
:100DE000E30A2108E3070130E1026108031DE62E52
:100DF0000430A0000030A1006308A3006208A20034
:100E00000A128A1140270A128A1183120313210839
:100E1000E3002008E20000300A128A15A7240A1213
:100E20008A11831203136308803AFF0080307F0227
:100E3000031D1C2F51306202031C352F8312031334
:100E40006308D0006208CF000A128A110A220A122F
:100E50008A11831203135008D9004F08D8000A12D0
:100E60008A11F3250A128A113B2F32300A128A1591
:100E70006C250A128A1128300A128A156C2508007E
:100E800083120313A601A11F4C2FA009A109A00AD8
:100E90000319A10AA601A60AA31F572FA209A30995
:100EA000A20A0319A30A0130A4002408A606A70178
:100EB000A8012008210403198E2FA501A50AA11B52
:100EC0006D2F01300310A00DA10DFF3E031D622FF9
:100ED0000130A4002408A5075F2F01300310A70DDF
:100EE000A80DFF3E031D6E2F21082302031D7A2F3C
:100EF00020082202031C832F2008A2022108031CC1
:100F0000A303A302271401300310A10CA00CFF3E81
:100F1000031D842F0130A502031D6D2F2608031920
:100F2000962FA709A809A70A0319A80A2808A1004B
:100F30002708A000080083120313E001E101C33079
:100F4000A3000030A400C830A5000030A6000A129B
:100F50008A1500270A128A11831203136108803A46
:100F6000FF008F307F02031DB72FA03060020318EF
:100F7000DF2F13300A128A1578270A128A1183127A
:100F800003132308E0070318E10A2408E1074030AF
:100F90000A128A15A7240A128A1183120313610800
:100FA000D9006008D8000A128A11F3250A128A11A2
:100FB00001300A128A156C250A128A11AC2F0030F2
:100FC00083120313A300A4000030A500A6000A1298
:100FD0008A150027080083160313C601C7010A12E9
:100FE0008A15702683120313210883160313C10088
:100FF00083120313200883160313C00008000F3464
:1010000008308A000408840A8207003463346D348F
:101010002034643472346934763465346E34203468
:1010200020342034203400346D346D342034643462
:1010300072346934763465346E342034203420348C
:101040002034003430346D346D34203464347234E0
:101050006934763465346E34003463346D3420344E
:1010600049345234203420342034203400343E3487
:1010700031343634303400346D3441346834003423
:0A1080006D34563400342F34003470
:10193E0064008001840A0406031900340406A02CF6
:10194E0083120313A300A31723080A128A153B253B
:10195E000800F0000B3070020318FB1DB82C0314A6
:10196E000800031008003E308316031386000B1781
:10197E008B17043081008B168B170800831203130C
:10198E00A200A1018C11220893008C1DCC2C1308EF
:10199E00A0002008A1008C11080083120313981CCC
:1019AE00DC2C18121816031008006C086D06031DA7
:1019BE00E22C03100800031408000A128A15FB25F6
:1019CE000A128A1580300A128A1548260A128A15BA
:1019DE0084300A128A15482608000A128A15212612
:1019EE000A128A150A128A159E260A128A150A12D8
:1019FE008A11DB260A128A15F92C4030831603133E
:101A0E0094002030831203139400D03083160313F6
:101A1E00870083120313071487140800831203131D
:101A2E00A20009118910091422088800091509114C
:101A3E000730A1007D30A000A00B232DA10B232D7C
:101A4E000800FF30831603138500813083120313C1
:101A5E009F000230831603139F005330831203132B
:101A6E00A000A00B382D080083120313A200091149
:101A7E008910091022088800091509110D30A100DE
:101A8E00FB30A000A00B492DA10B492D4E2D0800B7
:101A9E000A128A15D4240A128A15031C4F2D8B1391
:101AAE00831203136D08A03E840083130008A00068
:101ABE002008A1000130A0002008ED070F30A00083
:101ACE002008ED058B172108080083120313A400CC
:101ADE00240884000A128A1500200A128A15003A78
:101AEE0003190800240884000A128A1500200A121D
:101AFE008A150A128A1515250A128A1501308312C3
:101B0E000313A3002308A4076F2D83120313AE0142
:101B1E00AA1F982DA909AA09A90A0319AA0AAE0192
:101B2E00AE0A2908A0002A08A100A2018E30AC003E
:101B3E002C08A3002E08AD002D08A4000A128A114D
:101B4E006D26831203132008A9002108AA0022087B
:101B5E00AB000800831203134C08B2004D08B3000B
:101B6E004E08B4000030AF000030B0003F30B1007E
:101B7E000A128A1136200A128A15831203132F08AD
:101B8E00BC003008BD003108BE000A128A11D824EC
:101B9E00831203133D08CD003C08CC0008008316C9
:101BAE00031349080A128A15C5240A128A158312CC
:101BBE0003132308240403190800071500008312D9
:101BCE00031307114130A600EE30A500A50BED2D35
:101BDE00A60BED2D0000013083120313A30200307B
:101BEE00031CA403A402E02D831603138717BF3032
:101BFE0083120313A00020088316031387051815FC
:101C0E001430990018138312031318138316031339
:101C1E0018128312031398171816831603130C1237
:101C2E008C1698160B1783120313EE01FD01ED01AE
:101C3E00EC0108007F3083120313E500D430E4007A
:101C4E00AE30E300E30B292EE40B292EE50B292EF3
:101C5E00302E0A128A15BA240A128A150A128A1509
:101C6E00E4240A128A150A128A1504250A128A1504
:101C7E000A128A1528250A128A150A128A113B247D
:101C8E00080083120313A2007D08013E0F396E0671
:101C9E0003194B2E8B132208A0007D08B03E840042
:101CAE002008831380007D08013E0F39A000200814
:101CBE00FD00831603130C168B17213083120313AA
:101CCE00A1007630A000A00B6A2EA10B6A2E000098
:101CDE00080083120313A901AA011F151F19752EDF
:101CEE00831603131E0883120313A200063003107B
:101CFE00A20CFF3E031D7E2E2208A300A4011E0887
:101D0E00A500A6010310A50DA60D0310A50DA60D89
:101D1E0023082504A70024082604A8002708A900E4
:101D2E002808AA002A08A1002908A00008007B1E86
:101D3E00B12E0A128A113F210A128A15903083128F
:101D4E000313AB000130AC000A128A153B270A12AE
:101D5E008A157B127B1CB92E0A128A119B270A1236
:101D6E008A157B10FB1CC12E0A128A113F210A1202
:101D7E008A15FB107B1D0800083083120313A30085
:101D8E000030A4000A128A15D6257B1108007008AF
:101D9E0071040319FB2EF501F50AF11BE22E013039
:101DAE000310F00DF10DFF3E031DD72E0130F40090
:101DBE007408F507D42E71087302031DE82E7008FF
:101DCE007202031CF02E7008F2027108031CF3035A
:101DDE00F30201300310F10CF00CFF3E031DF12E47
:101DEE000130F502031DE22E7308F1007208F000B7
:101DFE00080083120313A801A901AA01AB0124084C
:101E0E00A7002708A8002308A7002708A90026086E
:101E1E00A7002708AA002508A7002708AB009130C5
:101E2E000A128A1548260A128A15831203132808E5
:101E3E000A128A1548260A128A15831203132908D4
:101E4E000A128A1548260A128A15831203132A08C3
:101E5E000A128A1548260A128A15831203132B08B2
:101E6E000A128A15482608000A128A11EB270A124E
:101E7E008A15831203136F080A128A15C5240A12D3
:101E8E008A15831203132B082C040319682F0715C8
:101E9E0000008312031307114130AE00EE30AD0087
:101EAE00AD0B572FAE0B572F0000013083120313CB
:101EBE00AB020030031CAC03AC022B082C04031D38
:101ECE004E2F83160313470883120313A4008316A1
:101EDE000313460883120313A3000A128A15D6258C
:101EEE00080083120313AB008E300A128A1548269F
:101EFE000A128A15831203132B080A128A15482612
:101F0E000A128A150A128A154F250A128A15831289
:101F1E000313A5002508AC000A128A154F250A12D4
:101F2E008A1583120313A5002508AD006230A600A2
:101F3E006530A500A50BA12FA60BA12FA62F8312EE
:101F4E0003132D08A500A6012C08A700A801270839
:101F5E00A800A70125082704A90026082804AA001E
:101F6E002A08A4002908A300080083120313AB005B
:101F7E008E300A128A1548260A128A158312031306
:101F8E002B080A128A1548260A128A150A128A1571
:101F9E004F250A128A1583120313A5002508AC00DB
:101FAE000A128A154F250A128A1583120313A500E9
:101FBE002508AD006230A6006530A500A50BE52F03
:101FCE00A60BE52FEA2F831203132D08A500A601F9
:101FDE002C08A700A8012708A800A7012508270498
:101FEE00A90026082804AA002A08A4002908A3008C
:021FFE000800D9
:02400E003A3F37
:00000001FF
