:060000000A128A11122809
:10000800FE00030EF7000408F8000A08F90083123E
:1000180003137F08FA000A128A11262E0A128A117F
:100028001528FB01FC01FD018313A0308400D030AA
:100038000A128A11F8270A128A11831603130A165C
:100048008A11A8260A128A11DB000A168A11A92623
:100058000A128A11DC000A168A11AA26DD00830119
:100068000A168A11822F83160313D401D501D001F1
:10007800D1010A128A1558210A128A118312031310
:100088002108D0002008CF000A128A11E8260A1297
:100098008A1183120313500883160313D70083129F
:1000A80003134F0883160313D600CA01CB019030FF
:1000B80083120313E5000130E6000A128A1588222C
:1000C8000A128A1183160313470883120313A50023
:1000D80083160313460883120313A4000A128A1511
:1000E80086210A128A110030831603134702C93089
:1000F80003194602031CD728460983120313E90093
:1001080083160313470983120313EA00E90A031944
:10011800EA0A6908903EA8006A080318013E013EF1
:10012800A9000A168A116A270A128A118312031370
:100138002808AF002908B0002A08B1006630AC00D2
:100148006630AD003F30AE000A128A1153250A12FC
:100158008A11831203132C08BC002D08BD002E0839
:10016800BE000A128A15BA260A128A1183120313CC
:100178003D0883160313D500831203133C08831626
:100188000313D4003D3083120313A300FF30A400EF
:10019800C830A5000030A6000A128A154D220A129E
:1001A8008A117B1724298316031347088312031324
:1001B800A90083160313460883120313A8000A161E
:1001C8008A116A270A128A11831203132808AF00BA
:1001D8002908B0002A08B1006630AC006630AD00CE
:1001E8003F30AE000A128A1153250A128A1183126F
:1001F80003132C08BC002D08BD002E08BE000A12EF
:100208008A15BA260A128A11831203133D08831627
:100218000313D500831203133C0883160313D40079
:10022800C33083120313A3000030A4003830A500A4
:10023800FF30A6000A128A154D220A128A117B1372
:10024800831603135508803A83120313E9008316B3
:1002580003135108803A831203136902031D3829D6
:100268008316031350085402031C5A2914300A1227
:100278008A1507230A128A11831203132408AF0070
:100288002308AE000A168A11D8260A128A11831288
:1002980003132E0883160313D0070318D10A8312F9
:1002A80003132F0883160313D10724290030831260
:1002B8000313A300A4000030A500A6000A128A15A3
:1002C8004D220A128A110D3083120313EB00AF304E
:1002D800EA00C130E900E90B6F29EA0B6F29EB0B43
:1002E8006F29000083160313460983120313E900DC
:1002F80083160313470983120313EA00E90A031953
:10030800EA0A6908903EA4006A080318013E013E03
:10031800A5000A128A1586210A128A11C33083128F
:100328000313A3000030A400C830A5000030A600C5
:100338000A128A154D220A128A11003083160313F5
:100348005702333003195602031CD6290A128A159C
:1003580058210A128A11831203132108D000200899
:10036800CF000A128A11E8260A128A11831203138F
:10037800500883160313D700831203134F088316FC
:100388000313D600570883120313E10083160313DF
:10039800560883120313E0000A168A11E8260A1287
:1003A8008A11A129003083120313A300A40000308E
:1003B800A500A6000A128A154D220A128A110D30CC
:1003C80083120313EB00AF30EA00C130E900E90BF8
:1003D800EB29EA0BEB29EB0BEB2900007B1F032A27
:1003E800C33083120313A3000030A4003830A500E3
:1003F800FF30A6000A128A154D220A128A117B1BA9
:10040800142A3D3083120313A300FF30A400C83020
:10041800A5000030A6000A128A154D220A128A1178
:1004280083160313D201D3015308803AFF008030AA
:100438007F02031D212A5A3052020318432A14301E
:100448000A128A1507230A128A1183120313240831
:10045800AF002308AE000A168A11D8260A128A119C
:10046800831203132E0883160313D2070318D30A23
:10047800831203132F0883160313D307182A003097
:1004880083120313A300A4000030A500A6000A12DB
:100498008A154D220A128A117B1F5D2A3230831277
:1004A8000313A4000030A5000A128A15B4210A1209
:1004B8008A117B1B6A2A323083120313A40000308E
:1004C800A5000A128A1586210A128A117B100A12BF
:1004D8008A1558210A128A11831203132108D000A1
:1004E8002008CF000A128A11E8260A128A118312FC
:1004F8000313500883160313D700831203134F08FE
:1005080083160313D600570883120313E1008316DA
:100518000313560883120313E0000A168A11E8260B
:100528000A128A117B18362B0030831603135702E0
:100538003D3003195602031CC32A13304302883086
:10054800031942020318C32A7B1FB92A9630831263
:100558000313A3000030A400C830A5000030A60093
:100568000A128A154D220A128A117B1B362BC330B8
:1005780083120313A3000030A40096302E2B003002
:100588008316031357023030031956020318EB2A57
:10059800C201C3017B1BDF2AA63083120313A30009
:1005A800FF30A400C830A5000030A6000A128A1542
:1005B8004D220A128A117B1F362BC3308312031374
:1005C800A3000030A400A630A500FF30302B003077
:1005D800831603135702473003195602031C142BC2
:1005E80013304302883003194202031C142B7B1B6F
:1005F8000C2BC33083120313A3000030A400B030C7
:10060800A500FF30A6000A128A154D220A128A1187
:100618007B1F362BB03083120313A300FF302C2B23
:1006280007300A128A1504210A128A11003A031D9A
:10063800252B0A128A1514220A128A11013A031D5F
:10064800272B7B14362BC33083120313A3000030EF
:10065800A400C830A5000030A6000A128A154D2251
:100668000A128A117B1C6B2A003083120313A30021
:10067800A4000030A500A6000A128A154D220A120D
:100688008A110D3083120313EB00AF30EA00C1303A
:10069800E900E90B4D2BEA0B4D2BEB0B4D2B000022
:1006A8003D3083120313A300FF30A4003830A500A7
:1006B800FF30A6000A128A154D220A128A11333019
:1006C80083120313EB00BC30EA001030E900E90B99
:1006D8006B2BEA0B6B2BEB0B6B2B6A2A8312031326
:1006E8002F08B5003008B6003108B7000310360DE2
:1006F800370DB8003808BB003208B5003308B6001B
:100708003408B7000310360D370DB8003808BA00A2
:100718003B0803199B2B3A083B020318A22B3B0307
:10072800FF3A3A07B50019303502031CA22B3208EC
:10073800AF003308B0003408B10008003A080319C4
:1007480008003B083A020318B12B3A03FF3A3B076B
:10075800B50019303502031808000630B500350811
:10076800B900B11BB917B41B3917B017FF30AF0563
:10077800FF30B0050030B105B317FF30B205FF30C8
:10078800B3050030B4053A083B020318F12B0130D9
:100798000310B20DB30DB40DFF3E031DCC2B013079
:1007A800BA023A083B060319EC2B0130B9023908A2
:1007B80007390319EC2BCB2B01300310B10CB00C0B
:1007C800AF0CFF3E031DE12B0130B5003508BB0718
:1007D8003B083A0603191A2CE02B3B083A02031887
:1007E8001A2C01300310AF0DB00DB10DFF3E031DE3
:1007F800F62B0130BB023A083B060319162C0130D0
:10080800B902390807390319162CF52B01300310E2
:10081800B40CB30CB20CFF3E031D0B2C0130B50019
:100828003508BA073B083A06031D0A2CB91F2C2CB9
:10083800FF30AF06FF30B006FF30B1060130AF071A
:10084800003003180130B007003003180130B10739
:10085800391F3E2CFF30B206FF30B306FF30B40616
:100868000130B207003003180130B3070030031815
:100878000130B407B9012F08B20730080311031873
:10088800300A031DB307310803110318310A031D89
:10089800B407B41F612CFF30B206FF30B306FF3037
:1008A800B4060130B207003003180130B307003036
:1008B80003180130B407B901B90A3208A000330897
:1008C800A1003408A2003B08B5003508A300390888
:1008D800B6003608A4000A128A15BF25831203132E
:1008E8002008AF002108B0002208B10008008312D8
:1008F8000313EB01EC01EE01EF01E901EA018316B4
:100908000313CA01CB01043083120313E6006608FF
:10091800ED006D0803190800C330A3000030A400DF
:10092800C830A5000030A6000A128A154D220A1206
:100938008A11831203136F08803AFF0083307F0205
:10094800031DA82CE4306E020318D62C13300A12AB
:100958008A1507230A128A11831203132308EE0744
:100968000318EF0A2408EF0769086E0783160313B4
:10097800CA00831203136A0803186A0A6F078316EA
:100988000313CB004B0883120313E50083160313EC
:100998004A0883120313E4000A168A11C9260A12A8
:1009A8008A119D2C003083120313A300A400003089
:1009B800A500A6000A128A154D220A128A111530BE
:1009C80083120313E8004B30E700D130E600E60B52
:1009D800EB2CE70BEB2CE80BEB2C0000C33083125D
:1009E8000313A3000030A4003830A500FF30A60090
:1009F8000A128A154D220A128A11831203136C08EF
:100A0800803AFF0080307F02031D0C2D5A306B02A4
:100A18000318282D14300A128A1507230A128A117E
:100A2800831203132408AF002308AE000A168A11A4
:100A3800D8260A128A11831203132E08EB0703180B
:100A4800EC0A2F08EC07012D003083120313A300D2
:100A5800A4000030A500A6000A128A154D220A1229
:100A68008A11153083120313E8004B30E700D130A8
:100A7800E600E60B3D2DE70B3D2DE80B3D2D000074
:100A8800831203136E08E9070318EA0A6F08EA07D6
:100A9800EE01EF01EB01EC010130ED028D2C831228
:100AA80003132C08B2002D08B3002E08B40003105D
:100AB800330D340DB5003508B6003608031D6B2D0F
:100AC8000030AC000030AD000030AE0008002F0848
:100AD800B2003008B3003108B4000310330D340DF0
:100AE800B5003508BB003B08031D812D0030AC0064
:100AF8000030AD000030AE0008003B087B3EB2007D
:100B08003208B6072C08B2002D08B3002E08B4002E
:100B180010300310B40CB30CB20CFF3E031D8D2D26
:100B28003208B5003508BB002F08B2003008B30002
:100B38003108B40010300310B40CB30CB20CFF3EF3
:100B4800031D9F2D3208B5003508BB068030B20062
:100B58003208BB05AD17B017FF30AF05FF30B00541
:100B68000030B1050030B7000030B8000030B900DF
:100B78000730B2003208BA002C1CD02D2F08B70756
:100B8800300803110318300A031DB8073108031190
:100B98000318310A031DB90701300310AE0CAD0C60
:100BA800AC0CFF3E031DD12D01300310AF0DB00D6D
:100BB800B10DFF3E031DD92D0130BA02031DC02D12
:100BC8000930B2003208BA002C1CF82D2F08B707DC
:100BD800300803110318300A031DB8073108031140
:100BE8000318310A031DB90701300310AE0CAD0C10
:100BF800AC0CFF3E031DF92D01300310B90CB80CE5
:100C0800B70CFF3E031D012E0130BA02031DE82D6B
:100C18003708A0003808A1003908A2003608B20039
:100C28003208A3003B08B3003308A4000A128A154F
:100C3800BF25831203132008AC002108AD00220849
:100C4800AE0008008C1E402E1A08F6008316031307
:100C58004C08A03E84007608831380004C08013EAF
:100C68000F39F6007608CE004E084D060319402EBF
:100C78004E08F6007608CC0083120C1E5D2E8316F3
:100C880003130C1E5D2E4F08B03E8400831300082A
:100C98008312031399000130F600760883160313B4
:100CA800CF070F30F6007608CF054F087D060319E9
:100CB8000C120B1DDB2E0B116430831281000130E6
:100CC80083160313C0070318C10A0030C107013097
:100CD800C2070318C30A0030C307F430F00001301C
:100CE800F1004108F3004008F2000A128A15E221D7
:100CF8000A128A1170087104031D8A2E01308312AA
:100D08000313860683160313C001C101831203135C
:100D18008618061D932E061E932E861AD92E01308C
:100D2800F6007608FC077C080A168A11B4260A120F
:100D38008A11031CA72E831203138618A72E7B1271
:100D4800FC01FB16DB2E7C080A168A11B4260A124F
:100D58008A11031CB72E831203130619B72E7B12B0
:100D6800FC01FB14DB2E7C080A168A11B4260A1231
:100D78008A11031CC72E83120313061AC72E7B126F
:100D8800FC017B15DB2E7C080A168A11B4260A1290
:100D98008A11031CD72E83120313861AD72E7B12AF
:100DA800FC01FB15DB2E0000DB2EFC017B167A080C
:100DB80083120313FF0079088A0078088400770EED
:100DC8008300FE0E7E0E0900831203135008803A3A
:100DD800FF0081307F02031DF32EF5304F02031C04
:100DE800392FD83083120313A0000930A1004F080F
:100DF800883EA20050080318013EFE3EA3000A12D6
:100E08008A15D8230A128A11831203132108D500E0
:100E18002008D4005508A1005408A0000130A20001
:100E28000030A3000A128A15D8230A128A118312E5
:100E380003132108AA002008A9000A128A156C20A9
:100E48000A128A11831203132908CC002A08CD003C
:100E58002B08CE000A128A1591200A128A118312D1
:100E680003134D08D7004C08D6008312031350080B
:100E7800803AFF0081307F02031D442FF5304F0276
:100E88000318A12F0C3083120313BC003A30BD00A5
:100E98004630BE004A30AF00F130B000C030B1007B
:100EA8005008AA004F08A9000A128A156C200A12D5
:100EB8008A11831203132908B2002A08B3002B08E9
:100EC800B4000A128A1172230A128A1183120313B8
:100ED8002F08BF003008C0003108C1000A128A1567
:100EE80048270A128A11831203133C08D1003D08CF
:100EF800D2003E08D3005108BC005208BD00530878
:100F0800BE000030BF008030C0003F30C1000A1270
:100F18008A1548270A128A11831203133C08CC0049
:100F28003D08CD003E08CE000A128A159120831292
:100F380003134D08D7004C08D60083120313570833
:100F4800D0005608CF00080083160313CA01CB014E
:100F5800C33083120313A3000030A400C830A500D7
:100F68000030A6000A128A154D220A128A11831629
:100F780003134B08803AFF008F307F02031DC62FF2
:100F8800A0304A020318EC2F13300A128A150723DF
:100F98000A128A1183120313230883160313CA073C
:100FA8000318CB0A83120313240883160313CB07F1
:100FB8004B0883120313E500831603134A088312B0
:100FC8000313E4000A168A11C9260A128A11BB2FD4
:100FD800003083120313A300A4000030A500A6006C
:100FE8000A128A154D22080064008001840A04064A
:100FF800031900340406F92F08308A000408840A0B
:10100800820700346D346D342034643472346934AA
:10101800763465346E34203420342034203400345F
:1010280030346D346D342034643472346934763439
:1010380065346E34003463346D34203449345234AA
:10104800203420342034203400343E3431343634D3
:10105800303400346D344134683400346D345634DF
:1010680000342F34003440308316031394002030AA
:10107800831203139400D03083160313870083125E
:101088000313071487140800831603138717BF3048
:1010980083120313A000200883160313870518156D
:1010A80014309900181383120313181383160313AB
:1010B80018128312031398171816831603130C12A9
:1010C8008C1698160B17CF01FD01CD01CC01080035
:1010D80083120313AE01AA1F7828A909AA09A90A2D
:1010E8000319AA0AAE01AE0A2908A0002A08A1001D
:1010F800A2018E30AC002C08A3002E08AD002D08EC
:10110800A4000A128A15BF25831203132008A90018
:101118002108AA002208AB000800831203134C0818
:10112800B2004D08B3004E08B4000030AF000030E4
:10113800B0003F30B1000A128A1172230A128A15D0
:10114800831203132F08BC003008BD003108BE000D
:101158000A128A15BA26831203133D08CD003C08EB
:10116800CC0008000A168A1108270A128A15031CDF
:10117800B6288B13831603134D08A03E84008313EF
:10118800000883120313A0002008A1000130A0006A
:10119800200883160313CD070F3083120313A00012
:1011A800200883160313CD058B1783120313210818
:1011B80008007F3083120313E500D430E400AE301A
:1011C800E300E30BE528E40BE528E50BE528EC282C
:1011D8000A168A11BE260A128A150A168A11F826D4
:1011E8000A128A150A128A1537200A128A150A164F
:1011F8008A112D270A128A150A128A15C522080093
:1012080083120313A5008E300A128A152C210A12A4
:101218008A158312031325080A128A152C210A122B
:101228008A150A128A15B6200A128A158312031320
:10123800A3002308A6006230A4006530A300A30B16
:101248002329A40B2329282983120313260808001D
:1012580083120313A2007D08013E0F39831603137E
:101268004F0603192F298B13831203132208A0009A
:101278007D08B03E84002008831380007D08013E6D
:101288000F39A0002008FD00831603130C168B17D6
:10129800213083120313A1007630A000A00B52293D
:1012A800A10B52290000080083120313A901AA0107
:1012B8001F151F195D29831603131E0883120313B4
:1012C800A20006300310A20CFF3E031D6629220867
:1012D800A300A4011E08A500A6010310A50DA60DD4
:1012E8000310A50DA60D23082504A700240826042D
:1012F800A8002708A9002808AA002A08A100290888
:10130800A0000800831603135B080A168A11DD275C
:101318000A128A1583120313240825040319AD2918
:10132800071500008312031307110730A7007D304B
:10133800A600A60B9D29A70B9D2901308312031334
:10134800A4020030031CA503A50224082504031DDC
:101358009429831603135D080A168A11DD270800ED
:10136800831603135C080A168A11DD270A128A15E8
:1013780083120313240825040319DB290715000029
:101388008312031307110730A7007D30A600A60BB0
:10139800CB29A70BCB29013083120313A4020030F9
:1013A800031CA503A50224082504031DC2298316CE
:1013B80003135D080A168A11DD27080070087104F6
:1013C80003190F2AF501F50AF11BF629013003105C
:1013D800F00DF10DFF3E031DEB290130F4007408F8
:1013E800F507E82971087302031DFC2970087202C9
:1013F800031C042A7008F2027108031CF303F302A9
:1014080001300310F10CF00CFF3E031D052A0130DA
:10141800F502031DF6297308F1007208F0000800B0
:10142800093083120313A3002308A5008E300A1283
:101438008A152C210A128A150D30831203132502EE
:1014480003184B2A25080A128A152C210A128A1514
:101458000A128A15B6200A128A15003A0319362A82
:1014680001300800623083120313A4006530A30022
:10147800A30B3C2AA40B3C2A412A013083120313F4
:10148800A3002308A5070D302502031C262A0030D7
:10149800080083120313A801A901AA01AB012408BB
:1014A800A7002708A8002308A7002708A9002608DE
:1014B800A7002708AA002508A7002708AB00913035
:1014C8000A128A152C210A128A1583120313280876
:1014D8000A128A152C210A128A1583120313290865
:1014E8000A128A152C210A128A15831203132A0854
:1014F8000A128A152C210A128A15831203132B0843
:101508000A128A152C2108000A168A119E270A1227
:101518008A15831603135C080A168A11DD270A1236
:101528008A1583120313650866040319B12A0A127F
:101538008A158F230A128A158312031307150000D0
:101548008312031307110130E5020030031CE60380
:10155800E60265086604031D9B2A831603135D08CB
:101568000A168A11DD270A128A150D308312031311
:10157800E800FB30E700E70BBF2AE80BBF2AC42AC4
:101588000800831203138801890183160313880155
:10159800890101300A168A1140270A128A15383043
:1015A8000A168A1140270A128A150C300A168A115F
:1015B80040270A128A1506300A168A1140270A128D
:1015C8008A1502300A168A1140270A128A15013034
:1015D8000A168A1140270A128A150A128A159424B3
:1015E8000A128A1501300A168A1140270A128A152A
:1015F80040300A168A11AB260A128A150F300A16CD
:101608008A11BD27080083120313AB008E300A121B
:101618008A152C210A128A15831203132B080A1221
:101628008A152C210A128A150A128A15B6200A125E
:101638008A1583120313A5002508AC000A128A151F
:10164800B6200A128A1583120313A5002508AD00D7
:101658006230A6006530A500A50B302BA60B302BF9
:10166800352B831203132D08A500A6012C08A7000B
:10167800A8012708A800A70125082704A90026080B
:101688002804AA002A08A4002908A3000800831235
:101698000313AB008E300A128A152C210A128A1500
:1016A800831203132B080A128A152C210A128A1591
:1016B8000A128A15B6200A128A1583120313A50086
:1016C8002508AC000A128A15B6200A128A15831258
:1016D8000313A5002508AD006230A6006530A500FB
:1016E800A50B742BA60B742B792B831203132D08CF
:1016F800A500A6012C08A700A8012708A800A70193
:1017080025082704A90026082804AA002A08A400F6
:101718002908A30008000A128A1558210A128A15F6
:10172800831203132108D0002008CF000A128A115F
:10173800E8260A128A15831203135008E4004F089A
:10174800E3006408E1006308E0000A168A11E8264D
:101758000A128A15831603134508803A8312031365
:10176800E2006408803A6202031DBE2B63088316F8
:1017780003134402031CCF2B83120313640883163C
:101788000313C50083120313630883160313C400ED
:10179800C601C7010800013083160313C6070318E2
:1017A800C70A0030C707080083120313A601A11F48
:1017B800E42BA009A109A00A0319A10AA601A60AF7
:1017C800A31FEF2BA209A309A20A0319A30A013038
:1017D800A4002408A606A701A801200821040319CB
:1017E800262CA501A50AA11B052C01300310A00D6C
:1017F800A10DFF3E031DFA2B0130A4002408A50704
:10180800F72B01300310A70DA80DFF3E031D062C72
:1018180021082302031D122C20082202031C1B2C62
:101828002008A2022108031CA303A30227140130E5
:101838000310A10CA00CFF3E031D1C2C0130A502B7
:10184800031D052C260803192E2CA709A809A70A89
:101858000319A80A2808A1002708A0000800FB1EF1
:101868007D2C903083120313E5000130E6000A1244
:101878008A1588220A128A158316031347088312C9
:101888000313A50083160313460883120313A40049
:101898000A128A1586210A128A157F3083160313C5
:1018A800DA00D430D900AE30D800D80B592CD90B77
:1018B800592CDA0B592C602C831603134609D800CF
:1018C8004709D900D80A0319D90A5808903E831243
:1018D8000313A4008316031359080318013E013E9D
:1018E80083120313A5000A128A1586210A128A1583
:1018F800FB12FB1C852C0A128A11A8270A128A15CA
:10190800FB107B1D8D2C0A128A117B240A128A1562
:101918007B11FB1D08000A128A113720FB110800F1
:1019280000300A168A11AB260A128A1519300A12D3
:101938008A154B230A128A15831203132408D90027
:101948002308D8000A128A15F5240A128A1530309D
:101958000A168A11BD270A128A151A300A128A1520
:101968004B230A128A15831203132408D90023086B
:10197800D8000A128A15F5240A128A1529300A167F
:101988008A11BD270A128A1540300A168A11AB2619
:101998000A128A1516300A128A154B230A128A155A
:1019A800831203132408AF002308AE000A128A1515
:1019B8002D260A128A152D300A168A11BD270A12F9
:1019C8008A15663083120313E2007730E100243071
:1019D800E000E00BED2CE10BED2CE20BED2C000010
:1019E8000800831203135908DF005808DE00DB01E2
:1019F800DC01DD0103305F02E83003195E02031CDD
:101A08001E2D5E08183EDE005F080318013EFC3EEE
:101A1800DF000130DA005A08DD07FE2C5E089C3E24
:101A2800DE005F080318013EFF3EDF000130DA00E8
:101A38005A08DC0700305F02643003195E02031C99
:101A4800322D122D5E08F63EDE005F080318013EB7
:101A5800FF3EDF000130DA005A08DB0700305F0282
:101A68000A3003195E020318262D5D08303E0A1657
:101A78008A111A270A128A15831203135C08303E4A
:101A88000A168A111A270A128A15831203135B0889
:101A9800303E0A168A111A270A128A15831203136E
:101AA8005E08303E0A168A111A27080083120313AB
:101AB800E201E3010430E0006008E1006108031975
:101AC800772D0A128A1558210A128A1583120313D0
:101AD8002008E2070318E30A2108E3070130E102BE
:101AE8006108031D652D0430A0000030A1006308C3
:101AF800A3006208A2000A128A15D8230A128A15BE
:101B0800831203132108E3002008E20000300A16BC
:101B18008A11AB260A128A15831203136308803AC6
:101B2800FF0080307F02031D9B2D51306202031C91
:101B3800B42D831203136308D0006208CF000A1281
:101B48008A11E8260A128A15831203135008D9004D
:101B58004F08D8000A128A15F5240A128A15BA2DD8
:101B680024300A168A11BD270A128A151A300A1655
:101B78008A11BD2708008312031323080319C92DEE
:101B8800220821042004031DDC2D0030A0000030B1
:101B9800A1000030A20008000130A5002508A30715
:101BA80001300310A20CA10CA00CFF3E031DD52D83
:101BB800FE3022050319F72DD02D0130A500250888
:101BC800A3070130A007003003180130A107003037
:101BD80003180130A20701300310A20CA10CA00CBD
:101BE800FF3E031DF02DFF3022050319062EE12DBF
:101BF8000130A30201300310A00DA10DA20DFF3E7C
:101C0800031DFF2DA11B0C2E023023020318FC2DEF
:101C18002318142EFF30A0057F30A105FF30A20540
:101C28000310A30C2308A500A601A7011030031078
:101C3800A50DA60DA70DFF3E031D1B2E2508A0040C
:101C48002608A1042708A204240803190800A217DB
:101C58000800831203132F08B7002E08B600B1013D
:101C6800B201B301B401B5012730370210300319AE
:101C78003602031C582E3608F03EB6003708031803
:101C8800013ED83EB7000130B0003008B407382E06
:101C98003608183EB60037080318013EFC3EB70068
:101CA8000130B0003008B30703303702E8300319B9
:101CB8003602031C6C2E4C2E36089C3EB6003708A4
:101CC8000318013EFF3EB7000130B0003008B207EC
:101CD80000303702643003193602031C802E602E50
:101CE8003608F63EB60037080318013EFF3EB70037
:101CF8000130B0003008B107003037020A3003194C
:101D080036020318742E3508303E0A168A111A272F
:101D18000A128A15831203133408303E0A168A11F0
:101D28001A270A128A15831203133308303E0A163B
:101D38008A111A270A128A15831203133208303EB1
:101D48000A168A111A270A128A15831203133108F0
:101D5800303E0A168A111A270A128A1583120313AB
:101D68003608303E0A168A111A2708008312031310
:101D78003C08C0003D08C1003E08C2000310410DE8
:101D8800420DC3004308C9004908031DD42E003082
:101D9800BF000030BE000030BD000030BC000800AD
:101DA8003C08C0003D08C1003E08C20017300310BF
:101DB800C20CC10CC00CFF3E031DDB2E4008C30043
:101DC8004308C400BD17FF30BC05FF30BD05003017
:101DD800BE053C08C5003D08C6003E08C700C8014E
:101DE8008E30C902C91F162F4908803A8F3E031842
:101DF800062F0030BF000030BE000030BD000030AC
:101E0800BC00080001300310C80CC70CC60CC50C78
:101E1800FF3E031D072F0130C0004008C907031902
:101E2800312F062F18304902031C2E2F0030BF0017
:101E38000030BE000030BD000030BC00080001309A
:101E4800C0000310C50DC60DC70DC80DC00B252F4A
:101E58000130C9024908031D232F440803193F2FE5
:101E6800C509C609C709C809C50A0319C60A031955
:101E7800C70A0319C80A4808BF004708BE00460831
:101E8800BD004508BC000800831203133F08C200C8
:101E98004008C3004108C4000310430D440DC500A9
:101EA8004508CA004A08031D602F0030BC000030F6
:101EB800BD000030BE0008003C08C2003D08C30059
:101EC8003E08C4000310430D440DC5004508CB006F
:101ED8004B08031D762F0030BC000030BD000030D9
:101EE800BE0008000030C7000030C8000030C9003C
:101EF80089304B07C2004208CA023F08C2004008A6
:101F0800C3004108C40010300310C40CC30CC20C39
:101F1800FF3E031D882F4208C5004508CB003C083A
:101F2800C2003D08C3003E08C40010300310C40CB2
:101F3800C30CC20CFF3E031D9A2F4208C50045087A
:101F4800CB068030C2004208CB05C017FF30BF0562
:101F5800FF30C0050030C105BD17FF30BC05FF309C
:101F6800BD050030BE051830C2004208C600013069
:101F78000310C70DC80DC90DFF3E031DBC2F3E0839
:101F88004102031DCD2F3D084002031DCD2F3C0803
:101F98003F02031CDA2F3C08BF023D08031C3D0F1B
:101FA800C0023E08031C3E0AC10247140130031058
:101FB800BF0DC00DC10DFF3E031DDB2F0130C60252
:101FC800031DBB2F4708A0004808A1004908A2002C
:101FD8004A08C2004208A3004B08C3004308A400F3
:101FE8000A128A15BF25831203132008BC00210892
:081FF800BD002208BE00080034
:102D50000F340D340C3483120313A300A31723087C
:102D60000A168A1140270800F0000B307002031881
:102D70007B1EBC2E03140800031008003E3083168F
:102D8000031386000B178B17043081008B168B17EB
:102D900008000A128A155A250A168A11831203138B
:102DA0006508E1006408E0000A168A11542708004B
:102DB00083120313AF1F08002E09B0002F09B100C2
:102DC000B00A0319B10A3008AE003108AF0008009C
:102DD00000300A168A11AB260A168A1183120313D1
:102DE0006108D9006008D8000A128A15F524080085
:102DF0000A128A1548200A168A1180300A128A158A
:102E00002C210A168A1184300A128A152C210800F6
:102E100083120313981C102F1812181603100800A1
:102E2000831603134C084D06031D182F03100800CA
:102E30000314080083120313A20009118910091456
:102E400022088800091509110730A1007D30A00073
:102E5000A00B282FA10B282F08003F308316031347
:102E600085008130831203139F0002308316031301
:102E70009F00533083120313A000A00B3D2F0800C6
:102E800083120313A2000911891009102208880077
:102E9000091509110D30A100FB30A000A00B4E2F29
:102EA000A10B4E2F532F080040300A168A11AB2673
:102EB0000A168A11831203136108D9006008D8002A
:102EC0000A128A15F5240A168A1101300A168A1187
:102ED000BD270800831203132808A0002908A100B9
:102EE000A2018E30AB002B08A300A4010A128A15A0
:102EF000BF25831203132008A8002108A900220877
:102F0000AA0008000A128A15DD200A168A110A1280
:102F10008A1533240A168A11831603134B08831269
:102F20000313E500831603134A0883120313E40016
:102F30000A168A11C9260A168A11872F83160313C7
:102F4000C601C7010A128A1558210A168A1183126E
:102F500003132108D0002008CF000A128A11E826A6
:102F600083120313500883160313C500831203133F
:102F70004F0883160313C400080083120313A40030
:102F8000240884000A128A1500200A168A11003AC1
:102F900003190800240884000A128A1500200A1662
:102FA0008A110A168A111A270A168A110130831209
:102FB0000313A3002308A407C02F83120313A30045
:102FC000A2014130A100EE30A000A00BE52FA10B23
:102FD000E52F0000831203138C11230893008C1D2E
:102FE000EF2F1308A0002008A2008C114130A1008F
:102FF000EE30A000A00BFA2FA10BFA2F0000080062
:02400E003A3F37
:00000001FF
