:060000000A128A11122809
:10000800FE00030EF7000408F8000A08F90083123E
:1000180003137F08FA000A128A1134290A128A1176
:100028001528FB01FC01FD018313633084006F3048
:100038000A128A1531260A128A11A0308400C530A6
:100048000A128A15312683010A128A15422E831252
:1000580003132808AE002908AF002A08B0000310CF
:100068002F0D300DB1003108B4002B08AE002C085C
:10007800AF002D08B00003102F0D300DB10031086E
:10008800B3003408031954283308340203185B28D2
:100098003403FF3A3307AE0019302E02031C5B28E5
:1000A8002B08A8002C08A9002D08AA00080033086E
:1000B800031908003408330203186A283303FF3A87
:1000C8003407AE0019302E02031808000630AE00BF
:1000D8002E08B200AA1BB217AD1B3217A917FF30A2
:1000E800A805FF30A9050030AA05AC17FF30AB05FD
:1000F800FF30AC050030AD05330834020318AA28D8
:1001080001300310AB0DAC0DAD0DFF3E031D85286E
:100118000130B302330834060319A5280130B202AE
:10012800320807390319A528842801300310AA0CBE
:10013800A90CA80CFF3E031D9A280130AE002E081A
:10014800B407340833060319D3289928340833022E
:100158000318D32801300310A80DA90DAA0DFF3EDE
:10016800031DAF280130B402330834060319CF2821
:100178000130B202320807390319CF28AE280130FE
:100188000310AD0CAC0CAB0CFF3E031DC4280130B2
:10019800AE002E08B30734083306031DC328B21F68
:1001A800E528FF30A806FF30A906FF30AA0601306F
:1001B800A807003003180130A907003003180130E0
:1001C800AA07321FF728FF30AB06FF30AC06FF3016
:1001D800AD060130AB07003003180130AC07003022
:1001E80003180130AD07B2012808AB07290803112D
:1001F8000318290A031DAC072A08031103182A0A41
:10020800031DAD07AD1F1A29FF30AB06FF30AC0642
:10021800FF30AD060130AB07003003180130AC07E2
:10022800003003180130AD07B201B20A2B08A00054
:100238002C08A1002D08A2003408AE002E08A30047
:100248003208AF002F08A4000A128A110024831272
:1002580003132008A8002108A9002208AA00080002
:100268008C1E4C291A08F6006B08A03E84007608FC
:10027800831380006B08013E0F39F6007608ED0005
:100288006D086C0603194C296D08F6007608EB001A
:100298000C1E6929831603130C1E69298312031384
:1002A8006E08B03E84008313000899000130F60000
:1002B8007608EE070F30F6007608EE056E087D0624
:1002C800031D6929831603130C120B1DEE290B114C
:1002D8006430831281000130E6070318E70A003012
:1002E800E707F430F0000130F1006708F300660812
:1002F800F2000A128A11C2270A128A1170087104C0
:10030800031D8C290130831203138606E601E701D9
:100318008312031306199229013093290030F6003D
:10032800861898290130992900307604031D861D06
:10033800A129061EA129861AEC290130F6007608A3
:10034800FC077C080A128A11F4270A128A11031C76
:10035800B329831203138618B3297B177B127C08F1
:100368000A128A11F4270A128A11031CC12983125E
:1003780003130619C129FB167B127C080A128A117D
:10038800F4270A128A11031CCF2983120313861932
:10039800CF29FB147B127C080A128A11F4270A124F
:1003A8008A11031CDD2983120313061ADD297B1524
:1003B8007B127C080A128A11F4270A128A11031C7C
:1003C800EE2983120313861AEE29FB157B12EE29F8
:1003D800FC017B167A0883120313FF0079088A0050
:1003E80078088400770E8300FE0E7E0E09008312C3
:1003F80003134508A0004608A1004708A2000030E2
:10040800A300FA30A4004330A5000A128A11DB24A5
:100418000A128A110318572AC83083120313B50029
:100428002A30B6004630B7005C30A8009530A900E5
:10043800C130AA004508AB004608AC004708AD002B
:100448000A128A112B200A128A1183120313280810
:10045800B8002908B9002A08BA000A128A11BA2273
:100468000A128A11831203133508CB003608CC0010
:100478003708CD004B08B5004C08B6004D08B7004A
:100488000030B8008030B9003F30BA000A128A1133
:10049800BA220A128A11831203133508C8003608D3
:1004A800C9003708CA00831203134508A00046088C
:1004B800A1004708A2000030A300FA30A40043308E
:1004C800A5000A128A11DB240A128A11031CB12A18
:1004D800A03083120313B5004830B6004530B7008A
:1004E8004030A800B030A900C330AA004508AB00CE
:1004F8004608AC004708AD000A128A112B200A12E0
:100508008A11831203132808B8002908B9002A0899
:10051800BA000A128A11BA220A128A118312031324
:100528003508CB003608CC003708CD004B08B5009D
:100538004C08B6004D08B7000030B8008030B9004C
:100548003F30BA000A128A11BA22831203133508FF
:10055800C8003608C9003708CA00831203134808C0
:10056800C5004908C6004A08C700080083120313DB
:100578003808BB003908BC003A08BD0003103C0D20
:100588003D0DBE003E08C3004308031DD22A0030BB
:10059800B5000030B6000030B70008003508BB00D1
:1005A8003608BC003708BD0003103C0D3D0DBE00E9
:1005B8003E08C4004408031DE82A0030B500003096
:1005C800B6000030B70008000030C0000030C1009D
:1005D8000030C20089304407BB003B08C30238081A
:1005E800BB003908BC003A08BD0010300310BD0C30
:1005F800BC0CBB0CFF3E031DFA2A3B08BE003E089C
:10060800C4003508BB003608BC003708BD001030F0
:100618000310BD0CBC0CBB0CFF3E031D0C2B3B0890
:10062800BE003E08C4068030BB003B08C405B917AD
:10063800FF30B805FF30B9050030BA05B617FF30EE
:10064800B505FF30B6050030B7051830BB003B08CC
:10065800BF0001300310C00DC10DC20DFF3E031DC8
:100668002E2B37083A02031D3F2B36083902031D8B
:100678003F2B35083802031C4C2B3508B8023608C6
:10068800031C360FB9023708031C370ABA02401494
:1006980001300310B80DB90DBA0DFF3E031D4D2BE7
:1006A8000130BF02031D2D2B4008A0004108A10006
:1006B8004208A2004308BB003B08A3004408BC0052
:1006C8003C08A4000A128A1100248312031320088C
:1006D800B5002108B6002208B700080083120313EA
:1006E8004E08D2004F08D3005008D4000310530D11
:1006F800540DD5005508DB005B08031D8C2B00301A
:10070800D1000030D0000030CF000030CE0008000B
:100718004E08D2004F08D3005008D40017300310F9
:10072800D40CD30CD20CFF3E031D932B5208D500DA
:100738005508D600CF17FF30CE05FF30CF05003063
:10074800D0054E08D7004F08D8005008D900DA0164
:100758008E30DB02DB1FCE2B5B08803A8F3E0318FE
:10076800BE2B0030D1000030D0000030CF00003068
:10077800CE00080001300310DA0CD90CD80CD70CC5
:10078800FF3E031DBF2B0130D2005208DB070319BF
:10079800E92BBE2B18305B02031CE62B0030D1007E
:1007A8000030D0000030CF000030CE00080001300B
:1007B800D2000310D70DD80DD90DDA0DD20BDD2BD1
:1007C8000130DB025B08031DDB2B56080319F72BEE
:1007D800D709D809D909DA09D70A0319D80A031990
:1007E800D90A0319DA0A5A08D1005908D00058085A
:1007F800CF005708CE0008008312031323080319FB
:100808000A2C220821042004031D1D2C0030A000FE
:100818000030A1000030A20008000130A500250822
:10082800A30701300310A20CA10CA00CFF3E031D6E
:10083800162CFE3022050319382C112C0130A50086
:100848002508A3070130A007003003180130A107CD
:10085800003003180130A20701300310A20CA10CCC
:10086800A00CFF3E031D312CFF3022050319472C35
:10087800222C0130A30201300310A00DA10DA20DFE
:10088800FF3E031D402CA11B4D2C023023020318F0
:100898003D2C2318552CFF30A0057F30A105FF30D3
:1008A800A2050310A30C2308A500A601A701103078
:1008B8000310A50DA60DA70DFF3E031D5C2C2508F2
:1008C800A0042608A1042708A20424080319080084
:1008D800A21708000A128A158C260A128A11831296
:1008E800031339083A040319CB2C0A128A117F26FC
:1008F8000A128A119A2C2E30831203138E2C2B3055
:100908008E2C27308E2C35308E2C17308E2C1B30A9
:100918008E2C1E3087000130BB003B08EA07B62C3E
:100928003C308700EA01B62C8701B62C83120313EA
:100938006A08003A03197F2C013A0319832C033AF9
:100948000319852C013A0319872C073A0319892CB6
:10095800013A03198B2C033A03198D2C013A031918
:10096800942C982C4130BC00EE30BB00BB0BBA2C49
:10097800BC0BBA2C0000013083120313B9020030FB
:10098800031CBA03BA0239083A04031D792C8316EA
:100998000313440883120313A100831603134308A7
:1009A80083120313A0000A128A11E6250800831295
:1009B8000313A21F042D0030A6000030A7008030CA
:1009C800A8002009A9002109AA002209AB00A90A48
:1009D8000319AA0A0319AB0A2908A6072A08031843
:1009E8002A0FF72CF82CA7072B0803182B0FFD2C20
:1009F800FE2CA8072608A0002708A1002808A200A6
:100A0800A51F2B2D0030A6000030A7008030A800BD
:100A18002309A9002409AA002509AB00A90A03197A
:100A2800AA0A0319AB0A2908A6072A0803182A0FD5
:100A38001E2D1F2DA7072B0803182B0F242D252D3E
:100A4800A8072608A3002708A4002808A5008030C6
:100A5800A2068030A50625082202031D08002408E6
:100A68002102031D080023082002080089300A1209
:100A78008A15A6260A128A11213083120313A300AD
:100A88007630A200A20B462DA30B462D00000030A5
:100A98000A128A15A6260A128A1121308312031314
:100AA800A3007630A200A20B572DA30B572D0000F0
:100AB80000300A128A15A6260A128A1121308312DA
:100AC8000313A3007630A200A20B682DA30B682D98
:100AD800000000300A128A15A6260A128A1121304F
:100AE80083120313A3007630A200A20B792DA30B67
:100AF800792D000000300A128A15A6260A128A11DA
:100B0800213083120313A3007630A200A20B8A2D92
:100B1800A30B8A2D0000080089300A128A15A62620
:100B28000A128A11213083120313A3007630A2001F
:100B3800A20B9C2DA30B9C2D000000300A128A15D5
:100B4800A6260A128A11213083120313A3007630D5
:100B5800A200A20BAD2DA30BAD2D0000C8300A12C8
:100B68008A15A6260A128A11213083120313A300BC
:100B78007630A200A20BBE2DA30BBE2D0000C830FC
:100B88000A128A15A6260A128A1121308312031323
:100B9800A3007630A200A20BCF2DA30BCF2D00000F
:100BA80000300A128A15A6260A128A1121308312E9
:100BB8000313A3007630A200A20BE02DA30BE02DB7
:100BC8000000080083120313152E1E30870007301B
:100BD800A2002208EA00042E3C30FD2D2E30FD2D07
:100BE8002B30FD2D2730FD2D3530FD2D1730FD2DF7
:100BF8001B308700FF30A2002208EA07042E870175
:100C08004130A300EE30A200A20B082EA30B082E41
:100C18000000013083120313A0020030031CA1035B
:100C2800A10220082104031908006A08003A0319E0
:100C3800E92D013A0319F02D033A0319F22D013A6F
:100C48000319F42D073A0319F62D013A0319F82D63
:100C5800033A0319FA2D013A0319FC2D032E042E29
:100C680083120313602E2E30442E2B30442E27304F
:100C7800442E3530442E1730442E1B30442E1E305F
:100C880087000130A2002208EA074F2E3C30870077
:100C9800EA014F2E87014130A300EE30A200A20BDB
:100CA800532EA30B532E0000013083120313A0020E
:100CB8000030031CA103A102200821040319080025
:100CC8006A08003A0319372E013A0319392E033AF4
:100CD80003193B2E013A03193D2E073A03193F2EFB
:100CE800013A0319412E033A0319432E013A031915
:100CF8004A2E4E2E4F2E0A128A1152270A128A1194
:100D0800831203132E08E3002F08E4003008E500DF
:100D180083160313400883120313A00083160313DA
:100D2800410883120313A100831603134208831298
:100D38000313A2006308A3006408A4006508A500C3
:100D48000A128A11DB240A128A110318BF2E831291
:100D58000313630883160313C00083120313640884
:100D680083160313C1008312031365088316031344
:100D7800C200C301C401013083160313C30703185B
:100D8800C40A0030C4070800831203135D08E20098
:100D98005C08E100DF01E001003062026430031901
:100DA8006102031CF02E61089C3EE10062080318F2
:100DB800013EFF3EE2000130DE005E08E007D02E73
:100DC8006108F63EE10062080318013EFF3EE200BA
:100DD8000130DE005E08DF07003062020A300319C6
:100DE80061020318E42E6008303E0A128A15522662
:100DF8000A128A11831203135F08303E0A128A15F9
:100E080052260A128A11831203136108303E0A120D
:100E18008A15522608007B1F1B2F403083120313AC
:100E280086060A128A15A0270A128A117B13FB1E4E
:100E3800292F903083120313B9000130BA000A1227
:100E48008A116E240A128A11FB12FB1C372F643098
:100E580083120313A0000030A1000A128A1134265D
:100E68000A128A11FB107B1D452F6430831203136D
:100E7800A0000030A1000A128A11E6250A128A1180
:100E88007B11FB1D0800083083120313A0000030FB
:100E9800A1000A128A11E625FB110800003083120E
:100EA8000313B6000030B7000030B8001F151F1933
:100EB8005B2F831603131E0883120313B100063039
:100EC8000310B10CFF3E031D642F3108B200B301BB
:100ED8001E08B400B5010310B40DB50D0310B40D10
:100EE800B50D32083404A80033083504A9000A12E5
:100EF8008A152927831203132808B6002908B70082
:100F08002A08B8003608AE003708AF003808B00025
:100F1800080000300A128A1539260A128A110A12A4
:100F28008A1152270A128A11831203132E08C50048
:100F38002F08C6003008C7000A128A11FB210A12BE
:100F48008A11831203134508CE004608CF004708CC
:100F5800D0000A128A1172230A128A11831203130B
:100F68004F08DD004E08DC000A128A11C8260A1252
:100F78008A1111300A128A15C326080070087104F4
:100F88000319EF2FF501F50AF11BD62F01300310D5
:100F9800F00DF10DFF3E031DCB2F0130F400740856
:100FA800F507C82F71087302031DDC2F7008720241
:100FB800031CE42F7008F2027108031CF303F30208
:100FC80001300310F10CF00CFF3E031DE52F01303A
:100FD800F502031DD62F7308F1007208F00008000F
:100FE800F0000B30700203187B1EFC2F031408005E
:040FF80003100800DA
:1010000008308A000408840A8207003430343034FF
:1010100030342034433457342034003430343034C6
:1010200030342034433443345734003463346D3423
:0210300000348A
:101C620064008001840A0406031900340406322E3B
:101C720083120313A300A31723080A128A157826D6
:101C820008000A128A1574270A128A150A128A1182
:101C92000F270A128A150A128A118D270A128A152B
:101CA200472E83120313A200091189100914220876
:101CB2008800091509110730A1007D30A000A00B92
:101CC200602EA10B602E0800FF30831603138500DF
:101CD2008130831203139F000230831603139F0087
:101CE200533083120313A000A00B752E0800831239
:101CF2000313A2000911891009102208880009158E
:101D020009110D30A100FB30A000A00B862EA10B03
:101D1200862E8B2E080083160313C301C4010A12F8
:101D22008A115227831203132E0883160313C0004D
:101D3200831203132F0883160313C10083120313A4
:101D4200300883160313C200080083120313A10094
:101D52007D08013E0F396E060319A92E8B13210847
:101D6200A0007D08B03E84002008831380007D0817
:101D7200013E0F39A0002008FD00831603130C1644
:101D82008B17080083120313A400240884000A128C
:101D92008A1500200A128A15003A0319080024083D
:101DA20084000A128A1500200A128A150A128A155C
:101DB20052260A128A15013083120313A300230844
:101DC200A407C62E88300A128A15A6260A128A1578
:101DD200213083120313A3007630A200A20BEF2E50
:101DE200A30BEF2E000004300A128A15A6260A124F
:101DF2008A15213083120313A3007630A200A20BAE
:101E0200002FA30B002F0000080080300A128A1551
:101E1200A6260A128A15213083120313A3007630F4
:101E2200A200A20B122FA30B122F000084300A1261
:101E32008A15A6260A128A15213083120313A300DB
:101E42007630A200A20B232FA30B232F0000080041
:101E520083120313AD01A91F352FA809A909A80AE6
:101E62000319A90AAD01AD0A2808A0002908A1009A
:101E7200A2018E30AB002B08A3002D08AC002C0869
:101E8200A4000A128A110024831203132008A80056
:101E92002108A9002208AA00080083160313871745
:101EA200BF3083120313A000200883160313870593
:101EB200181514309900181383120313181383167C
:101EC2000313181283120313981718168316031399
:101ED2000C128C1698160B1783120313EE01FD01D8
:101EE200EC01EB0108007F3083120313A700D4300A
:101EF200A600AE30A500A50B7C2FA60B7C2FA70B4E
:101F02007C2F832F0A128A154E270A128A150B1765
:101F12008B173E30831603138600043081008B1624
:101F22008B170A128A1506270A128A150A128A15AF
:101F320065260A128A150A128A15CF2708000A1284
:101F42008A1190250A128A15FE3083120313A60005
:101F5200A830A5006130A400A40BAD2FA50BAD2FB6
:101F6200A60BAD2F0A128A113A250A128A150A12F5
:101F72008A15E3260A128A15FE3083120313A6007D
:101F8200A830A5006130A400A40BC52FA50BC52F56
:101F9200A60BC52F0A128A113A25080083120313D1
:101FA20088018901831603138801890101300A120D
:101FB2008A1578260A128A1538300A128A15782666
:101FC2000A128A150C300A128A1578260A128A1504
:101FD20006300A128A1578260A128A1502300A1267
:101FE2008A1578260A128A1540300A128A1539266D
:0E1FF2000A128A1509300A128A15C326080041
:02400E003A3F37
:00000001FF
