:060000000A128A11122809
:10000800FE00030EF7000408F8000A08F90083123E
:1000180003137F08FA000A128A1134290A128A1176
:100028001528FB01FC01FD018313633084006F3048
:100038000A128A150A260A128A11A0308400C530CD
:100048000A128A150A2683010A128A11EE2F8312D0
:1000580003132808AE002908AF002A08B0000310CF
:100068002F0D300DB1003108B4002B08AE002C085C
:10007800AF002D08B00003102F0D300DB10031086E
:10008800B3003408031954283308340203185B28D2
:100098003403FF3A3307AE0019302E02031C5B28E5
:1000A8002B08A8002C08A9002D08AA00080033086E
:1000B800031908003408330203186A283303FF3A87
:1000C8003407AE0019302E02031808000630AE00BF
:1000D8002E08B200AA1BB217AD1B3217A917FF30A2
:1000E800A805FF30A9050030AA05AC17FF30AB05FD
:1000F800FF30AC050030AD05330834020318AA28D8
:1001080001300310AB0DAC0DAD0DFF3E031D85286E
:100118000130B302330834060319A5280130B202AE
:10012800320807390319A528842801300310AA0CBE
:10013800A90CA80CFF3E031D9A280130AE002E081A
:10014800B407340833060319D3289928340833022E
:100158000318D32801300310A80DA90DAA0DFF3EDE
:10016800031DAF280130B402330834060319CF2821
:100178000130B202320807390319CF28AE280130FE
:100188000310AD0CAC0CAB0CFF3E031DC4280130B2
:10019800AE002E08B30734083306031DC328B21F68
:1001A800E528FF30A806FF30A906FF30AA0601306F
:1001B800A807003003180130A907003003180130E0
:1001C800AA07321FF728FF30AB06FF30AC06FF3016
:1001D800AD060130AB07003003180130AC07003022
:1001E80003180130AD07B2012808AB07290803112D
:1001F8000318290A031DAC072A08031103182A0A41
:10020800031DAD07AD1F1A29FF30AB06FF30AC0642
:10021800FF30AD060130AB07003003180130AC07E2
:10022800003003180130AD07B201B20A2B08A00054
:100238002C08A1002D08A2003408AE002E08A30047
:100248003208AF002F08A4000A128A11FA23831279
:1002580003132008A8002108A9002208AA00080002
:100268008C1E4C291A08F6006B08A03E84007608FC
:10027800831380006B08013E0F39F6007608ED0005
:100288006D086C0603194C296D08F6007608EB001A
:100298000C1E6929831603130C1E69298312031384
:1002A8006E08B03E84008313000899000130F60000
:1002B8007608EE070F30F6007608EE056E087D0624
:1002C800031D6929831603130C120B1DE8290B1152
:1002D8006430831281000130E6070318E70A003012
:1002E800E707F430F0000130F1006708F300660812
:1002F800F2000A128A11BC270A128A1170087104C6
:10030800031D8C290130831203138606E601E701D9
:1003180083120313071500008312031307118618AD
:10032800061D9B298619061E9B29861AE629013077
:10033800F6007608FC077C080A128A151B260A12A2
:100348008A11031CAD29831203138618AD297B1764
:100358007B127C080A128A151B260A128A11031CB2
:10036800BB29831203130619BB29FB167B127C08D1
:100378000A128A151B260A128A11031CC92983121C
:1003880003138619C929FB147B127C080A128A15E3
:100398001B260A128A11031CD72983120313061A73
:1003A800D7297B157B127C080A128A151B260A128C
:1003B8008A11031CE82983120313861AE829FB15FE
:1003C8007B12E829FC017B167A0883120313FF00CD
:1003D80079088A0078088400770E8300FE0E7E0E66
:1003E8000900831203134508A0004608A100470826
:1003F800A2000030A300FA30A4004330A5000A127E
:100408008A11D5240A128A110318512AC830831276
:100418000313B5002A30B6004630B7005C30A80098
:100428009530A900C130AA004508AB004608AC00C9
:100438004708AD000A128A112B200A128A1183126A
:1004480003132808B8002908B9002A08BA000A12B4
:100458008A11B4220A128A11831203133508CB00B9
:100468003608CC003708CD004B08B5004C08B6005C
:100478004D08B7000030B8008030B9003F30BA00EE
:100488000A128A11B4220A128A1183120313350838
:10049800C8003608C9003708CA0083120313450884
:1004A800A0004608A1004708A2000030A300FA30C7
:1004B800A4004330A5000A128A11D5240A128A1111
:1004C800031CAB2AA03083120313B5004830B600D2
:1004D8004530B7004030A800B030A900C330AA00AA
:1004E8004508AB004608AC004708AD000A128A115F
:1004F8002B200A128A11831203132808B80029082E
:10050800B9002A08BA000A128A11B4220A128A11FA
:10051800831203133508CB003608CC003708CD000A
:100528004B08B5004C08B6004D08B7000030B800BD
:100538008030B9003F30BA000A128A11B4228312FF
:1005480003133508C8003608C9003708CA008312E3
:1005580003134808C5004908C6004A08C700080030
:10056800831203133808BB003908BC003A08BD00E1
:1005780003103C0D3D0DBE003E08C3004308031D9B
:10058800CC2A0030B5000030B6000030B7000800B3
:100598003508BB003608BC003708BD0003103C0D09
:1005A8003D0DBE003E08C4004408031DE22A003089
:1005B800B5000030B6000030B70008000030C000B9
:1005C8000030C1000030C20089304407BB003B083E
:1005D800C3023808BB003908BC003A08BD00103017
:1005E8000310BD0CBC0CBB0CFF3E031DF42A3B08DA
:1005F800BE003E08C4003508BB003608BC003708FA
:10060800BD0010300310BD0CBC0CBB0CFF3E031D1D
:10061800062B3B08BE003E08C4068030BB003B08E2
:10062800C405B917FF30B805FF30B9050030BA0561
:10063800B617FF30B505FF30B6050030B7051830DE
:10064800BB003B08BF0001300310C00DC10DC20D37
:10065800FF3E031D282B37083A02031D392B3608A5
:100668003902031D392B35083802031C462B35087F
:10067800B8023608031C360FB9023708031C370ABC
:10068800BA02401401300310B80DB90DBA0DFF3E7F
:10069800031D472B0130BF02031D272B4008A00074
:1006A8004108A1004208A2004308BB003B08A30080
:1006B8004408BC003C08A4000A128A11FA238312D9
:1006C80003132008B5002108B6002208B700080067
:1006D800831203134E08D2004F08D3005008D400E9
:1006E8000310530D540DD5005508DB005B08031D9E
:1006F800862B0030D1000030D0000030CF00003011
:10070800CE0008004E08D2004F08D3005008D4008D
:1007180017300310D40CD30CD20CFF3E031D8D2BC5
:100728005208D5005508D600CF17FF30CE05FF3048
:10073800CF050030D0054E08D7004F08D800500824
:10074800D900DA018E30DB02DB1FC82B5B08803A48
:100758008F3E0318B82B0030D1000030D000003095
:10076800CF000030CE00080001300310DA0CD90C9D
:10077800D80CD70CFF3E031DB92B0130D20052080C
:10078800DB070319E32BB82B18305B02031CE02BA3
:100798000030D1000030D0000030CF000030CE0053
:1007A80008000130D2000310D70DD80DD90DDA0D8D
:1007B800D20BD72B0130DB025B08031DD52B560863
:1007C8000319F12BD709D809D909DA09D70A031966
:1007D800D80A0319D90A0319DA0A5A08D10059089C
:1007E800D0005808CF005708CE0008008312031322
:1007F80023080319042C220821042004031D172CA4
:100808000030A0000030A1000030A2000800013034
:10081800A5002508A30701300310A20CA10CA00C09
:10082800FF3E031D102CFE3022050319322C0B2C21
:100838000130A5002508A3070130A00700300318E0
:100848000130A107003003180130A207013003105E
:10085800A20CA10CA00CFF3E031D2B2CFF3022057F
:100868000319412C1C2C0130A30201300310A00DE8
:10087800A10DA20DFF3E031D3A2CA11B472C0230EF
:1008880023020318372C23184F2CFF30A0057F3084
:10089800A105FF30A2050310A30C2308A500A6019B
:1008A800A70110300310A50DA60DA70DFF3E031DCF
:1008B800562C2508A0042608A1042708A204240809
:1008C80003190800A21708000A128A1587260A12B7
:1008D8008A118312031339083A040319C52C0A1222
:1008E8008A1179260A128A11942C2E308312031346
:1008F800882C2B30882C2730882C3530882C1730C2
:10090800882C1B30882C1E3087000130BB003B0828
:10091800EA07B02C3C308700EA01B02C8701B02CE4
:10092800831203136A08003A0319792C013A031950
:100938007D2C033A03197F2C013A0319812C073ABD
:100948000319832C013A0319852C033A0319872CC0
:10095800013A03198E2C922C4130BC00EE30BB00BA
:10096800BB0BB42CBC0BB42C000001308312031356
:10097800B9020030031CBA03BA0239083A04031D4D
:10098800732C83160313440883120313A1008316E0
:100998000313430883120313A0000A128A11E025E7
:1009A800080083120313A21FFE2C0030A60000309B
:1009B800A7008030A8002009A9002109AA0022095F
:1009C800AB00A90A0319AA0A0319AB0A2908A60742
:1009D8002A0803182A0FF12CF22CA7072B08031852
:1009E8002B0FF72CF82CA8072608A0002708A10031
:1009F8002808A200A51F252D0030A6000030A7005A
:100A08008030A8002309A9002409AA002509AB0001
:100A1800A90A0319AA0A0319AB0A2908A6072A086A
:100A280003182A0F182D192DA7072B0803182B0FA9
:100A38001E2D1F2DA8072608A3002708A400280894
:100A4800A5008030A2068030A50625082202031DD5
:100A5800080024082102031D0800230820020800BA
:100A680089300A128A15A1260A128A1121308312A6
:100A78000313A3007630A200A20B402DA30B402D38
:100A8800000000300A128A15A1260A128A112130A4
:100A980083120313A3007630A200A20B512DA30BDF
:100AA800512D000000300A128A15A1260A128A1157
:100AB800213083120313A3007630A200A20B622D0B
:100AC800A30B622D000000300A128A15A1260A1213
:100AD8008A11213083120313A3007630A200A20BDF
:100AE800732DA30B732D000000300A128A15A1265E
:100AF8000A128A11213083120313A3007630A20050
:100B0800A20B842DA30B842D0000080089300A1243
:100B18008A15A1260A128A11213083120313A30011
:100B28007630A200A20B962DA30B962D0000003064
:100B38000A128A15A1260A128A1121308312031378
:100B4800A3007630A200A20BA72DA30BA72D0000AF
:100B5800C8300A128A15A1260A128A112130831276
:100B68000313A3007630A200A20BB82DA30BB82D57
:100B78000000C8300A128A15A1260A128A112130EB
:100B880083120313A3007630A200A20BC92DA30B76
:100B9800C92D000000300A128A15A1260A128A11EE
:100BA800213083120313A3007630A200A20BDA2DA2
:100BB800A30BDA2D00000800831203130F2E1E303A
:100BC80087000730A2002208EA00FE2D3C30F72DEE
:100BD8002E30F72D2B30F72D2730F72D3530F72D08
:100BE8001730F72D1B308700FF30A2002208EA07D4
:100BF800FE2D87014130A300EE30A200A20B022E89
:100C0800A30B022E0000013083120313A002003050
:100C1800031CA103A10220082104031908006A0883
:100C2800003A0319E32D013A0319EA2D033A03198F
:100C3800EC2D013A0319EE2D073A0319F02D013A6C
:100C48000319F22D033A0319F42D013A0319F62D6D
:100C5800FD2DFE2D831203135A2E2E303E2E2B30DF
:100C68003E2E27303E2E35303E2E17303E2E1B307E
:100C78003E2E1E3087000130A2002208EA07492EC6
:100C88003C308700EA01492E87014130A300EE304D
:100C9800A200A20B4D2EA30B4D2E00000130831293
:100CA8000313A0020030031CA103A10220082104A1
:100CB800031908006A08003A0319312E013A03198A
:100CC800332E033A0319352E013A0319372E073A02
:100CD8000319392E013A03193B2E033A03193D2E05
:100CE800013A0319442E482E492E0A128A114C271C
:100CF8000A128A11831203132E08E3002F08E40056
:100D08003008E50083160313400883120313A0007C
:100D180083160313410883120313A10083160313D8
:100D2800420883120313A2006308A3006408A40006
:100D38006508A5000A128A11D5240A128A11031817
:100D4800B92E83120313630883160313C00083129A
:100D58000313640883160313C10083120313650881
:100D680083160313C200C301C401013083160313A1
:100D7800C3070318C40A0030C4070800831203130A
:100D88005D08E2005C08E100DF01E001003062027A
:100D9800643003196102031CEA2E61089C3EE100DD
:100DA80062080318013EFF3EE2000130DE005E08E3
:100DB800E007CA2E6108F63EE10062080318013E0A
:100DC800FF3EE2000130DE005E08DF07003062020D
:100DD8000A30031961020318DE2E6008303E0A1239
:100DE8008A1534260A128A11831203135F08303ECB
:100DF8000A128A1534260A128A118312031361080B
:100E0800303E0A128A15342608007B1F152F403001
:100E18008312031386060A128A156F270A128A118B
:100E28007B13FB1E232F903083120313B90001306C
:100E3800BA000A128A1168240A128A11FB12FB1CD2
:100E4800312F643083120313A0000030A1000A126E
:100E58008A112E260A128A11FB107B1D3F2F64303F
:100E680083120313A0000030A1000A128A11E025A2
:100E78000A128A117B11FB1D080008308312031324
:100E8800A0000030A1000A128A11E025FB11080019
:100E9800003083120313B6000030B7000030B800EA
:100EA8001F151F19552F831603131E0883120313CA
:100EB800B10006300310B10CFF3E031D5E2F310850
:100EC800B200B3011E08B400B5010310B40DB50D8E
:100ED8000310B40DB50D32083404A80033083504E6
:100EE800A9000A128A152427831203132808B600BA
:100EF8002908B7002A08B8003608AE003708AF003E
:100F08003808B000080000300A128A1512260A12A2
:100F18008A110A128A114C270A128A1183120313A2
:100F28002E08C5002F08C6003008C7000A128A110B
:100F3800F5210A128A11831203134508CE004608C8
:100F4800CF004708D0000A128A116C230A128A11AE
:100F5800831203134F08DD004E08DC000A128A11C1
:100F6800C2260A128A1111300A128A15BE260800F2
:100F7800700871040319E92FF501F50AF11BD02F48
:100F880001300310F00DF10DFF3E031DC52F013098
:100F9800F4007408F507C22F71087302031DD62FD9
:100FA80070087202031CDE2F7008F2027108031C1D
:100FB800F303F30201300310F10CF00CFF3E031DA4
:100FC800DF2F0130F502031DD02F7308F1007208DE
:100FD800F00008000A128A15CF270A128A110A128D
:100FE8008A1109270A128A110A128A1187270A12F6
:040FF8008A11F32F38
:1010000008308A000408840A8207003430343034FF
:1010100030342034433457342034003430343034C6
:1010200030342034433443345734003463346D3423
:0210300000348A
:101C140064008001840A04060319003404060B2EB0
:101C240083120313A300A31723080A128A155A2642
:101C34000800F0000B30700203187B1E232E0314DF
:101C440008000310080083120313A200A1018C11E1
:101C5400220893008C1D2C2E1308A0002008A1003C
:101C64008C11080083120313A200091189100914AE
:101C740022088800091509110730A1007D30A00051
:101C8400A00B422EA10B422E0800FF308316031333
:101C940085008130831203139F00023083160313DF
:101CA4009F00533083120313A000A00B572E08008B
:101CB40083120313A2000911891009102208880055
:101CC400091509110D30A100FB30A000A00B682EEE
:101CD400A10B682E6D2E0800403083160313940068
:101CE4002030831203139400D0308316031387002B
:101CF40003308312031387000D30A3002308A400CC
:101D040024080A128A152526080083160313C30122
:101D1400C4010A128A114C27831203132E08831656
:101D24000313C000831203132F0883160313C10087
:101D340083120313300883160313C20008008312AE
:101D44000313A1007D08013E0F396E060319A42E6A
:101D54008B132108A0007D08B03E84002008831363
:101D640080007D08013E0F39A0002008FD00831685
:101D740003130C168B17080083120313A400240802
:101D840084000A128A1500200A128A15003A0319DF
:101D94000800240884000A128A1500200A128A15F1
:101DA4000A128A1534260A128A1501308312031383
:101DB400A3002308A407C12E88300A128A15A1267D
:101DC4000A128A15213083120313A3007630A2006D
:101DD400A20BEA2EA30BEA2E000004300A128A1585
:101DE400A1260A128A15213083120313A300763028
:101DF400A200A20BFB2EA30BFB2E000008008030D8
:101E04000A128A15A1260A128A1521308312031395
:101E1400A3007630A200A20B0D2FA30B0D2F000000
:101E240084300A128A15A1260A128A1521308312D7
:101E34000313A3007630A200A20B1E2FA30B1E2FA8
:101E44000000080083120313AD01A91F302FA80955
:101E5400A909A80A0319A90AAD01AD0A2808A00016
:101E64002908A100A2018E30AB002B08A3002D0885
:101E7400AC002C08A4000A128A11FA23831203135B
:101E84002008A8002108A9002208AA000800831637
:101E940003138717BF3083120313A000200883168F
:101EA40003138705181514309900181383120313AC
:101EB4001813831603131812831203139817181692
:101EC400831603130C128C1698160B178312031324
:101ED400EE01FD01EC01EB0108000A128A118A25CA
:101EE4000A128A15FE3083120313A600A830A50037
:101EF4006130A400A40B7C2FA50B7C2FA60B7C2F98
:101F04000A128A1134250A128A150A128A15DE2643
:101F14000A128A15FE3083120313A600A830A50006
:101F24006130A400A40B942FA50B942FA60B942F1F
:101F34000A128A11342508008312031388018901C7
:101F4400831603138801890101300A128A155A265F
:101F54000A128A1538300A128A155A260A128A1564
:101F64000C300A128A155A260A128A1506300A12E9
:101F74008A155A260A128A1502300A128A155A2616
:101F84000A128A1540300A128A1512260A128A1574
:101F940009300A128A15BE2608007F308312031303
:101FA400A700D430A600AE30A500A50BD72FA60BF2
:101FB400D72FA70BD72FDE2F0A128A1549270A120B
:101FC4008A150B178B173E308316031386000430D3
:101FD40081008B168B170A128A156E260A128A152F
:101FE4000A128A1501270A128A150A128A15472627
:0C1FF4000A128A150A128A159E2708009E
:02400E003A3F37
:00000001FF
