:060000000A128A11122809
:10000800FE00030EF7000408F8000A08F90083123E
:1000180003137F08FA000A128A11B02D0A128A11F6
:100028001528FB01FC01FD018313A0308400CD30AD
:100038000A128A11F8270A128A11831603130A1260
:100048008A159C210A128A11DC000A128A159D2140
:10005800DD0083010A128A15782A83160313CF015B
:10006800D001CD01CE01903083120313AE000130D0
:10007800AF000A128A1505260A128A110030831663
:1000880003134C02C93003194B02031CA3284C0864
:1000980083120313A900831603134B088312031357
:1000A800A8000A128A158E220A128A1183120313D3
:1000B8002808AF002908B0002A08B1006630AC0053
:1000C8006630AD003F30AE000A128A119A220A1239
:1000D8008A11831203132C08BF002D08C0002E08B4
:1000E800C1000030BC003430BD00C330BE000A126D
:1000F8008A1191210A128A11831203133C08C9003C
:100108003D08CA003E08CB000A128A1163260A126B
:100118008A11831203134A0883160313D00083122B
:100128000313490883160313CF003D3083120313CA
:10013800A300FF30A400C830A5000030E9288316CA
:1001480003134C0883120313A900831603134B08E7
:1001580083120313A8000A128A158E220A128A1122
:10016800831203132808AF002908B0002A08B10039
:100178006630AC006630AD00BF30AE000A128A119E
:100188009A220A128A11831203132C08C9002D0817
:10019800CA002E08CB000A128A1163260A128A1195
:1001A800831203134A0883160313D0008312031320
:1001B800490883160313CF00C33083120313A30027
:1001C8000030A4003830A500FF30A6000A128A15B6
:1001D800B6240A128A1183160313500883120313D4
:1001E800AF00831603134F0883120313AE000A12DD
:1001F8008A15BC210A128A11831203132F08831649
:100208000313D000831203132E0883160313CF00A1
:10021800831603134E08803A83120313ED008316E6
:1002280003135008803A831203136D02031D20291B
:10023800831603134F084D020318702914300A124D
:100248008A1533250A128A11831203132408AF0072
:100258002308AE000A128A15BC210A128A118312D9
:1002680003132E0883160313CD070318CE0A83122F
:1002780003132F0883160313CE0700300A128A15BA
:100288009E210A128A11831603135008831203133E
:10029800E600831603134F0883120313E5000A12BE
:1002A8008A117E270A128A1140300A128A159E2165
:1002B8000A128A11831603134E0883120313E600E9
:1002C800831603134D0883120313E5000A128A11DB
:1002D8007E270A128A110C29003083120313A30007
:1002E800A4000030A500A6000A128A15B6240A1236
:1002F8008A11153083120313EF004B30EE00D13012
:10030800ED00ED0B8529EE0B8529EF0B8529000003
:1003180083160313CF01D0010800831203133C088E
:10032800C2003D08C3003E08C4000310430D440D3D
:10033800C5004508C8003F08C2004008C30041087E
:10034800C4000310430D440DC5004508C700480804
:100358000319BA29470848020318C1294803FF3A74
:100368004707C20019304202031CC1293F08BC00DC
:100378004008BD004108BE000800470803190800EE
:10038800480847020318D0294703FF3A4807C20024
:1003980019304202031808000630C2004208C6009D
:1003A800BE1BC617C11B4617BD17FF30BC05FF3063
:1003B800BD050030BE05C017FF30BF05FF30C005C2
:1003C8000030C105470848020318102A01300310FD
:1003D800BF0DC00DC10DFF3E031DEB290130C70243
:1003E8004708480603190B2A0130C6024608073990
:1003F80003190B2AEA2901300310BE0CBD0CBC0CF2
:10040800FF3E031D002A0130C2004208C807480801
:1004180047060319392AFF29480847020318392AC9
:1004280001300310BC0DBD0DBE0DFF3E031D152A86
:100438000130C802470848060319352A0130C602A8
:10044800460807390319352A142A01300310C10C4C
:10045800C00CBF0CFF3E031D2A2A0130C20042080F
:10046800C70748084706031D292AC61F4B2AFF301D
:10047800BC06FF30BD06FF30BE060130BC070030A9
:1004880003180130BD07003003180130BE07461FAE
:100498005D2AFF30BF06FF30C006FF30C1060130BD
:1004A800BF07003003180130C007003003180130BF
:1004B800C107C6013C08BF073D08031103183D0AE0
:1004C800031DC0073E08031103183E0A031DC10798
:1004D800C11F802AFF30BF06FF30C006FF30C106AB
:1004E8000130BF07003003180130C007003003187F
:1004F8000130C107C601C60A3F08A0004008A10094
:100508004108A2004808C2004208A3004608C300E8
:100518004308A4000A128A150D2783120313200822
:10052800BC002108BD002208BE0008008312031386
:100538002C08B2002D08B3002E08B4000310330DA8
:10054800340DB5003508B6003608031DB22A003050
:10055800AC000030AD000030AE0008002F08B2003B
:100568003008B3003108B4000310330D340DB50062
:100578003508BB003B08031DC82A0030AC0000301A
:10058800AD000030AE0008003B087B3EB2003208E8
:10059800B6072C08B2002D08B3002E08B40010309E
:1005A8000310B40CB30CB20CFF3E031DD42A32085E
:1005B800B5003508BB002F08B2003008B300310879
:1005C800B40010300310B40CB30CB20CFF3E031D82
:1005D800E62A3208B5003508BB068030B20032087A
:1005E800BB05AD17B017FF30AF05FF30B0050030C1
:1005F800B1050030B7000030B8000030B90007304E
:10060800B2003208BA002C1C172B2F08B707300885
:1006180003110318300A031DB80731080311031822
:10062800310A031DB90701300310AE0CAD0CAC0C38
:10063800FF3E031D182B01300310AF0DB00DB10D97
:10064800FF3E031D202B0130BA02031D072B093082
:10065800B2003208BA002C1C3F2B2F08B70730080D
:1006680003110318300A031DB807310803110318D2
:10067800310A031DB90701300310AE0CAD0CAC0CE8
:10068800FF3E031D402B01300310B90CB80CB70C0A
:10069800FF3E031D482B0130BA02031D2F2B3708DC
:1006A800A0003808A1003908A2003608B2003208B4
:1006B800A3003B08B3003308A4000A128A150D27CB
:1006C800831203132008AC002108AD002208AE00F5
:1006D800080083160313D701D801DA01DB01D5011D
:1006E800D601C401C5010430D2005208D900590806
:1006F80003190800C33083120313A3000030A400B9
:10070800C830A5000030A6000A128A15B6240A12BD
:100718008A11831603135B08803AFF0083307F0237
:10072800031D982BE4305A020318C02B13300A1209
:100738008A1533250A128A11831203132308831694
:100748000313DA070318DB0A83120313240883163A
:100758000313DB0755085A07C40056080318560A3E
:100768005B07C5004508D1004408D0000A128A1565
:100778004D220A128A118D2B003083120313A30015
:10078800A4000030A500A6000A128A15B6240A1291
:100798008A11153083160313D4004B30D300D1309F
:1007A800D200D20BD52BD30BD52BD40BD52B0000D5
:1007B800C33083120313A3000030A4003830A5000F
:1007C800FF30A6000A128A15B6240A128A11831667
:1007D80003135808803AFF0080307F02031DF62B70
:1007E8005A30570203180D2C14300A128A15332573
:1007F8000A128A1183120313230883160313D707D7
:100808000318D80A83120313240883160313D8077E
:10081800EB2B003083120313A300A4000030A500C3
:10082800A6000A128A15B6240A128A1115308316F0
:100838000313D4004B30D300D130D200D20B222C7A
:10084800D30B222CD40B222C0000831603135A0836
:10085800D5070318D60A5B08D607DA01DB01D701EA
:10086800D8010130D9027B2B831203135D08803A2B
:10087800FF0081307F02031D432CF5305C02031C0E
:10088800892CD83083120313A0000930A1005C081A
:10089800883EA2005D080318013EFE3EA3000A122E
:1008A8008A1551260A128A11831203132108E200BD
:1008B8002008E1006208A1006108A0000130A20040
:1008C8000030A3000A128A1551260A128A118312CF
:1008D80003132108AA002008A9000A128A152C234C
:1008E8000A128A11831203132908D9002A08DA0088
:1008F8002B08DB000A128A1551230A128A11831267
:1009080003135A08E4005908E300831203135D082F
:10091800803AFF0081307F02031D942CF5305C0281
:100928000318F12C0C3083120313C9003A30CA00A3
:100938004630CB004A30BC00F130BD00C030BE00AC
:100948005D08AA005C08A9000A128A152C230A125D
:100958008A11831203132908BF002A08C0002B0834
:10096800C1000A128A1191210A128A1183120313F3
:100978003C08CC003D08CD003E08CE000A128A1182
:10098800F8240A128A11831203134908DE004A0860
:10099800DF004B08E0005E08C9005F08CA00600875
:1009A800CB000030CC008030CD003F30CE000A12A2
:1009B8008A11F8240A128A11831203134908D900EC
:1009C8004A08DA004B08DB000A128A155123831201
:1009D80003135A08E4005908E30083120313640858
:1009E800DD006308DC000800831203134C08CF0005
:1009F8004D08D0004E08D1000310500D510DD20003
:100A08005208D7005708031D102D0030C9000030C8
:100A1800CA000030CB0008004908CF004A08D000BF
:100A28004B08D1000310500D510DD2005208D800C8
:100A38005808031D262D0030C9000030CA000030B8
:100A4800CB0008000030D4000030D5000030D600BC
:100A580089305807CF004F08D7024C08CF004D08FF
:100A6800D0004E08D10010300310D10CD00CCF0CA0
:100A7800FF3E031D382D4F08D2005208D800490800
:100A8800CF004A08D0004B08D10010300310D10C19
:100A9800D00CCF0CFF3E031D4A2D4F08D200520840
:100AA800D8068030CF004F08D805CD17FF30CC05C9
:100AB800FF30CD050030CE05CA17FF30C905FF301D
:100AC800CA050030CB051830CF004F08D3000130DD
:100AD8000310D40DD50DD60DFF3E031D6C2D4B080C
:100AE8004E02031D7D2D4A084D02031D7D2D490828
:100AF8004C02031C8A2D4908CC024A08031C4A0FE1
:100B0800CD024B08031C4B0ACE02541401300310CB
:100B1800CC0DCD0DCE0DFF3E031D8B2D0130D30224
:100B2800031D6B2D5408A0005508A1005608A2000B
:100B38005708CF004F08A3005808D0005008A40059
:100B48000A128A150D27831203132008C9002108E9
:100B5800CA002208CB0008008C1ECA2D1A08F6000D
:100B6800831603134708A03E840076088313800089
:100B78004708013E0F39F6007608C90049084806BB
:100B88000319CA2D4908F6007608C70083120C1EFF
:100B9800E72D831603130C1EE72D4A08B03E840088
:100BA800831300088312031399000130F6007608B6
:100BB80083160313CA070F30F6007608CA054A08D9
:100BC8007D0603190C120B1D562E0B11643083126F
:100BD8008100013083160313C2070318C30A0030CB
:100BE800C307F430F0000130F1004308F300420875
:100BF800F2000A128A154D240A128A11700871042B
:100C0800031D0E2E01308312031386068316031369
:100C1800C201C301831203138618061D172E861DF1
:100C2800172E061A542E0130F6007608FC077C08A9
:100C38000A128A15A7210A128A11031C292E831267
:100C480003138618292E7B16FB117C080A128A15B5
:100C5800A7210A128A11031C372E831203130619BF
:100C6800372E7B14FB117C080A128A15A7210A1259
:100C78008A11031C452E831203138619452EFB1473
:100C8800FB117C080A128A15A7210A128A11031C73
:100C9800562E83120313061A562E7B15FB11562E59
:100CA800FC01FB157A0883120313FF0079088A00F8
:100CB80078088400770E8300FE0E7E0E09008312EA
:100CC80003134908CD004A08CE004B08CF00031093
:100CD8004E0D4F0DD0005008D6005608031D7D2E2E
:100CE8000030CC000030CB000030CA000030C90012
:100CF80008004908CD004A08CE004B08CF0017303D
:100D08000310CF0CCE0CCD0CFF3E031D842E4D08D6
:100D1800D0005008D100CA17FF30C905FF30CA05F6
:100D28000030CB054908D2004A08D3004B08D4004C
:100D3800D5018E30D602D61FBF2E5608803A8F3E78
:100D48000318AF2E0030CC000030CB000030CA00B2
:100D58000030C900080001300310D50CD40CD30CA6
:100D6800D20CFF3E031DB02E0130CD004D08D60732
:100D78000319DA2EAF2E18305602031CD72E003076
:100D8800CC000030CB000030CA000030C900080099
:100D98000130CD000310D20DD30DD40DD50DCD0BE0
:100DA800CE2E0130D6025608031DCC2E5108031949
:100DB800E82ED209D309D409D509D20A0319D30ACE
:100DC8000319D40A0319D50A5508CC005408CB00D6
:100DD8005308CA005208C9000800831203132F08D9
:100DE800B7002E08B600B101B201B301B401B501D4
:100DF80027303702103003193602031C1C2F36081F
:100E0800F03EB60037080318013ED83EB70001305F
:100E1800B0003008B407FC2E3608183EB600370874
:100E28000318013EFC3EB7000130B0003008B3079C
:100E380003303702E83003193602031C302F102F15
:100E480036089C3EB60037080318013EFF3EB7003F
:100E58000130B0003008B20700303702643003199F
:100E68003602031C442F242F3608F63EB6003708F6
:100E78000318013EFF3EB7000130B0003008B1074B
:100E8800003037020A30031936020318382F3508A4
:100E9800303E0A128A15FF210A128A11831203139F
:100EA8003408303E0A128A15FF210A128A11831269
:100EB80003133308303E0A128A15FF210A128A11D9
:100EC800831203133208303E0A128A15FF210A12D0
:100ED8008A11831203133108303E0A128A15FF2142
:100EE8000A128A11831203133608303E0A128A1531
:100EF800FF210800831203136608EC006508EB0065
:100F0800E801E901EA0103306C02E83003196B02D9
:100F1800031CA72F6B08183EEB006C080318013E52
:100F2800FC3EEC000130E7006708EA07872F6B08F2
:100F38009C3EEB006C080318013EFF3EEC000130BC
:100F4800E7006708E90700306C02643003196B0298
:100F5800031CBB2F9B2F6B08F63EEB006C08031895
:100F6800013EFF3EEC000130E7006708E80700306B
:100F78006C020A3003196B020318AF2F03306602A4
:100F8800E83003196502031CD02F6A08303E0A12A4
:100F98008A15FF210A128A11003083120313660290
:100FA800643003196502031CE02F6908303E0A12F9
:100FB8008A15FF210A128A11003083120313660270
:100FC8000A3003196502031CF02F6808303E0A1224
:100FD8008A15FF210A128A11831203136B08303E07
:100FE8000A128A15FF21080064008001840A040699
:100FF800031900340406F92F08308A000408840A0B
:10100800820700346D346D342034643472346934AA
:10101800763465346E34203420342034203400345F
:1010280030346D346D342034643472346934763439
:1010380065346E34003463346D34203449345234AA
:10104800203420342034203400343E3431343634D3
:10105800303400346D344134683400346D345634DF
:0610680000342F340034B7
:101338000F340D3483120313A300A31723080A12D2
:101348008A1525220800F0000B3070020318FB1DD7
:10135800AF2903140800031008003E308316031356
:1013680086000B178B17043081008B168B1708002B
:1013780083120313AF1F08002E09B0002F09B10014
:10138800B00A0319B10A3008AE003108AF000800EE
:101398000A128A1508230A128A1580300A128A1539
:1013A800C4230A128A1584300A128A15C423080035
:1013B80040308316031394002030831203139400E3
:1013C800D03083160313870083120313071487147E
:1013D800080083120313981CF52918121816031015
:1013E80008008316031347084806031DFD29031048
:1013F80008000314080083120313A20009118910BE
:10140800091422088800091509110730A1007D3048
:10141800A000A00B0D2AA10B0D2A0800FF3083168F
:10142800031385008130831203139F000230831653
:1014380003139F00533083120313A000A00B222A2A
:10144800080083120313A200091189100910220849
:101458008800091509110D30A100FB30A000A00B70
:10146800332AA10B332A382A080083160313CB0129
:10147800CC010A128A15F02383120313210883165C
:101488000313C10083120313200883160313C0003B
:1014980008000A128A157B270A128A158316031375
:1014A800510883120313EE008316031350088312A6
:1014B8000313ED000A128A156222080040300A124E
:1014C8008A159E210A128A15831203136E08E600F4
:1014D8006D08E5000A128A117E270A128A15013062
:1014E8000A128A15C52208000A128A159D230A12B3
:1014F8008A150A128A15A6220A128A158316031358
:101508004508D1004408D0000A128A154D220A1253
:101518008A157D2A831203132808A0002908A10030
:10152800A2018E30AB002B08A300A4010A128A1571
:101538000D27831203132008A8002108A9002208F8
:10154800AA0008007B1EAE2A0A128A1131200A124C
:101558008A157B127B1CB62A0A128A15BB250A1229
:101568008A157B10FB1CBE2A0A128A116D230A12E7
:101578008A15FB107B1D08000A128A116D237B1146
:10158800080083120313A400240884000A128A1591
:1015980000200A128A15003A03190800240884005A
:1015A8000A128A1500200A128A150A128A15FF21C2
:1015B8000A128A15013083120313A3002308A40713
:1015C800C82A83120313A300A2014130A100EE3000
:1015D800A000A00BED2AA10BED2A00008312031333
:1015E8008C11230893008C1DF72A1308A0002008EB
:1015F800A2008C114130A100EE30A000A00B022BFC
:10160800A10B022B00000800831603138717BF30B5
:1016180083120313A00020088316031387051815E7
:101628001430990018138312031318138316031325
:1016380018128312031398171816831603130C1223
:101648008C1698160B17CA01FD01C801C7010800BE
:1016580083120313AE01AA1F382BA909AA09A90AE4
:101668000319AA0AAE01AE0A2908A0002A08A10097
:10167800A2018E30AC002C08A3002E08AD002D0866
:10168800A4000A128A150D27831203132008A90043
:101698002108AA002208AB00080083120313590886
:1016A800BF005A08C0005B08C1000030BC00003011
:1016B800BD003F30BE000A128A1191210A128A1514
:1016C800831203133C08C9003D08CA003E08CB003A
:1016D8000A128A116326831203134A08DA0049089A
:1016E800D90008000A128A15ED210A128A15031C6E
:1016F800762B8B13831603134808A03E84008313AC
:10170800000883120313A0002008A1000130A000E4
:10171800200883160313C8070F3083120313A00091
:10172800200883160313C8058B1783120313210897
:1017380008007F3083160313CF00D430CE00AE30BC
:10174800CD00CD0BA52BCE0BA52BCF0BA52BAC2BF2
:101758000A128A15B1210A128A150A128A15CC2191
:101768000A128A150A128A15DC210A128A150A1227
:101778008A1512220A128A150A128A15F1240800FB
:1017880083120313A2007D08013E0F398316031349
:101798004A060319C72B8B13831203132208A000D0
:1017A8007D08B03E84002008831380007D08013E38
:1017B8000F39A0002008FD00831603130C168B17A1
:1017C800213083120313A1007630A000A00BEA2B6E
:1017D800A10BEA2B0000080083120313A901AA0138
:1017E8001F151F19F52B831603131E0883120313E5
:1017F800A20006300310A20CFF3E031DFE2B220898
:10180800A300A4011E08A500A6010310A50DA60D9E
:101818000310A50DA60D23082504A70024082604F7
:10182800A8002708A9002808AA002A08A100290852
:10183800A0000800831603135C080A128A15E52223
:101848000A128A1583120313240825040319462C47
:10185800071500008312031307110D30A700FB3092
:10186800A600A60B352CA70B352C3A2C0130831279
:101878000313A4020030031CA503A50224082504B1
:10188800031D2C2C8316031346080A128A15E52219
:1018980008007008710403197A2CF501F50AF11B88
:1018A800612C01300310F00DF10DFF3E031D562C85
:1018B8000130F4007408F507532C71087302031DF6
:1018C800672C70087202031C6F2C7008F2027108F2
:1018D800031CF303F30201300310F10CF00CFF3E7C
:1018E800031D702C0130F502031D612C7308F100F3
:1018F8007208F00008000A128A15F0230A128A15E5
:10190800831203132108AD002008AC002D08803A8B
:10191800AB00831603134108803A831203132B028A
:10192800031D9C2C831603134008831203132C02F7
:10193800031CAD2C831203132D0883160313C10057
:10194800831203132C0883160313C000CB01CC01A8
:101958000800013083160313CB070318CC0A0030A4
:10196800CC07080083120313A801A901AA01AB013F
:101978002408A7002708A8002308A7002708A9000B
:101988002608A7002708AA002508A7002708AB00F3
:1019980091300A128A15C4230A128A158312031376
:1019A80028080A128A15C4230A128A1583120313F7
:1019B80029080A128A15C4230A128A1583120313E6
:1019C8002A080A128A15C4230A128A1583120313D5
:1019D8002B080A128A15C4230800831203138801EE
:1019E8008901831603138801890101300A128A15B7
:1019F80025220A128A1538300A128A1525220A1257
:101A08008A150C300A128A1525220A128A15063000
:101A18000A128A1525220A128A1502300A128A1514
:101A280025220A128A1501300A128A1525220A125D
:101A38008A150A128A15AC260A128A1501300A126A
:101A48008A1525220A128A1540300A128A159E2103
:101A58000A128A150F300A128A15C5220800831245
:101A68000313AB008E300A128A15C4230A128A1592
:101A7800831203132B080A128A15C4230A128A1523
:101A88000A128A1576230A128A1583120313A500EF
:101A98002508AC000A128A1576230A128A158312C1
:101AA8000313A5002508AD006230A6006530A50027
:101AB800A50B5C2DA60B5C2D612D831203132D083D
:101AC800A500A6012C08A700A8012708A800A701BF
:101AD80025082704A90026082804AA002A08A40023
:101AE8002908A300080083120313AB008E300A12E2
:101AF8008A15C4230A128A15831203132B080A12A3
:101B08008A15C4230A128A150A128A1576230A121C
:101B18008A1583120313A5002508AC000A128A153A
:101B280076230A128A1583120313A5002508AD002F
:101B38006230A6006530A500A50BA02DA60BA02D30
:101B4800A52D831203132D08A500A6012C08A700B4
:101B5800A8012708A800A70125082704A900260826
:101B68002804AA002A08A4002908A300080083164C
:101B78000313C401C501C33083120313A30000304B
:101B8800A400C830A5000030A6000A128A15B624A1
:101B98000A128A15831603134508803AFF008F300E
:101BA8007F02031DD92DA03044020318F92D1330EC
:101BB8000A128A1533250A128A1583120313230879
:101BC80083160313C4070318C50A831203132408D2
:101BD80083160313C5074508D1004408D0000A122C
:101BE8008A154D220A128A15CE2D0030831203134E
:101BF800A300A4000030A500A6000A128A15B62486
:101C080008000A128A1539220A128A158316031344
:101C18005D080A128A15E5220A128A15831203132F
:101C28002E082F040319392E0A128A157F240A1246
:101C38008A15831203130715000083120313071173
:101C48000D30B100FB30B000B00B282EB10B282EA0
:101C58002D2E013083120313AE020030031CAF0394
:101C6800AF022E082F04031D182E831603134608EF
:101C78000A128A15E5220A128A15831603134C08DC
:101C880083120313A500831603134B08831203134F
:101C9800A4000A128A151E24080083120313A60141
:101CA800A11F5D2EA009A109A00A0319A10AA60176
:101CB800A60AA31F682EA209A309A20A0319A30A48
:101CC8000130A4002408A606A701A80120082104C1
:101CD80003199F2EA501A50AA11B7E2E0130031012
:101CE800A00DA10DFF3E031D732E0130A400240892
:101CF800A507702E01300310A70DA80DFF3E031D88
:101D08007F2E21082302031D8B2E20082202031C8C
:101D1800942E2008A2022108031CA303A30227145F
:101D280001300310A10CA00CFF3E031D952E0130BD
:101D3800A502031D7E2E26080319A72EA709A809A8
:101D4800A70A0319A80A2808A1002708A000080064
:101D580000300A128A159E210A128A1519300A12B1
:101D68008A1577250A128A15831203132408E600B8
:101D78002308E5000A128A117E270A128A153030D4
:101D88000A128A15C5220A128A151A300A128A15E9
:101D980077250A128A15831203132408E6002308FC
:101DA800E5000A128A117E270A128A1529300A12BA
:101DB8008A15C5220A128A1540300A128A159E21F0
:101DC8000A128A1516300A128A1577250A128A15F8
:101DD800831203132408AF002308AE000A128A11E5
:101DE800F1260A128A152D300A128A15C5220A12FE
:101DF8008A15663083120313EF007730EE00243023
:101E0800ED00ED0B052FEE0B052FEF0B052F000056
:101E180008008312031323080319172F220821042B
:101E28002004031D2A2F0030A0000030A10000303C
:101E3800A20008000130A5002508A30701300310FF
:101E4800A20CA10CA00CFF3E031D232FFE3022057F
:101E58000319452F1E2F0130A5002508A3070130BF
:101E6800A007003003180130A10700300318013023
:101E7800A20701300310A20CA10CA00CFF3E031D09
:101E88003E2FFF3022050319542F2F2F0130A302B4
:101E980001300310A00DA10DA20DFF3E031D4D2F13
:101EA800A11B5A2F0230230203184A2F2318622F2E
:101EB800FF30A0057F30A105FF30A2050310A30C59
:101EC8002308A500A601A70110300310A50DA60D33
:101ED800A70DFF3E031D692F2508A0042608A104AD
:101EE8002708A204240803190800A217080083166B
:101EF8000313CE01CF01043083120313ED006D08E4
:101F080083160313CD004D080319A22F0A128A1550
:101F1800F0230A128A158312031320088316031369
:101F2800CE070318CF0A831203132108831603135D
:101F3800CF070130CD024D08031D8A2F04308312CC
:101F48000313A0000030A100831603134F08831267
:101F58000313A300831603134E0883120313A2006E
:101F68000A128A1551260A128A15831203132108A8
:101F780083160313CF008312031320088316031359
:101F8800CE0000300A128A159E210A128A1583167D
:101F980003134F08803AFF0080307F02031DD62FBD
:101FA80051304E02031CF52F831603134F0883127A
:101FB8000313DD00831603134E0883120313DC009A
:101FC8000A128A1138240A128A15831203135D082B
:101FD800E6005C08E5000A128A117E270A128A15B3
:101FE800FB2F24300A128A15C5220A128A151A30C4
:081FF8000A128A15C522080037
:02400E003A3F37
:00000001FF
