:060000000A128A110E280D
:10000800FE00030EF8000408F9000A08FA000A16B0
:100018008A11F52A0A128A111128A030F001F1017B
:10002800F201FB01FC01FD01EF0183138400E230C2
:100038000A168A115D220A128A11903083178400E9
:10004800C4300A168A115D2283010A168A11652AAC
:100058007F30B900D430B800AE30B700B70B3228C3
:10006800B80B3228B90B3228392858200A128A15B9
:1000780001200A128A1163200A128A1149200A12E1
:100088008A1174200A128A1170283F30831685005D
:10009800813083129F00023083169F0053308312F1
:1000A800A000A00B552808003E30831603138600D5
:1000B8000B178B17043081008B168B170800403004
:1000C80083169400203083129400D0308316870062
:1000D800831207148714080077220A128A159A2FA8
:1000E800831203138801890183168801890101306D
:1000F800A0200A128A113830A0200A128A110C3066
:10010800A0200A128A110630A0200A128A11023091
:10011800A0200A128A110130A0200A128A150A2585
:100128000A128A110130A02040300A128A1533269B
:100138000F300A128A154D2D83120313A2000911DC
:100148008910091022088800091509110D30A1002D
:10015800FB30A000A00BAE28A10BAE28B3280800E6
:100168008312AC002B08031DCB280530A0002C08F7
:100178007F270A128A11B03E28078316AF00013084
:100188008E270A128A1183120313AB0AED282B0B50
:10019800ED280530A0002C087F270A128A11B03EEE
:1001A800280783162F060319ED2805308312A000AF
:1001B8002C087F270A128A1102308E278312031314
:1001C800AB0A29088400831380012A08840080016F
:1001D800800A721008008316DC30E601E701E900A6
:1001E8000330EA01EB01EB0AE401E500E301E20177
:1001F800690884000430831380007116F015F01D1F
:100208000800711E0D2908300A128A150F200A12DB
:100218008A11711A152905300A128A150F200A1237
:100228008A11831603136B088312B30083166408BC
:100238008312B400831665088312B50083166A0812
:100248000A168A11F7240A128A118316E800680828
:10025800031D3F29E601E7016308031D392903301F
:10026800E401E40AE500E30ABB29630BBB29033078
:10027800E400E5013729680F7229B430E600E70188
:100288004F2903304D2904304D29E801E80A602937
:100298000230E80060296908840083130008013AE5
:1002A80003194529033A03194729013A031949292A
:1002B800073A03194C29602905308312A0008316D8
:1002C8006A087F270A128A11B03E83166B078312C9
:1002D800ED008400FE3083138000BB296908840088
:1002E800831300088312A000A101831668088312F3
:1002F800ED00EE01ED1BEE03A0026E08031CA10346
:10030800A1025A30A200A301A3270A128A112108C8
:100318008316E700831220088316E6006708803AF0
:10032800FF0080307F02031D9B29B5306602031C45
:10033800A529983083160313E6070318E70AFE3049
:10034800B929831603136708803AFF007F307F02BC
:10035800031DB0294C3066020318BA296830831689
:100368000313E6070318E70A0130E707711283163B
:10037800031367088312B100831666088312B0005E
:100388000A128A1509210A128A11831603136808AA
:10039800803A7F3E031CD5296908840068088313C6
:1003A8008000E8308312E2000330E30083166A0815
:1003B8008312E40083166B088312E500831669082C
:1003C8008400831300088312E6000A128A15962116
:1003D8000A128A11F729EA030A2AEB0A0A2AEA0A00
:1003E8000A2AEB030A2A8316031369088400831375
:1003F8000008013A0319EF29033A0319F129013AD0
:100408000319F329073A0319F5290A2A721C1C2A29
:100418006B088312A800E430A900E530AA0083160F
:1004280062088312AB0083166A08B4200A128A1184
:10043800F11F0329701D312A05308312A00083168D
:100448006A087F270A128A11B03E83166B07831247
:10045800ED008400FD3083138000F01C442A053031
:100468008312A00083166A087F270A128A11B03EF9
:1004780083166B078312ED008400FC308313800021
:10048800F21C602A05308312A00083166A087F27B1
:100498000A128A11B03E83166B078312ED0084009E
:1004A800FB3083138000602AEA0A722AEB03722A5F
:1004B800EA03722AEB0A722A8316690884008313F6
:1004C8000008013A0319582A033A03195A2A013A2B
:1004D80003195C2A073A03195E2A722AF113F210EB
:1004E800F01070110329A401A5010530A00024080B
:1004F8007F270A128A11B03E2507A3008400FE3028
:100508008313000605300319C42AA00024087F2796
:100518000A128A11B03E2507A3008400FB3083131A
:1005280000060319C32A711FB72A0530A000240842
:100538007F270A128A11B03E2507A3008400FD30E8
:100548008313000605300319C42AA00024087F2756
:100558000A128A11B03E2507A3008400FC308313D9
:1005680000060319C32A0530A00024087F270A12B1
:100578008A11B03E2507A30084008313800105304B
:10058800A50A2502031C792A0430A40A2402031CA4
:10059800782A71130800D930A300DD30A400DF30B9
:1005A800A500DB30A60083165C088312A700702F15
:1005B80028080319252B2308840064300002031C33
:1005C800EB2A23088400FA300006031D252B05308A
:1005D800A00028087F270A128A11AB3EC3270A12F7
:1005E8008A110319252B0530A00028087F270A1235
:1005F8008A11AB3ED1270A128A110319252B05301F
:10060800A00028087F270A128A11AB3ED8270A12B1
:100618008A110319252B0530A00028087F270A1204
:100628008A11AB3ECA270A128A110319252B0530F5
:10063800A00028087F270A128A11AB3EBC270A129D
:100648008A110430290203186F2B240884006430AF
:100658000002031C352B24088400FA300006031D11
:100668006F2B0530A00028087F270A128A11B13E97
:10067800C3270A128A1103196F2B0530A000280816
:100688007F270A128A11B13ED1270A128A1103194B
:100698006F2B0530A00028087F270A128A11B13E67
:1006A800D8270A128A1103196F2B0530A0002808D1
:1006B8007F270A128A11B13ECA270A128A11031922
:1006C8006F2B0530A00028087F270A128A11B13E37
:1006D800BC270A128A11033028020318B92B2508EF
:1006E800840064300002031C7F2B25088400FA3044
:1006F8000006031DB92B0530A00028087F270A1221
:100708008A11B53EC3270A128A110319B92B05307D
:10071800A00028087F270A128A11B53ED1270A129D
:100728008A110319B92B0530A00028087F270A125F
:100738008A11B53ED8270A128A110319B92B053038
:10074800A00028087F270A128A11B53ECA270A1274
:100758008A110319B92B0530A00028087F270A122F
:100768008A11B53EBC270A128A1129080319080004
:100778002608840064300002031CC82B2608840065
:10078800FA300006031D08000530A00028087F275E
:100798000A128A11AF3EC3270A128A1103190800E8
:1007A8000530A00028087F270A128A11AF3ED127FA
:1007B8000A128A11031908000530A00028087F27AB
:1007C8000A128A11AF3ED8270A128A1103190800A3
:1007D8000530A00028087F270A128A11AF3ECA27D1
:1007E8000A128A11031908000530A00028087F277B
:1007F8000A128A11AF3EBC270800043029020318E8
:100808004B2C2308840064300002031C112C23089D
:100818008400FA300006031D4B2C0530A000280880
:100828007F270A128A11B13EC3270A128A110319B7
:100838004B2C0530A00028087F270A128A11B13EE8
:10084800D1270A128A1103194B2C0530A000280859
:100858007F270A128A11B13ED8270A128A11031972
:100868004B2C0530A00028087F270A128A11B13EB8
:10087800CA270A128A1103194B2C0530A000280830
:100888007F270A128A11B13EBC270A128A11033047
:1008980028020318952C2408840064300002031CE5
:1008A8005B2C24088400FA300006031D952C0530C3
:1008B800A00028087F270A128A11B53EC3270A120A
:1008C8008A110319952C0530A00028087F270A12E1
:1008D8008A11B53ED1270A128A110319952C0530C1
:1008E800A00028087F270A128A11B53ED8270A12C5
:1008F8008A110319952C0530A00028087F270A12B1
:100908008A11B53ECA270A128A110319952C053097
:10091800A00028087F270A128A11B53EBC270A12B0
:100928008A1129080319DE2C250884006430000286
:10093800031CA42C25088400FA300006031DDE2CB5
:100948000530A00028087F270A128A11AF3EC32766
:100958000A128A110319DE2C0530A00028087F2707
:100968000A128A11AF3ED1270A128A110319DE2C06
:100978000530A00028087F270A128A11AF3ED82721
:100988000A128A110319DE2C0530A00028087F27D7
:100998000A128A11AF3ECA270A128A110319DE2CDD
:1009A8000530A00028087F270A128A11AF3EBC270D
:1009B8000A128A11280803190800260884006430DE
:1009C8000002031CED2C26088400FA300006031DE3
:1009D80008000530A00028087F270A128A11AB3EBC
:1009E800C3270A128A11031908000530A000280835
:1009F8007F270A128A11AB3ED1270A128A110319DE
:100A080008000530A00028087F270A128A11AB3E8B
:100A1800D8270A128A11031908000530A0002808EF
:100A28007F270A128A11AB3ECA270A128A110319B4
:100A380008000530A00028087F270A128A11AB3E5B
:100A4800BC270800033028020318702D23088400EF
:100A580064300002031C362D23088400FA30000697
:100A6800031D702D0530A00028087F270A128A115F
:100A7800B53EC3270A128A110319702D0530A0004C
:100A880028087F270A128A11B53ED1270A128A112F
:100A98000319702D0530A00028087F270A128A1133
:100AA800B53ED8270A128A110319702D0530A00007
:100AB80028087F270A128A11B53ECA270A128A1106
:100AC8000319702D0530A00028087F270A128A1103
:100AD800B53EBC270A128A1129080319B92D240822
:100AE800840064300002031C7F2D24088400FA303F
:100AF8000006031DB92D0530A00028087F270A121B
:100B08008A11AF3EC3270A128A110319B92D05307D
:100B1800A00028087F270A128A11AF3ED1270A129F
:100B28008A110319B92D0530A00028087F270A1259
:100B38008A11AF3ED8270A128A110319B92D053038
:100B4800A00028087F270A128A11AF3ECA270A1276
:100B58008A110319B92D0530A00028087F270A1229
:100B68008A11AF3EBC270A128A1128080319022EDF
:100B78002508840064300002031CC82D2508840061
:100B8800FA300006031D022E0530A00028087F2732
:100B98000A128A11AB3EC3270A128A110319022EC0
:100BA8000530A00028087F270A128A11AB3ED127FA
:100BB8000A128A110319022E0530A00028087F277F
:100BC8000A128A11AB3ED8270A128A110319022E7B
:100BD8000530A00028087F270A128A11AB3ECA27D1
:100BE8000A128A110319022E0530A00028087F274F
:100BF8000A128A11AB3EBC270A128A110430290254
:100C0800031808002608840064300002031C122E12
:100C180026088400FA300006031D08000530A000ED
:100C280028087F270A128A11B13EC3270A128A119F
:100C3800031908000530A00028087F270A128A1126
:100C4800B13ED1270A128A11031908000530A00005
:100C580028087F270A128A11B13ED8270A128A115A
:100C6800031908000530A00028087F270A128A11F6
:100C7800B13ECA270A128A11031908000530A000DC
:100C880028087F270A128A11B13EBC2708002908C4
:100C98000319942E2308840064300002031C5A2E82
:100CA80023088400FA300006031D942E0530A000A6
:100CB80028087F270A128A11AF3EC3270A128A1111
:100CC8000319942E0530A00028087F270A128A11DC
:100CD800AF3ED1270A128A110319942E0530A000BD
:100CE80028087F270A128A11AF3ED8270A128A11CC
:100CF8000319942E0530A00028087F270A128A11AC
:100D0800AF3ECA270A128A110319942E0530A00093
:100D180028087F270A128A11AF3EBC270A128A11B7
:100D280028080319DD2E2408840064300002031CFF
:100D3800A32E24088400FA300006031DDD2E05309A
:100D4800A00028087F270A128A11AB3EC3270A127F
:100D58008A110319DD2E0530A00028087F270A1202
:100D68008A11AB3ED1270A128A110319DD2E0530EC
:100D7800A00028087F270A128A11AB3ED8270A123A
:100D88008A110319DD2E0530A00028087F270A12D2
:100D98008A11AB3ECA270A128A110319DD2E0530C3
:100DA800A00028087F270A128A11AB3EBC270A1226
:100DB8008A11043029020318272F2508840064307B
:100DC8000002031CED2E25088400FA300006031DDE
:100DD800272F0530A00028087F270A128A11B13E64
:100DE800C3270A128A110319272F0530A0002808E3
:100DF8007F270A128A11B13ED1270A128A110319D4
:100E0800272F0530A00028087F270A128A11B13E33
:100E1800D8270A128A110319272F0530A00028089D
:100E28007F270A128A11B13ECA270A128A110319AA
:100E3800272F0530A00028087F270A128A11B13E03
:100E4800BC270A128A110330280203180800260852
:100E5800840064300002031C372F26088400FA300F
:100E68000006031D08000530A00028087F270A1285
:100E78008A11B53EC3270A128A11031908000530E2
:100E8800A00028087F270A128A11B53ED1270A1226
:100E98008A11031908000530A00028087F270A12C4
:100EA8008A11B53ED8270A128A110319080005309D
:100EB800A00028087F270A128A11B53ECA270A12FD
:100EC8008A11031908000530A00028087F270A1294
:100ED8008A11B53EBC2708002708013A0319DC2A05
:100EE800033A0319012C013A0319262D073A03196D
:100EF8004B2E7E2F08008312A200A1012008221881
:100F0800A1070310A00D0310A20C2208031D822FB5
:100F1800210808008312A70025300A128A15A82084
:100F28000A128A11003A031D902F8D300A128A1571
:100F38006E248312031327080A128A156E2CA40143
:100F4800A501201CAD2F2208A4070318A50A230811
:100F5800A5070310A20DA30D0310A10CA00C2008D7
:100F68002104031DA52F2508A1002408A0000800BE
:100F78002907AA008400FF3083138000080029078E
:100F8800AA008400FE308313000608002907AA007F
:100F98008400FB308313000608002907AA00840098
:100FA800FD308313000608002907AA008400FC30DE
:100FB8008313000608000A128A15CA240A128A1125
:100FC8006308B5006208B400E92F40300A128A1598
:100FD80033260A128A11831203133508AD00340828
:100FE800AC000A128A15682501300A128A154D2D9F
:101002000A168A117B220A128A1580306E240A126D
:101012008A1584306E240A128A15212C8312031336
:10102200E8006430E601E60AE701E901EA01A4000A
:10103200A501A8240A128A159A270A128A15680895
:1010420003197328A330E3005530E200E20B27288E
:10105200E30B2728CA240A128A155C08E5005B08FC
:10106200E4006608A0006708A1006408B9270A1214
:101072008A1502306802031C50283230A400A501F0
:101082002F270A128A155028E6034C28E70A4C2813
:10109200E60A4C28E703E90A0319EA0A71288312CF
:1010A20003136A08003A0319572871286908003A9D
:1010B20003194528013A03194728033A0319472817
:1010C200013A03194928073A03194928013A031931
:1010D2004B28033A03194B28013A03194528712872
:1010E200E80320286A08A1006908A0003230A200A3
:1010F200A3010A128A11A3270A128A152108EA00FB
:101102002008E9006A30E907031CEA036A08A5001F
:101112006908A400A82CA5008E306E240A128A1534
:101122008312031325086E240A128A1521260A1235
:101132008A15A6006230A4006530A300A30B9F2885
:10114200A40B9F28A42883120313260808008312E5
:10115200A5008E306E240A128A1583120313250805
:101162006E240A128A1521260A128A15A6006230F6
:10117200A4006530A300A30BBC28A40BBC28C12883
:101182008312031326080800A5008E306E240A126B
:101192008A158312031325086E240A128A15212642
:1011A2000A128A15A6006230A4006530A300A30BC0
:1011B200D828A40BD828DD28F13083120313260285
:1011C200031C0034260F013400340930A5008E3090
:1011D2006E240A128A158312031325086E240A123A
:1011E2008A1521260A128A15003A031D013462303B
:1011F200A4006530A300A30BFC28A40BFC28012942
:10120200831203130D30A50A250203180034E828BF
:10121200B501B6013108803AFF0080307F02031D1C
:10122200142901303002031C1D29C830C5270A12B7
:101232008A15D2230A128A1583120313B11F282991
:101242003830EB270A128A15D2230A128A15D627BA
:101252000A128A158F240A128A1535081E3EB20018
:1012620036080318013EB300803AB4002D08803AD4
:101272003402031D3E292C08320203184F29143070
:10128200F7230A128A152408AD002308AC008F2424
:101292000A128A15DD270A128A15282983120313D6
:1012A2003108803AFF0080307F02031D5A29013045
:1012B2003002031C63290A30C5270A128A15D22379
:1012C2000A128A1583120313B11F6E29F630EB2717
:1012D2000A128A15D2230A128A15D6270A128A15E9
:1012E2008F240A128A153608803AB2002D08803AF5
:1012F2003202031D7E292C08350203188F2914306F
:10130200F7230A128A152408AD002308AC008F24A3
:101312000A128A15DD270A128A156E29831203130F
:10132200A301A401A501A601D22BEB01EC01E80166
:10133200F0137013F01270163230A400A501A82425
:101342000A128A1583160313AB01AC018312640BD4
:10135200B32902306506031DB32902306606031D58
:10136200B329F116F11E442B522BC83083120313FA
:10137200A300A401A500A601D2230A128A151330E4
:10138200F7230A128A152308EB070318EC0A24082C
:10139200EC07CA240A128A155C08EA005B08E90015
:1013A2000730A8200A128A15003A031DF014E6201D
:1013B2000A128A15003A031D70150D308C200A128C
:1013C2008A15003A031DF2141130C5200A128A153B
:1013D200003A031D7214701DF018F129F21C2E2A16
:1013E200F1177117A301A401A501A601D2230A12C4
:1013F2008A15831203133830EB01EC01A300FF308E
:10140200A4003830A500FF30A600D2230A128A15A4
:10141200831203136C08803AFF007E307F02031DA3
:10142200142A0D306B02031C282A1330F7230A12E8
:101432008A152308EB070318EC0A2408EC076C084A
:10144200B5006B08B4008B270A128A15092A831289
:1014520003136308EC006208EB00003083162C02D1
:10146200C93003192B02031C442B83126A08803AE9
:10147200FF0080307F02031D402A50306902031CA6
:10148200452A83120313E801831203136A08803A80
:10149200FF0080307F02031D502A3A306902031890
:1014A200562A83120313E801E80A831203136A0817
:1014B200803AFF0080307F02031D612A3F306902BB
:1014C200031C742A831203136A08803AFF008030D7
:1014D2007F02031D6E2A503069020318742A0230FB
:1014E20083120313E800831203136A08803AFF0091
:1014F20080307F02031D7F2A3A306902031C922A40
:10150200831203136A08803AFF0080307F02031DB2
:101512008C2A3F3069020318922A03308312031384
:10152200E800701AB82AC82AF01670120330F017B1
:10153200E800C82A9630A300C830A401A500A6017D
:10154200D2230A128A15C82AC830A3009630A401F1
:10155200A500A601D2230A128A15C82AC830A30000
:10156200A401A500A601D2230A128A15C82A831251
:1015720003136808003A0319952A013A03199B2AB2
:10158200033A0319A52A013A0319AF2AC82AF01E01
:101592000B2BF01FFB2A643083120313A400A50156
:1015A2002F270A128A15F01383160313AB01AC011D
:1015B200FB2A7017F012F0170B2BC830A3009630DD
:1015C200A401A500A601D2230A128A150B2B96307C
:1015D200A300C830A401A500A601D2230A128A15CD
:1015E2000B2BC830A300A401A500A601D2230A1226
:1015F2008A150B2B831203136808003A0319DA2A9F
:10160200013A0319DE2A033A0319E82A013A0319B7
:10161200F22A0B2B701F442BF01F342B3230831213
:101622000313A400A501A8240A128A15F013831635
:101632000313AB01AC01342BC830A300A401A500F5
:10164200A601D2230A128A15442BA301A401A501E3
:10165200A601D2230A128A15E83083120313EB0083
:101662000330EC00442B831203136808003A031979
:101672001D2B013A0319262B033A03191D2B013A9C
:1016820003191D2B442B831203136C08803AE700C5
:101692006308803A6702031D502B62086B02031C29
:1016A200B629F11EB52BC83083120313A300A4017F
:1016B200A500A601D2230A128A15831203136C080D
:1016C200803AE7006308803A6702031D6A2B6208CA
:1016D2006B020318B52B1330F7230A128A1523085D
:1016E200EB070318EC0A2408EC07E6200A128A1515
:1016F200003A031D7015701D5E2BF1177117A301BF
:10170200A401A501A601D2230A128A15831203138A
:101712003830EB01EC01A300FF30A4003830A50003
:10172200FF30A600D2230A128A15831203136C0813
:10173200803AFF007E307F02031DA12B71306B02C5
:10174200031CAE2B1330F7230A128A152308EB076A
:101752000318EC0A2408EC07962B83120313630880
:10176200EC006208EB005E2B83120313A301A401B9
:10177200A501A601D2230A128A15701EC82B323087
:1017820083120313A400A5012F270A128A15F01E43
:10179200D02B323083120313A400A501A824F11226
:1017A2000800A801A901AA012408A7002308A8008B
:1017B2002608A9002508AA0091306E240A128A156B
:1017C2008312031327086E240A128A158312031345
:1017D20028086E240A128A158312031329086E241C
:1017E2000A128A15831203132A086E2C831203131A
:1017F200A9008E306E240A128A1583120313290857
:101802006E240A128A1521260A128A15AA00212696
:101812000A128A15AB006230A6006530A500A50B3E
:10182200102CA60B102C152C831203132A08A800C7
:10183200A7012B08A7042808A4002708A300080072
:10184200831203138C30A7016E240A128A158312A5
:101852000313A30127089D240A128A15A6006E24E9
:101862000A128A15831203131830A70AA30A230245
:10187200031C2B2C2030A7008C306E240A128A15F0
:1018820083120313A40127089D240A128A15A600B5
:101892006E240A128A15831203132230A70AA40A9D
:1018A2002402031C442C4030A7008C306E240A1200
:1018B2008A1583120313A50127089D240A128A158B
:1018C200A6006E240A128A15831203131030A70A87
:1018D200A50A2502031808005D2C83120313A20037
:1018E2006F08013E0F397D060319712C8B136F08A7
:1018F200A03E8400220883178000EF0A0F30EF0514
:1019020083160C168B1721308312A1007630A000AB
:10191200A00B892CA10B892C00000800AD1F080028
:101922002C09AE002D09AF00AE0A0319AF0A2E082A
:10193200AC002F08AD000800A00003178D0083162D
:101942008C130C1483120C080313A10008000F302F
:1019520051270A128A158312031324082504031936
:10196200C82C071500008312031307110730A700C4
:101972007D30A600A60BBB2CA70BBB2C013083121B
:101982000313A4020030031CA503A502AC2C0030F3
:10199200512F831203130430DF01E001E1008E2690
:1019A2000A128A152008DF070318E00A2108E00757
:1019B200E1036108031DD02C0430A000A1016008DE
:1019C200A3005F08A20049260A128A152108E00036
:1019D2002008DF006008D5005F08D400AD260A1297
:1019E2008A155508DE005408DD00003033260A123D
:1019F2008A15831203135E08AD005D08AC006825EA
:101A02000A128A151A304D255E08DC005D08DB00DB
:101A12000800003033260A128A151930F7250A12F7
:101A22008A152408AD002308AC0068250A128A151D
:101A32002C304D250A128A151A30F7250A128A15FA
:101A42002408AD002308AC0068250A128A15253047
:101A52004D250A128A15403033260A128A1516308D
:101A6200F7250A128A152408AD002308AC00682560
:101A72000A128A1529304D250A128A156630B600D7
:101A82007730B5002430B400B40B452DB50B452D8D
:101A9200B60B452D0000080083120313A300230890
:101AA20084000A168A1100200A128A15003A0319C4
:101AB2000800230884000A168A1100200A128A15D7
:101AC200E6250A128A1583120313A30A502D2D0844
:101AD200B3002C08B200AE01AF01B001B101273052
:101AE2003302103003193202031C862DF030B20784
:101AF2000318B30AD830B307B10A702D1830B207F1
:101B02000318B30AFC30B307B00A03303302E830DB
:101B120003193202031C952D7F2D9C30B207031846
:101B2200B30AFF30B307AF0A00303302643003193F
:101B32003202031CA42D8E2DF630B2070318B30A0D
:101B4200FF30B307AE0A003033020A300319320203
:101B520003189D2D27302D02103003192C02031C6F
:101B6200B72D3108303EE6250A128A15033083125A
:101B720003132D02E83003192C02031CC52D300873
:101B8200303EE6250A128A150030831203132D0215
:101B9200643003192C02031CD32D2F08303EE62596
:101BA2000A128A150030831203132D020A30031918
:101BB2002C02031CE12D2E08303EE6250A128A155E
:101BC200831203133208303EE62DA2000911891058
:101BD200091422088800091509110730A1007D3077
:101BE200A000A00BF22DA10BF22D0800831203130B
:101BF200A9008E306E240A128A1583120313290853
:101C02006E240A128A1521260A128A15AA00212692
:101C12000A128A15AB006230A6006530A500A50B3A
:101C2200102EA60B102E152E831203132A08A800BD
:101C3200A7012B08A7042808A4002708A30008006E
:101C42003B260A128A15031C212E8B137C08903E18
:101C5200840083170008A000FC0A0F30FC058B17D4
:101C62002008080083120313A300A31723080A12F3
:101C72008A11A02883120313981C432E18121816D7
:101C8200031008007B087C060319412E0314080088
:101C9200A501A11F532EA009A109A00A0319A10A97
:101CA200A501A50AA31F5C2EA209A309A20A031972
:101CB200A30A0130A506A601A701200821040319E1
:101CC200812EA401A40AA11B6A2E0310A00DA10D4E
:101CD200632E0310A60DA70D21082302031D732EE8
:101CE20020082202031C7D2E2008A2022108031CC8
:101CF200A303A30226140310A10CA00CA40B6A2EAA
:101D020025080319892EA609A709A60A0319A70AF5
:101D12002708A1002608A0000800831203131F153C
:101D22001F19912E1E08A300A4010310A30DA40DD8
:101D32000310A30DA40D83161E088312A200063001
:101D42000310A20CFF3E031DA12E2208A3042408A7
:101D5200A1002308A00008005508803AFF00813046
:101D62007F02031DB62EF5305402031CD32EF22738
:101D72000A128A156E270A128A15E4270D30AC0062
:101D8200BC30AD00C330AE000A168A11F5230A1228
:101D92008A15F9270A128A158030B8001D30B90059
:101DA2004530EA2EF2270A128A156E270A128A1580
:101DB200E427F030AC01AD00C030AE000A168A1143
:101DC200F5230A128A15F9270C30B8003A30B90007
:101DD2004630BA000A168A118D230A128A1538086B
:101DE200D6003908D7003A08D8008030BB01BC00C1
:101DF2003F30BD005608B8005708B9005808BA006D
:101E02000A168A118D230A128A153808C700390862
:101E1200C8003A08C9000A168A1193220A128A15C2
:101E22004808DA004708D9005A08803AFF00803093
:101E32007F02031D1E2FAB3059020318242F831279
:101E42000313DA1F2A2FAA3083120313D400D501F9
:101E520008005A08D5005908D40008000D3051274F
:101E62000A128A15831203132408250403194F2F1B
:101E7200071500008312031307110730A7007D30F6
:101E8200A600A60B422FA70B422F01308312031389
:101E9200A4020030031CA503A502332F0030512FEA
:101EA200A3004130A100EE30A000A00B562FA10BE1
:101EB200562F0000831203138C11230893008C1DEC
:101EC200602F13088C114130A100EE30A000A00B4E
:101ED200682FA10B682F00000800AB01A91F782F03
:101EE200A809A909A80A0319A90AAB01AB0A28087B
:101EF200A0002908A1008E30A201A3002B08A40093
:101F02000A168A11B5242008A8002108A90022086F
:101F1200AA000800003033260A128A15831203131E
:101F22003508AD003408AC0068250A128A151A304B
:101F32004D2D83120313A101A201CE270A128A1585
:101F42008313000883165C060319AD2F8312CE2774
:101F52000A128A15FA30800083120330A20A220282
:101F6200031C9E2F0330A10A2102031808009D2F93
:101F7200A300200820072007D83E2107A2008400E2
:101F8200230883138000080083120313A300383050
:101F9200A401A500FF30A60008002108210721079F
:101FA200D83E2207A00084000800831203133108E0
:101FB200AD003008AC0008002C08B5070318B60ABB
:101FC2002D08B60708002808AF002908B0002A0823
:101FD200B1000800A300FF30A400C830A500A6018C
:101FE2000800831203135508A9005408A80008002A
:101FF2002C08BB002D08BC002E08BD0008001030C4
:102002008A000408840A820700346D346D34203457
:10201200643472346934763465346E342034203456
:1020220020342034003430346D346D342034643440
:1020320072346934763465346E34003463346D340A
:102042002034493452342034203420342034203493
:1020520000346D344134683400346D345634003405
:042062002F340034E3
:1024BA0064008001840A04060319003404065E2AB3
:1024CA000A128A112C200A168A118312E201E301E8
:1024DA000A128A11DF270A168A11F11C6A2A0A12BD
:1024EA008A11EF200A168A11F1106A2A8717071330
:1024FA00181514309900181383121813831618121A
:10250A0083129817181683160C128C1698160B1726
:10251A00FD018312EF01FC01FB010800EE220A16FD
:10252A008A1103104C0D4D0DD3005308031DA22A26
:10253A00C701C801C901CA010800EE220A168A1198
:10254A0017300310CD0CCC0CCB0CFF3E031DA62A72
:10255A004B08CE00C817C9014708CF004808D00069
:10256A004908D1008E30D201D302D31FC92A530899
:10257A00803A8F3E031C9D2A0310D20CD10CD00C3A
:10258A00CF0CD30FC12AD72A1830530203189D2A19
:10259A0053080319D72A0310CF0DD00DD10DD20D30
:1025AA00D303CD2A4E080319E52ACF09D009D10948
:1025BA00D209CF0A0319D00A0319D10A0319D20A78
:1025CA005208CA005108C9005008C8004F08C7007D
:1025DA0008004708CB004808CC004908CD0008008D
:1025EA00831203138C1E0B2B7B08903E84001A085F
:1025FA00831780007B08013E8316AE000F30AE05BC
:10260A002E087C0603190B2B2E08FB0083120C1EC6
:10261A00202B83160C1E202B7D08A03E84008317D6
:10262A00000883129900FD0A0F30FD057D086F0628
:10263A00831603190C120B1D562B0B1164308312CF
:10264A0081008316A90A0319AA0AAB0A0319AC0A5C
:10265A00F430F3000130F4002A08F6002908F500E6
:10266A005F230A168A1173087404031D422B013072
:10267A00831286068316A901AA0183128618532B90
:10268A008316AD0A2D0883230A168A11031C562BBA
:10269A0083128618562BF111F114562B8316AD01AD
:1026AA00F1157A088A0079088400780E8300FE0EF4
:1026BA007E0E09007308740403197E2BF701F70ACA
:1026CA00F41B6B2B0310F30DF40D642B74087602C4
:1026DA00031D712B73087502031C7A2B7308F5020C
:1026EA007408031CF603F6020310F40CF30CF70B40
:1026FA006B2B7608F4007508F3000800F3000B3022
:10270A0073020318F11D8B2B031408000310080031
:10271A003B08BE003C08BF003D08C00003103F0D47
:10272A00400DC5004508031D9E2BB801B901BA0129
:10273A0008003808BE003908BF003A08C000031074
:10274A003F0D400DC6004608031DAF2BB801B90165
:10275A00BA0108008930C201C301C4014607BE009C
:10276A00C5023D08C6003A08C6068030C6051830BC
:10277A00BC17BD01B917BA01C1000310C20DC30DC0
:10278A00C40D3A083D02031DD02B39083C02031D33
:10279A00D02B38083B02031CDE2B3808BB02390851
:1027AA00031C390FBC023A08031C3A0ABD02421440
:1027BA000310BB0DBC0DBD0DC10BC22B4208A000FE
:1027CA004308A1004408A2004508A3004608A40043
:1027DA00B5242008B8002108B9002208BA00080068
:1027EA002C08B2002D08B3002E08B4000310330DD4
:1027FA00340DB7002F08B2003008B3003108B40016
:10280A000310330D340DB60037080319182C360897
:10281A00370236080318202CB2003708B2021930E2
:10282A003202031C1F2C2F08AC003008AD003108FF
:10283A00AE000800360803190800370836020318E4
:10284A002E2C3708B2003608B202193032020318A9
:10285A0008000630B500AE1BB517B11B3517AD170A
:10286A00AE01B017B101360837020318552C031010
:10287A00AF0DB00DB10DB603360837060319502C4B
:10288A00B503350807390319502C3C2C0310AE0C3C
:10289A00AD0CAC0CB70A370836060319712C4B2C51
:1028AA00370836020318712C0310AC0DAD0DAE0DAE
:1028BA00B7033608370603196D2CB50335080739EF
:1028CA0003196D2C592C0310B10CB00CAF0CB60ABD
:1028DA0037083606031D682CB51F7C2CFF30AC0662
:1028EA00AD06AE06AC0A0319AD0A0319AE0A351FC6
:1028FA00872CFF30AF06B006B106AF0A0319B00A3B
:10290A000319B10AB5012C08AF072D0803110318E2
:10291A002D0A031DB0072E08031103182E0A031DE2
:10292A00B107B11FA32CFF30AF06B006B106AF0A3C
:10293A000319B00A0319B10AB501B50A2F08A00094
:10294A003008A1003108A2003708A3003508A40006
:10295A00B5242008AC002108AD002208AE0008000A
:10296A0023080319BD2C220821042004031DC62CA8
:10297A00A001A101A2010800A30A0310A20CA10C44
:10298A00A00CFE3022050319D52CC12CA30AA00ADB
:10299A000319A10A0319A20A0310A20CA10CA00C84
:1029AA00FF3022050319E32CCB2C02302302031C2F
:1029BA00E52CA3030310A00DA10DA20DA11FDA2C73
:1029CA00231CA1130310A30C2308A700A601A50129
:1029DA002508A0042608A1042708A2042408031D28
:1029EA00A21708008312B9000530BD01A0003408FF
:1029FA000A128A117F270A168A11B03E3507BA00D1
:102A0A000530A00039080A128A117F270A168A118E
:102A1A00B03E3307BC00BB01B7013A0603190034C4
:102A2A000A128A1177220A168A113908A300330872
:102A3A00A40064302A270A168A113408A30035082C
:102A4A00A400C8302A270A168A11B030A000013023
:102A5A00A1001430A20016270A168A11C430A00059
:102A6A001430A101A20016272330840083162008FF
:102A7A0083138000840A21088000840A22088000C7
:102A8A00840A23088000840A2408800083123908F3
:102A9A00A8003308A9000A128A11CF220A168A113D
:102AAA003C0839270A168A11831644080319FA2D95
:102ABA00FF308312B800BE013E08C43E84000008FD
:102ACA0003197C2D3E08C43E84000008840038089F
:102ADA00000203187C2D3E08C43E840000088400CE
:102AEA000008B8003E08C43E84000008BD00143047
:102AFA00BE0A3E02031C612D3D08DE270A168A1112
:102B0A00A301A30A3D089C260A168A118316A5006A
:102B1A0002308312A3003D089C260A168A118316E6
:102B2A00A60003308312A3003D089C260A168A11C8
:102B3A008316A70004308312A3003D089C260A16B8
:102B4A008A118316A80083123A08A3003C08A4003D
:102B5A003408A5003508A6008316250819260A1682
:102B6A008A11B60083162508F1270A168A11260843
:102B7A0019260A168A11B60083162608F1270A169C
:102B8A008A11270819260A168A11B60083162708F9
:102B9A00F1270A168A11280819260A168A11B60078
:102BAA0083162808840083123608831380003708A6
:102BBA00031DF32D831628088312A3008316270802
:102BCA008312A200831626088312A1008316250801
:102BDA008312A0005B270A168A11BB0083162508F8
:102BEA008400C8300006031DFD2D83123B0808002F
:102BFA0026088400C83000060319FA2D2708840025
:102C0A00C83000060319FA2D28088400C8300006C7
:102C1A000319FA2D83123D089C270A168A11BE272A
:102C2A000A168A11B70A592D8312B200A801A80AF6
:102C3A00AB01AC01AD0171108400FE3083130006B4
:102C4A000319FE3432088400000F2C2EFF34320898
:102C5A008400FD3000060319FD3432088400FC307C
:102C6A0000060319FC3432088400FB3000060319FD
:102C7A00FB343208E13A0319FF34320823060319F8
:102C8A00C8343208240603196434B001B10105308E
:102C9A00A00030080A128A117F270A168A11B03E4C
:102CAA003107A7003206031D5F2E3008AC00310839
:102CBA00AD00642E0530B10A3102031C4C2E0430DB
:102CCA00B00A3002031C4B2E25082C02AA00260843
:102CDA002D02AB000E270A168A11A7002A080E2712
:102CEA000A168A1127072807A900AE012E08C43E32
:102CFA008400320883130006031971141430AE0AD3
:102D0A002E02031C7B2EAF012F08B03E840032082E
:102D1A0083170006031971141430AF0A2F02031C1B
:102D2A00892E71189A2E3208392729080800A50019
:102D3A00A601A7010530A00026080A128A117F27DA
:102D4A000A168A11B03E2707A4002506031D032F81
:102D5A002608031DBD2E230BBD2EE13403302306A6
:102D6A000319E134C12E043023060319E134C42EB9
:102D7A00033026060319B32E27080319B82E043088
:102D8A002706031DF52E023023060319E134F52E1A
:102D9A000530A603A00026080A128A117F27B03E32
:102DAA00270708000530A70AA00026080A128A1178
:102DBA007F27B03E270708000530A60AA00026088C
:102DCA000A128A117F27B03E270708000530A70399
:102DDA00A00026080A128A117F27B03E270708009A
:102DEA002308013A0319CD2E033A0319D72E013AC3
:102DFA000319E12E073A0319EB2E032F0530A70A10
:102E0A002702031C9F2E0430A60A26020318E13467
:102E1A009E2EA000A01F142F2003FF3A08002008AE
:102E2A000800A50122082502031808002508200722
:102E3A00A30021080318013EA40023088400831775
:102E4A00241C83138001A50A172FA6000530A000B1
:102E5A0023080A128A117F27B03E2407A50084009E
:102E6A002608831380000800A000A1012108C43E9F
:102E7A008400831300082006031908001430A10AED
:102E8A002102031C3B2FA2012208C43E8400000831
:102E9A00031D552F2208C43E840020088000080024
:102EAA001430A20A220203180800492FFF30A90091
:102EBA00A401200884000008A50021088400000855
:102ECA00A600220884000008A7002308840000083E
:102EDA00A800AA012A08253E8400C8300006031D5E
:102EEA00792F2A08013E08002A08253E840064300A
:102EFA00000203188F2F2A08253E840029080002A1
:102F0A0003188F2F2A08253E84000008A9002A08E2
:102F1A00013EA4000430AA0A2A02031C6F2FFB30C8
:102F2A002902031C9A2FFF30A40024080800A000DD
:102F3A00A1012108B03E8400831700082006031966
:102F4A0008001430A10A2102031C9E2FA2012208A4
:102F5A00B03E84000008031DB82F2208B03E84004A
:102F6A002008800008001430A20A22020318080070
:102F7A00AC2FA1012108C43E840083130008031D5D
:102F8A00D82F133021020318D82F2108C53E8400F8
:102F9A000008A0002108C43E8400200880002108FF
:102FAA00C53E840080011430A10A210203180800DA
:102FBA00BF2FA000A1012108C43E840000082006FA
:102FCA00031DEB2F2108C43E840080011430A10A9E
:102FDA00210203180800E02F8400831236088313A5
:102FEA0080003A08A3003C08A4003408A50035086C
:062FFA00A600831608008A
:02400E003A3F37
:00000001FF
