:060000000A128A11122809
:10000800FE00030EF7000408F8000A08F90083123E
:1000180003137F08FA000A128A15052E0A128A119C
:100028001528FB01FC01FD01EE01EF018313A0304F
:100038008400DF300A168A1194230A128A11831762
:1000480090308400C8300A168A1194230A128A1143
:10005800831603130A128A11FB270A128A11EB006E
:100068000A128A11FC27EC0083010A168A11162E3F
:1000780083160313E401E501E201E301E701E80166
:10008800C501C601903083120313E8000130E9006E
:100098000A128A154E210A128A118316031344087C
:1000A80083120313A5008316031343088312031353
:1000B800A4000A168A1167270A128A110D308316BE
:1000C8000313E100AF30E000C130DF00DF0B6A2826
:1000D800E00B6A28E10B6A2800000030831603133E
:1000E8004402C93003194302031CC8286430831230
:1000F8000313A6000030A700831603134309DF008B
:100108004409E000DF0A0319E00A5F08903E831201
:100118000313A0008316031360080318013E013E71
:1001280083120313A1005A30A2000030A3000A165C
:100138008A1160250A128A11831203132108A90063
:100148002008A8000A128A1546200A128A1183126A
:100158000313270883160313E500831203132608E5
:1001680083160313E400C83083120313A30000307E
:10017800A4003830A500FF30A6000A128A150B200B
:100188000A128A117B130A29643083120313A6000A
:100198000030A70083160313440883120313A10039
:1001A80083160313430883120313A0005A30A200D6
:1001B8000030A3000A168A1160250A128A118312D8
:1001C80003132108A9002008A8000A128A1546204E
:1001D8000A128A1183120313270883160313E500F2
:1001E80083120313260883160313E400383083129E
:1001F8000313A300FF30A400C830A5000030A600F8
:100208000A128A150B200A128A117B178316031308
:100218006308803ADF006508803A5F02031D1629EB
:10022800640862020318382914300A128A150A2150
:100238000A128A11831203132408AF002308AE00A0
:100248000A168A11C7230A128A11831203132E0869
:1002580083160313E2070318E30A831203132F0814
:1002680083160313E3070A29003083120313A3003C
:10027800A4000030A500A6000A128A150B200A1255
:100288008A11153083160313E1004B30E000D1309A
:10029800DF00DF0B4D29E00B4D29E10B4D29000054
:1002A800831603134309DF004409E000DF0A03193A
:1002B800E00A5F08903E83120313A4008316031319
:1002C80060080318013E013E83120313A5000A16B5
:1002D8008A1167270A128A11C83083120313A300F0
:1002E8000030A400C830A5000030A6000A128A1504
:1002F8000B200A128A110030831603136802333068
:1003080003196702031CB4290A168A110B270A125B
:100318008A11831203132108DA002008D9000A126F
:100328008A154F270A128A11831203135A08831653
:100338000313E80083120313590883160313E70015
:10034800680883120313B80083160313670883121F
:100358000313B7000A168A117F240A128A117F290B
:10036800003083120313A300A4000030A500A600E8
:100378000A128A150B200A128A11153083160313E4
:10038800E1004B30E000D130DF00DF0BC929E00B82
:10039800C929E10BC92900007B1FE129C830831254
:1003A8000313A3000030A4003830A500FF30A600D6
:1003B8000A128A150B200A128A117B1BF22938307F
:1003C80083120313A300FF30A400C830A500003037
:1003D800A6000A128A150B200A128A118316031323
:1003E800E401E5016508803AFF0080307F02031DC3
:1003F800FF295A3064020318212A14300A128A1578
:100408000A210A128A11831203132408AF00230851
:10041800AE000A168A11C7230A128A11831203131F
:100428002E0883160313E4070318E50A831203133F
:100438002F0883160313E507F629003083120313E8
:10044800A300A4000030A500A6000A128A150B20FC
:100458000A128A11153083160313E1004B30E000AD
:10046800D130DF00DF0B362AE00B362AE10B362AC3
:1004780000007B1F4A2A323083120313A400003085
:10048800A5000A168A1167270A128A117B1B572AA8
:10049800323083120313A4000030A5000A168A1113
:1004A80039270A128A117B1083160313BF01C00172
:1004B80083160313E6010A168A110B270A128A11FA
:1004C800831203132108DA002008D9000A128A15BA
:1004D8004F270A128A11831203135A08831603132B
:1004E800E80083120313590883160313E70068080A
:1004F80083120313B80083160313670883120313C8
:10050800B7000A168A117F240A128A117B18912BC8
:100518000030831603136802473003196702031C6F
:100528009C2A153040027C3003193F020318E6016B
:1005380000306802473003196702031CAC2A1530E3
:1005480040027C3003193F020318AC2AE601E60A90
:10055800003068023030031967020318B72A0230E6
:10056800DF005F08E60000306802303003196702D8
:10057800031CC92A003068024730031967020318B0
:10058800C92A0330DF005F08E6007B1B102B202BF5
:10059800B03083120313A300FF30A400C830A500B5
:1005A8000030A6000A128A150B200A128A11202B85
:1005B800963083120313A3000030A400C830A500AE
:1005C8000030A6000A128A150B200A128A11202B65
:1005D800C83083120313A3000030A400A630A5007E
:1005E800FF30A6000A128A150B200A128A118316F8
:1005F8000313BF01C001202BC83083120313A300CB
:100608000030A400C830A5000030A6000A128A15E0
:100618000B200A128A11202B831603136608003A4E
:100628000319CC2A013A0319DC2A033A0319EC2AE4
:10063800013A0319002B202B7B1F672B772BC8301F
:1006480083120313A3000030A400B030A500FF30CC
:10065800A6000A128A150B200A128A11772BC830B5
:1006680083120313A3000030A4009630A5000030C5
:10067800A6000A128A150B200A128A11772BA630B7
:1006880083120313A300FF30A400C830A500003074
:10069800A6000A128A150B200A128A118316031360
:1006A800BF01C001772BC83083120313A3000030A9
:1006B800A400C830A5000030A6000A128A150B2035
:1006C8000A128A11772B831603136608003A031956
:1006D800232B013A0319332B033A0319432B013A0D
:1006E8000319572B772B07300A168A118D260A1201
:1006F8008A11003A031D902B0A168A11C7270A127D
:100708008A11003A031D902B0D300A168A116526AE
:100718000A128A11003A031D7B147B1F7B1CA32B32
:10072800B03083120313A300FF30A400C830A50023
:100738000030A6000A128A150B200A128A117B1BA8
:100748007B1C5C2AC83083120313A3000030A4006A
:10075800B030A500FF30A6000A128A150B200A1235
:100768008A115C2A83120313D100D7010530C70010
:100778004708A00045080A168A1108240A128A1197
:10078800CA3E831203134607C8004808D60005303E
:10079800C7004708A00051080A168A1108240A123F
:1007A8008A11CA3E831203134407C8004808CB00C5
:1007B800CC01CD014D084C07C7004708CE001430C6
:1007C800C7004708A000A0300A168A1141240A125F
:1007D8008A11143083120313C7004708A000B430ED
:1007E8000A168A1141240A128A1183120313510826
:1007F800C7004708A4004408C8004808A5004E08D8
:100808000A168A11AC240A128A11831203134B08A0
:10081800C700470883160317B40083120313CF01D8
:1008280033304F020318602DFF30C7004708D0004F
:10083800D8011430580203184D2C5808B43E8400CF
:10084800831700080319452C5808B43E8400000893
:1008580084005008831300020318452C5808B43E3E
:10086800840083170008840083130008C700470822
:10087800D0005808B43E840083170008C700470812
:10088800D7000130C7004708D80714305802031CA6
:10089800212C57080A168A11C4240A128A118312B5
:1008A8000313A401A40A57080A128A15AA260A12D1
:1008B8008A1183120313C700470883160313B9006C
:1008C800023083120313C7004708A40057080A120E
:1008D8008A15AA260A128A1183120313C800480827
:1008E80083160313BA00033083120313C7004708A3
:1008F800A40057080A128A15AA260A128A11831216
:100908000313C800480883160313BB00043083127E
:100918000313C7004708A40057080A128A15AA2615
:100928000A128A1183120313C80048088316031396
:10093800BC00831203135608C7004708B2004508D5
:10094800C8004808B3004608C9004908B40083161F
:10095800031339080A128A15CB230A128A11831243
:100968000313CA0083160313390884008312031380
:100978004A08831380005608C7004708B200450894
:10098800C8004808B3004608C9004908B4008316DF
:1009980003133A080A128A15CB230A128A11831202
:1009A8000313CA00831603133A088400831203133F
:1009B8004A08831380005608C7004708B200450854
:1009C800C8004808B3004608C9004908B40083169F
:1009D80003133B080A128A15CB230A128A118312C1
:1009E8000313CA00831603133B08840083120313FE
:1009F8004A08831380005608C7004708B200450814
:100A0800C8004808B3004608C9004908B40083165E
:100A180003133C080A128A15CB230A128A1183127F
:100A28000313CA00831603133C08840083120313BC
:100A38004A0883138000D201043052060319392D65
:100A4800D301053053060319312D0130C70047087B
:100A5800D30705305306031D292D0130C700470869
:100A6800D20704305206031D242D57080A168A118E
:100A78003D250A128A1183120313D401143054023B
:100A880003184E2D0130C7004708D407143054020C
:100A9800031C462DD5011430550203185B2D013077
:100AA800C7004708D50714305502031C532D0130E1
:100AB800C7004708CF07142C00300800831203131F
:100AC8002E08B4002F08B5003008B6000310350D05
:100AD800360DB7003708BA003108B4003208B5003F
:100AE8003308B6000310350D360DB7003708B900C6
:100AF8003A0803198B2D39083A020318922D3A0344
:100B0800FF3A3907B40019303402031C922D31081A
:100B1800AE003208AF003308B000080039080319E6
:100B280008003A0839020318A12D3903FF3A3A0799
:100B3800B40019303402031808000630B400340831
:100B4800B800B01BB817B31B3817AF17FF30AE0586
:100B5800FF30AF050030B005B217FF30B105FF30E8
:100B6800B2050030B30539083A020318E12D013007
:100B78000310B10DB20DB30DFF3E031DBC2D0130A6
:100B8800B90239083A060319DC2D0130B8023808D1
:100B980007390319DC2DBB2D01300310B00CAF0C45
:100BA800AE0CFF3E031DD12D0130B4003408BA0746
:100BB8003A08390603190A2ED02D3A0839020318C3
:100BC8000A2E01300310AE0DAF0DB00DFF3E031D10
:100BD800E62D0130BA0239083A060319062E01300B
:100BE800B802380807390319062EE52D013003101D
:100BF800B30CB20CB10CFF3E031DFB2D0130B40049
:100C08003408B9073A083906031DFA2DB81F1C2EF7
:100C1800FF30AE06FF30AF06FF30B0060130AE073A
:100C2800003003180130AF07003003180130B00757
:100C3800381F2E2EFF30B106FF30B206FF30B30644
:100C48000130B107003003180130B2070030031833
:100C58000130B307B8012E08B1072F080311031894
:100C68002F0A031DB207300803110318300A031DA9
:100C7800B307B31F512EFF30B106FF30B206FF3065
:100C8800B3060130B107003003180130B207003055
:100C980003180130B307B801B80A3108A0003208B8
:100CA800A1003308A2003A08B4003408A3003808A9
:100CB800B5003508A4000A128A155D2383120313B0
:100CC8002008AE002108AF002208B00008008316F3
:100CD8000313E300E101E10AE201E401E5010A1678
:100CE8008A11CB250A128A11643083120313A400D7
:100CF8000030A5000A168A1139270A128A118316AC
:100D0800031363080319122F0A128A159F220A1265
:100D18008A1183120313610883160313E0008312F8
:100D28000313600883160313DF006008831203139C
:100D3800A500831603135F0883120313A400831608
:100D48000313610883120313E8006808A6008316DA
:100D58000313620883120313E9006908A7000A163F
:100D68008A1195240A128A1102308316031363022A
:100D7800031CEC2E323083120313A4000030A500AC
:100D88000A168A1167270A128A11EC2E0130831677
:100D98000313E42E013083120313E8006808831656
:100DA8000313E207E52E013083120313E8006808F5
:100DB80083160313E107E52E0130E202E52E013028
:100DC800E1020130E4070318E50A0030E5070D2FBA
:100DD800831603136508003A0319F32E0D2F6408D0
:100DE800003A0319CA2E013A0319CE2E033A031901
:100DF800CE2E013A0319D72E073A0319D72E013AF6
:100E08000319E02E033A0319E02E013A0319E32EE1
:100E18000D2F0130E3026308031D882E6508831235
:100E28000313A10083160313640883120313A0009D
:100E38003230A2000030A3000A168A1160250A1277
:100E48008A118312031320086A3E83160313E400F1
:100E58008312031321080318013EFF3E8316031370
:100E6800E500650883120313A500831603136408BD
:100E780083120313A4000A168A1139270800831263
:100E880003133E08C1003F08C2004008C300031016
:100E9800420D430DC4004408C9004908031D5B2FD7
:100EA8000030BB000030BC000030BD0008003B082B
:100EB800C1003C08C2003D08C3000310420D430DA9
:100EC800C4004408CA004A08031D712F0030BB0043
:100ED8000030BC000030BD0008000030C600003003
:100EE800C7000030C80089304A07C1004108C9025C
:100EF8003E08C1003F08C2004008C300103003107C
:100F0800C30CC20CC10CFF3E031D832F4108C40053
:100F18004408CA003B08C1003C08C2003D08C300A1
:100F280010300310C30CC20CC10CFF3E031D952FDB
:100F38004108C4004408CA068030C1004108CA05F7
:100F4800BF17FF30BE05FF30BF050030C005BC1716
:100F5800FF30BB05FF30BC050030BD051830C100AF
:100F68004108C50001300310C60DC70DC80DFF3E6E
:100F7800031DB72F3D084002031DC82F3C083F0240
:100F8800031DC82F3B083E02031CD52F3B08BE0299
:100F98003C08031C3C0FBF023D08031C3D0AC0026D
:100FA800461401300310BE0DBF0DC00DFF3E031DDA
:100FB800D62F0130C502031DB62F4608A0004708EA
:100FC800A1004808A2004908C1004108A3004A0836
:100FD800C2004208A4000A128A155D238312031373
:100FE8002008BB002108BC002208BD0008000F34FF
:020FF8000D34B6
:101000003E308316031386000B178B1704308100C4
:101010008B168B17080083120313A801A901AA01DC
:10102000AB012408A7002708A8002308A700270869
:10103000A9002608A7002708AA002508A700270856
:10104000AB0091300A168A113D260A128A158312C6
:10105000031328080A168A113D260A128A158312DC
:10106000031329080A168A113D260A128A158312CB
:1010700003132A080A168A113D260A128A158312BA
:1010800003132B080A168A113D2608008312031346
:10109000AB01AC012608270403197F28AD01AD0A76
:1010A000A71B5E2801300310A60DA70DFF3E031DF0
:1010B00053280130AA002A08AD0750280130031038
:1010C000AB0DAC0DFF3E031D5F2827082902031D51
:1010D0006B2826082802031C74282608A802270863
:1010E000031CA903A9022B1401300310A70CA60CA2
:1010F000FF3E031D75280130AD02031D5E282C083C
:10110000A7002B08A6000800831203138801890199
:10111000831603138801890101300A168A115524A8
:101120000A128A1538300A168A1155240A128A15AD
:101130000C300A168A1155240A128A1506300A162E
:101140008A1155240A128A1502300A168A1155246A
:101150000A128A1501300A168A1155240A128A15B4
:101160000A128A15FC220A128A1501300A168A11FF
:1011700055240A128A1540300A168A119C230A1235
:101180008A150F300A168A11FA24080083120313F5
:10119000AB008E300A168A113D260A128A15831278
:1011A00003132B080A168A113D260A128A150A16FD
:1011B0008A11DD240A128A1583120313A50025085B
:1011C000AC000A168A11DD240A128A158312031351
:1011D000A5002508AD006230A6006530A500A50B6E
:1011E000EF28A60BEF28F428831203132D08A5007F
:1011F000A6012C08A700A8012708A800A701250818
:101200002704A90026082804AA002A08A4002908FF
:10121000A300080083120313AB008E300A168A1154
:101220003D260A128A15831203132B080A168A1107
:101230003D260A128A150A168A11DD240A128A1519
:1012400083120313A5002508AC000A168A11DD24B9
:101250000A128A1583120313A5002508AD00623017
:10126000A6006530A500A50B3329A60B3329382924
:10127000831203132D08A500A6012C08A700A801BE
:101280002708A800A70125082704A9002608280484
:10129000AA002A08A4002908A30008000A168A1137
:1012A000CB250A128A15831603136B080A168A11B6
:1012B00083250A128A158312031368086904031927
:1012C00086290A128A159F220A128A15831203138D
:1012D0006108ED006008EC006D08A1006C08A0003A
:1012E0000A168A11B5260A128A15831203130715E6
:1012F00000008312031307110130E8020030031CC1
:10130000E903E90268086904031D612983160313D0
:1013100047080A168A1183250A128A150D3083128E
:101320000313EB00FB30EA00EA0B9429EB0B942942
:101330009929080083160313E601E701E801E80A8A
:10134000E901033083120313EA006A0883160313CA
:10135000EA00FB16FB14FB1CE529FB1EB52908302F
:101360000A128A116B260A128A15FB1ABD2905304A
:101370000A128A116B260A128A158316031368084B
:1013800083120313EA006A08C40083160313690872
:1013900083120313EB006B08C500831603136A085E
:1013A00083120313EC006C08C6008316031367084E
:1013B0000A128A11B6230A128A1583120313ED004A
:1013C0006D0883160313E600AB29FB1808000A1604
:1013D0008A118D23080083120313A6010330260609
:1013E00003191A2AA701033027060319122A03300A
:1013F000A4002408A00026080A168A1108240A124C
:101400008A15B03E831203132707A5002508840020
:10141000831380010130A4002408A70703302706A6
:10142000031DF7290130A4002408A607033026066F
:10143000031DF229A8010330280603190800A90199
:101440000330290603193F2A0330A4002408A00012
:1014500028080A168A1108240A128A15B03E831237
:1014600003132907A5002508840083138001013098
:10147000A4002408A90703302906031D242A0130EB
:10148000A4002408A8071B2A83120313A601A11F86
:10149000502AA009A109A00A0319A10AA601A60AB7
:1014A000A31F5B2AA209A309A20A0319A30A0130F8
:1014B000A4002408A606A701A801200821040319F6
:1014C000922AA501A50AA11B712A01300310A00DC3
:1014D000A10DFF3E031D662A0130A4002408A507C4
:1014E000632A01300310A70DA80DFF3E031D722AC9
:1014F00021082302031D7E2A20082202031C872ABA
:101500002008A2022108031CA303A3022714013010
:101510000310A10CA00CFF3E031D882A0130A50278
:10152000031D712A260803199A2AA709A809A70AE0
:101530000319A80A2808A1002708A00008008312A0
:101540000313E501E601E301E4010430E20062086F
:10155000E70067080319BE2A0A168A110B270A1228
:101560008A15831203132008E5070318E60A2108E9
:10157000E6070130E7026708031DAC2A0430A0002B
:101580000030A1006608A3006508A2000A128A15AF
:1015900044220A128A15831203132108E600200848
:1015A000E5006608DA006508D9000A128A154F2797
:1015B0000A128A15831203135A08E4005908E3003B
:1015C00000300A168A119C230A128A15831203130B
:1015D0006408AF006308AE000A128A1562250A1279
:1015E0008A151A300A168A11FA2483120313640822
:1015F000E1006308E000080000300A168A119C230D
:101600000A128A1519300A128A15C6200A128A157A
:10161000831203132408AF002308AE000A128A15B0
:1016200062250A128A152C300A168A11FA240A1227
:101630008A151A300A128A15C6200A128A158312D0
:1016400003132408AF002308AE000A128A1562258E
:101650000A128A1525300A168A11FA240A128A15E6
:1016600040300A168A119C230A128A1516300A1273
:101670008A15C6200A128A15831203132408AF00A4
:101680002308AE000A128A1562250A128A1529302B
:101690000A168A11FA240A128A1566308312031375
:1016A000B9007730B8002430B700B70B552BB80B12
:1016B000552BB90B552B0000080083120313230888
:1016C0000319672B220821042004031D7A2B003004
:1016D000A0000030A1000030A20008000130A500E9
:1016E0002508A30701300310A20CA10CA00CFF3E9B
:1016F000031D732BFE3022050319952B6E2B013031
:10170000A5002508A3070130A00700300318013009
:10171000A107003003180130A20701300310A20C0A
:10172000A10CA00CFF3E031D8E2BFF3022050319D8
:10173000A42B7F2B0130A30201300310A00DA10DBB
:10174000A20DFF3E031D9D2BA11BAA2B02302302DD
:1017500003189A2B2318B22BFF30A0057F30A10568
:10176000FF30A2050310A30C2308A500A601A701C2
:1017700010300310A50DA60DA70DFF3E031DB92BBC
:101780002508A0042608A1042708A2042408031998
:101790000800A217080083120313C300BC01BD0197
:1017A000BE01BF01C0014308DE3A031DD92BFF3043
:1017B000080043083206031DDF2B00300800C1017A
:1017C000043041060319152CC201053042060319E5
:1017D0000D2C0530B5003508A00041080A168A1105
:1017E00008240A128A15CA3E831203134207B60060
:1017F00043083606031D052C4108B5003508BF0017
:101800004208B5003508C0000D2C0130B500350880
:10181000C20705304206031DE92B0130B50035082B
:10182000C10704304106031DE42B3303FF3A3F0791
:10183000B5003508BD003403FF3A4007B500350850
:10184000BE003D08B500B6013508AE003608AF0051
:101850000A168A11C7230A128A15831203132E0847
:10186000B7002F08B8003E08B900BA013908AE0029
:101870003A08AF000A168A11C7230A128A15831282
:1018800003132E083707BB003B08BC0043080A16A9
:101890008A111A25831203133C08080083120313CC
:1018A000A6010430260603197D2CA7010530270662
:1018B0000319752C0530A4002408A00026080A1678
:1018C0008A1108240A128A15CA3E831203132707B5
:1018D000A50025088400831380010130A40024089A
:1018E000A70705302706031D5A2C0130A400240841
:1018F000A60704302606031D552CA801043028062F
:101900000319AA2CA901053029060319A22C0530B8
:10191000A4002408A00028080A168A1108240A1224
:101920008A15CA3E831203132907A50025088400DF
:10193000831380010130A4002408A907053029067B
:10194000031D872C0130A4002408A80704302806B2
:10195000031D822CAA0104302A0603190800AB01DA
:1019600005302B060319CF2C0530A4002408A00055
:101970002A080A168A1108240A128A15CA3E8312F6
:1019800003132B07A5002508840083138001013071
:10199000A4002408AB0705302B06031DB42C01302E
:1019A000A4002408AA07AB2C831203134B08CF0012
:1019B0004C08D0004D08D1000310500D510DD2003D
:1019C0005208D8005808031DEE2C0030CE0000301D
:1019D000CD000030CC000030CB0008004B08CF0019
:1019E0004C08D0004D08D10017300310D10CD00C9A
:1019F000CF0CFF3E031DF52C4F08D2005208D30038
:101A0000CC17FF30CB05FF30CC050030CD054B089F
:101A1000D4004C08D5004D08D600D7018E30D8022E
:101A2000D81F302D5808803A8F3E0318202D0030E3
:101A3000CE000030CD000030CC000030CB000800DC
:101A400001300310D70CD60CD50CD40CFF3E031D6F
:101A5000212D0130CF004F08D80703194B2D202D21
:101A600018305802031C482D0030CE000030CD0045
:101A70000030CC000030CB0008000130CF00031054
:101A8000D40DD50DD60DD70DCF0B3F2D0130D8027B
:101A90005808031D3D2D53080319592DD409D509A4
:101AA000D609D709D40A0319D50A0319D60A031986
:101AB000D70A5708CE005608CD005508CC00540868
:101AC000CB000800831203132F08B6002E08B500C0
:101AD000B101B201B301B40127303602103003194D
:101AE0003502031C8C2D3508F03EB500360803186E
:101AF000013ED83EB6000130B0003008B4076C2D6E
:101B00003508183EB50036080318013EFC3EB60005
:101B10000130B0003008B30703303602E830031953
:101B20003502031CA02D802D35089C3EB5003608DB
:101B30000318013EFF3EB6000130B0003008B20786
:101B400000303602643003193502031CB42D942D85
:101B50003508F63EB50036080318013EFF3EB600D4
:101B60000130B0003008B107003036020A300319E6
:101B700035020318A82D27302F02103003192E022A
:101B8000031CC92D3408303E0A168A111B240A1280
:101B90008A150330831203132F02E83003192E0233
:101BA000031CD92D3308303E0A168A111B240A1251
:101BB0008A150030831203132F02643003192E029A
:101BC000031CE92D3208303E0A168A111B240A1222
:101BD0008A150030831203132F020A3003192E02D4
:101BE000031CF92D3108303E0A168A111B240A12F3
:101BF0008A15831203132E082F04031908003508D1
:101C0000303E0A168A111B2408008C1E232E1A0847
:101C1000F6007C08A03E84007608831380007C08D0
:101C2000013E0F39F600760883160313C9004908F0
:101C3000831203136E060319232E83160313490818
:101C4000F6007608FC0083120C1E412E8316031347
:101C50000C1E412E831203136F08903E84008317DD
:101C6000000899000130F6007608EF070F30F60003
:101C70007608EF056F087D06031D412E83160313BA
:101C80000C120B1D9D2E0B1164308312810001304C
:101C900083160313BD070318BE0A0030BE070130C8
:101CA000BF070318C00A0030C007F430F00001304D
:101CB000F1003E08F3003D08F2000A168A1195274C
:101CC0000A128A1570087104031D6E2E01308312EA
:101CD0000313860683160313BD01BE01831203138B
:101CE000861C742E861A992E0130F600760883160B
:101CF0000313C80748080A168A11AE230A128A1568
:101D0000031C882E831203138618882E7B127B15E2
:101D10008316031348080A168A11AE230A128A157D
:101D2000031C9D2E83120313861A9D2E7B12FB1516
:101D30009D2E83160313C8017B167A0883120313A2
:101D4000FF0079088A0078088400770E8300FE0E71
:101D50007E0E090083120313A700A8010430280691
:101D600003194D2FA901053029060319452F053008
:101D7000A5002508A00028080A168A1108240A12BE
:101D80008A15CA3E831203132907A60027082606D0
:101D9000031D3D2F2808031DD22E2403031DD22E20
:101DA000DE30080004302806031DDC2E0330240634
:101DB000031DDC2EDE3008002908031DE52E04304B
:101DC0002406031DE52EDE30080005302906031D1C
:101DD0002F2F02302406031D2F2FDE300800013084
:101DE000A8020530A5002508A00028080A168A11B7
:101DF0000824CA3E83120313290708000130A500F6
:101E00002508A9070530A5002508A00028080A16FE
:101E10008A110824CA3E83120313290708000130DF
:101E2000A5002508A8070530A5002508A00028085A
:101E30000A168A110824CA3E8312031329070800D0
:101E40000130A9020530A5002508A00028080A16BF
:101E50008A110824CA3E83120313290708002408A4
:101E6000013A0319EF2E033A0319FE2E013A031922
:101E70000F2F073A0319202F3D2F0130A500250809
:101E8000A90705302906031DB72E0130A500250836
:101E9000A80704302806031DB22EDE300800831286
:101EA00003135A08803AFF0081307F02031D5A2F26
:101EB000F5305902031C882F831203135A08A90016
:101EC0005908A8000A168A11A6250A128A15831233
:101ED00003132808B1002908B2002A08B3000D3006
:101EE000AE00BC30AF00C330B0000A128A116225C8
:101EF0000A128A15831203132E08BE002F08BF0092
:101F00003008C0008030BB001D30BC004530B32F0E
:101F1000831203135A08A9005908A8000A168A1147
:101F2000A6250A128A15831203132808B10029086E
:101F3000B2002A08B3000030AE00F030AF00C0306D
:101F4000B0000A128A1162250A128A15831203133D
:101F50002E08BE002F08BF003008C0000C30BB00A8
:101F60003A30BC004630BD000A128A1143270A12DB
:101F70008A15831203133B08DB003C08DC003D0894
:101F8000DD000030BE008030BF003F30C0005B0885
:101F9000BB005C08BC005D08BD000A128A11432723
:101FA0000A128A15831203133B08CB003C08CC00AD
:101FB0003D08CD000A128A15D4240A128A1583120C
:101FC00003134C08DF004B08DE005F08803AFF0077
:101FD00080307F02031DEE2FAB305E020318F42F1A
:101FE00083120313DF1FFB2FAA3083120313D900C0
:101FF0000030DA0008005F08DA005E08D900080047
:1020000010308A000408840A820700346D346D346D
:102010002034643472346934763465346E34203458
:10202000203420342034003430346D346D34203486
:10203000643472346934763465346E340034633415
:102040006D34203449345234203420342034203448
:10205000203400346D344134683400346D345634E7
:0620600000342F340034AF
:10271A0000300A168A115524640063000800640018
:10272A008001840A0406031900340406952B8312D7
:10273A000313A300A31723080A168A1155240800B5
:10274A000A128A154E240A168A110A128A15EB21D0
:10275A000800F0000B30700203187B1EB62B03141E
:10276A000800031008000A128A159F220A168A1105
:10277A00831203136908B8006808B7000A168A1199
:10278A006924080083120313AF1F08002E09B00042
:10279A002F09B100B00A0319B10A3008AE00310896
:1027AA00AF0008000A168A11F0250A168A1180302D
:1027BA000A168A113D260A168A1184300A168A11C7
:1027CA003D26080083120313981CEF2B18121816C3
:1027DA00031008007C086E06031DF52B0310080081
:1027EA000314080040308316031394002030831228
:1027FA0003139400D0308316031387008312031344
:10280A0007148714080083120313A300A201231CD0
:10281A00122C2008A1002108A2070310A00D031002
:10282A00A30C2308031D0C2C22080800831203138F
:10283A00A200091189100914220888000915091132
:10284A000730A1007D30A000A00B292CA10B292C58
:10285A0008003F3083160313850081308312031367
:10286A009F000230831603139F0053308312031311
:10287A00A000A00B3E2C080083120313A200A301A0
:10288A00200823020318080023082207A1002108B0
:10289A008400831780010130A1002108A307452C79
:1028AA0083120313A2000911891009102208880053
:1028BA00091509110D30A100FB30A000A00B632CF3
:1028CA00A10B632C682C080040300A168A119C233D
:1028DA000A168A11831203133808AF003708AE00AC
:1028EA000A128A1562250A168A1101300A168A11F5
:1028FA00FA24080000300A168A119C230A168A1143
:10290A00831203133808AF003708AE000A128A157B
:10291A0062250A168A111A300A168A11FA24080040
:10292A00831203132408A8000330A9002908A00071
:10293A0026080A168A110824B03E831203132707B1
:10294A00AA002A088400280883138000080083123A
:10295A000313A9002908A6000530A7002708A0002C
:10296A0024080A168A110824CA3E8312031325076B
:10297A00A800280884002608831380000800831210
:10298A000313A100A201143022020318080022082E
:10299A00B43E8400831700082106031DD82C2208A0
:1029AA00B43E840080010130A0002008A207C82C90
:1029BA000A168A11E7230A168A11031CDD2C8B13C7
:1029CA00831203136E08A03E840083130008A0003C
:1029DA002008A1000130A0002008EE070F30A00057
:1029EA002008EE058B172108080083120313A400A0
:1029FA00240884000A168A1100200A168A11003A4D
:102A0A0003190800240884000A168A1100200A16ED
:102A1A008A110A168A111B240A168A110130831296
:102A2A000313A3002308A407FD2C83120313A10098
:102A3A00A20114302202031808002208B43E8400BE
:102A4A00831700082106031908002208B43E8400EF
:102A5A000008031D382D2108A0002208B43E840076
:102A6A002008800008000130A0002008A2071E2DBF
:102A7A0083120313A100A2011430220203180800D2
:102A8A002208A03E840083170008210603190800C3
:102A9A002208A03E84000008031D5B2D2108A00027
:102AAA002208A03E84002008800008000130A0000F
:102ABA002008A207412D83120313A401A501201C9B
:102ACA006C2D2208A4070318A50A2308A5070130BC
:102ADA000310A20DA30DFF3E031D6D2D013003103F
:102AEA00A10CA00CFF3E031D742D20082104031D18
:102AFA00642D2508A1002408A000080083120313EE
:102B0A00A300A2014130A100EE30A000A00B8B2D42
:102B1A00A10B8B2D0000831203138C112308930041
:102B2A008C1D952D1308A0002008A2008C1141309D
:102B3A00A100EE30A000A00BA02DA10BA02D00003B
:102B4A00080083120313AD01A91FB22DA809A90910
:102B5A00A80A0319A90AAD01AD0A2808A000290884
:102B6A00A100A2018E30AB002B08A3002D08AC00F7
:102B7A002C08A4000A128A155D2383120313200865
:102B8A00A8002108A9002208AA0008008316031336
:102B9A00C301C4010A168A110B270A168A11831265
:102BAA0003132108DA002008D9000A128A154F27D0
:102BBA000A168A11831203135A0883160313C200D2
:102BCA0083120313590883160313C10001300A162E
:102BDA008A1155240800831603138717BF308312FE
:102BEA000313A00020088316031387051815143051
:102BFA009900181383120313181383160313181258
:102C0A008312031398171816831603130C128C16C3
:102C1A0098160B1783120313EF01FD01EE01FC0155
:102C2A0008000A168A11DF260A168A118316031368
:102C3A00460883120313E900831603134508831217
:102C4A000313E8000A168A11B8230A168A117B1D93
:102C5A00342E0A128A159A210A168A117B11FB1D33
:102C6A001B2E0A128A113C200A168A11FB111B2EEE
:102C7A0083120313A2007D08013E0F396F06031960
:102C8A00402E8B132208A0007D08903E8400200865
:102C9A00831780007D08013E0F39A0002008FD003F
:102CAA00831603130C168B17213083120313A1000A
:102CBA007630A000A00B5F2EA10B5F2E000008004B
:102CCA0083120313A5008E300A168A113D260A16AE
:102CDA008A118312031325080A168A113D260A1639
:102CEA008A110A168A11DD240A168A11831203131D
:102CFA00A3002308A6006230A4006530A300A30B3A
:102D0A00842EA40B842E892E83120313260808000E
:102D1A0083120313A5008E300A168A113D260A165D
:102D2A008A118312031325080A168A113D260A16E8
:102D3A008A110A168A11DD240A168A1183120313CC
:102D4A00A3002308A6006230A4006530A300A30BE9
:102D5A00AC2EA40BAC2EB12E831203132608080046
:102D6A00831203132108A3002008A2002308831654
:102D7A0003134202031DC72E83120313220883166C
:102D8A0003134102031CD82E83120313230883164C
:102D9A000313C20083120313220883160313C1000C
:102DAA00C301C40108000130C3070318C40A003074
:102DBA00C40708007F3083120313BC00D430BB0061
:102DCA00AE30BA00BA0BE72EBB0BE72EBC0BE72ED0
:102DDA00EE2E0A128A1500200A168A110A168A117C
:102DEA00D7230A168A110A168A11F7230A168A1194
:102DFA000A168A112E240A168A110A128A158420A2
:102E0A000A168A110A168A11A523080083120313C7
:102E1A00A901AA011F151F19102F831603131E08D3
:102E2A0083120313A20006300310A20CFF3E031DF7
:102E3A00192F2208A300A4011E08A500A601031049
:102E4A00A50DA60D0310A50DA60D23082504A700A0
:102E5A0024082604A8002708A9002808AA002A0886
:102E6A00A1002908A0000800831603136B080A169C
:102E7A008A1183250A168A1183120313240825044A
:102E8A000319602F07150000831203130711073077
:102E9A00A7007D30A600A60B502FA70B502F01309C
:102EAA0083120313A4020030031CA503A5022408FD
:102EBA002504031D472F8316031347080A168A1190
:102ECA0083250800831603136C080A168A118325C2
:102EDA000A168A11831203132408250403198E2F54
:102EEA00071500008312031307110730A7007D306E
:102EFA00A600A60B7E2FA70B7E2F01308312031389
:102F0A00A4020030031CA503A50224082504031DFE
:102F1A00752F8316031347080A168A11832508009A
:102F2A00700871040319C22FF501F50AF11BA92FC4
:102F3A0001300310F00DF10DFF3E031D9E2F0130ED
:102F4A00F4007408F5079B2F71087302031DAF2F55
:102F5A0070087202031CB72F7008F2027108031C72
:102F6A00F303F30201300310F10CF00CFF3E031DD2
:102F7A00B82F0130F502031DA92F7308F10072085A
:102F8A00F0000800093083120313A3002308A500E8
:102F9A000D3025020318FE2F8E300A168A113D269F
:102FAA000A168A118312031325080A168A113D2666
:102FBA000A168A110A168A11DD240A168A11003A9B
:102FCA000319E92F01300800623083120313A400A9
:102FDA006530A300A30BEF2FA40BEF2FF42F0130C2
:102FEA0083120313A3002308A5070D302502031C2F
:062FFA00D12F0030080099
:02400E003A3F37
:00000001FF
