:060000000A128A11122809
:10000800FE00030EF7000408F8000A08F90083123E
:1000180003137F08FA000A128A112F2E0A128A1176
:100028001528FB01FC01FD01EE01EF018313A0304F
:100038008400D5300A128A15E1200A128A11831722
:1000480090308400A4300A128A15E1200A128A111D
:10005800831603130A128A15D7200A128A11DF00A1
:100068000A128A15D8200A128A11E0000A128A1583
:10007800D920E10083010A128A15B02A83160313D6
:10008800DA01DB01D801D901DD01DE01D101D2019C
:10009800903083120313E8000130E9000A128A1530
:1000A8000D260A128A1183160313500883120313AC
:1000B800A500831603134F0883120313A4000A1222
:1000C8008A1531240A128A110D3083160313D700BA
:1000D800AF30D600C130D500D50B7028D60B7028AC
:1000E800D70B702800000030831603135002C93064
:1000F80003194F02031CCE28643083120313A60091
:100108000030A700831603134F09D5005009D60005
:10011800D50A0319D60A5508903E83120313A00086
:100128008316031356080318013E013E8312031376
:10013800A1005A30A2000030A3000A128A151F221B
:100148000A128A11831203132108A9002008A800A3
:100158000A128A1505250A128A1183120313270821
:1001680083160313DB008312031326088316031375
:10017800DA00C83083120313A3000030A40038301B
:10018800A500FF30A6000A128A15CA240A128A118D
:10019800FB121029643083120313A6000030A70055
:1001A80083160313500883120313A1008316031345
:1001B8004F0883120313A0005A30A2000030A30096
:1001C8000A128A151F220A128A11831203132108A0
:1001D800A9002008A8000A128A1505250A128A1102
:1001E80083120313270883160313DB0083120313F8
:1001F800260883160313DA00383083120313A3008A
:10020800FF30A400C830A5000030A6000A128A15E5
:10021800CA240A128A11FB16831603135908803A56
:10022800D5005B08803A5502031D1C295A0858025C
:1002380003183E2914300A128A15C9250A128A1190
:10024800831203132408AF002308AE000A128A158C
:100258003F210A128A11831203132E0883160313EF
:10026800D8070318D90A831203132F088316031318
:10027800D9071029003083120313A300A40000300B
:10028800A500A6000A128A15CA240A128A11153076
:1002980083160313D7004B30D600D130D500D50BC9
:1002A8005329D60B5329D70B532900008316031360
:1002B8004F09D5005009D600D50A0319D60A5508A2
:1002C800903E83120313A4008316031356080318E1
:1002D800013E013E83120313A5000A128A15312438
:1002E8000A128A11C83083120313A3000030A40035
:1002F800C830A5000030A6000A128A15CA240A12BE
:100308008A110030831603135E02333003195D022D
:10031800031CBA290A128A15D5230A128A118312D4
:1003280003132108DA002008D9000A128A117E2551
:100338000A128A11831203135A0883160313DE0064
:1003480083120313590883160313DD005E08831212
:100358000313B800831603135D0883120313B70051
:100368000A128A11E5270A128A1185290030831298
:100378000313A300A4000030A500A6000A128A15E2
:10038800CA240A128A11153083160313D7004B307A
:10039800D600D130D500D50BCF29D60BCF29D70B16
:1003A800CF290000FB1EE729C83083120313A300DE
:1003B8000030A4003830A500FF30A6000A128A15C4
:1003C800CA240A128A11FB1AF82938308312031337
:1003D800A300FF30A400C830A5000030A6000A1210
:1003E8008A15CA240A128A1183160313DA01DB015B
:1003F8005B08803AFF0080307F02031D052A5A30CF
:100408005A020318272A14300A128A15C9250A1213
:100418008A11831203132408AF002308AE000A12BE
:100428008A153F210A128A11831203132E08831694
:100438000313DA070318DB0A831203132F08831642
:100448000313DB07FC29003083120313A300A40065
:100458000030A500A6000A128A15CA240A128A11B9
:10046800153083160313D7004B30D600D130D50092
:10047800D50B3C2AD60B3C2AD70B3C2A0000FB1E86
:10048800502A323083120313A4000030A5000A1248
:100498008A1531240A128A11FB1A5D2A3230831216
:1004A8000313A4000030A5000A128A1503240A12B7
:1004B8008A117B1083160313CB01CC018316031317
:1004C800DC010A128A15D5230A128A118312031332
:1004D8002108DA002008D9000A128A117E250A129A
:1004E8008A11831203135A0883160313DE0083123A
:1004F8000313590883160313DD005E0883120313E0
:10050800B800831603135D0883120313B7000A1299
:100518008A11E5270A128A117B188F2B003083165F
:1005280003135E02473003195D02031CA22A15302B
:100538004C027C3003194B020318DC0100305E02C8
:10054800473003195D02031CB22A15304C027C3077
:1005580003194B020318B22ADC01DC0A00305E02E0
:10056800303003195D020318BD2A0230D500550842
:10057800DC0000305E02303003195D02031CCF2A14
:1005880000305E02473003195D020318CF2A03309A
:10059800D5005508DC00FB1A162B262BB030831229
:1005A8000313A300FF30A400C830A5000030A60044
:1005B8000A128A15CA240A128A11262B9630831227
:1005C8000313A3000030A400C830A5000030A60023
:1005D8000A128A15CA240A128A11262BC8308312D5
:1005E8000313A3000030A400A630A500FF30A60026
:1005F8000A128A15CA240A128A1183160313CB0118
:10060800CC01262BC83083120313A3000030A400AA
:10061800C830A5000030A6000A128A15CA240A129A
:100628008A11262B831603135C08003A0319D22A71
:10063800013A0319E22A033A0319F22A013A031983
:10064800062B262BFB1E6D2B7D2BC8308312031324
:10065800A3000030A400B030A500FF30A6000A12A5
:100668008A15CA240A128A117D2BC83083120313F3
:10067800A3000030A4009630A5000030A6000A129E
:100688008A15CA240A128A117D2BA63083120313F5
:10069800A300FF30A400C830A5000030A6000A124D
:1006A8008A15CA240A128A1183160313CB01CC01B6
:1006B8007D2BC83083120313A3000030A400C83078
:1006C800A5000030A6000A128A15CA240A128A1147
:1006D8007D2B831603135C08003A0319292B013A72
:1006E8000319392B033A0319492B013A03195D2BD6
:1006F8007D2B07300A128A15FF220A128A11003A46
:10070800031D8E2B0A128A1591240A128A11003AA7
:1007180003198F2B7B147B1C622A0030831203136E
:10072800A300A4000030A500A6000A128A15CA2456
:100738000A128A11153083160313D7004B30D600DE
:10074800D130D500D50BA62BD60BA62BD70BA62BB5
:100758000000FE3083160313D700A830D60061309E
:10076800D500D50BB52BD60BB52BD70BB52B7B10DE
:10077800622A831203132E08B4002F08B50030082C
:10078800B6000310350D360DB7003708BA0031082A
:10079800B4003208B5003308B6000310350D360D25
:1007A800B7003708B9003A080319E62B39083A02A6
:1007B8000318ED2B3A03FF3A3907B4001930340215
:1007C800031CED2B3108AE003208AF003308B0002F
:1007D80008003908031908003A0839020318FC2BE5
:1007E8003903FF3A3A07B4001930340203180800F5
:1007F8000630B4003408B800B01BB817B31B38175C
:10080800AF17FF30AE05FF30AF050030B005B217A7
:10081800FF30B105FF30B2050030B30539083A02A0
:1008280003183C2C01300310B10DB20DB30DFF3E7F
:10083800031D172C0130B90239083A060319372C61
:100848000130B802380807390319372C162C013043
:100858000310B00CAF0CAE0CFF3E031D2C2C013066
:10086800B4003408BA073A0839060319652C2B2C4A
:100878003A0839020318652C01300310AE0DAF0D8C
:10088800B00DFF3E031D412C0130BA0239083A066B
:100898000319612C0130B802380807390319612C93
:1008A800402C01300310B30CB20CB10CFF3E031DF9
:1008B800562C0130B4003408B9073A083906031D2C
:1008C800552CB81F772CFF30AE06FF30AF06FF302F
:1008D800B0060130AE07003003180130AF07003012
:1008E80003180130B007381F892CFF30B106FF30DC
:1008F800B206FF30B3060130B107003003180130EB
:10090800B207003003180130B307B8012E08B10749
:100918002F08031103182F0A031DB207300803110B
:100928000318300A031DB307B31FAC2CFF30B10600
:10093800FF30B206FF30B3060130B10700300318AC
:100948000130B207003003180130B307B801B80A04
:100958003108A0003208A1003308A2003A08B40008
:100968003408A3003808B5003508A4000A128A1113
:100978007727831203132008AE002108AF0022084E
:10098800B0000800831203133E08C1003F08C200EC
:100998004008C3000310420D430DC4004408C900B9
:1009A8004908031DDE2C0030BB000030BC000030BD
:1009B800BD0008003B08C1003C08C2003D08C30058
:1009C8000310420D430DC4004408CA004A08031D21
:1009D800F42C0030BB000030BC000030BD00080023
:1009E8000030C6000030C7000030C80089304A0710
:1009F800C1004108C9023E08C1003F08C2004008C2
:100A0800C30010300310C30CC20CC10CFF3E031D01
:100A1800062D4108C4004408CA003B08C1003C0830
:100A2800C2003D08C30010300310C30CC20CC10C37
:100A3800FF3E031D182D4108C4004408CA06803033
:100A4800C1004108CA05BF17FF30BE05FF30BF050A
:100A58000030C005BC17FF30BB05FF30BC050030B7
:100A6800BD051830C1004108C50001300310C60D8E
:100A7800C70DC80DFF3E031D3A2D3D084002031D5A
:100A88004B2D3C083F02031D4B2D3B083E02031C27
:100A9800582D3B08BE023C08031C3C0FBF023D0812
:100AA800031C3D0AC002461401300310BE0DBF0DE1
:100AB800C00DFF3E031D592D0130C502031D392D00
:100AC8004608A0004708A1004808A2004908C1003C
:100AD8004108A3004A08C2004208A4000A128A1169
:100AE8007727831203132008BB002108BC002208C3
:100AF800BD000800831203135A08803AFF008130B2
:100B08007F02031D892DF5305902031CB72D83126E
:100B180003135A08A9005908A8000A128A15652261
:100B28000A128A11831203132808B1002908B20097
:100B38002A08B3000D30AE00BC30AF00C330B0009F
:100B48000A128A11BD230A128A11831203132E086E
:100B5800BE002F08BF003008C0008030BB001D3029
:100B6800BC004530E22D831203135A08A900590826
:100B7800A8000A128A1565220A128A118312031321
:100B88002808B1002908B2002A08B3000030AE00D6
:100B9800F030AF00C030B0000A128A11BD230A122B
:100BA8008A11831203132E08BE002F08BF003008D5
:100BB800C0000C30BB003A30BC004630BD000A1201
:100BC8008A11C6240A128A11831203133B08DB0018
:100BD8003C08DC003D08DD000030BE008030BF006E
:100BE8003F30C0005B08BB005C08BC005D08BD006E
:100BF8000A128A11C6240A128A11831203133B08A7
:100C0800CB003C08CC003D08CD000A128A1572279B
:100C18000A128A11831203134C08DF004B08DE0006
:100C28005F08803AFF0080307F02031D1D2EAB3025
:100C38005E020318232E83120313DF1F2A2EAA3005
:100C480083120313D9000030DA0008005F08DA00C5
:100C58005E08D90008008C1E4D2E1A08F6007C0884
:100C6800A03E84007608831380007C08013E0F397B
:100C7800F600760883160313D4005408831203136E
:100C88006E0603194D2E831603135408F6007608D2
:100C9800FC0083120C1E6B2E831603130C1E6B2E86
:100CA800831203136F08B03E840083130008990071
:100CB8000130F6007608EF070F30F6007608EF05EA
:100CC8006F087D06031D6B2E831603130C120B1D74
:100CD800C72E0B1164308312810001308316031371
:100CE800C9070318CA0A0030CA070130CB0703181E
:100CF800CC0A0030CC07F430F0000130F1004A088B
:100D0800F3004908F2000A128A155F240A128A11B0
:100D180070087104031D982E013083120313860690
:100D280083160313C901CA0183120313861C9E2E5E
:100D3800861AC32E0130F600760883160313D307EC
:100D480053080A128A15FB200A128A11031CB22EB4
:100D5800831203138618B22EFB11FB148316031398
:100D680053080A128A15FB200A128A11031CC72E7F
:100D780083120313861AC72EFB117B15C72E831601
:100D88000313D301FB157A0883120313FF007908B4
:100D98008A0078088400770E8300FE0E7E0E090014
:100DA800831203132F08B6002E08B500B101B20153
:100DB800B301B40127303602103003193502031C81
:100DC800FE2E3508F03EB50036080318013ED83E21
:100DD800B6000130B0003008B407DE2E3508183EE2
:100DE800B50036080318013EFC3EB6000130B000DD
:100DF8003008B30703303602E83003193502031C04
:100E0800122FF22E35089C3EB50036080318013E15
:100E1800FF3EB6000130B0003008B207003036029D
:100E2800643003193502031C262F062F3508F63EB9
:100E3800B50036080318013EFF3EB6000130B00089
:100E48003008B107003036020A300319350203189A
:100E58001A2F27302F02103003192E02031C3B2FA4
:100E68003408303E0A128A1560210A128A110330AA
:100E7800831203132F02E83003192E02031C4B2F91
:100E88003308303E0A128A1560210A128A1100308E
:100E9800831203132F02643003192E02031C5B2FE5
:100EA8003208303E0A128A1560210A128A1100306F
:100EB800831203132F020A3003192E02031C6B2F0F
:100EC8003108303E0A128A1560210A128A118312EB
:100ED80003132E082F04031908003508303E0A12A0
:100EE8008A15602108008312031323080319812F30
:100EF800220821042004031D942F0030A000003094
:100F0800A1000030A20008000130A5002508A307B1
:100F180001300310A20CA10CA00CFF3E031D8D2F65
:100F2800FE3022050319AF2F882F0130A5002508B0
:100F3800A3070130A007003003180130A1070030D3
:100F480003180130A20701300310A20CA10CA00C59
:100F5800FF3E031DA82FFF3022050319BE2F992F2E
:100F68000130A30201300310A00DA10DA20DFF3E18
:100F7800031DB72FA11BC42F023023020318B42F5F
:100F88002318CC2FFF30A0057F30A105FF30A20524
:100F98000310A30C2308A500A601A7011030031015
:100FA800A50DA60DA70DFF3E031DD32F2508A004F0
:100FB8002608A1042708A204240803190800A21778
:100FC800080000300A128A15E9200A128A118312D1
:100FD80003133808AF003708AE000A128A11D42666
:100FE8000A128A111A300A128A15FF2108007B1684
:100FF8000A128A15DA20080008308A000408840AD0
:10100800820700346D346D342034643472346934AA
:10101800763465346E34203420342034203400345F
:1010280030346D346D342034643472346934763439
:1010380065346E34003463346D34203449345234AA
:101048002034203420342034203400346D344134AA
:0E105800683400346D34563400342F340034C4
:1011AE000F340D340C3400300A128A159921640064
:1011BE006300080064008001840A040603190034E9
:1011CE000406E22883120313A300A31723080A12AE
:1011DE008A15992108000A128A1551230A128A15B6
:1011EE000A128A157D230800F0000B3070020318D6
:1011FE00FB1D032903140800031008003E3083165C
:10120E00031386000B178B17043081008B168B1778
:10121E0008000A128A15B4260A128A1583120313BD
:10122E006908B8006808B7000A128A15AD210800CF
:10123E000A128A158A220A128A1580300A128A1513
:10124E00D7220A128A1584300A128A15D72208006C
:10125E0083120313981C372918121816031008004E
:10126E007C086E06031D3D290310080003140800B8
:10127E0083120313AF1F08002E09B0002F09B1000F
:10128E00B00A0319B10A3008AE003108AF000800E9
:10129E0040308316031394002030831203139400FE
:1012AE00D030831603138700831203130714871499
:1012BE00080083120313A2000911891009142208D1
:1012CE008800091509110730A1007D30A000A00B80
:1012DE006E29A10B6E2908003F308316031385007B
:1012EE008130831203139F000230831603139F0075
:1012FE00533083120313A000A00B8329080083121E
:10130E000313A300A201231C90292008A100210889
:10131E00A2070310A00D0310A30C2308031D8A2996
:10132E002208080083120313A20009118910091064
:10133E0022088800091509110D30A100FB30A0000C
:10134E00A00BA729A10BA729AC29080040300A122F
:10135E008A15E9200A128A15831203133808AF0082
:10136E003708AE000A128A11D4260A128A150130E5
:10137E000A128A15FF2108000A128A152F210A1255
:10138E008A15031CC3298B13831203136E08A03E08
:10139E00840083130008A0002008A1000130A000E3
:1013AE002008EE070F30A0002008EE058B1721084D
:1013BE00080083160313CF01D0010A128A15D52314
:1013CE000A128A15831203132108DA002008D900A5
:1013DE000A128A117E25831203135A0883160313E9
:1013EE00CE0083120313590883160313CD00080091
:1013FE0083120313A400240884000A128A15002005
:10140E000A128A15003A03190800240884000A12E9
:10141E008A1500200A128A150A128A1560210A12EC
:10142E008A15013083120313A3002308A407022A8E
:10143E0083120313A401A501201C2B2A2208A40742
:10144E000318A50A2308A50701300310A20DA30D4A
:10145E00FF3E031D2C2A01300310A10CA00CFF3EF1
:10146E00031D332A20082104031D232A2508A10069
:10147E002408A000080083120313A300A201413028
:10148E00A100EE30A000A00B4A2AA10B4A2A0000B0
:10149E00831203138C11230893008C1D542A1308F6
:1014AE00A0002008A2008C114130A100EE30A00057
:1014BE00A00B5F2AA10B5F2A000008008312031302
:1014CE00AD01A91F712AA809A909A80A0319A90A19
:1014DE00AD01AD0A2808A0002908A100A2018E3096
:1014EE00AB002B08A3002D08AC002C08A4000A1298
:1014FE008A117727831203132008A8002108A90058
:10150E002208AA000800831603138717BF30831220
:10151E000313A00020088316031387051815143033
:10152E00990018138312031318138316031318123A
:10153E008312031398171816831603130C128C16A6
:10154E0098160B1783120313EF01FD01EE01FC0138
:10155E0008000A128A15A9230A128A158316031384
:10156E00520883120313E9008316031351088312E2
:10157E000313E8000A128A1510210A128A15FB1CA1
:10158E00CE2A0A128A11FB270A128A15FB107B1D1E
:10159E00B52A0A128A1142200A128A157B11B52A1F
:1015AE0083120313A2007D08013E0F396F06031943
:1015BE00DA2A8B132208A0007D08B03E8400200892
:1015CE00831380007D08013E0F39A0002008FD0026
:1015DE00831603130C168B17213083120313A100ED
:1015EE007630A000A00BF92AA10BF92A0000080002
:1015FE0083120313A5008E300A128A15D7220A12FF
:10160E008A158312031325080A128A15D7220A1285
:10161E008A150A128A15C3210A128A158312031318
:10162E00A3002308A6006230A4006530A300A30B1C
:10163E001E2BA40B1E2B232B83120313260808002C
:10164E00831203132108A3002008A2002308831687
:10165E0003134E02031D392B831203132208831624
:10166E0003134D02031C4A2B831203132308831604
:10167E000313CE0083120313220883160313CD0027
:10168E00CF01D00108000130CF070318D00A003077
:10169E00D007080083120313A601A7010430260603
:1016AE0003190800053027060319782B0530A4000E
:1016BE002408A00026080A128A1586210A128A1505
:1016CE00903E831203132707A50025088400831775
:1016DE0080010130A4002408A70705302706031D4A
:1016EE005D2B0130A4002408A607552B831203138B
:1016FE00A601A701033026060319080003302706AA
:10170E000319A42B0330A4002408A00026080A12F3
:10171E008A1586210A128A15C03E831203132707E3
:10172E00A50025088400831380010130A40024083D
:10173E00A70703302706031D892B0130A4002408B8
:10174E00A607812B7F3083120313BC00D430BB005D
:10175E00AE30BA00BA0BB12BBB0BB12BBC0BB12BFD
:10176E00B82B0A128A1505210A128A150A128A1531
:10177E001F210A128A150A128A154F210A128A157A
:10178E000A128A1573210A128A150A128A1543251E
:10179E000A128A150A128A15F22008008312031300
:1017AE00A901AA011F151F19DA2B831603131E0890
:1017BE0083120313A20006300310A20CFF3E031D7A
:1017CE00E32B2208A300A4011E08A500A601031006
:1017DE00A50DA60D0310A50DA60D23082504A70023
:1017EE0024082604A8002708A9002808AA002A0809
:1017FE00A1002908A0000800831603135F080A122F
:10180E008A1542220A128A1583120313240825040C
:10181E0003192A2C07150000831203130711073032
:10182E00A7007D30A600A60B1A2CA70B1A2C013090
:10183E0083120313A4020030031CA503A50224087F
:10184E002504031D112C8316031361080A128A1531
:10185E00422208008316031360080A128A154222D8
:10186E000A128A1583120313240825040319582C0F
:10187E00071500008312031307110730A7007D30F0
:10188E00A600A60B482CA70B482C0130831203137D
:10189E00A4020030031CA503A50224082504031D81
:1018AE003F2C8316031361080A128A154222080080
:1018BE007008710403198C2CF501F50AF11B732CB9
:1018CE0001300310F00DF10DFF3E031D682C0130A9
:1018DE00F4007408F507652C71087302031D792C4A
:1018EE0070087202031C812C7008F2027108031C2E
:1018FE00F303F30201300310F10CF00CFF3E031D55
:10190E00822C0130F502031D732C7308F10072084E
:10191E00F0000800093083120313A3002308A5006A
:10192E000D3025020318C82C8E300A128A15D722C4
:10193E000A128A158312031325080A128A15D72252
:10194E000A128A150A128A15C3210A128A15003A3A
:10195E000319B32C01300800623083120313A40064
:10196E006530A300A30BB92CA40BB92CBE2C0130EF
:10197E0083120313A3002308A5070D302502031CB1
:10198E009B2C0030080083120313A801A901AA01A1
:10199E00AB012408A7002708A8002308A7002708E2
:1019AE00A9002608A7002708AA002508A7002708CF
:1019BE00AB0091300A128A15D7220A128A158312A9
:1019CE00031328080A128A15D7220A128A158312BF
:1019DE00031329080A128A15D7220A128A158312AE
:1019EE0003132A080A128A15D7220A128A1583129D
:1019FE0003132B080A128A15D72208008312031329
:101A0E00AB01AC012608270403193E2DAD01AD0A2A
:101A1E00A71B1D2D01300310A60DA70DFF3E031DA4
:101A2E00122D0130AA002A08AD070F2D0130031028
:101A3E00AB0DAC0DFF3E031D1E2D27082902031D05
:101A4E002A2D26082802031C332D2608A802270853
:101A5E00031CA903A9022B1401300310A70CA60C1A
:101A6E00FF3E031D342D0130AD02031D1D2D2C082C
:101A7E00A7002B08A6000800831203138801890112
:101A8E00831603138801890101300A128A159921E0
:101A9E000A128A1538300A128A1599210A128A15E5
:101AAE000C300A128A1599210A128A1506300A126A
:101ABE008A1599210A128A1502300A128A1599215D
:101ACE000A128A1501300A128A1599210A128A15EC
:101ADE000A128A1511270A128A1501300A128A155E
:101AEE0099210A128A1540300A128A15E9200A1223
:101AFE008A150F300A128A15FF210800831203136C
:101B0E00AB008E300A128A15D7220A128A1583125A
:101B1E0003132B080A128A15D7220A128A150A12E3
:101B2E008A15C3210A128A1583120313A5002508EC
:101B3E00AC000A128A15C3210A128A1583120313E6
:101B4E00A5002508AD006230A6006530A500A50BE6
:101B5E00AE2DA60BAE2DB32D831203132D08A500AB
:101B6E00A6012C08A700A8012708A800A701250890
:101B7E002704A90026082804AA002A08A400290878
:101B8E00A300080083120313AB008E300A128A15CD
:101B9E00D7220A128A15831203132B080A128A15EA
:101BAE00D7220A128A150A128A15C3210A128A1519
:101BBE0083120313A5002508AC000A128A15C3214F
:101BCE000A128A1583120313A5002508AD00623090
:101BDE00A6006530A500A50BF22DA60BF22DF72D54
:101BEE00831203132D08A500A6012C08A700A80137
:101BFE002708A800A70125082704A90026082804FD
:101C0E00AA002A08A4002908A30008000A128A15AF
:101C1E00E0210A128A15831603135F080A128A1529
:101C2E0042220A128A1583120313680869040319E3
:101C3E00452E0A128A15B4260A128A158312031328
:101C4E006108ED006008EC006D08A1006C08A000B2
:101C5E000A128A1527230A128A15831203130715EF
:101C6E0000008312031307110130E8020030031C39
:101C7E00E903E90268086904031D202E8316031385
:101C8E0061080A128A1542220A128A150D30831231
:101C9E000313EB00FB30EA00EA0B532EEB0B532E33
:101CAE00582E080083120313A601A11F652EA0094A
:101CBE00A109A00A0319A10AA601A60AA31F702E44
:101CCE00A209A309A20A0319A30A0130A400240839
:101CDE00A606A701A801200821040319A72EA50115
:101CEE00A50AA11B862E01300310A00DA10DFF3EEB
:101CFE00031D7B2E0130A4002408A507782E013089
:101D0E000310A70DA80DFF3E031D872E21082302E9
:101D1E00031D932E20082202031C9C2E2008A202D3
:101D2E002108031CA303A302271401300310A10CE6
:101D3E00A00CFF3E031D9D2E0130A502031D862E15
:101D4E0026080319AF2EA709A809A70A0319A80A7E
:101D5E002808A1002708A000080083120313E5013C
:101D6E00E601E301E4010430E2006208E7006708DF
:101D7E000319D32E0A128A15D5230A128A15831235
:101D8E0003132008E5070318E60A2108E6070130C9
:101D9E00E7026708031DC12E0430A0000030A10029
:101DAE006608A3006508A2000A128A1559260A12AF
:101DBE008A15831203132108E6002008E500660841
:101DCE00DA006508D9000A128A117E250A128A15D0
:101DDE00831203135A08E4005908E30000300A1274
:101DEE008A15E9200A128A15831203136408AF00BC
:101DFE006308AE000A128A11D4260A128A151A3006
:101E0E000A128A15FF21831203136408E100630886
:101E1E00E000080000300A128A15E9200A128A151D
:101E2E0019300A128A1585250A128A158312031390
:101E3E002408AF002308AE000A128A11D4260A1213
:101E4E008A152C300A128A15FF210A128A151A30A9
:101E5E000A128A1585250A128A158312031324087D
:101E6E00AF002308AE000A128A11D4260A128A1570
:101E7E0025300A128A15FF210A128A1540300A12DD
:101E8E008A15E9200A128A1516300A128A15852536
:101E9E000A128A15831203132408AF002308AE001A
:101EAE000A128A11D4260A128A1529300A128A15A4
:101EBE00FF210A128A15663083120313B900773098
:101ECE00B8002430B700B70B6A2FB80B6A2FB90BC6
:101EDE006A2F00000800831203134B08CF004C0832
:101EEE00D0004D08D1000310500D510DD2005208F4
:101EFE00D8005808031D8C2F0030CE000030CD00C6
:101F0E000030CC000030CB0008004B08CF004C084E
:101F1E00D0004D08D10017300310D10CD00CCF0CCF
:101F2E00FF3E031D932F4F08D2005208D300CC174B
:101F3E00FF30CB05FF30CC050030CD054B08D4006B
:101F4E004C08D5004D08D600D7018E30D802D81FC8
:101F5E00CE2F5808803A8F3E0318BE2F0030CE0089
:101F6E000030CD000030CC000030CB000800013036
:101F7E000310D70CD60CD50CD40CFF3E031DBF2F6F
:101F8E000130CF004F08D8070319E92FBE2F1830A4
:101F9E005802031CE62F0030CE000030CD0000307A
:101FAE00CC000030CB0008000130CF000310D40D60
:101FBE00D50DD60DD70DCF0BDD2F0130D802580819
:101FCE00031DDB2F53080319F72FD409D509D609A2
:101FDE00D709D40A0319D50A0319D60A0319D70A41
:101FEE005708CE005608CD005508CC005408CB003B
:021FFE000800D9
:02400E003A3F37
:00000001FF
