:060000000A128A11122809
:10000800FE00030EF7000408F8000A08F90083123E
:1000180003137F08FA000A128A11262E0A128A117F
:100028001528FB01FC01FD01EE01EF018313A0304F
:100038008400CC300A128A11F8270A128A11831612
:1000480003130A128A1592200A128A11D9000A1279
:100058008A1593200A128A11DA000A128A15942046
:10006800DB0083010A128A158D2F83160313D10131
:10007800D201CF01D001D401D501C801C901903006
:1000880083120313E8000130E9000A128A15BA2521
:100098000A128A1183160313470883120313A50053
:1000A80083160313460883120313A4000A128A1541
:1000B80092230A128A110D3083160313CE00AF3033
:1000C800CD00C130CC00CC0B6728CD0B6728CE0BF8
:1000D800672800000030831603134702C93003194C
:1000E8004602031CC528643083120313A60000309F
:1000F800A700831603134609CC004709CD00CC0A94
:100108000319CD0A4C08903E83120313A0008316EE
:1001180003134D080318013E013E83120313A10087
:100128005A30A2000030A3000A128A15FB210A12D5
:100138008A11831203132108A9002008A8000A12B3
:100148008A1566240A128A11831203132708831654
:100158000313D20083120313260883160313D10056
:10016800C33083120313A3000030A4003830A50065
:10017800FF30A6000A128A152B240A128A117B1254
:100188000729643083120313A6000030A7008316E2
:100198000313470883120313A100831603134608A9
:1001A80083120313A0005A30A2000030A3000A12E1
:1001B8008A15FB210A128A11831203132108A90048
:1001C8002008A8000A128A1566240A128A118312C6
:1001D8000313270883160313D20083120313260878
:1001E80083160313D1003D3083120313A300FF309D
:1001F800A400C830A5000030A6000A128A152B24D6
:100208000A128A117B16831603135008803ACC0011
:100218005208803A4C02031D132951084F02031853
:10022800352914300A128A152A250A128A118312CE
:1002380003132408AF002308AE000A128A15E2202F
:100248000A128A11831203132E0883160313CF0789
:100258000318D00A831203132F0883160313D00739
:100268000729003083120313A300A4000030A5005F
:10027800A6000A128A152B240A128A111530831631
:100288000313CE004B30CD00D130CC00CC0B4A2923
:10029800CD0B4A29CE0B4A290000831603134609C1
:1002A800CC004709CD00CC0A0319CD0A4C08903E72
:1002B80083120313A400831603134D080318013E89
:1002C800013E83120313A5000A128A1592230A120B
:1002D8008A11C33083120313A3000030A400C8306E
:1002E800A5000030A6000A128A152B240A128A11CA
:1002F8000030831603135502333003195402031CCC
:10030800B1290A128A1536230A128A118312031395
:100318002108DA002008D9000A128A1175250A1264
:100328008A11831203135A0883160313D500831204
:100338000313590883160313D400550883120313B3
:10034800B80083160313540883120313B7000A1264
:100358008A1566210A128A117C2900308312031338
:10036800A300A4000030A500A6000A128A152B24B9
:100378000A128A11153083160313CE004B30CD00B4
:10038800D130CC00CC0BC629CD0BC629CE0BC62943
:1003980000007B1EDE29C33083120313A300003044
:1003A800A4003830A500FF30A6000A128A152B24B5
:1003B8000A128A117B1AEF293D3083120313A30016
:1003C800FF30A400C830A5000030A6000A128A1524
:1003D8002B240A128A1183160313D101D201520861
:1003E800803AFF0080307F02031DFC295A305102F9
:1003F80003181E2A14300A128A152A250A128A118D
:10040800831203132408AF002308AE000A128A15CA
:10041800E2200A128A11831203132E08831603138B
:10042800D1070318D20A831203132F088316031364
:10043800D207F329003083120313A300A40000306D
:10044800A500A6000A128A152B240A128A11153053
:1004580083160313CE004B30CD00D130CC00CC0B2B
:10046800332ACD0B332ACE0B332A00007B1E472AB2
:10047800323083120313A4000030A5000A128A1533
:1004880092230A128A117B1A542A323083120313D8
:10049800A4000030A5000A128A1564230A128A11E2
:1004A8007B1083160313C201C30183160313D30100
:1004B8000A128A1536230A128A1183120313210895
:1004C800DA002008D9000A128A1175250A128A1141
:1004D800831203135A0883160313D50083120313D8
:1004E800590883160313D400550883120313B80060
:1004F80083160313540883120313B7000A128A15CC
:1005080066210A128A117B18862B00308316031382
:100518005502473003195402031C992A1530430227
:100528007C30031942020318D301003055024730CA
:1005380003195402031CA92A153043027C300319FD
:1005480042020318A92AD301D30A003055023030D9
:10055800031954020318B42A0230CC004C08D30003
:1005680000305502303003195402031CC62A0030EB
:1005780055024730031954020318C62A0330CC0029
:100588004C08D3007B1A0D2B1D2BB030831203139C
:10059800A300FF30A400C830A5000030A6000A124E
:1005A8008A152B240A128A111D2B963083120313E5
:1005B800A3000030A400C830A5000030A6000A122D
:1005C8008A152B240A128A111D2BC3308312031398
:1005D800A3000030A400A630A500FF30A6000A1230
:1005E8008A152B240A128A1183160313C201C30128
:1005F8001D2BC33083120313A3000030A400C8309E
:10060800A5000030A6000A128A152B240A128A11A6
:100618001D2B831603135308003A0319C92A013AFC
:100628000319D92A033A0319E92A013A0319FD2AB9
:100638001D2B7B1E642B742BC33083120313A30062
:100648000030A400B030A500FF30A6000A128A15B9
:100658002B240A128A11742BC33083120313A300AC
:100668000030A4009630A5000030A6000A128A15B2
:100678002B240A128A11742BA63083120313A300A9
:10068800FF30A400C830A5000030A6000A128A1561
:100698002B240A128A1183160313C201C301742B77
:1006A800C33083120313A3000030A400C830A50090
:1006B8000030A6000A128A152B240A128A11742BFC
:1006C800831603135308003A0319202B013A031920
:1006D800302B033A0319402B013A0319542B742B7E
:1006E80007300A128A15B8220A128A11003A031D25
:1006F800852B0A128A15F2230A128A11003A031965
:10070800862B7B147B1C592A003083120313A30009
:10071800A4000030A500A6000A128A152B240A128C
:100728008A11153083160313CE004B30CD00D1301B
:10073800CC00CC0B9D2BCD0B9D2BCE0B9D2B000005
:10074800FE3083160313CE00A830CD006130CC00F4
:10075800CC0BAC2BCD0BAC2BCE0BAC2B7B10592A76
:10076800831203132E08B4002F08B5003008B60012
:100778000310350D360DB7003708BA003108B4003C
:100788003208B5003308B6000310350D360DB70032
:100798003708B9003A080319DD2B39083A0203185B
:1007A800E42B3A03FF3A3907B40019303402031C2A
:1007B800E42B3108AE003208AF003308B00008005F
:1007C8003908031908003A0839020318F32B3903CA
:1007D800FF3A3A07B400193034020318080006300B
:1007E800B4003408B800B01BB817B31B3817AF17DC
:1007F800FF30AE05FF30AF050030B005B217FF304F
:10080800B105FF30B2050030B30539083A020318C4
:10081800332C01300310B10DB20DB30DFF3E031D93
:100828000E2C0130B90239083A0603192E2C013072
:10083800B8023808073903192E2C0D2C0130031083
:10084800B00CAF0CAE0CFF3E031D232C0130B400DE
:100858003408BA073A08390603195C2C222C3A08DE
:10086800390203185C2C01300310AE0DAF0DB00D2A
:10087800FF3E031D382C0130BA0239083A06031925
:10088800582C0130B802380807390319582C372C6E
:1008980001300310B30CB20CB10CFF3E031D4D2CFC
:1008A8000130B4003408B9073A083906031D4C2C46
:1008B800B81F6E2CFF30AE06FF30AF06FF30B00613
:1008C8000130AE07003003180130AF0700300318BD
:1008D8000130B007381F802CFF30B106FF30B20658
:1008E800FF30B3060130B107003003180130B207FA
:1008F800003003180130B307B8012E08B1072F08DC
:10090800031103182F0A031DB20730080311031837
:10091800300A031DB307B31FA32CFF30B106FF3005
:10092800B206FF30B3060130B107003003180130BA
:10093800B207003003180130B307B801B80A31080C
:10094800A0003208A1003308A2003A08B400340815
:10095800A3003808B5003508A4000A128A151F2715
:10096800831203132008AE002108AF002208B0004C
:100978000800831203133E08C1003F08C200400864
:10098800C3000310420D430DC4004408C9004908C0
:10099800031DD52C0030BB000030BC000030BD006A
:1009A80008003B08C1003C08C2003D08C300031012
:1009B800420D430DC4004408CA004A08031DEB2C2D
:1009C8000030BB000030BC000030BD000800003023
:1009D800C6000030C7000030C80089304A07C1008F
:1009E8004108C9023E08C1003F08C2004008C300D0
:1009F80010300310C30CC20CC10CFF3E031DFD2CAC
:100A08004108C4004408CA003B08C1003C08C200B1
:100A18003D08C30010300310C30CC20CC10CFF3ECC
:100A2800031D0F2D4108C4004408CA068030C100C8
:100A38004108CA05BF17FF30BE05FF30BF050030AB
:100A4800C005BC17FF30BB05FF30BC050030BD0535
:100A58001830C1004108C50001300310C60DC70D8C
:100A6800C80DFF3E031D312D3D084002031D422DD8
:100A78003C083F02031D422D3B083E02031C4F2D3C
:100A88003B08BE023C08031C3C0FBF023D08031C88
:100A98003D0AC002461401300310BE0DBF0DC00D43
:100AA800FF3E031D502D0130C502031D302D4608A1
:100AB800A0004708A1004808A2004908C100410851
:100AC800A3004A08C2004208A4000A128A151F2778
:100AD800831203132008BB002108BC002208BD00B4
:100AE8000800831203135A08803AFF0081307F02FE
:100AF800031D802DF5305902031CAE2D83120313FC
:100B08005A08A9005908A8000A128A151E220A12B2
:100B18008A11831203132808B1002908B2002A0891
:100B2800B3000D30AE00BC30AF00C330B0000A12C5
:100B38008A11B4230A128A11831203132E08BE00E5
:100B48002F08BF003008C0008030BB001D30BC003B
:100B58004530D92D831203135A08A9005908A80053
:100B68000A128A151E220A128A11831203132808F0
:100B7800B1002908B2002A08B3000030AE00F030F6
:100B8800AF00C030B0000A128A11B4230A128A11C9
:100B9800831203132E08BE002F08BF003008C000C0
:100BA8000C30BB003A30BC004630BD000A128A1136
:100BB800BD240A128A11831203133B08DB003C0888
:100BC800DC003D08DD000030BE008030BF003F3053
:100BD800C0005B08BB005C08BC005D08BD000A12D1
:100BE8008A11BD240A128A11831203133B08CB0011
:100BF8003C08CC003D08CD000A128A116A270A1267
:100C08008A11831203134C08DF004B08DE005F08CB
:100C1800803AFF0080307F02031D142EAB305E0245
:100C280003181A2E83120313DF1F212EAA308312F2
:100C38000313D9000030DA0008005F08DA005E0804
:100C4800D90008008C1E442E1A08F6007C08A03E25
:100C580084007608831380007C08013E0F39F60073
:100C6800760883160313CB004B08831203136E0612
:100C78000319442E831603134B08F6007608FC006C
:100C880083120C1E622E831603130C1E622E83120F
:100C980003136F08B03E84008313000899000130E5
:100CA800F6007608EF070F30F6007608EF056F08B4
:100CB8007D06031D622E831603130C120B1DBE2E18
:100CC8000B11643083128100013083160313C007AF
:100CD8000318C10A0030C1070130C2070318C30A4C
:100CE8000030C307F430F0000130F1004108F30090
:100CF8004008F2000A128A15C0230A128A117008E5
:100D08007104031D8F2E0130831203138606831688
:100D18000313C001C10183120313861C952E861A82
:100D2800BA2E0130F600760883160313CA074A085C
:100D38000A128A159E200A128A11031CA92E8312F0
:100D480003138618A92EFB11FB14831603134A08F4
:100D58000A128A159E200A128A11031CBE2E8312BB
:100D68000313861ABE2EFB117B15BE2E83160313A2
:100D7800CA01FB157A0883120313FF0079088A0059
:100D880078088400770E8300FE0E7E0E0900831219
:100D980003132F08B6002E08B500B101B201B30144
:100DA800B40127303602103003193502031CF52E22
:100DB8003508F03EB50036080318013ED83EB600A7
:100DC8000130B0003008B407D52E3508183EB500FC
:100DD80036080318013EFC3EB6000130B00030086A
:100DE800B30703303602E83003193502031C092F14
:100DF800E92E35089C3EB50036080318013EFF3E33
:100E0800B6000130B0003008B20700303602643056
:100E180003193502031C1D2FFD2E3508F63EB500BB
:100E280036080318013EFF3EB6000130B000300816
:100E3800B107003036020A30031935020318112FA2
:100E480027302F02103003192E02031C322F3408CA
:100E5800303E0A128A1516210A128A1103308312AB
:100E680003132F02E83003192E02031C422F330804
:100E7800303E0A128A1516210A128A11003083128E
:100E880003132F02643003192E02031C522F320859
:100E9800303E0A128A1516210A128A11003083126E
:100EA80003132F020A3003192E02031C622F310884
:100EB800303E0A128A1516210A128A118312031368
:100EC8003508303E0A128A151621080083120313CA
:100ED8004B08CF004C08D0004D08D1000310500D2E
:100EE800510DD2005208D8005808031D842F003035
:100EF800CE000030CD000030CC000030CB00080020
:100F08004B08CF004C08D0004D08D1001730031013
:100F1800D10CD00CCF0CFF3E031D8B2F4F08D200F5
:100F28005208D300CC17FF30CB05FF30CC0500307A
:100F3800CD054B08D4004C08D5004D08D600D70184
:100F48008E30D802D81FC62F5808803A8F3E031813
:100F5800B62F0030CE000030CD000030CC0000307D
:100F6800CB00080001300310D70CD60CD50CD40CDC
:100F7800FF3E031DB72F0130CF004F08D8070319D4
:100F8800E12FB62F18305802031CDE2F0030CE0098
:100F98000030CD000030CC000030CB00080001301C
:100FA800CF000310D40DD50DD60DD70DCF0BD52FEF
:100FB8000130D8025808031DD32F53080319EF2F07
:100FC800D409D509D609D709D40A0319D50A0319AA
:100FD800D60A0319D70A5708CE005608CD00550877
:100FE800CC005408CB00080064008001840A040681
:100FF800031900340406F92F08308A000408840A0B
:10100800820700346D346D342034643472346934AA
:10101800763465346E34203420342034203400345F
:1010280030346D346D342034643472346934763439
:1010380065346E34003463346D34203449345234AA
:101048002034203420342034203400346D344134AA
:0E105800683400346D34563400342F340034C4
:101124000F340D340C3483120313A300A3172308C4
:101134000A128A153C210800F0000B3070020318D3
:10114400FB1DA62803140800031008003E30831674
:10115400031386000B178B17043081008B168B1733
:1011640008000A128A1561260A128A1583120313CB
:101174006908B8006808B7000A128A1550210800E7
:101184000A128A1543220A128A1580300A128A1515
:1011940090220A128A1584300A128A1590220800B5
:1011A40083120313981CDA28181218160310080067
:1011B4007C086E06031DE0280310080003140800D1
:1011C40083120313AF1F08002E09B0002F09B100CA
:1011D400B00A0319B10A3008AE003108AF000800A4
:1011E40040308316031394002030831203139400B9
:1011F400D030831603138700831203130714871454
:10120400080083120313A300A201231C0D29200844
:10121400A1002108A2070310A00D0310A30C2308AA
:10122400031D07292208080083120313A2000911D1
:101234008910091422088800091509110730A10032
:101244007D30A000A00B2429A10B242908003F30E5
:101254008316031385008130831203139F00023029
:10126400831603139F00533083120313A000A00BB3
:101274003929080083120313A200091189100910E7
:1012840022088800091509110D30A100FB30A000C7
:10129400A00B4A29A10B4A294F29080040300A1201
:1012A4008A1595200A128A15831203133808AF0091
:1012B4003708AE000A128A11CB260A128A150130A9
:1012C4000A128A15B821080000300A128A159520DE
:1012D4000A128A15831203133808AF003708AE00C8
:1012E4000A128A11CB260A128A151A300A128A1592
:1012F400B82108000A128A15D2200A128A15031C82
:101304007C298B13831203136E08A03E840083137D
:101314000008A0002008A1000130A0002008EE076A
:101324000F30A0002008EE058B1721080800831653
:101334000313C601C7010A128A1536230A128A1535
:10134400831203132108DA002008D9000A128A1133
:101354007525831203135A0883160313C5008312D9
:101364000313590883160313C400080083120313DC
:10137400A400240884000A128A1500200A128A157F
:10138400003A03190800240884000A128A15002070
:101394000A128A150A128A1516210A128A150130B0
:1013A40083120313A3002308A407BB298312031386
:1013B400A300A2014130A100EE30A000A00BE0295F
:1013C400A10BE0290000831203138C11230893005E
:1013D4008C1DEA291308A0002008A2008C114130BA
:1013E400A100EE30A000A00BF529A10BF529000007
:1013F400080083120313A401A501201C072A220854
:10140400A4070318A50A2308A50701300310A20D99
:10141400A30DFF3E031D082A01300310A10CA00CEC
:10142400FF3E031D0F2A20082104031DFF29250860
:10143400A1002408A000080083120313AD01A91F12
:101444002A2AA809A909A80A0319A90AAD01AD0AFB
:101454002808A0002908A100A2018E30AB002B08A7
:10146400A3002D08AC002C08A4000A128A151F271B
:10147400831203132008A8002108A9002208AA0047
:101484000800831603138717BF3083120313A000C9
:1014940020088316031387051815143099001813B0
:1014A40083120313181383160313181283120313DE
:1014B40098171816831603130C128C1698160B170C
:1014C40083120313EF01FD01EE01FC0108007F30DC
:1014D40083120313BC00D430BB00AE30BA00BA0B85
:1014E400712ABB0B712ABC0B712A782A0A128A153D
:1014F400A8200A128A150A128A15C2200A128A150D
:101504000A128A15F2200A128A150A128A1529214A
:101514000A128A150A128A15A424080083120313D6
:10152400A2007D08013E0F396F060319932A8B131D
:101534002208A0007D08B03E8400200883138000A8
:101544007D08013E0F39A0002008FD008316031317
:101554000C168B17213083120313A1007630A000E0
:10156400A00BB22AA10BB22A0000080083120313B5
:10157400A5008E300A128A1590220A128A15831247
:10158400031325080A128A1590220A128A150A12D0
:101594008A157C210A128A1583120313A3002308D7
:1015A400A6006230A4006530A300A30BD72AA40BC5
:1015B400D72ADC2A83120313260808008312031394
:1015C4002108A3002008A200230883160313450260
:1015D400031DF22A83120313220883160313440201
:1015E400031C032B83120313230883160313C50060
:1015F40083120313220883160313C400C601C70110
:1016040008000130C6070318C70A0030C7070800DE
:1016140083120313BA01BB0104303A06031908000C
:1016240005303B060319312B0530A4002408A00023
:101634003A080A128A1503210A128A15263E8312D1
:1016440003133B07A50025088400831380010130A0
:10165400A4002408BB0705303B06031D162B0130EC
:10166400A4002408BA070E2B83120313A901AA01AC
:101674001F151F193B2B831603131E088312031314
:10168400A20006300310A20CFF3E031D442B2208C7
:10169400A300A4011E08A500A6010310A50DA60D14
:1016A4000310A50DA60D23082504A700240826046D
:1016B400A8002708A9002808AA002A08A1002908C8
:1016C400A00008008316031359080A128A15D821AA
:1016D4000A128A15831203132408250403198B2B79
:1016E400071500008312031307110730A7007D308C
:1016F400A600A60B7B2BA70B7B2B013083120313B5
:10170400A4020030031CA503A50224082504031D1C
:10171400722B831603135B080A128A15D82108005A
:10172400831603135A080A128A15D8210A128A1535
:1017340083120313240825040319B92B0715000089
:101744008312031307110730A7007D30A600A60BF0
:10175400A92BA70BA92B013083120313A402003079
:10176400031CA503A50224082504031DA02B83162E
:1017740003135B080A128A15D82108007008710443
:101784000319ED2BF501F50AF11BD42B01300310DD
:10179400F00DF10DFF3E031DC92B0130F400740858
:1017A400F507C62B71087302031DDA2B7008720249
:1017B400031CE22B7008F2027108031CF303F3020A
:1017C40001300310F10CF00CFF3E031DE32B01303C
:1017D400F502031DD42B7308F1007208F000080011
:1017E400093083120313A3002308A5000D3025023A
:1017F4000318292C8E300A128A1590220A128A158F
:101804008312031325080A128A1590220A128A15D4
:101814000A128A157C210A128A15003A0319142C1B
:1018240001300800623083120313A4006530A30062
:10183400A30B1A2CA40B1A2C1F2C01308312031394
:10184400A3002308A5070D302502031CFC2B003040
:10185400080083120313A801A901AA01AB012408FB
:10186400A7002708A8002308A7002708A90026081E
:10187400A7002708AA002508A7002708AB00913075
:101884000A128A1590220A128A1583120313280851
:101894000A128A1590220A128A1583120313290840
:1018A4000A128A1590220A128A15831203132A082F
:1018B4000A128A1590220A128A15831203132B081E
:1018C4000A128A159022080083120313AB01AC019B
:1018D4002608270403199F2CAD01AD0AA71B7E2CF3
:1018E40001300310A60DA70DFF3E031D732C01301C
:1018F400AA002A08AD07702C01300310AB0DAC0D03
:10190400FF3E031D7F2C27082902031D8B2C26086C
:101914002802031C942C2608A8022708031CA903E8
:10192400A9022B1401300310A70CA60CFF3E031DC3
:10193400952C0130AD02031D7E2C2C08A7002B082A
:10194400A600080083120313880189018316031378
:101954008801890101300A128A153C210A128A156C
:1019640038300A128A153C210A128A150C300A12E0
:101974008A153C210A128A1506300A128A153C215E
:101984000A128A1502300A128A153C210A128A1593
:1019940001300A128A153C210A128A150A128A1584
:1019A400BE260A128A1501300A128A153C210A122F
:1019B4008A1540300A128A1595200A128A150F30AA
:1019C4000A128A15B821080083120313AB008E3063
:1019D4000A128A1590220A128A15831203132B08FD
:1019E4000A128A1590220A128A150A128A157C2173
:1019F4000A128A1583120313A5002508AC000A12E3
:101A04008A157C210A128A1583120313A50025085E
:101A1400AD006230A6006530A500A50B0F2DA60B06
:101A24000F2D142D831203132D08A500A6012C08D5
:101A3400A700A8012708A800A70125082704A900D2
:101A440026082804AA002A08A4002908A3000800DC
:101A540083120313AB008E300A128A1590220A12E5
:101A64008A15831203132B080A128A1590220A126C
:101A74008A150A128A157C210A128A158312031305
:101A8400A5002508AC000A128A157C210A128A15C1
:101A940083120313A5002508AD006230A60065304B
:101AA400A500A50B532DA60B532D582D83120313FC
:101AB4002D08A500A6012C08A700A8012708A80046
:101AC400A70125082704A90026082804AA002A0833
:101AD400A4002908A30008000A128A1599210A12F1
:101AE4008A15831603135A080A128A15D8210A1272
:101AF4008A1583120313680869040319A62D0A12B0
:101B04008A1561260A128A15831203136108ED00EF
:101B14006008EC006D08A1006C08A0000A128A1588
:101B2400E0220A128A158312031307150000831298
:101B3400031307110130E8020030031CE903E90232
:101B440068086904031D812D831603135B080A12B8
:101B54008A15D8210A128A150D3083120313EB005B
:101B6400FB30EA00EA0BB42DEB0BB42DB92D0800C1
:101B74000A128A1599210A128A1583160313590821
:101B84000A128A15D8210A128A15831203136808C7
:101B940069040319F22D0A128A1561260A128A159C
:101BA400831203136108ED006008EC006D08A100C6
:101BB4006C08A0000A128A15E0220A128A15831200
:101BC4000313071500008312031307110130E80201
:101BD4000030031CE903E90268086904031DCD2DE4
:101BE400831603135B080A128A15D8210A128A1570
:101BF4000D3083120313EB00FB30EA00EA0B002ED6
:101C0400EB0B002E052E080083120313A601A11F5F
:101C1400122EA009A109A00A0319A10AA601A60A65
:101C2400A31F1D2EA209A309A20A0319A30A0130A6
:101C3400A4002408A606A701A8012008210403196A
:101C4400542EA501A50AA11B332E01300310A00DAB
:101C5400A10DFF3E031D282E0130A4002408A50772
:101C6400252E01300310A70DA80DFF3E031D342EB1
:101C740021082302031D402E20082202031C492EA2
:101C84002008A2022108031CA303A3022714013085
:101C94000310A10CA00CFF3E031D4A2E0130A50227
:101CA400031D332E260803195C2EA709A809A70AC9
:101CB4000319A80A2808A1002708A0000800831215
:101CC4000313E501E601E301E4010430E2006208E4
:101CD400E70067080319802E0A128A1536230A12B0
:101CE4008A15831203132008E5070318E60A21085E
:101CF400E6070130E7026708031D6E2E0430A000DA
:101D04000030A1006608A3006508A2000A128A1523
:101D140006260A128A15831203132108E6002008F6
:101D2400E5006608DA006508D9000A128A117525EB
:101D34000A128A15831203135A08E4005908E300AF
:101D440000300A128A1595200A128A158312031389
:101D54006408AF006308AE000A128A11CB260A1287
:101D64008A151A300A128A15B821831203136408DB
:101D7400E1006308E000080000300A128A1595208B
:101D84000A128A1519300A128A15E6240A128A15CB
:101D9400831203132408AF002308AE000A128A1129
:101DA400CB260A128A152C300A128A15B8210A1277
:101DB4008A151A300A128A15E6240A128A15831221
:101DC40003132408AF002308AE000A128A11CB269D
:101DD4000A128A1525300A128A15B8210A128A15A0
:101DE40040300A128A1595200A128A1516300A12F2
:101DF4008A15E6240A128A15831203132408AF00F5
:101E04002308AE000A128A11CB260A128A15293039
:101E14000A128A15B8210A128A156630831203132E
:101E2400B9007730B8002430B700B70B172FB80BC0
:101E3400172FB90B172F0000080083120313230870
:101E44000319292F220821042004031D3C2F0030EC
:101E5400A0000030A1000030A20008000130A5005D
:101E64002508A30701300310A20CA10CA00CFF3E0F
:101E7400031D352FFE3022050319572F302F013053
:101E8400A5002508A3070130A0070030031801307E
:101E9400A107003003180130A20701300310A20C7F
:101EA400A10CA00CFF3E031D502FFF302205031987
:101EB400662F412F0130A30201300310A00DA10DA4
:101EC400A20DFF3E031D5F2FA11B6C2F02302302C6
:101ED40003185C2F2318742FFF30A0057F30A10551
:101EE400FF30A2050310A30C2308A500A601A70137
:101EF40010300310A50DA60DA70DFF3E031D7B2F6B
:101F04002508A0042608A1042708A204240803190C
:101F14000800A21708000A128A1569220A128A15F3
:101F240083160313490883120313E900831603136A
:101F3400480883120313E8000A128A15B3200A1210
:101F44008A15FB1CF72F903083120313E80001302D
:101F5400E9000A128A156E250A128A1583160313DC
:101F6400470883120313A50083160313460883123C
:101F74000313A4000A128A1564230A128A150A128A
:101F84008A1561260A128A157F3083160313D80036
:101F9400D430D700AE30D600D60BCE2FD70BCE2FF1
:101FA400D80BCE2FD52F831603134609D600470925
:101FB400D700D60A0319D70A5608903E8312031392
:101FC400A4008316031357080318013E013E83122D
:101FD4000313A5000A128A1564230A128A150A1229
:101FE4008A150A230A128A15FB107B1D922F0A12E6
:0C1FF4008A1139200A128A157B11922FE5
:02400E003A3F37
:00000001FF
