:060000000A128A110E280D
:10000800FE00030EF7000408F8000A08F9000A16B3
:100018008A11902B0A128A111128A030F001F101DF
:10002800FA01FB01FC01FD0183138400E5300A1687
:100038008A110C230A128A11903083178400C83061
:100048000A168A110C2383010A128A11B12FAB26D2
:100058000A128A116308B5006208B4009C287F3030
:10006800B900D430B800AE30B700B70B3928B80B98
:100078003928B90B3928402884200A128A115F20B0
:100088000A128A118F200A128A1150200A128A1124
:100098007F220A128A11952F3F30831685008130FE
:1000A80083129F00023083169F0053308312A000F2
:1000B800A00B5C2808006D2080300A128A15DC2607
:1000C8000A128A1184300A128A15DC260A128A1545
:1000D8000728871707131815143099001813831267
:1000E80018138316181283129817181683160C12F1
:1000F8008C1698160B17FD01FC01FB01FA0108008C
:100108003E308316031386000B178B1704308100CB
:100118008B168B170800403083169400203083120A
:100128009400D030831687008312071487140800C0
:100138004030BF220A128A11831203133508AD001A
:100148003408AC007C230A128A110130502B322764
:100158000F300A128A1581260A128A118312031394
:10016800620863040319D328AB260A128A115C08B3
:10017800E7005B08E6006708A1006608A00077278B
:100188000A128A118312071500008312031307113C
:100198000130E2020030031CE303E302B22800301E
:1001A8000A128A1581260A128A110D308312031346
:1001B800E500FB30E400E40BDF28E50BDF28E4284A
:1001C80008000030BF220A128A111930FA230A12D5
:1001D8008A112408AD002308AC007C230A128A1176
:1001E8002C3050230A128A111A30FA230A128A1163
:1001F8002408AD002308AC007C230A128A1125309C
:1002080050230A128A114030BF220A128A1116306E
:10021800FA230A128A112408AD002308AC007C23B3
:100228000A128A11293050230A128A116630B60040
:100238007730B5002430B400B40B2029B50B202941
:10024800B60B2029000008008316DF30E701E8011B
:10025800EC000330E901EA01EA0AE501E6006C086E
:1002680084000430831380007115F014F01C08001A
:10027800711D42290830C5220A128A1171194629AE
:100288000530C522831603136A088312B300831648
:1002980065088312B400831666088312B5008316B6
:1002A80069080A168A11E3240A128A118316ED00D6
:1002B8000130AB220A128A1183160313EE016E086D
:1002C80003196A2902306E06031D6E290030BF2209
:1002D8000A128A11831603136E0303197729033050
:1002E8006E06031D7B294030BF220A128A1183162D
:1002F8000313EB0105308312A00083166E089C26B9
:100308000A128A11C73E83166B078312EC00840019
:1003180083130008AC00AD017C230A128A11233034
:1003280050230A128A1183160530EB0A6B02031C4C
:100338007E296E03031DAE2966308312EE007730E6
:10034800ED002430EC00EC0BA729ED0BA729EE0BF0
:10035800A7290000831603136E0BB6290130AB22C0
:100368000A128A11831603130430EE0A6E02031C64
:10037800632966308312EE007730ED002430EC00FC
:10038800EC0BC429ED0BC429EE0BC4290000013085
:10039800AB220A128A11831603136D08031DD6298E
:1003A800F014482A6D0F092AB430E700E801E6295D
:1003B8000330E4290430E429ED01ED0AF72902307D
:1003C800ED00F7296C08840083130008013A03192B
:1003D800DC29033A0319DE29013A0319E029073A0F
:1003E8000319E329F72905308312A0008316690849
:1003F8009C260A128A11C73E83166A078312EC00EC
:100408008400FE3083138000482A6C08840083131C
:1004180000088312AC00AD0183166D088312EC004E
:10042800ED01EC1BED03AC026D08031CAD03AD023E
:100438000A128A15B0230A128A112D08B1002C0855
:10044800B0005A30B200B3010A128A158E240A127B
:100458008A1131088316E800831230088316E700F2
:100468006808803AFF0080307F02031D3D2AB530BE
:100478006702031C472A983083160313E7070318FB
:10048800E80AFE30E807711183160313680883121F
:10049800B100831667088312B0000A128A157F20FC
:1004A8000A128A115F2AE9036F2AEA0A6F2AE90AFF
:1004B8006F2AEA036F2A831603136D08013A03199A
:1004C800572A033A0319592A013A03195B2A073AAA
:1004D80003195D2A6F2A6C0884006D088313800055
:1004E800E8308312E2000330E3000A128A15D124AF
:1004F8000A128A113A298312031388018901831683
:10050800880189010130AB220A128A113830AB22E6
:100518000A128A110C30AB220A128A110630AB2259
:100528000A128A110230AB220A128A110130AB2258
:100538000A128A11E5200A128A110130AB220A1226
:100548008A114030BF220A128A110F30502B8312B1
:100558000313A2000911891009102208880009153F
:1005680009110D30A100FB30A000A00BB92AA10B86
:10057800B92ABE2A080083120313A300A31723086D
:10058800AB2A83120313E900E701E70AE801EA014D
:10059800EB013227643083120313A400A5010A1269
:1005A8008A153D260A128A114C270A128A116908EF
:1005B8000319352B0330E4008A30E3005630E2009B
:1005C800E20BE42AE30BE42AE40BE42AEB2AAB2649
:1005D8000A128A115C08E6005B08E5006708A000BB
:1005E8006808A10065086B270A128A11023069029F
:1005F800031C122B3230A400A5010A128A155F26AB
:100608000A128A11122BE7030E2BE80A0E2BE70AAF
:100618000E2BE803EA0A0319EB0A332B83120313A0
:100628006B08003A0319192B332B6A08003A03198F
:10063800072B013A0319092B033A0319092B013A2D
:1006480003190B2B073A03190B2B013A03190D2B2E
:10065800033A03190D2B013A0319072B332BE9032E
:10066800DB2A6B08B1006A08B0003230B200B3016F
:100678000A128A158E240A128A113108EB003008F2
:10068800EA006A30EA07031CEB036B08A5006A0856
:10069800A4000A128A153D2E83120313A30023080F
:1006A80084000A168A1100200A128A11003A0319D6
:1006B8000800230884000A168A1100200A128A11E9
:1006C8006B230A128A1183120313A30A532BA20065
:1006D8000911891009142208880009150911073021
:1006E800A1007D30A000A00B772BA10B772B080071
:1006F8002D08B3002C08B200AE01AF01B001B10162
:1007080027303302103003193202031C9A2BF030C1
:10071800B2070318B30AD830B307B10A842B1830CC
:10072800B2070318B30AFC30B307B00A0330330228
:10073800E83003193202031CA92B932B9C30B20713
:100748000318B30AFF30B307AF0A0030330264302E
:1007580003193202031CB82BA22BF630B207031878
:10076800B30AFF30B307AE0A003033020A30031968
:1007780032020318B12B27302D02103003192C0236
:10078800031CCB2B3108303E6B230A128A1103302D
:10079800831203132D02E83003192C02031CD92BF2
:1007A8003008303E6B230A128A110030831203137B
:1007B8002D02643003192C02031CE72B2F08303E4E
:1007C8006B230A128A110030831203132D020A3098
:1007D80003192C02031CF52B2E08303E6B230A123A
:1007E8008A11831203133208303E6B2B83120313D2
:1007F800A9008E300A128A15DC260A128A11831281
:10080800031329080A128A15DC260A128A110A1209
:100818008A15CA260A128A11AA000A128A15CA2635
:100828000A128A11AB006230A6006530A500A50B3C
:100838001B2CA60B1B2C202C831203132A08A800A0
:10084800A7012B08A7042808A4002708A30008006C
:10085800DC30A300E030A400E230A500DE30A600C2
:1008680083165F088312A7008D2E280803195E2CB3
:100878002308840064300002031C482C23088400E9
:10088800FA300006031D5E2C0530A00028089C26BF
:100898000A128A11C23EA2270A128A1103195E2C73
:1008A8000530A00028089C260A128A11C23E9B2700
:1008B8000A128A11043029020318842C240884009F
:1008C80064300002031C6E2C24088400FA300006F1
:1008D800031D842C0530A00028089C260A128A11C2
:1008E800C83EA2270A128A110319842C0530A000D9
:1008F80028089C260A128A11C83E9B270A128A11C8
:10090800033028020318AA2C25088400643000024A
:10091800031C942C25088400FA300006031DAA2C19
:100928000530A00028089C260A128A11CC3EA2276E
:100938000A128A110319AA2C0530A00028089C263F
:100948000A128A11CC3E9B270A128A112908031918
:1009580008002608840064300002031CB92C26080D
:100968008400FA300006031D08000530A00028089E
:100978009C260A128A11C63EA2270A128A11031956
:1009880008000530A00028089C260A128A11C63ED5
:100998009B270800043029020318F42C230884003C
:1009A80064300002031CDE2C23088400FA300006A1
:1009B800031DF42C0530A00028089C260A128A1171
:1009C800C83EA2270A128A110319F42C0530A00088
:1009D80028089C260A128A11C83E9B270A128A11E7
:1009E8000330280203181A2D2408840064300002FA
:1009F800031C042D24088400FA300006031D1A2D58
:100A08000530A00028089C260A128A11CC3EA2278D
:100A18000A128A1103191A2D0530A00028089C26ED
:100A28000A128A11CC3E9B270A128A112908031937
:100A38003F2D2508840064300002031C292D250859
:100A48008400FA300006031D3F2D0530A000280859
:100A58009C260A128A11C63EA2270A128A11031975
:100A68003F2D0530A00028089C260A128A11C63E90
:100A78009B270A128A1128080319080026088400EF
:100A880064300002031C4E2D26088400FA3000064C
:100A9800031D08000530A00028089C260A128A11A8
:100AA800C23EA2270A128A11031908000530A000C5
:100AB80028089C260A128A11C23E9B270800033088
:100AC80028020318892D2308840064300002031CBF
:100AD800732D23088400FA300006031D892D053084
:100AE800A00028089C260A128A11CC3EA2270A12C6
:100AF8008A110319892D0530A00028089C260A129E
:100B08008A11CC3E9B270A128A1129080319AE2D97
:100B18002408840064300002031C982D24088400F3
:100B2800FA300006031DAE2D0530A00028089C26CB
:100B38000A128A11C63EA2270A128A110319AE2D7B
:100B48000530A00028089C260A128A11C63E9B2759
:100B58000A128A1128080319D32D25088400643045
:100B68000002031CBD2D25088400FA300006031D71
:100B7800D32D0530A00028089C260A128A11C23EEF
:100B8800A2270A128A110319D32D0530A0002808BC
:100B98009C260A128A11C23E9B270A128A11043027
:100BA8002902031808002608840064300002031C88
:100BB800E32D26088400FA300006031D08000530DE
:100BC800A00028089C260A128A11C83EA2270A12E9
:100BD8008A11031908000530A00028089C260A126B
:100BE8008A11C83E9B270800290803191D2E2308CF
:100BF800840064300002031C072E23088400FA30A6
:100C08000006031D1D2E0530A00028089C260A1288
:100C18008A11C63EA2270A128A1103191D2E053011
:100C2800A00028089C260A128A11C63E9B270A1291
:100C38008A1128080319422E24088400643000020F
:100C4800031C2C2E24088400FA300006031D422EB3
:100C58000530A00028089C260A128A11C23EA22745
:100C68000A128A110319422E0530A00028089C2672
:100C78000A128A11C23E9B270A128A1104302902DD
:100C88000318682E2508840064300002031C522EC5
:100C980025088400FA300006031D682E0530A000E0
:100CA80028089C260A128A11C83EA2270A128A110D
:100CB8000319682E0530A00028089C260A128A11FC
:100CC800C83E9B270A128A1103302802031808001D
:100CD8002608840064300002031C782E260884004D
:100CE800FA300006031D08000530A00028089C26DD
:100CF8000A128A11CC3EA2270A128A110319080087
:100D08000530A00028089C260A128A11CC3E9B2791
:100D180008002708013A0319392C033A0319CE2C85
:100D2800013A0319632D073A0319F82D9B2E080081
:100D38008312A200A10120082218A1070310A00D08
:100D48000310A20C2208031D9F2E210808008312FD
:100D580003130430DF01E001E1000A128A15BE2303
:100D68000A128A112008DF070318E00A2108E007A1
:100D7800E1036108031DB12E0430A000A101600841
:100D8800A3005F08A200ED262108E0002008DF008C
:100D98006008D5005F08D4000A128A15DD230A12FC
:100DA8008A115508DE005408DD000030BF220A12FF
:100DB8008A11831203135E08AD005D08AC007C2322
:100DC8000A128A111A3050235E08DC005D08DB0025
:100DD8000800A501A11FF72EA009A109A00A03195F
:100DE800A10AA501A50AA31F002FA209A309A20A07
:100DF8000319A30A0130A506A601A70120082104AA
:100E08000319252FA401A40AA11B0E2F0310A00D5E
:100E1800A10D072F0310A60DA70D21082302031DFE
:100E2800172F20082202031C212F2008A2022108C4
:100E3800031CA303A30226140310A10CA00CA40BEB
:100E48000E2F250803192D2FA609A709A60A03198D
:100E5800A70A2708A1002608A00008008316C101D8
:100E6800C2010A128A15BE230A128A112108D50066
:100E78002008D4000A128A15DD230A128A1155089F
:100E88008316C000831254088316BF000130AB2AB2
:100E980083120313A101A201A9270A128A1183133D
:100EA800000883165F0603195F2F8312A9270A1209
:100EB8008A11FA30800083120330A20A2202031C2E
:100EC800502F0330A10A2102031808004F2FA30056
:100ED800200820072007DB3E2107A2008400230802
:100EE8008313800008002108A3002008A20023081B
:100EF80083164002031D842F8312220883163F02A3
:100F0800031C912F831223088316C0008312220822
:100F18008316BF00C101C2010800C10A0319C20A31
:100F280008000A168A11C5270A128A114C2F2907A8
:100F3800AA008400FF308313800008002907AA0054
:100F48008400FE30831300060800210821072107CA
:100F5800DB3E2207A000840008000A128A11332011
:100F68000A128A1123300A128A1150230A128A118E
:100F7800AC01AD010A128A117C230A128A110530CC
:100F88000A168A1121230A128A11EF0000300A1268
:100F98008A11BF220A128A11831203136F08AC0048
:100FA800AD010A128A117C230A128A1100300A162E
:100FB8008A1114230A128A11831603134408831210
:100FC800E300831643088312E2000A128A112B20D9
:100FD8000A128A11F01FF62F0A128A1128210A1202
:100FE8008A11F013711CE02F0A128A150C210A12BB
:060FF8008A117110E02FC8
:10100E00831203138C30A401DC2683120313A50173
:10101E0024080A168A1121230A128A15A300DC2637
:10102E000A128A15831203131830A40AA50A250280
:10103E00031808000F28A5008E30DC260A128A1528
:10104E00831203132508DC260A128A15CA260A12F1
:10105E008A15A6006230A4006530A300A30B3528C4
:10106E00A40B35283A28831203132608080083128E
:10107E000313A5008E30DC260A128A158312031381
:10108E002508DC260A128A15CA260A128A15A60017
:10109E006230A4006530A300A30B5328A40B532881
:1010AE00582883120313260808000930A5008E3035
:1010BE00DC260A128A15831203132508DC260A126F
:1010CE008A15CA260A128A15003A031D01346230A7
:1010DE00A4006530A300A30B7228A40B72287728F6
:1010EE00831203130D30A50A2502031800345E285F
:1010FE00B501B6013108803AFF0080307F02031D32
:10110E008A2801303002031C9328C830E2270A12C5
:10111E008A158B230A128A1583120313B11F9E2878
:10112E003830F2270A128A158B230A128A15F927EC
:10113E000A128A15B0230A128A1535081E3EB2000D
:10114E0036080318013EB300803AB4002D08803AE9
:10115E003402031DB4282C0832020318C52814309B
:10116E00A0260A128A152408AD002308AC00B0236D
:10117E000A128A15EB270A128A159E288312031368
:10118E003108803AFF0080307F02031DD0280130E5
:10119E003002031CD9283230E2270A128A158B231B
:1011AE000A128A1583120313B11FE428CE30F227D8
:1011BE000A128A158B230A128A15F9270A128A1522
:1011CE00B0230A128A153608803AB2002D08803AEA
:1011DE003202031DF4282C08350203180529143099
:1011EE00A0260A128A152408AD002308AC00B023ED
:1011FE000A128A15EB270A128A15E42883120313A2
:10120E00A301A401A501A6018B2B83160313903015
:10121E00E501E601EA01EB01C301C4018312E2001C
:10122E000130E3000A128A11AB200A128A158316C6
:10123E00031342088312A500831641088312A400EB
:10124E005F260A128A150D3083120313EA00AF309F
:10125E00E900C130E800E80B3229E90B3229EA0B2C
:10126E00322900000030831603134202C9300319DD
:10127E0041026430031C75298312B6009030B70109
:10128E00B0000130B100831641088312B0028316FC
:10129E0042088312031CB103B1025A30B200B301EB
:1012AE008E240A128A153108B9003008B800A72416
:1012BE000A128A1537088316E80083123608831639
:1012CE00E700C8308312A3003830A401A500FF3018
:1012DE00A6008B230A128A15F111A0298312B600DB
:1012EE00B701831642088312B10083164108831298
:1012FE00B0005A30B200B3018E240A128A1531089A
:10130E00B9003008B800A7240A128A1537088316C8
:10131E00E800831236088316E70038308312A300E4
:10132E00FF30A400C830A500A6018B230A128A152F
:10133E00F115831603136608803A8312E8008316AC
:10134E006808803A83126802031DB0298316670865
:10135E0065020318C7291430A0260A128A1524081C
:10136E00AD002308AC00B0230A128A152C08831690
:10137E00E5070318E60A83122D088316E607A0294F
:10138E0083120313A301A401A501A6018B230A1244
:10139E008A15903083120313A4000130A500831622
:1013AE0041088312A402831642088312031CA5036C
:1013BE00A5025F260A128A15C83083120313A300F2
:1013CE00A401A500A6018B230A128A1500308316EC
:1013DE0003136B02333003196A02031C122ABE2355
:1013EE000A128A152108D5002008D400DD230A121E
:1013FE008A1555088316EB00831254088316EA00EB
:10140E006B088312B50083166A088312B400C127D5
:10141E000A128A15ED298312A301A401A501A601C2
:10142E008B230A128A15F11D282AC8308312031342
:10143E00A3003830A401A500FF30A6008B230A12AA
:10144E008A15F119362A383083120313A300FF30A0
:10145E00A400C830A500A6018B230A128A15831694
:10146E000313E701E8016808803AFF0080307F022D
:10147E00031D432A5A30670203185A2A1430A02635
:10148E000A128A152408AD002308AC00B0230A12F4
:10149E008A152C088316E7070318E80A83122D080D
:1014AE008316E8073A2A83120313A301A401A501A8
:1014BE00A6018B230A128A15F11D6D2A3230831272
:1014CE000313A400A5015F260A128A15F119772AC3
:1014DE00323083120313A400A5013D260A128A1589
:1014EE00701083160313BD01BE0183160313E901A9
:1014FE00BE230A128A152108D5002008D400DD2348
:10150E000A128A1555088316EB00831254088316A7
:10151E00EA006B088312B50083166A088312B400C2
:10152E00C1270A128A1570186E2B003083166B02B3
:10153E00473003196A02031CAB2A15303E027C3079
:10154E0003193D020318E90100306B0247300319FD
:10155E006A02031CBB2A15303E027C3003193D0281
:10156E000318BB2AE901E90A00306B023030031977
:10157E006A020318C42A0230E90000306B023030D0
:10158E0003196A02031CD42A00306B024730031978
:10159E006A020318D42A0330E900F119082B162B1E
:1015AE00B0308312A300FF30A400C830A500A601FE
:1015BE008B230A128A15162B96308312A300C8307D
:1015CE00A401A500A6018B230A128A15162BC8307A
:1015DE008312A300A630A401A500FF30A6008B2322
:1015EE000A128A1583160313BD01BE01162BC830CD
:1015FE008312A300A401A500A6018B230A128A154B
:10160E00162B6908003A0319D72A013A0319E32A5F
:10161E00033A0319EE2A013A0319FE2A162BF11D7D
:10162E004A2B5A2BC8308312A300B030A401A50058
:10163E00FF30A6008B230A128A155A2BC83083124C
:10164E00A3009630A401A500A6018B230A128A15C9
:10165E005A2BA6308312A300FF30A400C830A50079
:10166E00A6018B230A128A1583160313BD01BE0130
:10167E005A2BC8308312A300A401A500A6018B2308
:10168E000A128A155A2B831603136908003A031996
:10169E00192B013A0319252B033A0319302B013A62
:1016AE000319402B5A2B07303E200A128A15003A96
:1016BE00031D6D2B5C200A128A15003A031D6D2B3B
:1016CE000D3022200A128A15003A031D7014F11DE6
:1016DE00701C7B2BB030A300FF30A400C830A500D7
:1016EE00A6018B230A128A15F119701C7C2AC830A8
:1016FE0083120313A300B030A401A500FF30A6008F
:10170E008B230A128A157C2AA801A901AA01240892
:10171E00A7002308A8002608A9002508AA009130D2
:10172E00DC260A128A15831203132708DC260A12F6
:10173E008A15831203132808DC260A128A158312CF
:10174E0003132908DC260A128A15831203132A08AA
:10175E00DC2EAD1F08002C09AE002D09AF00AE0A1D
:10176E000319AF0A2E08AC002F08AD000800831233
:10177E0003131F151F19C12B1E08A300A40103106C
:10178E00A30DA40D0310A30DA40D83161E08831222
:10179E00A20006300310A20CFF3E031DD12B22081F
:1017AE00A3042408A1002308A00008005508803ACD
:1017BE00FF0081307F02031DE62BF5305402031C1F
:1017CE000C2C831203135508A9005408A800712489
:1017DE000A128A152808AF002908B0002A08B1009D
:1017EE000D30AC00BC30AD00C330AE00FF260A1287
:1017FE008A152C08BB002D08BC002E08BD008030B9
:10180E00B8001D30B90045302C2C83120313550837
:10181E00A9005408A80071240A128A152808AF00DE
:10182E002908B0002A08B100F030AC01AD00C0307C
:10183E00AE00FF262C08BB002D08BC002E08BD00F4
:10184E000C30B8003A30B9004630BA000A168A1188
:10185E0039240A128A153808D6003908D7003A08F2
:10186E00D8008030BB01BC003F30BD005608B80028
:10187E005708B9005808BA000A168A1139240A12F4
:10188E008A153808C7003908C8003A08C9000A1670
:10189E008A112E230A128A154808DA004708D90041
:1018AE005A08803AFF0080307F02031D602CAB3057
:1018BE0059020318662C83120313DA1F6C2CAA30FC
:1018CE0083120313D400D50108005A08D500590815
:1018DE00D4000800AB01A91F7B2CA809A909A80AEE
:1018EE000319A90AAB01AB0A2808A0002908A10018
:1018FE008E30A201A3002B08A4000A168A11A1247F
:10190E002008A8002108A9002208AA000800B40196
:10191E00B501301C982C3208B4070318B50A3308E9
:10192E00B5070310B20DB30D0310B10CB00C300897
:10193E003104031D902C3508B1003408B0000800A6
:10194E00BA01BB01360837040319CC2CBC01BC0A02
:10195E00B71BB52C0310B60DB70DAE2C0310BA0D78
:10196E00BB0D37083902031DBE2C36083802031C86
:10197E00C82C3608B8023708031CB903B9023A144A
:10198E000310B70CB60CBC0BB52C3B08B7003A08CD
:10199E00B6000800E501E601E701F0127012F01141
:1019AE0070156430A400A5013D260A128A1583160F
:1019BE000313BB01BC01831203136608803AE400D3
:1019CE006308803A6402031DEE2C62086502031858
:1019DE00222EC83083120313A300A401A500A60172
:1019EE008B230A128A151330A0262308E507031845
:1019FE00E60A2408E6070A128A11AB260A128A158D
:101A0E005C08E9005B08E800003083163C02C93030
:101A1E0003193B02031CE22C83126908803AFF0073
:101A2E0080307F02031D1D2D50306802031C222DB5
:101A3E0083120313E701831203136908803AFF0030
:101A4E0080307F02031D2D2D303068020318332D98
:101A5E0083120313E701E70A831203136908803A1E
:101A6E00FF0080307F02031D3E2D35306802031CBF
:101A7E00512D831203136908803AFF0080307F02D4
:101A8E00031D4B2D503068020318512D0230831266
:101A9E000313E700831203136908803AFF008030B6
:101AAE007F02031D5C2D30306802031C6F2D8312E4
:101ABE0003136908803AFF0080307F02031D692DF1
:101ACE003530680203186F2D033083120313E700BD
:101ADE007019952DA52DF01570110330F016E70035
:101AEE00A52D9630A300C830A401A500A6018B2316
:101AFE000A128A15A52DC830A3009630A401A500A0
:101B0E00A6018B230A128A15A52DC830A300A401A5
:101B1E00A500A6018B230A128A15A52D8312031385
:101B2E006708003A0319722D013A0319782D033A0A
:101B3E000319822D013A03198C2DA52DF01DE82DC8
:101B4E00F01ED82DC83083120313A400A5015F2602
:101B5E000A128A15F01283160313BB01BC01D82D8D
:101B6E007016F011F016E82DC830A3009630A401BF
:101B7E00A500A6018B230A128A15E82D9630A30024
:101B8E00C830A401A500A6018B230A128A15E82DE0
:101B9E00C830A300A401A500A6018B230A128A1542
:101BAE00E82D831203136708003A0319B72D013A83
:101BBE000319BB2D033A0319C52D013A0319CF2D75
:101BCE00E82D701EE22CF01E112E643083120313CA
:101BDE00A400A5013D260A128A15F01283160313DE
:101BEE00BB01BC01112EC830A300A401A500A601A3
:101BFE008B230A128A15E22CA301A401A501A601CA
:101C0E008B230A128A15E83083120313E500033082
:101C1E00E600E22C831203136708003A0319FA2D2B
:101C2E00013A0319032E033A0319FA2D013A031947
:101C3E00FA2D212EE22C83120313A301A401A50178
:101C4E00A6018B230A128A15701D352E643083125D
:101C5E000313A400A5015F260A128A15F01D0800C1
:101C6E00643083120313A400A5013D2E0F3081268C
:101C7E000A128A15831203132408250403195D2EF4
:101C8E00071500008312031307110730A7007D30DC
:101C9E00A600A60B502EA70B502E01308312031355
:101CAE00A4020030031CA503A502412E0030812E94
:101CBE000D3081260A128A15831203132408250477
:101CCE0003197F2E07150000831203130711073027
:101CDE00A7007D30A600A60B722EA70B722E013028
:101CEE0083120313A4020030031CA503A502632E66
:101CFE000030812E83120313A3004130A100EE3079
:101D0E00A000A00B882EA10B882E000083120313B7
:101D1E008C11230893008C1D922E13088C114130C8
:101D2E00A100EE30A000A00B9A2EA10B9A2E00005F
:101D3E00080083120313A9008E30DC260A128A15BE
:101D4E00831203132908DC260A128A15CA260A12E0
:101D5E008A15AA00CA260A128A15AB006230A6009E
:101D6E006530A500A50BB92EA60BB92EBE2E83127B
:101D7E0003132A08A800A7012B08A7042808A4000B
:101D8E002708A3000800D4270A128A15031CCA2E9E
:101D9E008B137B08A03E840083130008A000FB0A6F
:101DAE000F30FB058B172008080083120313A200C7
:101DBE007C08013E0F397D060319DF2E8B137C083C
:101DCE00903E840083120313220883178000FC0ABE
:101DDE000F30FC0583160C168B1721308312A100D1
:101DEE007630A000A00BF92EA10BF92E00000800F2
:101DFE002C08B2002D08B3002E08B4000310330DCA
:101E0E00340DB7002F08B2003008B3003108B4000B
:101E1E000310330D340DB60037080319222F360880
:101E2E003702360803182A2FB2003708B2021930CB
:101E3E003202031C292F2F08AC003008AD003108E8
:101E4E00AE000800360803190800370836020318DA
:101E5E00382F3708B2003608B20219303202031892
:101E6E0008000630B500AE1BB517B11B3517AD1700
:101E7E00AE01B017B1013608370203185F2F0310F9
:101E8E00AF0DB00DB10DB6033608370603195A2F34
:101E9E00B5033508073903195A2F462F0310AE0C18
:101EAE00AD0CAC0CB70A3708360603197B2F552F2D
:101EBE003708360203187B2F0310AC0DAD0DAE0D97
:101ECE00B703360837060319772FB50335080739D8
:101EDE000319772F632F0310B10CB00CAF0CB60A99
:101EEE0037083606031D722FB51F862FFF30AC063E
:101EFE00AD06AE06AC0A0319AD0A0319AE0A351FBC
:101F0E00912FFF30AF06B006B106AF0A0319B00A23
:101F1E000319B10AB5012C08AF072D0803110318D8
:101F2E002D0A031DB0072E08031103182E0A031DD8
:101F3E00B107B11FAD2FFF30AF06B006B106AF0A25
:101F4E000319B00A0319B10AB501B50A2F08A0008A
:101F5E003008A1003108A2003708A3003508A400FC
:101F6E000A168A11A1242008AC002108AD0022080F
:101F7E00AE00080000300A128A11BF220A128A151A
:101F8E00831203133508AD003408AC000A128A110F
:101F9E007C231A300A128A11502B83120313981CB9
:101FAE00DC2F18121816031008007A087B06031986
:101FBE00DA2F0314080083120313A3003830A40190
:101FCE00A500FF30A60008002C08B5070318B60AB6
:101FDE002D08B6070800A300FF30A400C830A500E6
:101FEE00A6010800831203133108AD003008AC00BF
:101FFE00080010308A000408840A820700346D3409
:10200E006D342034643472346934763465346E340D
:10201E002034203420342034003430346D346D3488
:10202E002034643472346934763465346E3400345A
:10203E0063346D3420344934523420342034203407
:10204E002034203400346D344134683400346D341F
:08205E00563400342F34003425
:1026180064008001840A04060319003404060D2BA3
:1026280083120313A3008D300A128A15DC26831245
:10263800031323080A128A15DC2E83120313A00041
:1026480003178D0083168C130C1483120C080313C4
:10265800A100080089230A168A1103104C0D4D0D9C
:10266800D3005308031D3D2BC701C801C901CA0186
:10267800080089230A168A1117300310CD0CCC0CD8
:10268800CB0CFF3E031D412B4B08CE00C817C901D8
:102698004708CF004808D0004908D1008E30D20141
:1026A800D302D31F642B5308803A8F3E031C382B68
:1026B8000310D20CD10CD00CCF0CD30F5C2B722B87
:1026C800183053020318382B53080319722B0310C0
:1026D800CF0DD00DD10DD20DD303682B4E080319A1
:1026E800802BCF09D009D109D209CF0A0319D00A02
:1026F8000319D10A0319D20A5208CA005108C9009D
:102708005008C8004F08C70008004708CB00480811
:10271800CC004908CD000800831203138C1EA62B99
:102728007A08A03E84001A08831380007A08013EC4
:102738008316C6000F30C60546087B060319A62B6C
:102748004608FA0083120C1EBB2B83160C1EBB2BEB
:102758007D08903E84008317000883129900FD0AC3
:102768000F30FD057D087C06831603190C120B1D1E
:10277800022C0B116430831281008316B90A0319E5
:10278800BA0ABD0A0319BE0ABB0A0319BC0AF43007
:10279800F2000130F3003A08F5003908F400152476
:1027A8000A168A1172087304031DE02B0130831284
:1027B80086068316B901BA018312861CE52B861A90
:1027C800FF2B8316C50A45080B240A168A11031C19
:1027D800F22B83128618F22BF110F0178316450896
:1027E8000B240A168A11031C022C8312861A022C47
:1027F800F1107114022C8316C501F11479088A00AE
:1028080078088400770E8300FE0E7E0E0900F20021
:102818000B3072020318F11C132C03140800031068
:102828000800720873040319342CF601F60AF31B26
:10283800212C0310F20DF30D1A2C73087502031DD9
:10284800272C72087402031C302C7208F4027308D7
:10285800031CF503F5020310F30CF20CF60B212C04
:102868007508F3007408F20008003B08BE003C0835
:10287800BF003D08C00003103F0D400DC5004508CE
:10288800031D4A2CB801B901BA0108003808BE0076
:102898003908BF003A08C00003103F0D400DC600BC
:1028A8004608031D5B2CB801B901BA01080089303C
:1028B800C201C301C4014607BE00C5023D08C600E7
:1028C8003A08C6068030C6051830BC17BD01B917CE
:1028D800BA01C1000310C20DC30DC40D3A083D0270
:1028E800031D7C2C39083C02031D7C2C38083B0254
:1028F800031C8A2C3808BB023908031C390FBC0298
:102908003A08031C3A0ABD0242140310BB0DBC0D61
:10291800BD0DC10B6E2C4208A0004308A10044085D
:10292800A2004508A3004608A400A1242008B80076
:102938002108B9002208BA00080023080319A92CA5
:10294800220821042004031DB22CA001A101A20128
:102958000800A30A0310A20CA10CA00CFE3022054B
:102968000319C12CAD2CA30AA00A0319A10A031943
:10297800A20A0310A20CA10CA00CFF302205031917
:10298800CF2CB72C02302302031CD12CA303031035
:10299800A00DA10DA20DA11FC62C231CA11303106D
:1029A800A30C2308A700A601A5012508A004260852
:1029B800A1042708A2042408031DA21708008312F3
:1029C800B9000530BD01A00034080A128A119C26FE
:1029D8000A168A11C73E3507BA000530A000390823
:1029E8000A128A119C260A168A11C73E3307BC00B0
:1029F800BB01B7013A0603190034C5270A168A1124
:102A08003908A3003308A4006430FE260A168A1188
:102A18003408A3003508A400C830FE260A168A1117
:102A28001430A000A030F0260A168A111430A00035
:102A3800B430F026233084008316300883138000D6
:102A4800840A31088000840A32088000840A330826
:102A58008000840A3408800083123908A8003308EB
:102A6800A9000A128A112C240A168A113C080D277B
:102A78000A168A118316031734080319E62DFF3046
:102A880083120313B800BE013E08B43E84008317C6
:102A980000080319682D3E08B43E8400000884002D
:102AA8003808831300020318682D3E08B43E8400DA
:102AB80083170008840083130008B8003E08B43E5A
:102AC800840083170008BD001430BE0A3E02031CB0
:102AD800482D3D08B1270A168A11A301A30A3D080B
:102AE80076260A168A118316B50002308312A300CF
:102AF8003D0876260A168A118316B600033083121B
:102B0800A3003D0876260A168A118316B7000430FA
:102B18008312A3003D0876260A168A118316B80088
:102B280083123A08A3003C08A4003408A50035081D
:102B3800A6008316350806260A168A11B6008316DB
:102B48003508F1270A168A11360806260A168A1148
:102B5800B60083163608F1270A168A1137080626A2
:102B68000A168A11B60083163708F1270A168A1141
:102B7800380806260A168A11B60083163808840013
:102B880083123608831380003708031DDF2D831650
:102B980038088312A300831637088312A20083160D
:102BA80036088312A100831635088312A0002F2748
:102BB8000A168A11BB00831635088400C83000063F
:102BC800031DEA2D831203133B080800360884000E
:102BD800C83000060319E62D37088400C8300006FF
:102BE8000319E62D38088400C83000060319E62DBD
:102BF80083123D0870270A168A1192270A168A112D
:102C0800B70A3E2D8312B200A801A80AAB01AC0195
:102C1800AD0170138400FE30831300060319FE34DF
:102C280032088400000F192EFF343208E43A0319E1
:102C3800FF34320823060319C8343208240603195E
:102C48006434B001B1010530A00030080A128A11BD
:102C58009C260A168A11C73E3107A7003206031DB3
:102C68003A2E3008AC003108AD003F2E0530B10ACD
:102C78003102031C272E0430B00A3002031C262E12
:102C880025082C02AA0026082D02AB00E8260A1601
:102C98008A11A7002A08E8260A168A112707280792
:102CA800A900AE012E08B43E84003208831700063E
:102CB800031970171430AE0A2E02031C562EAF01EA
:102CC8002F08A03E8400320800060319701714303C
:102CD800AF0A2F02031C642E701B742E32080D27B6
:102CE80029080800A500A601A7010530A0002608AC
:102CF8000A128A119C260A168A11C73E2707A400C1
:102D08002506031DDD2E2608031D972E230B972E5F
:102D1800E434033023060319E4349B2E04302306DD
:102D28000319E4349E2E0330260603198D2E270836
:102D38000319922E04302706031DCF2E02302306D6
:102D48000319E434CF2E0530A603A00026080A1282
:102D58008A119C26C73E270708000530A70AA0004D
:102D680026080A128A119C26C73E27070800053044
:102D7800A60AA00026080A128A119C26C73E270721
:102D880008000530A703A00026080A128A119C260D
:102D9800C73E270708002308013A0319A72E033A5C
:102DA8000319B12E013A0319BB2E073A0319C52E90
:102DB800DD2E0530A70A2702031C792E0430A60A47
:102DC80026020318E434782EA000A01FEE2E20035C
:102DD800FF3A080020080800A200A30120082302E7
:102DE8000318080023082207A10084008317800124
:102DF800A30AF22EA6000530A00023080A128A11A1
:102E08009C26C73E2407A50084002608831380005B
:102E18000800A000A1012108B43E8400831700081F
:102E28002006031908001430A10A2102031C0F2FE1
:102E3800A2012208B43E84000008031D292F22089D
:102E4800B43E84002008800008001430A20A220240
:102E5800031808001D2FFF30A900A40120088400D2
:102E68000008A500210884000008A60022088400A4
:102E78000008A700230884000008A800AA012A085F
:102E8800253E8400C8300006031D4D2F2A08013E48
:102E980008002A08253E8400643000020318632FC6
:102EA8002A08253E8400290800020318632F2A08EF
:102EB800253E84000008A9002A08013EA400043029
:102EC800AA0A2A02031C432FFB302902031C6E2F77
:102ED800FF30A40024080800A000A1012108A03E9A
:102EE8008400831700082006031908001430A10A7B
:102EF8002102031C722FA2012208A03E84000008B0
:102F0800031D8C2F2208A03E8400200880000800A2
:102F18001430A20A220203180800802FA1012108F8
:102F2800B43E84000008031DAB2F133021020318A0
:102F3800AB2F2108B53E84000008A0002108B43E4C
:102F48008400200880002108B53E840080011430E8
:102F5800A10A210203180800932FA000A10121084B
:102F6800B43E8400831700082006031DBF2F2108E4
:102F7800B43E840080011430A10A2102031808001D
:102F8800B32FA401A5010530A00024080A128A1154
:102F98009C260A168A11C73E2507A3008400FE3026
:102FA8008313000605300319E72FA00024080A122E
:102FB8008A119C260A168A11C73E2507A300840099
:102FC800053083138001A50A2502031CC72F04308E
:102FD800A40A240203180800C62F840083123608A6
:102FE800831380003A08A3003C08A4003408A50015
:082FF8003508A600831608004D
:02400E003A3F37
:00000001FF
