:060000000A128A110E280D
:10000800FE00030EF6000408F7000A08F8000A16B6
:100018008A115A2F0A128A111128A030F001F90109
:10002800FA01FB01FC01FD0183138400E8300A1684
:100038008A117C260A128A11903083178400B43002
:100048000A168A117C260A128A11D630FD0016304B
:10005800FE00C230FF00B43084000A168A119326CD
:1000680083010A168A110E2FFA210A128A116308CF
:10007800B5006208B4004028403059230A128A119A
:10008800831203133508AD003408AC0098220A1215
:100098008A1101307D2A83120313A5008E300A12BB
:1000A8008A15DF220A128A118312031325080A12FD
:1000B8008A15DF220A128A115F230A128A11A60002
:1000C8006230A4006530A300A30B6828A40B68283D
:1000D8006D2883120313260808000930A5008E3006
:1000E8000A128A15DF220A128A11831203132508BD
:1000F8000A128A15DF220A128A115F230A128A114C
:10010800003A031D01346230A4006530A300A30B3C
:100118008B28A40B8B289028831203130D30A50A73
:1001280025020318003473280330E901EA01EA0ABA
:10013800EB01EC007017F014F01CBB28701FA82806
:100148000830BE200A128A11701BAC280530BE2068
:10015800831203136A08C2006B08C3006C08C4004A
:1001680069080A128A1528230A128A11A028F01889
:1001780008002E2C83120313E600E401E40AE501CB
:10018800E701E801B2210A128A11643083120313CD
:10019800A400A50139210A128A11831203136608E3
:1001A80003192029FA210A128A115C08E3005B0866
:1001B800E2006408A0006508A100620804240A128D
:1001C8008A1102306602031CFD283230A400A50102
:1001D8000A128A1502230A128A11FD28E403F92853
:1001E800E50AF928E40AF928E503E70A0319E80A01
:1001F8001E29831203136808003A031904291E29CB
:100208006708003A0319F228013A0319F428033A57
:100218000319F428013A0319F628073A0319F628AE
:10022800013A0319F828033A0319F828013A03197F
:10023800F2281E29E603D1286808A1006708A00053
:100248003230A200A3010A128A1533260A128A1133
:100258002108E8002008E7006A30E707031CE803E4
:100268006808A5006708A40039290F3093210A12ED
:100278008A11831203132408250403195929071521
:1002880000008312031307110730A7007D30A60072
:10029800A60B4C29A70B4C29013083120313A40287
:1002A8000030031CA503A5023D2900309329B22183
:1002B8000A128A110F3093210A128A11831203132A
:1002C8006208630403198329FA210A128A115C0857
:1002D800E7005B08E6006708A1006608A000102494
:1002E8000A128A11831207150000831203130711DB
:1002F8000130E2020030031CE303E302622900300C
:1003080093210A128A110D3083120313E500FB3082
:10031800E400E40B8D29E50B8D299229080083124E
:100328000313A3004130A100EE30A000A00B9A29CE
:10033800A10B9A290000831203138C112308930040
:100348008C1DA42913088C114130A100EE30A000A7
:10035800A00BAC29A10BAC29000008008316BF0133
:10036800C0010A128A154C260A128A112108D500E2
:100378002008D4000A128A156B260A128A11550819
:100388008316BE00831254088316BD000130F02B7B
:1003980083120313A9008E300A128A15DF220A126B
:1003A8008A118312031329080A128A15DF220A12F6
:1003B8008A115F230A128A11AA005F230A128A117E
:1003C800AB006230A6006530A500A50BE929A60B95
:1003D800E929EE29831203132A08A800A7012B088C
:1003E800A7042808A4002708A30008000430DF0198
:1003F800E001E1000A128A154C260A128A11200827
:10040800DF070318E00A2108E007E1036108031D7C
:10041800FE290430A000A1016008A3005F08A20023
:1004280071232108E0002008DF006008D5005F087C
:10043800D4000A128A156B260A128A115508DE00A2
:100448005408DD00003059230A128A11831203135D
:100458005E08AD005D08AC0098220A128A111A30B5
:100468007D225E08DC005D08DB00080000305923AF
:100478000A128A1119302B230A128A112408AD0096
:100488002308AC0098220A128A112C307D220A1205
:100498008A111A302B230A128A112408AD00230866
:1004A800AC0098220A128A1125307D220A128A117C
:1004B800403059230A128A1116302B230A128A1146
:1004C8002408AD002308AC0098220A128A112930AA
:1004D8007D220A128A116630B6007730B5002430C2
:1004E800B400B40B752AB50B752AB60B752A000033
:1004F800080083120313A300230884000A128A1138
:10050800C9270A128A11003A03190800230884002F
:100518000A128A11C9270A128A111A230A128A1181
:1005280083120313A30A802A2D08B3002C08B200F3
:10053800AE01AF01B001B101273033021030031909
:100548003202031CB62AF030B2070318B30AD830B7
:10055800B307B10AA02A1830B2070318B30AFC304F
:10056800B307B00A03303302E83003193202031C20
:10057800C52AAF2A9C30B2070318B30AFF30B30765
:10058800AF0A00303302643003193202031CD42A44
:10059800BE2AF630B2070318B30AFF30B307AE0A13
:1005A800003033020A30031932020318CD2A2730EB
:1005B8002D02103003192C02031CE72A3108303EA3
:1005C8001A230A128A110330831203132D02E8300A
:1005D80003192C02031CF52A3008303E1A230A128C
:1005E8008A110030831203132D02643003192C0280
:1005F800031C032B2F08303E1A230A128A110030DD
:10060800831203132D020A3003192C02031C112B29
:100618002E08303E1A230A128A11831203132C085B
:100628002D04031908003208303E1A2BA2000911C4
:100638008910091422088800091509110730A1003A
:100648007D30A000A00B262BA10B262B08008312BF
:100658000313A9008E300A128A15DF220A128A11A2
:100668008312031329080A128A15DF220A128A1133
:100678005F230A128A11AA005F230A128A11AB00AB
:100688006230A6006530A500A50B482BA60B482BA9
:100698004D2B831203132A08A800A7012B08A704CF
:1006A8002808A4002708A300080083120313A30046
:1006B800A3172308F02BB6230A128A11031C5F2BF9
:1006C8008B137A08A03E840083130008A000FA0A5E
:1006D8000F30FA058B1720080800A501A11F7B2BF6
:1006E800A009A109A00A0319A10AA501A50AA31F27
:1006F800842BA209A309A20A0319A30A0130A5069B
:10070800A601A701200821040319A92BA401A40A02
:10071800A11B922B0310A00DA10D8B2B0310A60D6E
:10072800A70D21082302031D9B2B20082202031C6E
:10073800A52B2008A2022108031CA303A302261448
:100748000310A10CA00CA40B922B25080319B12BA4
:10075800A609A709A60A0319A70A2708A1002608B7
:10076800A000080083120313981CBE2B1812181639
:100778000310080079087A060319BC2B0314080033
:1007880083120313880189018316880189010130C6
:10079800F0230A128A113830F0230A128A110C3019
:1007A800F0230A128A110630F0230A128A11023045
:1007B800F0230A128A110130F0230A128A113A2210
:1007C8000A128A110130F0230A128A114030592383
:1007D8000A128A110F307D2A83120313A20009110D
:1007E8008910091022088800091509110D30A10087
:1007F800FB30A000A00BFE2BA10BFE2B032C080046
:10080800A300200820072007D93E2107A200840062
:1008180023088313800008002108A3002008A200F1
:10082800230883163E02031D1D2C831222088316FB
:100838003D02031C2A2C831223088316BE00831250
:1008480022088316BD00BF01C0010800BF0A0319B2
:10085800C00A08000030F023640063000800DA30A2
:10086800A300DE30A400E030A500DC30A60083162B
:100878005D088312A700D42D28080319592C2308D2
:10088800840064300002031C4F2C23088400FA30D3
:100898000002031C592C0530A0002808E3250A1281
:1008A8008A11C03EF1250A128A1104302902031860
:1008B800732C2408840064300002031C692C24086B
:1008C8008400FA300002031C732C0530A0002808AD
:1008D800E3250A128A11C63EF1250A128A1103304D
:1008E800280203188D2C2508840064300002031C9C
:1008F800832C25088400FA300002031C8D2C053057
:10090800A0002808E3250A128A11CA3EF1250A1216
:100918008A11290803190800260884006430000297
:10092800031C9C2C26088400FA300002031C0800D3
:100938000530A0002808E3250A128A11C43EF125D3
:100948000800043029020318BF2C230884006430EF
:100958000002031CB52C23088400FA300002031C93
:10096800BF2C0530A0002808E3250A128A11C63ECC
:10097800F1250A128A11033028020318D92C2408F9
:10098800840064300002031CCF2C24088400FA3051
:100998000002031CD92C0530A0002808E3250A1200
:1009A8008A11CA3EF1250A128A1129080319F22C64
:1009B8002508840064300002031CE82C2508840004
:1009C800FA300002031CF22C0530A0002808E325A9
:1009D8000A128A11C43EF1250A128A11280803193D
:1009E80008002608840064300002031C012D260834
:1009F8008400FA300002031C08000530A000280813
:100A0800E3250A128A11C03EF125080003302802A6
:100A18000318242D2308840064300002031C1A2DB7
:100A280023088400FA300002031C242D0530A0009E
:100A38002808E3250A128A11CA3EF1250A128A11EA
:100A4800290803193D2D2408840064300002031C82
:100A5800332D24088400FA300002031C3D2D053094
:100A6800A0002808E3250A128A11C43EF1250A12BB
:100A78008A1128080319562D2508840064300002BD
:100A8800031C4C2D25088400FA300002031C562D47
:100A98000530A0002808E3250A128A11C03EF12576
:100AA8000A128A1104302902031808002608840053
:100AB80064300002031C662D26088400FA30000208
:100AC800031C08000530A0002808E3250A128A1133
:100AD800C63EF125080029080319882D230884003B
:100AE80064300002031C7E2D23088400FA300002C3
:100AF800031C882D0530A0002808E3250A128A1156
:100B0800C43EF1250A128A1128080319A12D2408C8
:100B1800840064300002031C972D24088400FA30F6
:100B28000002031CA12D0530A0002808E3250A12A5
:100B38008A11C03EF1250A128A11043029020318CD
:100B4800BB2D2508840064300002031CB12D250844
:100B58008400FA300002031CBB2D0530A0002808D1
:100B6800E3250A128A11C63EF1250A128A110330BA
:100B78002802031808002608840064300002031CB9
:100B8800CB2D26088400FA300002031C080005302B
:100B9800A0002808E3250A128A11CA3EF125080098
:100BA8002708013A0319402C033A0319A52C013AE6
:100BB80003190A2D073A03196F2DE22D0800A20028
:100BC800A10120082218A1070310A00D0310A20CF0
:100BD8002208031DE52D210808002907AA00840022
:100BE800FF308313800008007F30CD00D430CC0064
:100BF800AE30CB00CB0BFE2DCC0BFE2DCD0BFE2D3E
:100C0800052E47260A128A1127260A128A11522609
:100C18000A128A1118260A128A11C4230A128A1182
:100C280062260A128A11602E3F30831685008130B1
:100C380083129F00023083169F0053308312A00056
:100C4800A00B242E0800302680300A128A15DF22D5
:100C580084300A128A15DF2A8717071318151430EB
:100C680099001813831218138316181283129817F1
:100C7800181683160C128C1698160B17FC01FB011C
:100C8800FA01F90108003E308316031386000B179A
:100C98008B17043081008B168B17080040308316A1
:100CA80003139400203083129400D03083168700F9
:100CB80083120714871408000030682E0A128A1558
:100CC80018260A128A11A72EC80026308400B430CC
:100CD800A2000408A3002230A4002208840083177D
:100CE8000008A500A20A23088400831325088000B1
:100CF800A30AA40B712EC9014908263E84000008E6
:100D0800A000480890260A128A112230C80AC90A87
:100D1800490203180800802EA10003178D00031351
:100D2800200803178C008B1383160C1555308D0083
:100D3800AA308D008C148B170C118C18A12E8312DD
:100D480003130D120800A101A201210821072107A0
:100D5800D93E2207A0008400FA3080000330A20A9E
:100D68002202031CA92E0330A10A2102031808003D
:100D7800A82E3B08BE003C08BF003D08C000031079
:100D88003F0D400DC5004508031DCE2EB801B90121
:100D9800BA0108003808BE003908BF003A08C00088
:100DA80003103F0D400DC6004608031DDF2EB80195
:100DB800B901BA0108008930C201C301C40146075C
:100DC800BE00C5023D08C6003A08C6068030C60502
:100DD8001830BC17BD01B917BA01C1000310C20D04
:100DE800C30DC40D3A083D02031D002F39083C020B
:100DF800031D002F38083B02031C0E2F3808BB02C6
:100E08003908031C390FBC023A08031C3A0ABD0210
:100E180042140310BB0DBC0DBD0DC10BF22E4208D0
:100E2800A0004308A1004408A2004508A300460802
:100E3800A40025272008B8002108B9002208BA0014
:100E48000800230803192D2F220821042004031D5C
:100E5800362FA001A101A2010800A30A0310A20CC9
:100E6800A10CA00CFE3022050319452F312FA30A2F
:100E7800A00A0319A10A0319A20A0310A20CA10CC3
:100E8800A00CFF3022050319532F3B2F02302302F9
:100E9800031C552FA3030310A00DA10DA20DA11F24
:100EA8004A2F231CA1130310A30C2308A700A60193
:100EB800A5012508A0042608A1042708A2042408DF
:100EC800031DA2170800C2270A128A1103104C0D2D
:100ED8004D0DD3005308031D762FC701C801C90162
:100EE800CA010800C2270A128A1117300310CD0C54
:100EF800CC0CCB0CFF3E031D7A2F4B08CE00C81735
:100F0800C9014708CF004808D0004908D1008E30F1
:100F1800D201D302D31F9D2F5308803A8F3E031C62
:100F2800712F0310D20CD10CD00CCF0CD30F952FEE
:100F3800AB2F183053020318712F53080319AB2F26
:100F48000310CF0DD00DD10DD20DD303A12F4E0814
:100F58000319B92FCF09D009D109D209CF0A03192A
:100F6800D00A0319D10A0319D20A5208CA00510833
:100F7800C9005008C8004F08C70008004708CB0040
:100F88004808CC004908CD00080007308A0004084A
:100F9800840A820700346D346D342034643472342A
:100FA8006934763465346E34203420342034203467
:100FB800003430346D346D34203464347234693420
:100FC800763465346E34003463346D3420344934F7
:100FD80052342034203420342034203400346D340A
:100FE8004134683400346D34563400342F340034BE
:10100400831603139030E801E901ED01EE01C101FB
:10101400C2018312E2000130E3000A128A115B214B
:101024000A128A158316031340088312A500831637
:101034003F088312A40002230A128A150D3083127A
:101044000313EA00AF30E900C130E800E80B2828B8
:10105400E90B2828EA0B2828000000308316031324
:101064004002C93003193F026430031C6B28831209
:10107400A6009030A701A0000130A10083163F080C
:101084008312A002831640088312031CA103A10249
:101094005A30A200A30133262108A9002008A80081
:1010A4000A168A11E4260A128A1527088316EB0009
:1010B400831226088316EA00C8308312A30038304E
:1010C400A401A500FF30A600BA220A128A15F01363
:1010D40096288312A600A701831640088312A10054
:1010E40083163F088312A0005A30A200A3013326BE
:1010F4002108A9002008A8000A168A11E4260A1269
:101104008A1527088316EB00831226088316EA0043
:1011140038308312A300FF30A400C830A500A60114
:10112400BA220A128A15F017831603136908803A43
:101134008312E80083166B08803A83126802031D49
:10114400A62883166A0868020318BF2814300A12F6
:101154008A11CC210A128A152408AD002308AC0098
:101164002F250A128A152C088316E8070318E90AA2
:1011740083122D088316E907962883120313A3010B
:10118400A401A501A601BA220A128A1515308312F8
:101194000313EA004B30E900D130E800E80BD02813
:1011A400E90BD028EA0BD0280000903083120313F7
:1011B400A4000130A50083163F088312A4028316FD
:1011C40040088312031CA503A50202230A128A15F0
:1011D400C83083120313A300A401A500A601BA22F8
:1011E4000A128A150030831603136E023330031972
:1011F4006D02031C19294C260A128A152108D500F0
:101204002008D4006B260A128A1555088316EE00AE
:10121400831254088316ED006E088312B5008316FA
:101224006D088312B400ED270A128A15F42883127C
:10123400A301A401A501A601BA220A128A15153038
:1012440083120313EA004B30E900D130E800E80BC5
:101254002929E90B2929EA0B29290000F01F3E2935
:10126400C83083120313A3003830A401A500FF3053
:10127400A600BA220A128A15F01B4C2938308312B0
:101284000313A300FF30A400C830A500A601BA22AE
:101294000A128A1583160313EA01EB016B08803ADC
:1012A400FF0080307F02031D59295A306A02031857
:1012B400722914300A128A11CC210A128A152408C0
:1012C400AD002308AC002F250A128A152C088316BA
:1012D400EA070318EB0A83122D088316EB0750293B
:1012E40083120313A301A401A501A601BA220A12C1
:1012F4008A15153083120313EA004B30E900D1300C
:10130400E800E80B8329E90B8329EA0B8329000011
:10131400F01F9429323083120313A400A501022381
:101324000A128A15F01BA029323083120313A40079
:10133400A5010A128A1139210A128A15701083161E
:101344000313BB01BC0183160313EC014C260A12E0
:101354008A152108D5002008D4006B260A128A15A4
:1013640055088316EE00831254088316ED006E08A8
:101374008312B50083166D088312B400ED270A1298
:101384008A1570189D2A003083166E02473003199F
:101394006D02031CD42915303C027C3003193B0236
:1013A4000318EC0100306E02473003196D02031C70
:1013B400E42915303C027C3003193B020318E4296C
:1013C400EC01EC0A00306E02303003196D02031890
:1013D400ED290230EC0000306E02303003196D024A
:1013E400031CFD2900306E02473003196D020318F7
:1013F400FD290330EC00F01B312A3F2AB030831260
:10140400A300FF30A400C830A500A601BA220A1226
:101414008A153F2A96308312A300C830A401A50080
:10142400A601BA220A128A153F2AC8308312A300E1
:10143400A630A401A500FF30A600BA220A128A151C
:1014440083160313BB01BC013F2AC8308312A300D7
:10145400A401A500A601BA220A128A153F2A6C0823
:10146400003A0319002A013A03190C2A033A031912
:10147400172A013A0319272A3F2AF01F732A832ABD
:10148400C8308312A300B030A401A500FF30A60029
:10149400BA220A128A15832AC8308312A30096300E
:1014A400A401A500A601BA220A128A15832AA6302D
:1014B4008312A300FF30A400C830A500A601BA22FD
:1014C4000A128A1583160313BB01BC01832AC83090
:1014D4008312A300A401A500A601BA220A128A1548
:1014E400832A831603136C08003A0319422A013A2B
:1014F40003194E2A033A0319592A013A0319692A8E
:10150400832A07300A128A114F200A128A15003AD8
:10151400031D9C2A0A128A1171200A128A15003AA4
:10152400031D9C2A0D300A168A11A0260A128A1558
:10153400003A031D7014F01F701CAA2AB030A300D7
:10154400FF30A400C830A500A601BA220A128A15E9
:10155400F01B701CA529C83083120313A300B030FC
:10156400A401A500FF30A600BA220A128A15A529F3
:10157400A801A901AA012408A7002308A800260895
:10158400A9002508AA009130DF220A128A158312C5
:1015940003132708DF220A128A158312031328086B
:1015A400DF220A128A15831203132908DF220A1282
:1015B4008A15831203132A08DF2A83120313A20055
:1015C4007B08013E0F397C060319E22A8B137B0842
:1015D400903E840083120313220883178000FB0AC1
:1015E4000F30FB0583160C168B1721308312A100D4
:1015F4007630A000A00BFC2AA10BFC2A00000800F6
:101604000D300A128A1193210A128A1583120313C8
:10161400240825040319242B07150000831203133F
:1016240007110730A7007D30A600A60B172BA70BC8
:10163400172B013083120313A4020030031CA503EB
:10164400A502082B00300A128A119329C80005301C
:10165400CC01A00043080A128A11E3250A128A1554
:10166400C53E4407C9000530A00048080A128A1183
:10167400E3250A128A15C53E4207CB00CA01C601FA
:1016840049060319003418260A128A154808A300CB
:101694004208A400643051250A128A154308A300A5
:1016A4004408A400C83051250A128A15A030A000AD
:1016B4000130A1001430A2003D250A128A15E2303F
:1016C400A0000630A101A2003D252330840083162A
:1016D400300883138000840A31088000840A3208A9
:1016E4008000840A33088000840A3408800083124E
:1016F4004808A8004208A9000A128A1133240A12D1
:101704008A154B0860250A128A1583166208031984
:10171400282CFF308312C700CD014D08E23E84001F
:1017240000080319AA2B4D08E23E84000008840037
:10173400470800020318AA2B4D08E23E8400000863
:1017440084000008C7004D08E23E84000008CC0075
:101754000630CD0A4D02031C8F2B4C0805260A12B5
:101764008A15A301A30A4C08BD240A128A158316FC
:10177400B50002308312A3004C08BD240A128A1556
:101784008316B60003308312A3004C08BD240A124A
:101794008A158316B70004308312A3004C08BD24B5
:1017A4000A128A158316B80083124908B0004B0840
:1017B400B1004308B2004408B30083163508472437
:1017C4000A128A15C50083163508DE270A128A15FF
:1017D400360847240A128A15C50083163608DE2700
:1017E4000A128A15370847240A128A15C500831677
:1017F4003708DE270A128A15380847240A128A1580
:10180400C5008316380884008312450883138000BA
:101814004608031D212C831638088312A30083165F
:1018240037088312A200831636088312A100831698
:1018340035088312A00082250A128A15CA0083166D
:1018440035088400C8300006031D2B2C83124A0877
:10185400080036088400C83000060319282C37080D
:101864008400C83000060319282C38088400C830C6
:1018740000060319282C83124C08C3250A128A1562
:10188400E5250A128A15C60A872B8312C100B701FF
:10189400B70ABA01BB01BC01701184008313000FA5
:1018A400542CFF3441087D3A0319FF3441083006B3
:1018B4000319C8344108310603196434BF01C00157
:1018C4000530A0003F080A128A11E3250A128A157E
:1018D400C53E4007B4004106031D752C3F08BB00FC
:1018E4004008BC007A2C0530C00A4002031C622C5C
:1018F4000430BF0A3F02031C612C32083B02B900CA
:1019040033083C02BA003908AC00AD012F250A1295
:101914008A152C08B4002D08B5003A08AC00AD01B6
:101924002F250A128A152C083407B6003708360703
:10193400B800BD013D08E23E84004108831300065F
:10194400031970150630BD0A3D02031C9C2CBE0110
:101954003E08A03E84004108831700060319701551
:101964001430BE0A3E02031CAA2C7019BB2C410879
:10197400602538080800A500A601A7010530A000CD
:1019840026080A128A11E3250A128A15C53E27077A
:10199400A4002506031D242D2608031DDE2C230B7D
:1019A400DE2C7D340330230603197D34E22C04300D
:1019B400230603197D34E52C033026060319D42CA1
:1019C40027080319D92C04302706031D162D0230CD
:1019D400230603197D34162D0530A603A00026081E
:1019E4000A128A11E325C53E270708000530A70A15
:1019F400A00026080A128A11E325C53E270708001D
:101A04000530A60AA00026080A128A11E325C53E5D
:101A1400270708000530A703A00026080A128A1128
:101A2400E325C53E270708002308013A0319EE2CD5
:101A3400033A0319F82C013A0319022D073A031942
:101A44000C2D242D0530A70A2702031CC02C0430BA
:101A5400A60A260203187D34BF2CAD1F08002C09EA
:101A6400AE002D09AF00AE0A0319AF0A2E08AC0070
:101A74002F08AD000800A50122082502031808005C
:101A840025082007A30021080318013EA400230809
:101A940084008317241C83138001A50A3E2DA6000D
:101AA4000530A00023080A128A11E325C53E240745
:101AB400A50084002608831380000800A000A1016B
:101AC4002108E23E8400831300082006031908005D
:101AD4000630A10A2102031C622DA2012208E23E63
:101AE40084000008031D7C2D2208E23E84002008A7
:101AF400800008000630A20A220203180800702D94
:101B0400FF30A900A401200884000008A5002108D2
:101B140084000008A600220884000008A700230807
:101B240084000008A800AA012A08253E8400C830C1
:101B34000006031DA02D2A08013E08002A08253EA0
:101B44008400643000020318B62D2A08253E840060
:101B5400290800020318B62D2A08253E840000082F
:101B6400A9002A08013EA4000430AA0A2A02031C80
:101B7400962DFB302902031CC12DFF30A40024083C
:101B84000800A000A1012108A03E840083170008DA
:101B94002006031908001430A10A2102031CC52DD4
:101BA400A2012208A03E84000008031DDF2D2208A4
:101BB400A03E84002008800008001430A20A2202FB
:101BC40003180800D32DA1012108E23E84008313E9
:101BD4000008031DFF2D053021020318FF2D2108E5
:101BE400E33E84000008A0002108E23E84002008AF
:101BF40080002108E33E840080010630A10A21020E
:101C040003180800E62DA000A1012108E23E84008B
:101C140000082006031D122E2108E23E84008001E4
:101C24000630A10A210203180800072EA401A50109
:101C34000530A00024080A128A11E3250A128A1525
:101C4400C53E2507A3008400053083138001A50A3F
:101C54002502031C1A2E0430A40A240203180800C7
:101C6400192EA401A501201C3D2E2208A407031847
:101C7400A50A2308A5070310A20DA30D0310A10CA8
:101C8400A00C20082104031D352E2508A1002408DA
:101C9400A0000800831203131F151F194F2E1E08DE
:101CA400A300A4010310A30DA40D0310A30DA40D00
:101CB40083161E088312A20006300310A20CFF3EF6
:101CC400031D5F2E2208A3042408A1002308A000FA
:101CD40008005508803AFF0081307F02031D742EEE
:101CE400F5305402031C9A2E831203135508A900DD
:101CF4005408A800FF260A128A152808AF002908EC
:101D0400B0002A08B1000D30AC00BC30AD00C330C7
:101D1400AE001C270A128A152C08BB002D08BC0033
:101D24002E08BD008030B8001D30B9004530BA2EF1
:101D3400831203135508A9005408A800FF260A12A9
:101D44008A152808AF002908B0002A08B100F0302D
:101D5400AC01AD00C030AE001C272C08BB002D0820
:101D6400BC002E08BD000C30B8003A30B900463033
:101D7400BA000A128A11BD260A128A153808D6003A
:101D84003908D7003A08D8008030BB01BC003F3086
:101D9400BD005608B8005708B9005808BA000A121E
:101DA4008A11BD260A128A153808C7003908C800E6
:101DB4003A08C9000A128A1167270A128A154808C4
:101DC400DA004708D9005A08803AFF0080307F02C1
:101DD400031DEE2EAB3059020318F42E83120313A5
:101DE400DA1FFA2EAA3083120313D400D501080097
:101DF4005A08D5005908D4000800AB01A91F092FBF
:101E0400A809A909A80A0319A90AAB01AB0A280859
:101E1400A0002908A1008E30A201A3002B08A40071
:101E24000A128A1125272008A8002108A9002208DF
:101E3400AA0008002C08B2002D08B3002E08B40034
:101E44000310330D340DB7002F08B2003008B3006F
:101E54003108B4000310330D340DB60037080319EC
:101E64003F2F3608370236080318472FB2003708C9
:101E7400B20219303202031C462F2F08AC0030087E
:101E8400AD003108AE000800360803190800370811
:101E940036020318552F3708B2003608B20219303B
:101EA4003202031808000630B500AE1BB517B11B8B
:101EB4003517AD17AE01B017B10136083702031854
:101EC4007C2F0310AF0DB00DB10DB60336083706E5
:101ED4000319772FB503350807390319772F632FB3
:101EE4000310AE0CAD0CAC0CB70A37083606031958
:101EF400982F722F370836020318982F0310AC0D51
:101F0400AD0DAE0DB703360837060319942FB5038C
:101F1400350807390319942F802F0310B10CB00C26
:101F2400AF0CB60A37083606031D8F2FB51FA32F33
:101F3400FF30AC06AD06AE06AC0A0319AD0A0319B0
:101F4400AE0A351FAE2FFF30AF06B006B106AF0A9A
:101F54000319B00A0319B10AB5012C08AF072D08FB
:101F6400031103182D0A031DB0072E0803110318CB
:101F74002E0A031DB107B11FCA2FFF30AF06B006EA
:101F8400B106AF0A0319B00A0319B10AB501B50ABB
:101F94002F08A0003008A1003108A2003708A300D0
:101FA4003508A4000A128A1125272008AC0021084C
:101FB400AD002208AE000800840083124508831394
:101FC40080004908B0004B08B1004308B20044083F
:101FD400B3008316080000300A128A1159230A122A
:101FE4008A15831203133508AD003408AC000A12B5
:0C1FF4008A1198221A300A128A117D2AE4
:102CF80064008001840A04060319003404067D2E4A
:102D0800A00003178D0083168C130C1483120C0873
:102D18000313A10008007E088A007F0882008F261E
:102D28000A168A118000840A04087D0603190034F3
:102D3800FF0A0319FE0A932EA5008E300A128A157F
:102D4800DF220A168A118312031325080A128A152C
:102D5800DF220A168A110A128A115F230A168A11BB
:102D6800A6006230A4006530A300A30BB92EA40B03
:102D7800B92EBE2E8312031326080800003410341F
:102D880048342034483420344834203448342034FB
:102D980048342034483420344834203448342034EB
:102DA80048342034483420344834203448342034DB
:102DB80048342034483420344834203448342034CB
:102DC800AA01AB01260827040319092FAC01AC0A94
:102DD800A71BF22E0310A60DA70DEB2E0310AA0DAC
:102DE800AB0D27082902031DFB2E26082802031C09
:102DF800052F2608A8022708031CA903A9022A14DC
:102E08000310A70CA60CAC0BF22E2B08A7002A085F
:102E1800A60008000A128A11F8250A168A1101303C
:102E28000A168A1184260A168A118316EF000030C2
:102E38000A128A1159230A168A11831603136F0876
:102E48008312AC00AD010A128A1198220A168A115F
:102E58007F3083120313EF00D430EE00AE30ED0064
:102E6800ED0B342FEE0B342FEF0B342F3B2F831643
:102E7800031342088312E300831641088312E20019
:102E88000A128A1138200A168A11F01D512F0A12C7
:102E98008A1198200A168A11F011701E3B2F0A1207
:102EA8008A1502200A168A1170123B2F8312031307
:102EB8008C1E702F7908A03E84001A0883138000A6
:102EC8007908013E8316C4000F30C40544087A0609
:102ED8000319702F4408F90083120C1E852F8316DE
:102EE8000C1E852F7C08903E8400831700088312EF
:102EF8009900FC0A0F30FC057C087B068316031931
:102F08000C120B1DC92F0B1164308312810083161C
:102F1800B90A0319BA0ABB0A0319BC0AF430F1004A
:102F28000130F2003A08F4003908F300DC270A16E9
:102F38008A1171087204031DA72F013083128606B7
:102F48008316B901BA018312861CAC2F861AC62FC4
:102F58008316C30A4308D2270A168A11031CB92FFD
:102F680083128618B92FF012F01583164308D2275A
:102F78000A168A11031CC92F8312861AC92FF01248
:102F88007016C92F8316C301F01678088A007708CF
:102F98008400760E8300FE0E7E0E0900F1000B30D1
:102FA80071020318F01EDA2F03140800031008003A
:102FB800710872040319FB2FF501F50AF21BE82FBB
:102FC8000310F10DF20DE12F72087402031DEE2FAC
:102FD80071087302031CF72F7108F3027208031CAF
:102FE800F403F4020310F20CF10CF50BE82F74084B
:082FF800F2007308F10008006B
:02400E003A3F37
:00000001FF
