:060000000A128A110E280D
:10000800FE00030EF8000408F9000A08FA000A12B4
:100018008A11402F0A128A111128A030F001F1012B
:10002800F201FB01FC01FD0183138400D7300A169D
:100038008A15E2260A128A11903083178400D83074
:100048000A168A15E22683010A168A152B2F5A21C9
:100058000A128A116308B5006208B400442A7F3086
:10006800B900D430B800AE30B700B70B3928B80B98
:100078003928B90B392840287F200A128A115F20B5
:100088000A128A118A200A128A1150200A128A1129
:10009800D6240A128A1198283F30831685008130A9
:1000A80083129F00023083169F0053308312A000F2
:1000B800A00B5C280800682080300A128A152B23C0
:1000C80084300A128A152B2B87170713181514303A
:1000D800990018138312181383161812831298178D
:1000E800181683160C128C1698160B17FD01B701FB
:1000F800FC01FB0108003E308316031386000B1732
:100108008B17043081008B168B170800403083163C
:1001180003139400203083129400D0308316870094
:1001280083120714871408000A168A11A7210A12D5
:100138008A11FB29E1210F300A128A1561260A1259
:100148008A1183120313620863040319C6285A210B
:100158000A128A115C08E7005B08E6006708A1003C
:100168006608A00026220A128A11831207150000C9
:100178008312031307110130E2020030031CE3036A
:10018800E302A52800300A128A1561260A128A118C
:100198000D3083120313E500FB30E400E40BD22892
:1001A800E50BD228D728080083120313E800E601DC
:1001B800E60AE701E901EA01E12164308312031349
:1001C800A400A5010A128A15F7220A128A11FB2136
:1001D8000A128A11680803194329A330E30055302D
:1001E800E200E20BF528E30BF5285A210A128A11DE
:1001F8005C08E5005B08E4006608A0006708A10049
:1002080064081A220A128A1102306802031C202983
:100218003230A400A5010A128A1571230A128A1124
:100228002029E6031C29E70A1C29E60A1C29E703FA
:10023800E90A0319EA0A4129831203136A08003AF2
:100248000319272941296908003A03191529013A90
:1002580003191729033A03191729013A0319192908
:10026800073A03191929013A03191B29033A0319F3
:100278001B29013A031915294129E803EE286A08C0
:10028800A1006908A0003230A200A301F2252108CC
:10029800EA002008E9006A30E907031CEA036A0853
:1002A800A5006908A4000A128A15F72A8312031305
:1002B8000430DF01E001E1000A128A1580260A12E3
:1002C8008A112008DF070318E00A2108E007E10384
:1002D8006108031D60290430A000A1016008A30083
:1002E8005F08A2009C212108E0002008DF006008C8
:1002F800D5005F08D4000A128A159F260A128A11AF
:100308005508DE005408DD000030D0240A128A1196
:10031800831203135E08AD005D08AC0031250A1294
:100328008A11253016255E08DC005D08DB00080010
:10033800A501A11FA629A009A109A00A0319A10ABC
:10034800A501A50AA31FAF29A209A309A20A031997
:10035800A30A0130A506A601A70120082104031954
:10036800D429A401A40AA11BBD290310A00DA10D25
:10037800B6290310A60DA70D21082302031DC629BF
:1003880020082202031CD0292008A2022108031CED
:10039800A303A30226140310A10CA00CA40BBD29CF
:1003A80025080319DC29A609A709A60A0319A70A1B
:1003B8002708A1002608A00008008316B101B20191
:1003C8000A128A1580260A128A112108D5002008E7
:1003D800D4000A128A159F260A128A115508831614
:1003E800B000831254088316AF000130022D831227
:1003F8000313A101A20136260A128A1183130008E9
:100408008316510603190E2A831236260A128A11F8
:10041800FA30800083120330A20A2202031CFF294B
:100428000330A10A210203180800FE29A3002008AE
:1004380020072007CD3E2107A2008400230883134C
:10044800800008002108A3002008A20023088316C2
:100458003002031D332A8312220883162F02031C3D
:10046800402A831223088316B000831222088316B9
:10047800AF00B101B2010800B10A0319B20A0800BD
:100488004030D0240A128A11831203133508AD00B4
:100498003408AC0031250A128A110130162D0030BB
:1004A800D0240A128A111930C0250A128A11240888
:1004B800AD002308AC0031250A128A113C301625FC
:1004C8000A128A111A30C0250A128A112408AD00AE
:1004D8002308AC0031250A128A11353016250A1274
:1004E8008A114030D0240A128A111630C0250A1207
:1004F8008A112408AD002308AC0031250A128A119C
:10050800393016250A128A116630B6007730B500E0
:100518002430B400B40B8E2AB50B8E2AB60B8E2A63
:10052800000008008316D130DC01DD01DE00023056
:10053800DF01DF0AE0000330D801D900DA01D70172
:100548005E0884000230831380007116F015F01DD8
:100558000800711EB32A0830D8200A128A11711AAD
:10056800B72A0530D8208316031360088312B30016
:10057800831658088312B400831659088312B500ED
:1005880083165F080A168A1106200A128A11831632
:10059800E100013002250A128A1183160313E201D1
:1005A800043062020318322B62080319DF2A023072
:1005B8006206031DE32A0030D0240A128A1183162A
:1005C800031362030319EC2A03306206031DF02AA1
:1005D8004030D0240A128A1183160313DB01053038
:1005E8005B020318152B05308312A00083166208DE
:1005F8000A168A11AF260A128A11B93E83165B07BA
:100608008312ED00840083130008AC00AD0131258E
:100618000A128A112E3016250A128A118316DB0A4D
:10062800F32A6203031D262B4D308312EF00193085
:10063800EE009A30ED00ED0B1F2BEE0B1F2BEF0B8E
:100648001F2B262B83160313620B2E2B013002253A
:100658000A128A1183160313E20AD42A4D30831230
:10066800EF001930EE009A30ED00ED0B392BEE0B50
:10067800392BEF0B392B402B013002250A128A1136
:100688000030D0240A128A118316031361088312DA
:10069800AC00AD01AC1BAD0331250A128A111A302A
:1006A80016250A128A113330EF00BC30EE001030E4
:1006B800ED00ED0B5D2BEE0B5D2BEF0B5D2B831629
:1006C80003136108031D772B5A08031D712B033090
:1006D800D801D80AD900DA0AF52B5A0BF52B0330C2
:1006E800D800D9016F2B610FAC2BB430DC00DD01D1
:1006F800872B0330852B0430852BE101E10A982BE9
:100708000230E100982B5E08840083130008013A48
:1007180003197D2B033A03197F2B013A0319812B07
:10072800073A0319842B982B05308312A0008316EF
:100738005F080A168A11AF260A128A11B93E831673
:1007480060078312ED008400FE3083138000F52BD0
:100758005E088400831300088312A000A101831699
:1007680061088312ED00EE01ED1BEE03A0026E0896
:10077800031CA103A1025A30A200A301F2250A1208
:100788008A1121088316DD00831220088316DC00F5
:100798005D08803AFF0080307F02031DD52BB530FD
:1007A8005C02031CDF2B983083160313DC07031845
:1007B800DD0AFE30F32B831603135D08803AFF0031
:1007C8007F307F02031DEA2B4C305C020318F42BA8
:1007D800683083160313DC070318DD0A0130DD07D0
:1007E8007112013002250A128A110030D0240A122F
:1007F8008A11831603135D088312AD0083165C0803
:100808008312AC0031250A128A11303016250A12DB
:100818008A113330EF00BC30EE001030ED00ED0BE4
:10082800132CEE0B132CEF0B132C831603135D08FC
:100838008312B10083165C088312B0000A128A156D
:1008480002200A128A11831603135E0884006108C5
:1008580083138000E8308312E2000330E30083163C
:100868005F088312E400831660088312E50083168C
:100878005E08840000088312E6000A128A158F2099
:100888000A128A114F2CDF035F2CE00A5F2CDF0A63
:100898005F2CE0035F2C831603136108013A0319E8
:1008A800472C033A0319492C013A03194B2C073AF0
:1008B80003194D2C5F2C721C722C60088312A30044
:1008C800D830A400D930A500A60183165708831292
:1008D800A70083165F080B260A128A11F11FAB2A9C
:1008E800701D892C05308312A00083165F080A1634
:1008F8008A11AF260A128A11B93E8316600783123D
:10090800ED008400FD3083138000F01C9E2C053020
:100918008312A00083165F080A168A11AF260A12EE
:100928008A11B93E831660078312ED008400FC30FB
:1009380083138000F21CBC2C05308312A0008316A0
:100948005F080A168A11AF260A128A11B93E831661
:1009580060078312ED008400FB3083138000BC2CF9
:10096800DF0ACB2CE003CB2CDF03CB2CE00ACB2C0B
:1009780083166108013A0319B42C033A0319B62CFB
:10098800013A0319B82C073A0319BA2CCB2CF113E6
:10099800F210F0107011AB2A83120313A300A317EF
:1009A8002308022D83120313880189018316880105
:1009B8008901013002250A128A11383002250A12EB
:1009C8008A110C3002250A128A11063002250A12F1
:1009D8008A11023002250A128A11013002250A12F0
:1009E8008A1153220A128A11013002250A128A1129
:1009F8004030D0240A128A110F30162D83120313A7
:100A0800A200091189100910220888000915091186
:100A18000D30A100FB30A000A00B102DA10B102D54
:100A2800152D080083120313A300230884000A1657
:100A38008A1500200A128A11003A031908002308AF
:100A480084000A168A1500200A128A11AF250A1294
:100A58008A1183120313A30A192D2D08B3002C0839
:100A6800B200AE01AF01B001B1012730330210303E
:100A780003193202031C4F2DF030B2070318B30AD2
:100A8800D830B307B10A392D1830B2070318B30AA2
:100A9800FC30B307B00A03303302E83003193202DE
:100AA800031C5E2D482D9C30B2070318B30AFF3093
:100AB800B307AF0A00303302643003193202031C53
:100AC8006D2D572DF630B2070318B30AFF30B30760
:100AD800AE0A003033020A30031932020318662DB9
:100AE80027302D02103003192C02031C802D3108E9
:100AF800303EAF250A128A110330831203132D02E8
:100B0800E83003192C02031C8E2D3008303EAF2527
:100B18000A128A110030831203132D02643003195C
:100B28002C02031C9C2D2F08303EAF250A128A1177
:100B38000030831203132D020A3003192C02031C00
:100B4800AA2D2E08303EAF250A128A1183120313EC
:100B58003208303EAF2DA20009118910091422086D
:100B68008800091509110730A1007D30A000A00BED
:100B7800BB2DA10BBB2D080083120313A9008E30D7
:100B88000A128A152B230A128A11831203132908C1
:100B98000A128A152B230A128A110A128A15192396
:100BA8000A128A11AA000A128A1519230A128A112E
:100BB800AB006230A6006530A500A50BE12DA60BA1
:100BC800E12DE62D831203132A08A800A7012B089C
:100BD800A7042808A4002708A3000800A401A50169
:100BE800201CFC2D2208A4070318A50A2308A50722
:100BF8000310A20DA30D0310A10CA00C20082104C2
:100C0800031DF42D2508A1002408A0000800831264
:100C1800A8002708031D1D2E0530A00028080A1665
:100C28008A11AF26B93E23078316B8008312A70A94
:100C38000800270B08000530A00028080A168A11AA
:100C4800AF260A128A11B93E2307831638060319FC
:100C5800080005308312A00028080A168A11AF265A
:100C6800A70A0800210821072107CD3E2207A00076
:100C7800840008002C08B2002D08B3002E08B40028
:100C88000310330D340DB7002F08B2003008B3003D
:100C98003108B4000310330D340DB60037080319BA
:100CA800612E3608370236080318692EB200370855
:100CB800B20219303202031C682E2F08AC0030082B
:100CC800AD003108AE0008003608031908003708DF
:100CD80036020318772E3708B2003608B2021930E8
:100CE8003202031808000630B500AE1BB517B11B59
:100CF8003517AD17AE01B017B10136083702031822
:100D08009E2E0310AF0DB00DB10DB6033608370691
:100D18000319992EB503350807390319992E852E1D
:100D28000310AE0CAD0CAC0CB70A37083606031925
:100D3800BA2E942E370836020318BA2E0310AC0DBB
:100D4800AD0DAE0DB703360837060319B62EB50339
:100D5800350807390319B62EA22E0310B10CB00CB2
:100D6800AF0CB60A37083606031DB12EB51FC52EBF
:100D7800FF30AC06AD06AE06AC0A0319AD0A03197E
:100D8800AE0A351FD02EFF30AF06B006B106AF0A47
:100D98000319B00A0319B10AB5012C08AF072D08C9
:100DA800031103182D0A031DB0072E080311031899
:100DB8002E0A031DB107B11FEC2EFF30AF06B00697
:100DC800B106AF0A0319B00A0319B10AB501B50A89
:100DD8002F08A0003008A1003108A2003708A3009E
:100DE8003508A400FE262008AC002108AD00220822
:100DF800AE00080023080319062F22082104200446
:100E0800031D0F2FA001A101A2010800A30A0310CE
:100E1800A20CA10CA00CFE30220503191E2F0A2FCC
:100E2800A30AA00A0319A10A0319A20A0310A20C13
:100E3800A10CA00CFF30220503192C2F142F02300F
:100E48002302031C2E2FA3030310A00DA10DA20D36
:100E5800A11F232F231CA1130310A30C2308A700F1
:100E6800A601A5012508A0042608A1042708A204B4
:100E78002408031DA2170800831203138C1E562F83
:100E88007B08903E84001A08831780007B08013E87
:100E98008316B6000F30B60536087C060319562FA0
:100EA8003608FB0083120C1E6B2F83160C1E6B2F4B
:100EB8007D08A03E84008317000883129900FD0A6C
:100EC8000F30FD057D088316370603190C120B1D1C
:100ED800B22F0B116430831281008316A90A0319FB
:100EE800AA0AAD0A0319AE0AAB0A0319AC0AF43010
:100EF800F3000130F4002A08F6002908F500C52798
:100F08000A128A1173087404031D902F013083128A
:100F180086068316A901AA018312861C952F861AB4
:100F2800AF2F8316B50A3508BB270A128A11031C8E
:100F3800A22F83128618A22FF111F11483163508F7
:100F4800BB270A128A11031CB22F8312861AB22FEA
:100F5800F1117115B22F8316B501F1157A088A00BF
:100F680079088400780E8300FE0E7E0E0900F300D7
:100F78000B3073020318F11DC32F0314080003106C
:100F88000800730874040319E42FF701F70AF41B27
:100F9800D12F0310F30DF40DCA2F74087602031D28
:100FA800D72F73087502031CE02F7308F502740825
:100FB800031CF603F6020310F40CF30CF70BD12F05
:100FC8007608F4007508F3000800A000A1012108C4
:100FD800C43E8400831700082006031DF72F21084C
:100FE800C43E840080011430A10A210203180800BD
:020FF800EB2FDD
:10100400B501B6013108803AFF0080307F02031D2C
:101014000D2801303002031C1628C830E2270A12BA
:101024008A151B260A128A1583120313B11F21285D
:101034003830F9270A128A151B260A128A15EB275B
:101044000A128A1540260A128A1535081E3EB20075
:1010540036080318013EB300803AB4002D08803AE4
:101064003402031D37282C08320203184828143090
:10107400CD220A128A152408AD002308AC004026AC
:101084000A128A15F2270A128A15212883120313D9
:101094003108803AFF0080307F02031D532801305D
:1010A4003002031C5C280A30E2270A128A151B2628
:1010B4000A128A1583120313B11F6728F630F92721
:1010C4000A128A151B260A128A15EB270A128A1598
:1010D40040260A128A153608803AB2002D08803A52
:1010E4003202031D77282C0835020318882814308F
:1010F400CD220A128A152408AD002308AC0040262C
:101104000A128A15F2270A128A1567288312031312
:10111400A301A401A501A6011B2EEB01EC01E8012A
:10112400F0137013F01270163230A400A501F722E8
:101134000A128A1583160313AB01AC018312640BE4
:10114400AC2802306506031DAC2802306606031D78
:10115400AC28F116F11E3F2A4D2AC830831203131E
:10116400A300A401A500A6011B260A128A151330A8
:10117400CD222308EB070318EC0A2408EC070A1213
:101184008A115A210A128A155C08EA005B08E900F0
:101194000730B6270A128A15003A031DF0144E23AD
:1011A400003A031D70150D300A168A1509270A1214
:1011B4008A15003A031DF21411300A168A154F27B6
:1011C4000A128A15003A031D7214701DF018EC28D7
:1011D400F21C2929F1177117A301A401A501A60185
:1011E4001B260A128A15831203133830EB01EC0113
:1011F400A300FF30A4003830A500FF30A6001B2652
:101204000A128A15831203136C08803AFF007E3099
:101214007F02031D0F290D306B02031C2329133099
:10122400CD220A128A152308EB070318EC0A2408B6
:10123400EC076C08B5006B08B4004E260A128A1538
:101244000429831203136308EC006208EB000030E6
:1012540083162C02C93003192B02031C3F2A831264
:101264006A08803AFF0080307F02031D3B2950301A
:101274006902031C402983120313E8018312031338
:101284006A08803AFF0080307F02031D4B293A3000
:1012940069020318512983120313E801E80A83122F
:1012A40003136A08803AFF0080307F02031D5C2923
:1012B4003F306902031C6F29831203136A08803AC2
:1012C400FF0080307F02031D692950306902031832
:1012D4006F29023083120313E800831203136A0890
:1012E400803AFF0080307F02031D7A293A30690278
:1012F400031C8D29831203136A08803AFF0080308F
:101304007F02031D87293F30690203188D290330AA
:1013140083120313E800701AB329C329F01670125C
:101324000330F017E800C3299630A300C830A401A5
:10133400A500A6011B260A128A15C329C830A300DA
:101344009630A401A500A6011B260A128A15C329FA
:10135400C830A300A401A500A6011B260A128A1501
:10136400C329831203136808003A03199029013A28
:1013740003199629033A0319A029013A0319AA2942
:10138400C329F01E062AF01FF629643083120313C2
:10139400A400A50171230A128A15F01383160313FE
:1013A400AB01AC01F6297017F012F017062AC83009
:1013B400A3009630A401A500A6011B260A128A15D3
:1013C400062A9630A300C830A401A500A6011B2656
:1013D4000A128A15062AC830A300A401A500A60192
:1013E4001B260A128A15062A831203136808003A78
:1013F4000319D529013A0319D929033A0319E32911
:10140400013A0319ED29062A701F3F2AF01F2F2ADB
:10141400323083120313A400A501F7220A128A159D
:10142400F01383160313AB01AC012F2AC830A300B9
:10143400A401A500A6011B260A128A153F2AA301AE
:10144400A401A501A6011B260A128A15E8308312FD
:101454000313EB000330EC003F2A831203136808E4
:10146400003A0319182A013A0319212A033A0319E5
:10147400182A013A0319182A3F2A831203136C0805
:10148400803AE7006308803A6702031D4B2A62082A
:101494006B02031CAF28F11EB02AC8308312031359
:1014A400A300A401A500A6011B260A128A15831213
:1014B40003136C08803AE7006308803A6702031D4F
:1014C400652A62086B020318B02A1330CD220A126F
:1014D4008A152308EB070318EC0A2408EC074E23AB
:1014E4000A128A15003A031D7015701D592AF11746
:1014F4007117A301A401A501A6011B260A128A15CE
:10150400831203133830EB01EC01A300FF30A40075
:101514003830A500FF30A6001B260A128A15831254
:1015240003136C08803AFF007E307F02031D9C2A5F
:1015340071306B02031CA92A1330CD220A128A15BA
:101544002308EB070318EC0A2408EC07912A8312FA
:1015540003136308EC006208EB00592A8312031397
:10156400A301A401A501A6011B260A128A15701E57
:10157400C32A323083120313A400A50171230A1273
:101584008A15F01ECB2A323083120313A400A5015E
:10159400F722F112080083120313A9008E302B23C3
:1015A4000A128A158312031329082B230A128A1597
:1015B40019230A128A15AA0019230A128A15AB00E4
:1015C4006230A6006530A500A50BE62AA60BE62A24
:1015D400EB2A831203132A08A800A7012B08A704E7
:1015E4002808A4002708A30008000F3061260A1267
:1015F4008A1583120313240825040319172B0715CE
:1016040000008312031307110730A7007D30A600E2
:10161400A60B0A2BA70B0A2B013083120313A40277
:101624000030031CA503A502FB2A0030612ED42739
:101634000A128A15031C192B8B137C08903E840014
:1016440083170008A000FC0A0F30FC058B17200844
:10165400080083120313A20083163708013E0F39D2
:101664007D0603192E2B8B133708A03E84008312AA
:101674002208831780008316B70A0F30B7050C16AB
:101684008B1721308312A1007630A000A00B482BC9
:10169400A10B482B000008000930A5008E302B2335
:1016A4000A128A158312031325082B230A128A159A
:1016B40019230A128A15003A031D01346230A4006A
:1016C4006530A300A30B642BA40B642B692B83123A
:1016D40003130D30A50A250203180034502B0D30D6
:1016E40061260A128A158312031324082504031998
:1016F400912B071500008312031307110730A7006D
:101704007D30A600A60B842BA70B842B01308312FB
:101714000313A4020030031CA503A502752B00309B
:10172400612E83169030D701D801DC01DD01B301AD
:10173400B4018312E2000130E3000A128A119E20F0
:101744000A128A158316031332088312A50083161E
:1017540031088312A40071230A128A150D308312F2
:101764000313EA00AF30E900C130E800E80BB82BFE
:10177400E90BB82BEA0BB82B0000003083160313D7
:101784003202C930031931026430031CFF2B831267
:10179400A6009030A701A0000130A10083163108F3
:1017A4008312A002831632088312031CA103A10230
:1017B4005A30A200A3010A128A11F2250A128A15CC
:1017C4002108A9002008A8000A168A1574270A12FD
:1017D4008A1527088316DA00831226088316D9008F
:1017E400C8308312A3003830A401A500FF30A6003E
:1017F4001B260A128A1572112E2C8312A600A70129
:10180400831632088312A100831631088312A000C4
:101814005A30A200A3010A128A11F2250A128A156B
:101824002108A9002008A8000A168A1574270A129C
:101834008A1527088316DA00831226088316D9002E
:1018440038308312A300FF30A400C830A500A601DD
:101854001B260A128A157215831603135808803A38
:101864008312E80083165A08803A83126802031D23
:101874003E2C8316590857020318552C1430CD22D8
:101884000A128A152408AD002308AC0040260A1267
:101894008A152C088316D7070318D80A83122D0833
:1018A4008316D8072E2C83120313A301A401A501C8
:1018B400A6011B260A128A15903083120313A40072
:1018C4000130A500831631088312A402831632085E
:1018D4008312031CA503A50271230A128A15C830BA
:1018E40083120313A300A401A500A6011B260A1258
:1018F4008A150030831603135D02333003195C022A
:10190400031CA02C80260A128A152108D500200861
:10191400D4009F260A128A1555088316DD00831207
:1019240054088316DC005D088312B50083165C0836
:101934008312B4004E260A128A157B2C8312A3014B
:10194400A401A501A6011B260A128A15721DB62C34
:10195400C83083120313A3003830A401A500FF305C
:10196400A6001B260A128A157219C42C3830831259
:101974000313A300FF30A400C830A500A6011B2652
:101984000A128A1583160313D901DA015A08803A18
:10199400FF0080307F02031DD12C5A3059020318F6
:1019A400E82C1430CD220A128A152408AD0023082D
:1019B400AC0040260A128A152C088316D90703188E
:1019C400DA0A83122D088316DA07C82C831203134C
:1019D400A301A401A501A6011B260A128A15721DE2
:1019E400FB2C323083120313A400A50171230A12C5
:1019F4008A157219052D323083120313A400A50130
:101A0400F7220A128A15701083160313AD01AE0172
:101A140083160313DB0180260A128A152108D500D8
:101A24002008D4009F260A128A1555088316DD0063
:101A3400831254088316DC005D088312B5008316F4
:101A44005C088312B4004E260A128A157018FE2D03
:101A5400003083165D02473003195C02031C392DE4
:101A640015302E027C3003192D020318DB010030DF
:101A74005D02473003195C02031C492D15302E0208
:101A84007C3003192D020318492DDB01DB0A0030D9
:101A94005D02303003195C020318522D0230DB0062
:101AA40000305D02303003195C02031C622D0030EB
:101AB4005D02473003195C020318622D0330DB001A
:101AC4007219962DA42DB0308312A300FF30A40008
:101AD400C830A500A6011B260A128A15A42D96302B
:101AE4008312A300C830A401A500A6011B260A1274
:101AF4008A15A42DC8308312A300A630A401A50022
:101B0400FF30A6001B260A128A1583160313AD01A3
:101B1400AE01A42DC8308312A300A401A500A60120
:101B24001B260A128A15A42D5B08003A0319652D99
:101B3400013A0319712D033A03197C2D013A031953
:101B44008C2DA42D721DD82DE82DC8308312A3002E
:101B5400B030A401A500FF30A6001B260A128A1586
:101B6400E82DC8308312A3009630A401A500A60175
:101B74001B260A128A15E82DA6308312A300FF3013
:101B8400A400C830A500A6011B260A128A158316D4
:101B94000313AD01AE01E82DC8308312A300A401E4
:101BA400A500A6011B260A128A15E82D8316031325
:101BB4005B08003A0319A72D013A0319B32D033A20
:101BC4000319BE2D013A0319CE2DE82D0730B6278F
:101BD4000A128A15003A031DFD2D4E230A128A1596
:101BE400003A031DFD2D0D300A168A1509270A1225
:101BF4008A15003A031D7014721D701C0B2EB03030
:101C0400A300FF30A400C830A500A6011B260A12B9
:101C14008A157219701C0A2DC83083120313A3008D
:101C2400B030A401A500FF30A6001B260A128A15B5
:101C34000A2DA801A901AA012408A7002308A800C5
:101C44002608A9002508AA0091302B230A128A1518
:101C54008312031327082B230A128A1583120313F2
:101C640028082B230A128A158312031329082B230D
:101C74000A128A15831203132A082B2BAD1F08009E
:101C84002C09AE002D09AF00AE0A0319AF0A2E08C5
:101C9400AC002F08AD00080000300A128A11D024CD
:101CA4000A128A15831203133508AD003408AC00F8
:101CB4000A128A11312525300A128A11162D83122F
:101CC4000313A3004130A100EE30A000A00B682E46
:101CD400A10B682E0000831203138C1123089300B8
:101CE4008C1D722E13088C114130A100EE30A0001F
:101CF400A00B7A2EA10B7A2E000008008312031386
:101D04001F151F19832E1E08A300A4010310A30D81
:101D1400A40D0310A30DA40D83161E088312A200A4
:101D240006300310A20CFF3E031D932E2208A304C9
:101D34002408A1002308A00008005508803AFF00E9
:101D440081307F02031DA82EF5305402031CCE2ED1
:101D5400831203135508A9005408A8002F27280844
:101D6400AF002908B0002A08B1000D30AC00BC3027
:101D7400AD00C330AE000A128A113E260A128A153B
:101D84002C08BB002D08BC002E08BD008030B80014
:101D94001D30B9004530F02E831203135508A900F5
:101DA4005408A8002F272808AF002908B0002A08E3
:101DB400B100F030AC01AD00C030AE000A128A119F
:101DC4003E260A128A152C08BB002D08BC002E08DA
:101DD400BD000C30B8003A30B9004630BA004C2788
:101DE4000A128A153808D6003908D7003A08D800EC
:101DF4008030BB01BC003F30BD005608B800570816
:101E0400B9005808BA004C273808C7003908C80078
:101E14003A08C9000A168A159E270A128A15480824
:101E2400DA004708D9005A08803AFF0080307F0260
:101E3400031D1E2FAB3059020318242F83120313E2
:101E4400DA1F2A2FAA3083120313D400D501080005
:101E54005A08D5005908D4000800AB01A91F392F2E
:101E6400A809A909A80A0319A90AAB01AB0A2808F9
:101E7400A0002908A1008E30A201A3002B08A40011
:101E84000A128A11FE262008A8002108A9002208A7
:101E9400AA0008003B08BE003C08BF003D08C00083
:101EA40003103F0D400DC5004508031D5D2FB8010B
:101EB400B901BA0108003808BE003908BF003A0861
:101EC400C00003103F0D400DC6004608031D6E2FD1
:101ED400B801B901BA0108008930C201C301C401C3
:101EE4004607BE00C5023D08C6003A08C606803053
:101EF400C6051830BC17BD01B917BA01C1000310DB
:101F0400C20DC30DC40D3A083D02031D8F2F3908BD
:101F14003C02031D8F2F38083B02031C9D2F3808F9
:101F2400BB023908031C390FBC023A08031C3A0AE5
:101F3400BD0242140310BB0DBC0DBD0DC10B812F9E
:101F44004208A0004308A1004408A2004508A300D9
:101F54004608A4000A128A11FE262008B8002108A7
:101F6400B9002208BA00080083120313A5008E30BA
:101F74002B230A128A158312031325082B230A1212
:101F84008A1519230A128A15A6006230A400653046
:101F9400A300A30BCB2FA40BCB2FD02F831203139F
:101FA4002608080083120313981CDC2F1812181635
:101FB400031008007B087C060319DA2F03140800B9
:101FC40083120313A3003830A401A500FF30A60038
:101FD4000800831203133108AD003008AC00080078
:101FE4002C08B5070318B60A2D08B6070800A30085
:0C1FF400FF30A400C830A500A6010800C2
:10200C008312B9000530BD01A0003408AF260A16B2
:10201C008A11B93E3507BA000530A0003908AF2641
:10202C000A168A11B93E3307BC00BB01B7013A0648
:10203C0003190034A7210A168A113908A3003308A2
:10204C00A4006430D4260A168A113408A30035087B
:10205C00A400C830D4260A168A111430A000B0305F
:10206C00C6260A168A111430A000C430C6260A16D9
:10207C008A11233084008316200883138000840A7D
:10208C0021088000840A22088000840A230880002A
:10209C00840A2408800083123908A8003308A90098
:1020AC00FF210A168A113C087B270A168A1183160F
:1020BC000317440803190729FF3083120313B800D0
:1020CC00BE013E08C43E840083170008031987280C
:1020DC003E08C43E840000088400380883130002C4
:1020EC00031887283E08C43E840083170008840028
:1020FC0083130008B8003E08C43E84008317000810
:10210C00BD001430BE0A3E02031C67283D080A12AB
:10211C008A11E9270A168A11A301A30A3D0813277D
:10212C000A168A118316A50002308312A3003D08FB
:10213C0013270A168A118316A60003308312A300F4
:10214C003D0813270A168A118316A7000430831240
:10215C00A3003D0813270A168A118316A8008312C0
:10216C003A08A3003C08A4003408A5003508A600D2
:10217C008316250827210A168A11B600831625080E
:10218C0004270A168A11260827210A168A11B60076
:10219C008316260804270A168A11270827210A16EF
:1021AC008A11B6008316270804270A168A112808F4
:1021BC0027210A168A11B600831628088400831278
:1021CC003608831380003708031D0029831628085E
:1021DC008312A300831627088312A20083162608F5
:1021EC008312A100831625088312A0009D270A16CE
:1021FC008A11BB00831625088400C8300006031D15
:10220C000B29831203133B08080026088400C830EE
:10221C0000060319072927088400C8300006031993
:10222C00072928088400C8300006031907298312DF
:10223C003D08DE270A168A15EA260A168A11B70AFD
:10224C005D288312B200A801A80AAB01AC01AD0154
:10225C0071108400FE30831300060319FE3432081B
:10226C008400000F3A29FF3432088400FD30000648
:10227C000319FD3432088400FC3000060319FC34C9
:10228C0032088400FB3000060319FB343208D63ABE
:10229C000319FF34320823060319C8343208240604
:1022AC0003196434B001B1010530A0003008AF2629
:1022BC000A168A11B93E3107A7003206031D6B2995
:1022CC003008AC003108AD0070290530B10A31027C
:1022DC00031C5A290430B00A3002031C5929250862
:1022EC002C02AA0026082D02AB00BE260A168A1163
:1022FC00A7002A08BE260A168A1127072807A90054
:10230C00AE012E08C43E8400320883170006031960
:10231C0071141430AE0A2E02031C8729AF012F084A
:10232C00B03E840032080006031971141430AF0A51
:10233C002F02031C95297118A52932087B2729081F
:10234C000800A401A5010530A0002408AF260A1638
:10235C008A11B93E2507A3008400FE3083130006C2
:10236C0005300319F429A0002408AF260A168A1197
:10237C00B93E2507A3008400FB3083130006031924
:10238C00F329711FE7290530A0002408AF260A168F
:10239C008A11B93E2507A3008400FD308313000683
:1023AC0005300319F429A0002408AF260A168A1157
:1023BC00B93E2507A3008400FC30831300060319E3
:1023CC00F3290530A0002408AF260A168A11B93E5D
:1023DC002507A3008400831380010530A50A25027C
:1023EC00031CA9290430A40A2402031CA829711374
:1023FC000800CE30A300D230A400D430A500D030D9
:10240C00A600831651088312A700A02E28080319D2
:10241C00552A2308840064300002031C1B2A23085D
:10242C008400FA300006031D552A0530A000280848
:10243C00AF260A168A11B43EE8260A168A11031929
:10244C00552A0530A0002808AF260A168A11B43E7A
:10245C00F6260A168A110319552A0530A0002808F9
:10246C00AF260A168A11B43EFD260A168A110319E4
:10247C00552A0530A0002808AF260A168A11B43E4A
:10248C00EF260A168A110319552A0530A0002808D0
:10249C00AF260A168A11B43EE1260A168A110430B8
:1024AC00290203189F2A2408840064300002031CAC
:1024BC00652A24088400FA300006031D9F2A053083
:1024CC00A0002808AF260A168A11BA3EE8260A167A
:1024DC008A1103199F2A0530A0002808AF260A1676
:1024EC008A11BA3EF6260A168A1103199F2A05305C
:1024FC00A0002808AF260A168A11BA3EFD260A1635
:10250C008A1103199F2A0530A0002808AF260A1645
:10251C008A11BA3EEF260A168A1103199F2A053032
:10252C00A0002808AF260A168A11BA3EE1260A1620
:10253C008A11033028020318E92A25088400643024
:10254C000002031CAF2A25088400FA300006031D84
:10255C00E92A0530A0002808AF260A168A11BE3ECB
:10256C00E8260A168A110319E92A0530A000280862
:10257C00AF260A168A11BE3EF6260A168A110319D0
:10258C00E92A0530A0002808AF260A168A11BE3E9B
:10259C00FD260A168A110319E92A0530A00028081D
:1025AC00AF260A168A11BE3EEF260A168A110319A7
:1025BC00E92A0530A0002808AF260A168A11BE3E6B
:1025CC00E1260A168A112908031908002608840036
:1025DC0064300002031CF82A26088400FA30000636
:1025EC00031D08000530A0002808AF260A168A1122
:1025FC00B83EE8260A168A11031908000530A00017
:10260C002808AF260A168A11B83EF6260A168A1131
:10261C00031908000530A0002808AF260A168A11F5
:10262C00B83EFD260A168A11031908000530A000D1
:10263C002808AF260A168A11B83EEF260A168A1108
:10264C00031908000530A0002808AF260A168A11C5
:10265C00B83EE12608000430290203187B2B23081E
:10266C00840064300002031C412B23088400FA30E0
:10267C000006031D7B2B0530A0002808AF260A1688
:10268C008A11BA3EE8260A168A1103197B2B0530EB
:10269C00A0002808AF260A168A11BA3EF6260A169A
:1026AC008A1103197B2B0530A0002808AF260A16C7
:1026BC008A11BA3EFD260A168A1103197B2B0530A6
:1026CC00A0002808AF260A168A11BA3EEF260A1671
:1026DC008A1103197B2B0530A0002808AF260A1697
:1026EC008A11BA3EE1260A168A1103302802031811
:1026FC00C52B2408840064300002031C8B2B240897
:10270C008400FA300006031DC52B0530A0002808F4
:10271C00AF260A168A11BE3EE8260A168A1103193C
:10272C00C52B0530A0002808AF260A168A11BE3E1C
:10273C00F6260A168A110319C52B0530A0002808A5
:10274C00AF260A168A11BE3EFD260A168A110319F7
:10275C00C52B0530A0002808AF260A168A11BE3EEC
:10276C00EF260A168A110319C52B0530A00028087C
:10277C00AF260A168A11BE3EE1260A168A112908CE
:10278C0003190E2C2508840064300002031CD42B82
:10279C0025088400FA300006031D0E2C0530A0001D
:1027AC002808AF260A168A11B83EE8260A168A119E
:1027BC0003190E2C0530A0002808AF260A168A1122
:1027CC00B83EF6260A168A1103190E2C0530A00005
:1027DC002808AF260A168A11B83EFD260A168A1159
:1027EC0003190E2C0530A0002808AF260A168A11F2
:1027FC00B83EEF260A168A1103190E2C0530A000DC
:10280C002808AF260A168A11B83EE1260A168A1144
:10281C002808031908002608840064300002031CF1
:10282C001D2C26088400FA300006031D0800053014
:10283C00A0002808AF260A168A11B43EE8260A160C
:10284C008A11031908000530A0002808AF260A16C3
:10285C008A11B43EF6260A168A11031908000530AF
:10286C00A0002808AF260A168A11B43EFD260A16C7
:10287C008A11031908000530A0002808AF260A1693
:10288C008A11B43EEF260A168A1103190800053086
:10289C00A0002808AF260A168A11B43EE1260800CB
:1028AC00033028020318A02C230884006430000293
:1028BC00031C662C23088400FA300006031DA02C90
:1028CC000530A0002808AF260A168A11BE3EE8265D
:1028DC000A168A110319A02C0530A0002808AF266F
:1028EC000A168A11BE3EF6260A168A110319A02C66
:1028FC000530A0002808AF260A168A11BE3EFD2618
:10290C000A168A110319A02C0530A0002808AF263E
:10291C000A168A11BE3EEF260A168A110319A02C3C
:10292C000530A0002808AF260A168A11BE3EE12603
:10293C000A168A1129080319E92C2408840064302A
:10294C000002031CAF2C24088400FA300006031D7F
:10295C00E92C0530A0002808AF260A168A11B83ECB
:10296C00E8260A168A110319E92C0530A00028085C
:10297C00AF260A168A11B83EF6260A168A110319D2
:10298C00E92C0530A0002808AF260A168A11B83E9B
:10299C00FD260A168A110319E92C0530A000280817
:1029AC00AF260A168A11B83EEF260A168A110319A9
:1029BC00E92C0530A0002808AF260A168A11B83E6B
:1029CC00E1260A168A1128080319322D25088400DD
:1029DC0064300002031CF82C25088400FA30000631
:1029EC00031D322D0530A0002808AF260A168A11C7
:1029FC00B43EE8260A168A110319322D0530A000C0
:102A0C002808AF260A168A11B43EF6260A168A1131
:102A1C000319322D0530A0002808AF260A168A119A
:102A2C00B43EFD260A168A110319322D0530A0007A
:102A3C002808AF260A168A11B43EEF260A168A1108
:102A4C000319322D0530A0002808AF260A168A116A
:102A5C00B43EE1260A168A11043029020318080034
:102A6C002608840064300002031C422D26088400D2
:102A7C00FA300006031D08000530A0002808AF2618
:102A8C000A168A11BA3EE8260A168A11031908009A
:102A9C000530A0002808AF260A168A11BA3EF62681
:102AAC000A168A11031908000530A0002808AF2661
:102ABC000A168A11BA3EFD260A168A110319080055
:102ACC000530A0002808AF260A168A11BA3EEF2658
:102ADC000A168A11031908000530A0002808AF2631
:102AEC000A168A11BA3EE126080029080319C42DDA
:102AFC002308840064300002031C8A2D2308840000
:102B0C00FA300006031DC42D0530A0002808AF269E
:102B1C000A168A11B83EE8260A168A110319C42D22
:102B2C000530A0002808AF260A168A11B83EF626F2
:102B3C000A168A110319C42D0530A0002808AF26E7
:102B4C000A168A11B83EFD260A168A110319C42DDD
:102B5C000530A0002808AF260A168A11B83EEF26C9
:102B6C000A168A110319C42D0530A0002808AF26B7
:102B7C000A168A11B83EE1260A168A11280803198A
:102B8C000D2E2408840064300002031CD32D24086D
:102B9C008400FA300006031D0D2E0530A000280815
:102BAC00AF260A168A11B43EE8260A168A110319B2
:102BBC000D2E0530A0002808AF260A168A11B43E47
:102BCC00F6260A168A1103190D2E0530A0002808C6
:102BDC00AF260A168A11B43EFD260A168A1103196D
:102BEC000D2E0530A0002808AF260A168A11B43E17
:102BFC00EF260A168A1103190D2E0530A00028089D
:102C0C00AF260A168A11B43EE1260A168A11043040
:102C1C0029020318572E2508840064300002031C77
:102C2C001D2E25088400FA300006031D572E053092
:102C3C00A0002808AF260A168A11BA3EE8260A1602
:102C4C008A110319572E0530A0002808AF260A1642
:102C5C008A11BA3EF6260A168A110319572E053028
:102C6C00A0002808AF260A168A11BA3EFD260A16BD
:102C7C008A110319572E0530A0002808AF260A1612
:102C8C008A11BA3EEF260A168A110319572E0530FF
:102C9C00A0002808AF260A168A11BA3EE1260A16A9
:102CAC008A110330280203180800260884006430B7
:102CBC000002031C672E26088400FA300006031D50
:102CCC0008000530A0002808AF260A168A11BE3E5F
:102CDC00E8260A168A11031908000530A0002808F6
:102CEC00AF260A168A11BE3EF6260A168A11031959
:102CFC0008000530A0002808AF260A168A11BE3E2F
:102D0C00FD260A168A11031908000530A0002808B0
:102D1C00AF260A168A11BE3EEF260A168A1103192F
:102D2C0008000530A0002808AF260A168A11BE3EFE
:102D3C00E12608002708013A03190C2A033A031963
:102D4C00312B013A0319562C073A03197B2DAE2E61
:102D5C0008008312A200A10120082218A107031069
:102D6C00A00D0310A20C2208031DB22E210808008E
:102D7C00A000A01FC42E2003FF3A08002008080062
:102D8C00A200A3012008230203180800230822072D
:102D9C00A100840083178001A30AC82EA600053069
:102DAC00A0002308AF26B93E2407A50084002608FE
:102DBC008313800008002907AA008400FF308313C6
:102DCC00800008002907AA008400FE308313000647
:102DDC0008002907AA008400FB30831300060800B2
:102DEC002907AA008400FD30831300060800290778
:102DFC00AA008400FC3083130006080084008312B0
:102E0C003608831380003A08A3003C08A400340859
:102E1C00A5003508A60083160800A500A601A70189
:102E2C000530A0002608AF260A168A11B93E2707DE
:102E3C00A4002506031D702F2608031D322F230B1B
:102E4C00322FD634033023060319D634362F0430F0
:102E5C0023060319D634392F033026060319282FDD
:102E6C00270803192D2F04302706031D622F02306B
:102E7C0023060319D634622F0530A603A0002608BA
:102E8C00AF26B93E270708000530A70AA000260880
:102E9C00AF26B93E270708000530A60AA000260871
:102EAC00AF26B93E270708000530A703A000260867
:102EBC00AF26B93E270708002308013A0319422F11
:102ECC00033A03194A2F013A0319522F073A0319EF
:102EDC005A2F702F0530A70A2702031C162F043017
:102EEC00A60A26020318D634152FA000A10121082A
:102EFC00C43E840083170008200603190800143010
:102F0C00A10A2102031C7D2FA2012208C43E8400C9
:102F1C000008031D972F2208C43E8400200880005F
:102F2C0008001430A20A2202031808008B2FFF306D
:102F3C00A900A401200884000008A5002108840031
:102F4C000008A600220884000008A70023088400BB
:102F5C000008A800AA012A08253E8400C8300006F3
:102F6C00031DBB2F2A08013E08002A08253E8400B9
:102F7C00643000020318D12F2A08253E840029084A
:102F8C0000020318D12F2A08253E84000008A9004E
:102F9C002A08013EA4000430AA0A2A02031CB12FFD
:102FAC00FB302902031CDC2FFF30A400240808008E
:102FBC00A000A1012108B03E840083170008200660
:102FCC00031908001430A10A2102031CE02FA201EE
:102FDC002208B03E84000008031DFA2F2208B03EE0
:102FEC0084002008800008001430A20A2202031872
:102FFC000800EE2F18308A000408840A8207003477
:10300C006D346D3420346434723469347634653400
:10301C006E342034203420342034003430346D3479
:10302C006D342034643472346934763465346E34DF
:10303C000034203464346934723465346334743449
:10304C0069346F346E34003463346D342034493455
:10305C0052342034203420342034203400342034B2
:10306C0064346934723400346D344134683400345F
:0A307C006D34563400342F34003454
:103DC40064008001840A0406031900340406E32E07
:103DD400A1012108C43E84000008031D032F1330F1
:103DE40021020318032F2108C53E84000008A00007
:103DF4002108C43E8400200880002108C53E8400B8
:103E040080011430A10A210203180800EB2EA5003A
:103E14008E300A128A152B230A168A15831203136D
:103E240025080A128A152B230A168A150A128A15DE
:103E340019230A168A15A6006230A4006530A3006F
:103E4400A30B222FA40B222F272F83120313260840
:103E540008000A128A1133200A168A1583160313DE
:103E640034088312E300831633088312E2000A1233
:103E74008A112B200A168A15F11C462F0A128A1160
:103E840096220A168A15F110711D302F0A128A150E
:103E940093230A168A157111302FA5008E300A1249
:103EA4008A152B230A168A158312031325080A126E
:103EB4008A152B230A168A150A128A1519230A163B
:103EC4008A15A6006230A4006530A300A30B682FF6
:103ED400A40B682F6D2FF1308312031326020318ED
:103EE40001340034AA01AB01260827040319992FD1
:103EF400AC01AC0AA71B822F0310A60DA70D7B2FC4
:103F04000310AA0DAB0D27082902031D8B2F2608C9
:103F14002802031C952F2608A8022708031CA903BE
:103F2400A9022A140310A70CA60CAC0B822F2B0891
:103F3400A7002A08A6000800F9270A168A15031004
:103F44004C0D4D0DD3005308031DAD2FC701C801FF
:103F5400C901CA010800F9270A168A151730031087
:103F6400CD0CCC0CCB0CFF3E031DB12F4B08CE0067
:103F7400C817C9014708CF004808D0004908D10034
:103F84008E30D201D302D31FD42F5308803A8F3EF0
:103F9400031CA82F0310D20CD10CD00CCF0CD30FC0
:103FA400CC2FE22F183053020318A82F53080319FB
:103FB400E22F0310CF0DD00DD10DD20DD303D82F86
:103FC4004E080319F02FCF09D009D109D209CF0A1D
:103FD4000319D00A0319D10A0319D20A5208CA00D4
:103FE4005108C9005008C8004F08C7000800470816
:0C3FF400CB004808CC004908CD000800B4
:02400E003A3F37
:00000001FF
